{
	"contracts/Pool.sol": {
		"Pool": {
			"abi": [
				{
					"inputs": [
						{
							"internalType": "address",
							"name": "_satoken",
							"type": "address"
						}
					],
					"stateMutability": "nonpayable",
					"type": "constructor"
				},
				{
					"inputs": [
						{
							"internalType": "address",
							"name": "target",
							"type": "address"
						}
					],
					"name": "AddressEmptyCode",
					"type": "error"
				},
				{
					"inputs": [
						{
							"internalType": "address",
							"name": "account",
							"type": "address"
						}
					],
					"name": "AddressInsufficientBalance",
					"type": "error"
				},
				{
					"inputs": [],
					"name": "DEPRECATED_FUNCTION",
					"type": "error"
				},
				{
					"inputs": [
						{
							"internalType": "address",
							"name": "spender",
							"type": "address"
						},
						{
							"internalType": "uint256",
							"name": "allowance",
							"type": "uint256"
						},
						{
							"internalType": "uint256",
							"name": "needed",
							"type": "uint256"
						}
					],
					"name": "ERC20InsufficientAllowance",
					"type": "error"
				},
				{
					"inputs": [
						{
							"internalType": "address",
							"name": "sender",
							"type": "address"
						},
						{
							"internalType": "uint256",
							"name": "balance",
							"type": "uint256"
						},
						{
							"internalType": "uint256",
							"name": "needed",
							"type": "uint256"
						}
					],
					"name": "ERC20InsufficientBalance",
					"type": "error"
				},
				{
					"inputs": [
						{
							"internalType": "address",
							"name": "approver",
							"type": "address"
						}
					],
					"name": "ERC20InvalidApprover",
					"type": "error"
				},
				{
					"inputs": [
						{
							"internalType": "address",
							"name": "receiver",
							"type": "address"
						}
					],
					"name": "ERC20InvalidReceiver",
					"type": "error"
				},
				{
					"inputs": [
						{
							"internalType": "address",
							"name": "sender",
							"type": "address"
						}
					],
					"name": "ERC20InvalidSender",
					"type": "error"
				},
				{
					"inputs": [
						{
							"internalType": "address",
							"name": "spender",
							"type": "address"
						}
					],
					"name": "ERC20InvalidSpender",
					"type": "error"
				},
				{
					"inputs": [
						{
							"internalType": "address",
							"name": "receiver",
							"type": "address"
						},
						{
							"internalType": "uint256",
							"name": "assets",
							"type": "uint256"
						},
						{
							"internalType": "uint256",
							"name": "max",
							"type": "uint256"
						}
					],
					"name": "ERC4626ExceededMaxDeposit",
					"type": "error"
				},
				{
					"inputs": [
						{
							"internalType": "address",
							"name": "receiver",
							"type": "address"
						},
						{
							"internalType": "uint256",
							"name": "shares",
							"type": "uint256"
						},
						{
							"internalType": "uint256",
							"name": "max",
							"type": "uint256"
						}
					],
					"name": "ERC4626ExceededMaxMint",
					"type": "error"
				},
				{
					"inputs": [
						{
							"internalType": "address",
							"name": "owner",
							"type": "address"
						},
						{
							"internalType": "uint256",
							"name": "shares",
							"type": "uint256"
						},
						{
							"internalType": "uint256",
							"name": "max",
							"type": "uint256"
						}
					],
					"name": "ERC4626ExceededMaxRedeem",
					"type": "error"
				},
				{
					"inputs": [
						{
							"internalType": "address",
							"name": "owner",
							"type": "address"
						},
						{
							"internalType": "uint256",
							"name": "assets",
							"type": "uint256"
						},
						{
							"internalType": "uint256",
							"name": "max",
							"type": "uint256"
						}
					],
					"name": "ERC4626ExceededMaxWithdraw",
					"type": "error"
				},
				{
					"inputs": [],
					"name": "FailedInnerCall",
					"type": "error"
				},
				{
					"inputs": [],
					"name": "MathOverflowedMulDiv",
					"type": "error"
				},
				{
					"inputs": [
						{
							"internalType": "address",
							"name": "token",
							"type": "address"
						}
					],
					"name": "SafeERC20FailedOperation",
					"type": "error"
				},
				{
					"anonymous": false,
					"inputs": [
						{
							"indexed": true,
							"internalType": "address",
							"name": "owner",
							"type": "address"
						},
						{
							"indexed": true,
							"internalType": "address",
							"name": "spender",
							"type": "address"
						},
						{
							"indexed": false,
							"internalType": "uint256",
							"name": "value",
							"type": "uint256"
						}
					],
					"name": "Approval",
					"type": "event"
				},
				{
					"anonymous": false,
					"inputs": [
						{
							"indexed": true,
							"internalType": "address",
							"name": "sender",
							"type": "address"
						},
						{
							"indexed": true,
							"internalType": "address",
							"name": "owner",
							"type": "address"
						},
						{
							"indexed": false,
							"internalType": "uint256",
							"name": "assets",
							"type": "uint256"
						},
						{
							"indexed": false,
							"internalType": "uint256",
							"name": "shares",
							"type": "uint256"
						}
					],
					"name": "Deposit",
					"type": "event"
				},
				{
					"anonymous": false,
					"inputs": [
						{
							"indexed": true,
							"internalType": "address",
							"name": "from",
							"type": "address"
						},
						{
							"indexed": true,
							"internalType": "address",
							"name": "to",
							"type": "address"
						},
						{
							"indexed": false,
							"internalType": "uint256",
							"name": "value",
							"type": "uint256"
						}
					],
					"name": "Transfer",
					"type": "event"
				},
				{
					"anonymous": false,
					"inputs": [
						{
							"indexed": true,
							"internalType": "address",
							"name": "sender",
							"type": "address"
						},
						{
							"indexed": true,
							"internalType": "address",
							"name": "receiver",
							"type": "address"
						},
						{
							"indexed": true,
							"internalType": "address",
							"name": "owner",
							"type": "address"
						},
						{
							"indexed": false,
							"internalType": "uint256",
							"name": "assets",
							"type": "uint256"
						},
						{
							"indexed": false,
							"internalType": "uint256",
							"name": "shares",
							"type": "uint256"
						}
					],
					"name": "Withdraw",
					"type": "event"
				},
				{
					"inputs": [
						{
							"internalType": "address",
							"name": "owner",
							"type": "address"
						},
						{
							"internalType": "address",
							"name": "spender",
							"type": "address"
						}
					],
					"name": "allowance",
					"outputs": [
						{
							"internalType": "uint256",
							"name": "",
							"type": "uint256"
						}
					],
					"stateMutability": "view",
					"type": "function"
				},
				{
					"inputs": [
						{
							"internalType": "address",
							"name": "spender",
							"type": "address"
						},
						{
							"internalType": "uint256",
							"name": "value",
							"type": "uint256"
						}
					],
					"name": "approve",
					"outputs": [
						{
							"internalType": "bool",
							"name": "",
							"type": "bool"
						}
					],
					"stateMutability": "nonpayable",
					"type": "function"
				},
				{
					"inputs": [],
					"name": "asset",
					"outputs": [
						{
							"internalType": "address",
							"name": "",
							"type": "address"
						}
					],
					"stateMutability": "view",
					"type": "function"
				},
				{
					"inputs": [
						{
							"internalType": "address",
							"name": "account",
							"type": "address"
						}
					],
					"name": "balanceOf",
					"outputs": [
						{
							"internalType": "uint256",
							"name": "",
							"type": "uint256"
						}
					],
					"stateMutability": "view",
					"type": "function"
				},
				{
					"inputs": [
						{
							"internalType": "uint256",
							"name": "shares",
							"type": "uint256"
						}
					],
					"name": "convertToAssets",
					"outputs": [
						{
							"internalType": "uint256",
							"name": "",
							"type": "uint256"
						}
					],
					"stateMutability": "view",
					"type": "function"
				},
				{
					"inputs": [
						{
							"internalType": "uint256",
							"name": "assets",
							"type": "uint256"
						}
					],
					"name": "convertToShares",
					"outputs": [
						{
							"internalType": "uint256",
							"name": "",
							"type": "uint256"
						}
					],
					"stateMutability": "view",
					"type": "function"
				},
				{
					"inputs": [],
					"name": "decimals",
					"outputs": [
						{
							"internalType": "uint8",
							"name": "",
							"type": "uint8"
						}
					],
					"stateMutability": "view",
					"type": "function"
				},
				{
					"inputs": [
						{
							"internalType": "uint256",
							"name": "assets",
							"type": "uint256"
						},
						{
							"internalType": "address",
							"name": "receiver",
							"type": "address"
						}
					],
					"name": "deposit",
					"outputs": [
						{
							"internalType": "uint256",
							"name": "",
							"type": "uint256"
						}
					],
					"stateMutability": "nonpayable",
					"type": "function"
				},
				{
					"inputs": [
						{
							"internalType": "address",
							"name": "",
							"type": "address"
						}
					],
					"name": "maxDeposit",
					"outputs": [
						{
							"internalType": "uint256",
							"name": "",
							"type": "uint256"
						}
					],
					"stateMutability": "view",
					"type": "function"
				},
				{
					"inputs": [
						{
							"internalType": "address",
							"name": "",
							"type": "address"
						}
					],
					"name": "maxMint",
					"outputs": [
						{
							"internalType": "uint256",
							"name": "",
							"type": "uint256"
						}
					],
					"stateMutability": "view",
					"type": "function"
				},
				{
					"inputs": [
						{
							"internalType": "address",
							"name": "owner",
							"type": "address"
						}
					],
					"name": "maxRedeem",
					"outputs": [
						{
							"internalType": "uint256",
							"name": "",
							"type": "uint256"
						}
					],
					"stateMutability": "view",
					"type": "function"
				},
				{
					"inputs": [
						{
							"internalType": "address",
							"name": "owner",
							"type": "address"
						}
					],
					"name": "maxWithdraw",
					"outputs": [
						{
							"internalType": "uint256",
							"name": "",
							"type": "uint256"
						}
					],
					"stateMutability": "view",
					"type": "function"
				},
				{
					"inputs": [
						{
							"internalType": "uint256",
							"name": "shares",
							"type": "uint256"
						},
						{
							"internalType": "address",
							"name": "receiver",
							"type": "address"
						}
					],
					"name": "mint",
					"outputs": [
						{
							"internalType": "uint256",
							"name": "",
							"type": "uint256"
						}
					],
					"stateMutability": "nonpayable",
					"type": "function"
				},
				{
					"inputs": [],
					"name": "name",
					"outputs": [
						{
							"internalType": "string",
							"name": "",
							"type": "string"
						}
					],
					"stateMutability": "view",
					"type": "function"
				},
				{
					"inputs": [
						{
							"internalType": "uint256",
							"name": "assets",
							"type": "uint256"
						}
					],
					"name": "previewDeposit",
					"outputs": [
						{
							"internalType": "uint256",
							"name": "",
							"type": "uint256"
						}
					],
					"stateMutability": "view",
					"type": "function"
				},
				{
					"inputs": [
						{
							"internalType": "uint256",
							"name": "shares",
							"type": "uint256"
						}
					],
					"name": "previewMint",
					"outputs": [
						{
							"internalType": "uint256",
							"name": "",
							"type": "uint256"
						}
					],
					"stateMutability": "view",
					"type": "function"
				},
				{
					"inputs": [
						{
							"internalType": "uint256",
							"name": "shares",
							"type": "uint256"
						}
					],
					"name": "previewRedeem",
					"outputs": [
						{
							"internalType": "uint256",
							"name": "",
							"type": "uint256"
						}
					],
					"stateMutability": "view",
					"type": "function"
				},
				{
					"inputs": [
						{
							"internalType": "uint256",
							"name": "assets",
							"type": "uint256"
						}
					],
					"name": "previewWithdraw",
					"outputs": [
						{
							"internalType": "uint256",
							"name": "",
							"type": "uint256"
						}
					],
					"stateMutability": "view",
					"type": "function"
				},
				{
					"inputs": [
						{
							"internalType": "uint256",
							"name": "shares",
							"type": "uint256"
						},
						{
							"internalType": "address",
							"name": "receiver",
							"type": "address"
						},
						{
							"internalType": "address",
							"name": "owner",
							"type": "address"
						}
					],
					"name": "redeem",
					"outputs": [
						{
							"internalType": "uint256",
							"name": "",
							"type": "uint256"
						}
					],
					"stateMutability": "nonpayable",
					"type": "function"
				},
				{
					"inputs": [],
					"name": "satoken",
					"outputs": [
						{
							"internalType": "contract IERC20",
							"name": "",
							"type": "address"
						}
					],
					"stateMutability": "view",
					"type": "function"
				},
				{
					"inputs": [],
					"name": "symbol",
					"outputs": [
						{
							"internalType": "string",
							"name": "",
							"type": "string"
						}
					],
					"stateMutability": "view",
					"type": "function"
				},
				{
					"inputs": [],
					"name": "totalAssets",
					"outputs": [
						{
							"internalType": "uint256",
							"name": "",
							"type": "uint256"
						}
					],
					"stateMutability": "view",
					"type": "function"
				},
				{
					"inputs": [],
					"name": "totalSupply",
					"outputs": [
						{
							"internalType": "uint256",
							"name": "",
							"type": "uint256"
						}
					],
					"stateMutability": "view",
					"type": "function"
				},
				{
					"inputs": [
						{
							"internalType": "address",
							"name": "to",
							"type": "address"
						},
						{
							"internalType": "uint256",
							"name": "value",
							"type": "uint256"
						}
					],
					"name": "transfer",
					"outputs": [
						{
							"internalType": "bool",
							"name": "",
							"type": "bool"
						}
					],
					"stateMutability": "nonpayable",
					"type": "function"
				},
				{
					"inputs": [
						{
							"internalType": "address",
							"name": "from",
							"type": "address"
						},
						{
							"internalType": "address",
							"name": "to",
							"type": "address"
						},
						{
							"internalType": "uint256",
							"name": "value",
							"type": "uint256"
						}
					],
					"name": "transferFrom",
					"outputs": [
						{
							"internalType": "bool",
							"name": "",
							"type": "bool"
						}
					],
					"stateMutability": "nonpayable",
					"type": "function"
				},
				{
					"inputs": [
						{
							"internalType": "uint256",
							"name": "assets",
							"type": "uint256"
						},
						{
							"internalType": "address",
							"name": "receiver",
							"type": "address"
						},
						{
							"internalType": "address",
							"name": "owner",
							"type": "address"
						}
					],
					"name": "withdraw",
					"outputs": [
						{
							"internalType": "uint256",
							"name": "",
							"type": "uint256"
						}
					],
					"stateMutability": "nonpayable",
					"type": "function"
				}
			],
			"devdoc": {
				"errors": {
					"AddressEmptyCode(address)": [
						{
							"details": "There's no code at `target` (it is not a contract)."
						}
					],
					"AddressInsufficientBalance(address)": [
						{
							"details": "The ETH balance of the account is not enough to perform the operation."
						}
					],
					"ERC20InsufficientAllowance(address,uint256,uint256)": [
						{
							"details": "Indicates a failure with the `spender`’s `allowance`. Used in transfers.",
							"params": {
								"allowance": "Amount of tokens a `spender` is allowed to operate with.",
								"needed": "Minimum amount required to perform a transfer.",
								"spender": "Address that may be allowed to operate on tokens without being their owner."
							}
						}
					],
					"ERC20InsufficientBalance(address,uint256,uint256)": [
						{
							"details": "Indicates an error related to the current `balance` of a `sender`. Used in transfers.",
							"params": {
								"balance": "Current balance for the interacting account.",
								"needed": "Minimum amount required to perform a transfer.",
								"sender": "Address whose tokens are being transferred."
							}
						}
					],
					"ERC20InvalidApprover(address)": [
						{
							"details": "Indicates a failure with the `approver` of a token to be approved. Used in approvals.",
							"params": {
								"approver": "Address initiating an approval operation."
							}
						}
					],
					"ERC20InvalidReceiver(address)": [
						{
							"details": "Indicates a failure with the token `receiver`. Used in transfers.",
							"params": {
								"receiver": "Address to which tokens are being transferred."
							}
						}
					],
					"ERC20InvalidSender(address)": [
						{
							"details": "Indicates a failure with the token `sender`. Used in transfers.",
							"params": {
								"sender": "Address whose tokens are being transferred."
							}
						}
					],
					"ERC20InvalidSpender(address)": [
						{
							"details": "Indicates a failure with the `spender` to be approved. Used in approvals.",
							"params": {
								"spender": "Address that may be allowed to operate on tokens without being their owner."
							}
						}
					],
					"ERC4626ExceededMaxDeposit(address,uint256,uint256)": [
						{
							"details": "Attempted to deposit more assets than the max amount for `receiver`."
						}
					],
					"ERC4626ExceededMaxMint(address,uint256,uint256)": [
						{
							"details": "Attempted to mint more shares than the max amount for `receiver`."
						}
					],
					"ERC4626ExceededMaxRedeem(address,uint256,uint256)": [
						{
							"details": "Attempted to redeem more shares than the max amount for `receiver`."
						}
					],
					"ERC4626ExceededMaxWithdraw(address,uint256,uint256)": [
						{
							"details": "Attempted to withdraw more assets than the max amount for `receiver`."
						}
					],
					"FailedInnerCall()": [
						{
							"details": "A call to an address target failed. The target may have reverted."
						}
					],
					"MathOverflowedMulDiv()": [
						{
							"details": "Muldiv operation overflow."
						}
					],
					"SafeERC20FailedOperation(address)": [
						{
							"details": "An operation with an ERC20 token failed."
						}
					]
				},
				"events": {
					"Approval(address,address,uint256)": {
						"details": "Emitted when the allowance of a `spender` for an `owner` is set by a call to {approve}. `value` is the new allowance."
					},
					"Transfer(address,address,uint256)": {
						"details": "Emitted when `value` tokens are moved from one account (`from`) to another (`to`). Note that `value` may be zero."
					}
				},
				"kind": "dev",
				"methods": {
					"allowance(address,address)": {
						"details": "See {IERC20-allowance}."
					},
					"approve(address,uint256)": {
						"details": "See {IERC20-approve}. NOTE: If `value` is the maximum `uint256`, the allowance is not updated on `transferFrom`. This is semantically equivalent to an infinite approval. Requirements: - `spender` cannot be the zero address."
					},
					"asset()": {
						"details": "See {IERC4626-asset}. "
					},
					"balanceOf(address)": {
						"details": "See {IERC20-balanceOf}."
					},
					"convertToAssets(uint256)": {
						"details": "See {IERC4626-convertToAssets}. "
					},
					"convertToShares(uint256)": {
						"details": "See {IERC4626-convertToShares}. "
					},
					"decimals()": {
						"details": "Decimals are computed by adding the decimal offset on top of the underlying asset's decimals. This \"original\" value is cached during construction of the vault contract. If this read operation fails (e.g., the asset has not been created yet), a default of 18 is used to represent the underlying asset's decimals. See {IERC20Metadata-decimals}."
					},
					"deposit(uint256,address)": {
						"details": "See {IERC4626-deposit}. "
					},
					"maxDeposit(address)": {
						"details": "See {IERC4626-maxDeposit}. "
					},
					"maxMint(address)": {
						"details": "See {IERC4626-maxMint}. "
					},
					"maxRedeem(address)": {
						"details": "See {IERC4626-maxRedeem}. "
					},
					"maxWithdraw(address)": {
						"details": "See {IERC4626-maxWithdraw}. "
					},
					"mint(uint256,address)": {
						"details": "See {IERC4626-mint}. As opposed to {deposit}, minting is allowed even if the vault is in a state where the price of a share is zero. In this case, the shares will be minted without requiring any assets to be deposited."
					},
					"name()": {
						"details": "Returns the name of the token."
					},
					"previewDeposit(uint256)": {
						"details": "See {IERC4626-previewDeposit}. "
					},
					"previewMint(uint256)": {
						"details": "See {IERC4626-previewMint}. "
					},
					"previewRedeem(uint256)": {
						"details": "See {IERC4626-previewRedeem}. "
					},
					"previewWithdraw(uint256)": {
						"details": "See {IERC4626-previewWithdraw}. "
					},
					"redeem(uint256,address,address)": {
						"details": "See {IERC4626-redeem}. "
					},
					"symbol()": {
						"details": "Returns the symbol of the token, usually a shorter version of the name."
					},
					"totalAssets()": {
						"details": "See {IERC4626-totalAssets}. "
					},
					"totalSupply()": {
						"details": "See {IERC20-totalSupply}."
					},
					"transfer(address,uint256)": {
						"details": "See {IERC20-transfer}. Requirements: - `to` cannot be the zero address. - the caller must have a balance of at least `value`."
					},
					"transferFrom(address,address,uint256)": {
						"details": "See {IERC20-transferFrom}. Emits an {Approval} event indicating the updated allowance. This is not required by the EIP. See the note at the beginning of {ERC20}. NOTE: Does not update the allowance if the current allowance is the maximum `uint256`. Requirements: - `from` and `to` cannot be the zero address. - `from` must have a balance of at least `value`. - the caller must have allowance for ``from``'s tokens of at least `value`."
					},
					"withdraw(uint256,address,address)": {
						"details": "See {IERC4626-withdraw}. "
					}
				},
				"version": 1
			},
			"evm": {
				"assembly": "    /* \"contracts/Pool.sol\":254:2224  contract Pool is ERC4626 {... */\n  mstore(0x40, 0xc0)\n    /* \"contracts/Pool.sol\":337:342  false */\n  0x00\n    /* \"contracts/Pool.sol\":312:342  bool private isDeposit = false */\n  0x05\n  exp(0x0100, 0x14)\n  dup2\n  sload\n  dup2\n  0xff\n  mul\n  not\n  and\n  swap1\n  dup4\n  iszero\n  iszero\n  mul\n  or\n  swap1\n  sstore\n  pop\n    /* \"contracts/Pool.sol\":496:629  constructor(address _satoken) ERC4626(IERC20(_satoken)) ERC20(\"R-shared aUSDC\",\"rsaUSDC\") {... */\n  callvalue\n  dup1\n  iszero\n  tag_1\n  jumpi\n  0x00\n  dup1\n  revert\ntag_1:\n  pop\n  mload(0x40)\n  sub(codesize, bytecodeSize)\n  dup1\n  bytecodeSize\n  dup4\n  codecopy\n  dup2\n  dup2\n  add\n  0x40\n  mstore\n  dup2\n  add\n  swap1\n  tag_2\n  swap2\n  swap1\n  tag_3\n  jump\t// in\ntag_2:\n    /* \"contracts/Pool.sol\":541:549  _satoken */\n  dup1\n    /* \"@openzeppelin/contracts/token/ERC20/ERC20.sol\":1896:2009  constructor(string memory name_, string memory symbol_) {... */\n  mload(0x40)\n  dup1\n  0x40\n  add\n  0x40\n  mstore\n  dup1\n  0x0e\n  dup2\n  mstore\n  0x20\n  add\n  0x522d736861726564206155534443000000000000000000000000000000000000\n  dup2\n  mstore\n  pop\n  mload(0x40)\n  dup1\n  0x40\n  add\n  0x40\n  mstore\n  dup1\n  0x07\n  dup2\n  mstore\n  0x20\n  add\n  0x7273615553444300000000000000000000000000000000000000000000000000\n  dup2\n  mstore\n  pop\n    /* \"@openzeppelin/contracts/token/ERC20/ERC20.sol\":1970:1975  name_ */\n  dup2\n    /* \"@openzeppelin/contracts/token/ERC20/ERC20.sol\":1962:1967  _name */\n  0x03\n    /* \"@openzeppelin/contracts/token/ERC20/ERC20.sol\":1962:1975  _name = name_ */\n  swap1\n  dup2\n  tag_8\n  swap2\n  swap1\n  tag_9\n  jump\t// in\ntag_8:\n  pop\n    /* \"@openzeppelin/contracts/token/ERC20/ERC20.sol\":1995:2002  symbol_ */\n  dup1\n    /* \"@openzeppelin/contracts/token/ERC20/ERC20.sol\":1985:1992  _symbol */\n  0x04\n    /* \"@openzeppelin/contracts/token/ERC20/ERC20.sol\":1985:2002  _symbol = symbol_ */\n  swap1\n  dup2\n  tag_10\n  swap2\n  swap1\n  tag_9\n  jump\t// in\ntag_10:\n  pop\n    /* \"@openzeppelin/contracts/token/ERC20/ERC20.sol\":1896:2009  constructor(string memory name_, string memory symbol_) {... */\n  pop\n  pop\n    /* \"@openzeppelin/contracts/token/ERC20/extensions/ERC4626.sol\":4203:4215  bool success */\n  0x00\n    /* \"@openzeppelin/contracts/token/ERC20/extensions/ERC4626.sol\":4217:4236  uint8 assetDecimals */\n  dup1\n    /* \"@openzeppelin/contracts/token/ERC20/extensions/ERC4626.sol\":4240:4268  _tryGetAssetDecimals(asset_) */\n  tag_12\n    /* \"@openzeppelin/contracts/token/ERC20/extensions/ERC4626.sol\":4261:4267  asset_ */\n  dup4\n    /* \"@openzeppelin/contracts/token/ERC20/extensions/ERC4626.sol\":4240:4260  _tryGetAssetDecimals */\n  shl(0x20, tag_13)\n    /* \"@openzeppelin/contracts/token/ERC20/extensions/ERC4626.sol\":4240:4268  _tryGetAssetDecimals(asset_) */\n  0x20\n  shr\n  jump\t// in\ntag_12:\n    /* \"@openzeppelin/contracts/token/ERC20/extensions/ERC4626.sol\":4202:4268  (bool success, uint8 assetDecimals) = _tryGetAssetDecimals(asset_) */\n  swap2\n  pop\n  swap2\n  pop\n    /* \"@openzeppelin/contracts/token/ERC20/extensions/ERC4626.sol\":4300:4307  success */\n  dup2\n    /* \"@openzeppelin/contracts/token/ERC20/extensions/ERC4626.sol\":4300:4328  success ? assetDecimals : 18 */\n  tag_14\n  jumpi\n    /* \"@openzeppelin/contracts/token/ERC20/extensions/ERC4626.sol\":4326:4328  18 */\n  0x12\n    /* \"@openzeppelin/contracts/token/ERC20/extensions/ERC4626.sol\":4300:4328  success ? assetDecimals : 18 */\n  jump(tag_15)\ntag_14:\n    /* \"@openzeppelin/contracts/token/ERC20/extensions/ERC4626.sol\":4310:4323  assetDecimals */\n  dup1\n    /* \"@openzeppelin/contracts/token/ERC20/extensions/ERC4626.sol\":4300:4328  success ? assetDecimals : 18 */\ntag_15:\n    /* \"@openzeppelin/contracts/token/ERC20/extensions/ERC4626.sol\":4278:4328  _underlyingDecimals = success ? assetDecimals : 18 */\n  0xff\n  and\n  0xa0\n  dup2\n  0xff\n  and\n  dup2\n  mstore\n  pop\n  pop\n    /* \"@openzeppelin/contracts/token/ERC20/extensions/ERC4626.sol\":4347:4353  asset_ */\n  dup3\n    /* \"@openzeppelin/contracts/token/ERC20/extensions/ERC4626.sol\":4338:4353  _asset = asset_ */\n  0xffffffffffffffffffffffffffffffffffffffff\n  and\n  0x80\n  dup2\n  0xffffffffffffffffffffffffffffffffffffffff\n  and\n  dup2\n  mstore\n  pop\n  pop\n    /* \"@openzeppelin/contracts/token/ERC20/extensions/ERC4626.sol\":4192:4360  {... */\n  pop\n  pop\n    /* \"@openzeppelin/contracts/token/ERC20/extensions/ERC4626.sol\":4165:4360  constructor(IERC20 asset_) {... */\n  pop\n    /* \"contracts/Pool.sol\":613:621  _satoken */\n  dup1\n    /* \"contracts/Pool.sol\":596:603  satoken */\n  0x05\n  0x00\n    /* \"contracts/Pool.sol\":596:622  satoken = IERC20(_satoken) */\n  0x0100\n  exp\n  dup2\n  sload\n  dup2\n  0xffffffffffffffffffffffffffffffffffffffff\n  mul\n  not\n  and\n  swap1\n  dup4\n  0xffffffffffffffffffffffffffffffffffffffff\n  and\n  mul\n  or\n  swap1\n  sstore\n  pop\n    /* \"contracts/Pool.sol\":496:629  constructor(address _satoken) ERC4626(IERC20(_satoken)) ERC20(\"R-shared aUSDC\",\"rsaUSDC\") {... */\n  pop\n    /* \"contracts/Pool.sol\":254:2224  contract Pool is ERC4626 {... */\n  jump(tag_17)\n    /* \"@openzeppelin/contracts/token/ERC20/extensions/ERC4626.sol\":4503:5036  function _tryGetAssetDecimals(IERC20 asset_) private view returns (bool, uint8) {... */\ntag_13:\n    /* \"@openzeppelin/contracts/token/ERC20/extensions/ERC4626.sol\":4570:4574  bool */\n  0x00\n    /* \"@openzeppelin/contracts/token/ERC20/extensions/ERC4626.sol\":4576:4581  uint8 */\n  dup1\n    /* \"@openzeppelin/contracts/token/ERC20/extensions/ERC4626.sol\":4594:4606  bool success */\n  0x00\n    /* \"@openzeppelin/contracts/token/ERC20/extensions/ERC4626.sol\":4608:4636  bytes memory encodedDecimals */\n  dup1\n    /* \"@openzeppelin/contracts/token/ERC20/extensions/ERC4626.sol\":4648:4654  asset_ */\n  dup5\n    /* \"@openzeppelin/contracts/token/ERC20/extensions/ERC4626.sol\":4640:4666  address(asset_).staticcall */\n  0xffffffffffffffffffffffffffffffffffffffff\n  and\n    /* \"@openzeppelin/contracts/token/ERC20/extensions/ERC4626.sol\":4680:4723  abi.encodeCall(IERC20Metadata.decimals, ()) */\n  add(0x24, mload(0x40))\n  mload(0x40)\n  0x20\n  dup2\n  dup4\n  sub\n  sub\n  dup2\n  mstore\n  swap1\n  0x40\n  mstore\n  shl(0xe0, 0x313ce567)\n  0x20\n  dup3\n  add\n  dup1\n  mload\n  0xffffffffffffffffffffffffffffffffffffffffffffffffffffffff\n  dup4\n  dup2\n  dup4\n  and\n  or\n  dup4\n  mstore\n  pop\n  pop\n  pop\n  pop\n    /* \"@openzeppelin/contracts/token/ERC20/extensions/ERC4626.sol\":4640:4733  address(asset_).staticcall(... */\n  mload(0x40)\n  tag_19\n  swap2\n  swap1\n  tag_20\n  jump\t// in\ntag_19:\n  0x00\n  mload(0x40)\n  dup1\n  dup4\n  sub\n  dup2\n  dup6\n  gas\n  staticcall\n  swap2\n  pop\n  pop\n  returndatasize\n  dup1\n  0x00\n  dup2\n  eq\n  tag_23\n  jumpi\n  mload(0x40)\n  swap2\n  pop\n  and(add(returndatasize, 0x3f), not(0x1f))\n  dup3\n  add\n  0x40\n  mstore\n  returndatasize\n  dup3\n  mstore\n  returndatasize\n  0x00\n  0x20\n  dup5\n  add\n  returndatacopy\n  jump(tag_22)\ntag_23:\n  0x60\n  swap2\n  pop\ntag_22:\n  pop\n    /* \"@openzeppelin/contracts/token/ERC20/extensions/ERC4626.sol\":4593:4733  (bool success, bytes memory encodedDecimals) = address(asset_).staticcall(... */\n  swap2\n  pop\n  swap2\n  pop\n    /* \"@openzeppelin/contracts/token/ERC20/extensions/ERC4626.sol\":4747:4754  success */\n  dup2\n    /* \"@openzeppelin/contracts/token/ERC20/extensions/ERC4626.sol\":4747:4786  success && encodedDecimals.length >= 32 */\n  dup1\n  iszero\n  tag_24\n  jumpi\n  pop\n    /* \"@openzeppelin/contracts/token/ERC20/extensions/ERC4626.sol\":4784:4786  32 */\n  0x20\n    /* \"@openzeppelin/contracts/token/ERC20/extensions/ERC4626.sol\":4758:4773  encodedDecimals */\n  dup2\n    /* \"@openzeppelin/contracts/token/ERC20/extensions/ERC4626.sol\":4758:4780  encodedDecimals.length */\n  mload\n    /* \"@openzeppelin/contracts/token/ERC20/extensions/ERC4626.sol\":4758:4786  encodedDecimals.length >= 32 */\n  lt\n  iszero\n    /* \"@openzeppelin/contracts/token/ERC20/extensions/ERC4626.sol\":4747:4786  success && encodedDecimals.length >= 32 */\ntag_24:\n    /* \"@openzeppelin/contracts/token/ERC20/extensions/ERC4626.sol\":4743:5003  if (success && encodedDecimals.length >= 32) {... */\n  iszero\n  tag_25\n  jumpi\n    /* \"@openzeppelin/contracts/token/ERC20/extensions/ERC4626.sol\":4802:4826  uint256 returnedDecimals */\n  0x00\n    /* \"@openzeppelin/contracts/token/ERC20/extensions/ERC4626.sol\":4840:4855  encodedDecimals */\n  dup2\n    /* \"@openzeppelin/contracts/token/ERC20/extensions/ERC4626.sol\":4829:4867  abi.decode(encodedDecimals, (uint256)) */\n  dup1\n  0x20\n  add\n  swap1\n  mload\n  dup2\n  add\n  swap1\n  tag_26\n  swap2\n  swap1\n  tag_27\n  jump\t// in\ntag_26:\n    /* \"@openzeppelin/contracts/token/ERC20/extensions/ERC4626.sol\":4802:4867  uint256 returnedDecimals = abi.decode(encodedDecimals, (uint256)) */\n  swap1\n  pop\n    /* \"@openzeppelin/contracts/token/ERC20/extensions/ERC4626.sol\":4905:4920  type(uint8).max */\n  0xff\n    /* \"@openzeppelin/contracts/token/ERC20/extensions/ERC4626.sol\":4885:4920  returnedDecimals <= type(uint8).max */\n  dup1\n  and\n    /* \"@openzeppelin/contracts/token/ERC20/extensions/ERC4626.sol\":4885:4901  returnedDecimals */\n  dup2\n    /* \"@openzeppelin/contracts/token/ERC20/extensions/ERC4626.sol\":4885:4920  returnedDecimals <= type(uint8).max */\n  gt\n    /* \"@openzeppelin/contracts/token/ERC20/extensions/ERC4626.sol\":4881:4993  if (returnedDecimals <= type(uint8).max) {... */\n  tag_28\n  jumpi\n    /* \"@openzeppelin/contracts/token/ERC20/extensions/ERC4626.sol\":4948:4952  true */\n  0x01\n    /* \"@openzeppelin/contracts/token/ERC20/extensions/ERC4626.sol\":4960:4976  returnedDecimals */\n  dup2\n    /* \"@openzeppelin/contracts/token/ERC20/extensions/ERC4626.sol\":4940:4978  return (true, uint8(returnedDecimals)) */\n  swap5\n  pop\n  swap5\n  pop\n  pop\n  pop\n  pop\n  jump(tag_18)\n    /* \"@openzeppelin/contracts/token/ERC20/extensions/ERC4626.sol\":4881:4993  if (returnedDecimals <= type(uint8).max) {... */\ntag_28:\n    /* \"@openzeppelin/contracts/token/ERC20/extensions/ERC4626.sol\":4788:5003  {... */\n  pop\n    /* \"@openzeppelin/contracts/token/ERC20/extensions/ERC4626.sol\":4743:5003  if (success && encodedDecimals.length >= 32) {... */\ntag_25:\n    /* \"@openzeppelin/contracts/token/ERC20/extensions/ERC4626.sol\":5020:5025  false */\n  0x00\n    /* \"@openzeppelin/contracts/token/ERC20/extensions/ERC4626.sol\":5027:5028  0 */\n  dup1\n    /* \"@openzeppelin/contracts/token/ERC20/extensions/ERC4626.sol\":5012:5029  return (false, 0) */\n  swap4\n  pop\n  swap4\n  pop\n  pop\n  pop\n    /* \"@openzeppelin/contracts/token/ERC20/extensions/ERC4626.sol\":4503:5036  function _tryGetAssetDecimals(IERC20 asset_) private view returns (bool, uint8) {... */\ntag_18:\n  swap2\n  pop\n  swap2\n  jump\t// out\n    /* \"#utility.yul\":88:205   */\ntag_30:\n    /* \"#utility.yul\":197:198   */\n  0x00\n    /* \"#utility.yul\":194:195   */\n  dup1\n    /* \"#utility.yul\":187:199   */\n  revert\n    /* \"#utility.yul\":334:460   */\ntag_32:\n    /* \"#utility.yul\":371:378   */\n  0x00\n    /* \"#utility.yul\":411:453   */\n  0xffffffffffffffffffffffffffffffffffffffff\n    /* \"#utility.yul\":404:409   */\n  dup3\n    /* \"#utility.yul\":400:454   */\n  and\n    /* \"#utility.yul\":389:454   */\n  swap1\n  pop\n    /* \"#utility.yul\":334:460   */\n  swap2\n  swap1\n  pop\n  jump\t// out\n    /* \"#utility.yul\":466:562   */\ntag_33:\n    /* \"#utility.yul\":503:510   */\n  0x00\n    /* \"#utility.yul\":532:556   */\n  tag_68\n    /* \"#utility.yul\":550:555   */\n  dup3\n    /* \"#utility.yul\":532:556   */\n  tag_32\n  jump\t// in\ntag_68:\n    /* \"#utility.yul\":521:556   */\n  swap1\n  pop\n    /* \"#utility.yul\":466:562   */\n  swap2\n  swap1\n  pop\n  jump\t// out\n    /* \"#utility.yul\":568:690   */\ntag_34:\n    /* \"#utility.yul\":641:665   */\n  tag_70\n    /* \"#utility.yul\":659:664   */\n  dup2\n    /* \"#utility.yul\":641:665   */\n  tag_33\n  jump\t// in\ntag_70:\n    /* \"#utility.yul\":634:639   */\n  dup2\n    /* \"#utility.yul\":631:666   */\n  eq\n    /* \"#utility.yul\":621:684   */\n  tag_71\n  jumpi\n    /* \"#utility.yul\":680:681   */\n  0x00\n    /* \"#utility.yul\":677:678   */\n  dup1\n    /* \"#utility.yul\":670:682   */\n  revert\n    /* \"#utility.yul\":621:684   */\ntag_71:\n    /* \"#utility.yul\":568:690   */\n  pop\n  jump\t// out\n    /* \"#utility.yul\":696:839   */\ntag_35:\n    /* \"#utility.yul\":753:758   */\n  0x00\n    /* \"#utility.yul\":784:790   */\n  dup2\n    /* \"#utility.yul\":778:791   */\n  mload\n    /* \"#utility.yul\":769:791   */\n  swap1\n  pop\n    /* \"#utility.yul\":800:833   */\n  tag_73\n    /* \"#utility.yul\":827:832   */\n  dup2\n    /* \"#utility.yul\":800:833   */\n  tag_34\n  jump\t// in\ntag_73:\n    /* \"#utility.yul\":696:839   */\n  swap3\n  swap2\n  pop\n  pop\n  jump\t// out\n    /* \"#utility.yul\":845:1196   */\ntag_3:\n    /* \"#utility.yul\":915:921   */\n  0x00\n    /* \"#utility.yul\":964:966   */\n  0x20\n    /* \"#utility.yul\":952:961   */\n  dup3\n    /* \"#utility.yul\":943:950   */\n  dup5\n    /* \"#utility.yul\":939:962   */\n  sub\n    /* \"#utility.yul\":935:967   */\n  slt\n    /* \"#utility.yul\":932:1051   */\n  iszero\n  tag_75\n  jumpi\n    /* \"#utility.yul\":970:1049   */\n  tag_76\n  tag_30\n  jump\t// in\ntag_76:\n    /* \"#utility.yul\":932:1051   */\ntag_75:\n    /* \"#utility.yul\":1090:1091   */\n  0x00\n    /* \"#utility.yul\":1115:1179   */\n  tag_77\n    /* \"#utility.yul\":1171:1178   */\n  dup5\n    /* \"#utility.yul\":1162:1168   */\n  dup3\n    /* \"#utility.yul\":1151:1160   */\n  dup6\n    /* \"#utility.yul\":1147:1169   */\n  add\n    /* \"#utility.yul\":1115:1179   */\n  tag_35\n  jump\t// in\ntag_77:\n    /* \"#utility.yul\":1105:1179   */\n  swap2\n  pop\n    /* \"#utility.yul\":1061:1189   */\n  pop\n    /* \"#utility.yul\":845:1196   */\n  swap3\n  swap2\n  pop\n  pop\n  jump\t// out\n    /* \"#utility.yul\":1202:1301   */\ntag_36:\n    /* \"#utility.yul\":1254:1260   */\n  0x00\n    /* \"#utility.yul\":1288:1293   */\n  dup2\n    /* \"#utility.yul\":1282:1294   */\n  mload\n    /* \"#utility.yul\":1272:1294   */\n  swap1\n  pop\n    /* \"#utility.yul\":1202:1301   */\n  swap2\n  swap1\n  pop\n  jump\t// out\n    /* \"#utility.yul\":1307:1487   */\ntag_37:\n    /* \"#utility.yul\":1355:1432   */\n  0x4e487b7100000000000000000000000000000000000000000000000000000000\n    /* \"#utility.yul\":1352:1353   */\n  0x00\n    /* \"#utility.yul\":1345:1433   */\n  mstore\n    /* \"#utility.yul\":1452:1456   */\n  0x41\n    /* \"#utility.yul\":1449:1450   */\n  0x04\n    /* \"#utility.yul\":1442:1457   */\n  mstore\n    /* \"#utility.yul\":1476:1480   */\n  0x24\n    /* \"#utility.yul\":1473:1474   */\n  0x00\n    /* \"#utility.yul\":1466:1481   */\n  revert\n    /* \"#utility.yul\":1493:1673   */\ntag_38:\n    /* \"#utility.yul\":1541:1618   */\n  0x4e487b7100000000000000000000000000000000000000000000000000000000\n    /* \"#utility.yul\":1538:1539   */\n  0x00\n    /* \"#utility.yul\":1531:1619   */\n  mstore\n    /* \"#utility.yul\":1638:1642   */\n  0x22\n    /* \"#utility.yul\":1635:1636   */\n  0x04\n    /* \"#utility.yul\":1628:1643   */\n  mstore\n    /* \"#utility.yul\":1662:1666   */\n  0x24\n    /* \"#utility.yul\":1659:1660   */\n  0x00\n    /* \"#utility.yul\":1652:1667   */\n  revert\n    /* \"#utility.yul\":1679:1999   */\ntag_39:\n    /* \"#utility.yul\":1723:1729   */\n  0x00\n    /* \"#utility.yul\":1760:1761   */\n  0x02\n    /* \"#utility.yul\":1754:1758   */\n  dup3\n    /* \"#utility.yul\":1750:1762   */\n  div\n    /* \"#utility.yul\":1740:1762   */\n  swap1\n  pop\n    /* \"#utility.yul\":1807:1808   */\n  0x01\n    /* \"#utility.yul\":1801:1805   */\n  dup3\n    /* \"#utility.yul\":1797:1809   */\n  and\n    /* \"#utility.yul\":1828:1846   */\n  dup1\n    /* \"#utility.yul\":1818:1899   */\n  tag_82\n  jumpi\n    /* \"#utility.yul\":1884:1888   */\n  0x7f\n    /* \"#utility.yul\":1876:1882   */\n  dup3\n    /* \"#utility.yul\":1872:1889   */\n  and\n    /* \"#utility.yul\":1862:1889   */\n  swap2\n  pop\n    /* \"#utility.yul\":1818:1899   */\ntag_82:\n    /* \"#utility.yul\":1946:1948   */\n  0x20\n    /* \"#utility.yul\":1938:1944   */\n  dup3\n    /* \"#utility.yul\":1935:1949   */\n  lt\n    /* \"#utility.yul\":1915:1933   */\n  dup2\n    /* \"#utility.yul\":1912:1950   */\n  sub\n    /* \"#utility.yul\":1909:1993   */\n  tag_83\n  jumpi\n    /* \"#utility.yul\":1965:1983   */\n  tag_84\n  tag_38\n  jump\t// in\ntag_84:\n    /* \"#utility.yul\":1909:1993   */\ntag_83:\n    /* \"#utility.yul\":1730:1999   */\n  pop\n    /* \"#utility.yul\":1679:1999   */\n  swap2\n  swap1\n  pop\n  jump\t// out\n    /* \"#utility.yul\":2005:2146   */\ntag_40:\n    /* \"#utility.yul\":2054:2058   */\n  0x00\n    /* \"#utility.yul\":2077:2080   */\n  dup2\n    /* \"#utility.yul\":2069:2080   */\n  swap1\n  pop\n    /* \"#utility.yul\":2100:2103   */\n  dup2\n    /* \"#utility.yul\":2097:2098   */\n  0x00\n    /* \"#utility.yul\":2090:2104   */\n  mstore\n    /* \"#utility.yul\":2134:2138   */\n  0x20\n    /* \"#utility.yul\":2131:2132   */\n  0x00\n    /* \"#utility.yul\":2121:2139   */\n  keccak256\n    /* \"#utility.yul\":2113:2139   */\n  swap1\n  pop\n    /* \"#utility.yul\":2005:2146   */\n  swap2\n  swap1\n  pop\n  jump\t// out\n    /* \"#utility.yul\":2152:2245   */\ntag_41:\n    /* \"#utility.yul\":2189:2195   */\n  0x00\n    /* \"#utility.yul\":2236:2238   */\n  0x20\n    /* \"#utility.yul\":2231:2233   */\n  0x1f\n    /* \"#utility.yul\":2224:2229   */\n  dup4\n    /* \"#utility.yul\":2220:2234   */\n  add\n    /* \"#utility.yul\":2216:2239   */\n  div\n    /* \"#utility.yul\":2206:2239   */\n  swap1\n  pop\n    /* \"#utility.yul\":2152:2245   */\n  swap2\n  swap1\n  pop\n  jump\t// out\n    /* \"#utility.yul\":2251:2358   */\ntag_42:\n    /* \"#utility.yul\":2295:2303   */\n  0x00\n    /* \"#utility.yul\":2345:2350   */\n  dup3\n    /* \"#utility.yul\":2339:2343   */\n  dup3\n    /* \"#utility.yul\":2335:2351   */\n  shl\n    /* \"#utility.yul\":2314:2351   */\n  swap1\n  pop\n    /* \"#utility.yul\":2251:2358   */\n  swap3\n  swap2\n  pop\n  pop\n  jump\t// out\n    /* \"#utility.yul\":2364:2757   */\ntag_43:\n    /* \"#utility.yul\":2433:2439   */\n  0x00\n    /* \"#utility.yul\":2483:2484   */\n  0x08\n    /* \"#utility.yul\":2471:2481   */\n  dup4\n    /* \"#utility.yul\":2467:2485   */\n  mul\n    /* \"#utility.yul\":2506:2603   */\n  tag_89\n    /* \"#utility.yul\":2536:2602   */\n  0xffffffffffffffffffffffffffffffffffffffffffffffffffffffffffffffff\n    /* \"#utility.yul\":2525:2534   */\n  dup3\n    /* \"#utility.yul\":2506:2603   */\n  tag_42\n  jump\t// in\ntag_89:\n    /* \"#utility.yul\":2624:2663   */\n  tag_90\n    /* \"#utility.yul\":2654:2662   */\n  dup7\n    /* \"#utility.yul\":2643:2652   */\n  dup4\n    /* \"#utility.yul\":2624:2663   */\n  tag_42\n  jump\t// in\ntag_90:\n    /* \"#utility.yul\":2612:2663   */\n  swap6\n  pop\n    /* \"#utility.yul\":2696:2700   */\n  dup1\n    /* \"#utility.yul\":2692:2701   */\n  not\n    /* \"#utility.yul\":2685:2690   */\n  dup5\n    /* \"#utility.yul\":2681:2702   */\n  and\n    /* \"#utility.yul\":2672:2702   */\n  swap4\n  pop\n    /* \"#utility.yul\":2745:2749   */\n  dup1\n    /* \"#utility.yul\":2735:2743   */\n  dup7\n    /* \"#utility.yul\":2731:2750   */\n  and\n    /* \"#utility.yul\":2724:2729   */\n  dup5\n    /* \"#utility.yul\":2721:2751   */\n  or\n    /* \"#utility.yul\":2711:2751   */\n  swap3\n  pop\n    /* \"#utility.yul\":2440:2757   */\n  pop\n  pop\n    /* \"#utility.yul\":2364:2757   */\n  swap4\n  swap3\n  pop\n  pop\n  pop\n  jump\t// out\n    /* \"#utility.yul\":2763:2840   */\ntag_44:\n    /* \"#utility.yul\":2800:2807   */\n  0x00\n    /* \"#utility.yul\":2829:2834   */\n  dup2\n    /* \"#utility.yul\":2818:2834   */\n  swap1\n  pop\n    /* \"#utility.yul\":2763:2840   */\n  swap2\n  swap1\n  pop\n  jump\t// out\n    /* \"#utility.yul\":2846:2906   */\ntag_45:\n    /* \"#utility.yul\":2874:2877   */\n  0x00\n    /* \"#utility.yul\":2895:2900   */\n  dup2\n    /* \"#utility.yul\":2888:2900   */\n  swap1\n  pop\n    /* \"#utility.yul\":2846:2906   */\n  swap2\n  swap1\n  pop\n  jump\t// out\n    /* \"#utility.yul\":2912:3054   */\ntag_46:\n    /* \"#utility.yul\":2962:2971   */\n  0x00\n    /* \"#utility.yul\":2995:3048   */\n  tag_94\n    /* \"#utility.yul\":3013:3047   */\n  tag_95\n    /* \"#utility.yul\":3022:3046   */\n  tag_96\n    /* \"#utility.yul\":3040:3045   */\n  dup5\n    /* \"#utility.yul\":3022:3046   */\n  tag_44\n  jump\t// in\ntag_96:\n    /* \"#utility.yul\":3013:3047   */\n  tag_45\n  jump\t// in\ntag_95:\n    /* \"#utility.yul\":2995:3048   */\n  tag_44\n  jump\t// in\ntag_94:\n    /* \"#utility.yul\":2982:3048   */\n  swap1\n  pop\n    /* \"#utility.yul\":2912:3054   */\n  swap2\n  swap1\n  pop\n  jump\t// out\n    /* \"#utility.yul\":3060:3135   */\ntag_47:\n    /* \"#utility.yul\":3103:3106   */\n  0x00\n    /* \"#utility.yul\":3124:3129   */\n  dup2\n    /* \"#utility.yul\":3117:3129   */\n  swap1\n  pop\n    /* \"#utility.yul\":3060:3135   */\n  swap2\n  swap1\n  pop\n  jump\t// out\n    /* \"#utility.yul\":3141:3410   */\ntag_48:\n    /* \"#utility.yul\":3251:3290   */\n  tag_99\n    /* \"#utility.yul\":3282:3289   */\n  dup4\n    /* \"#utility.yul\":3251:3290   */\n  tag_46\n  jump\t// in\ntag_99:\n    /* \"#utility.yul\":3312:3403   */\n  tag_100\n    /* \"#utility.yul\":3361:3402   */\n  tag_101\n    /* \"#utility.yul\":3385:3401   */\n  dup3\n    /* \"#utility.yul\":3361:3402   */\n  tag_47\n  jump\t// in\ntag_101:\n    /* \"#utility.yul\":3353:3359   */\n  dup5\n    /* \"#utility.yul\":3346:3350   */\n  dup5\n    /* \"#utility.yul\":3340:3351   */\n  sload\n    /* \"#utility.yul\":3312:3403   */\n  tag_43\n  jump\t// in\ntag_100:\n    /* \"#utility.yul\":3306:3310   */\n  dup3\n    /* \"#utility.yul\":3299:3404   */\n  sstore\n    /* \"#utility.yul\":3217:3410   */\n  pop\n    /* \"#utility.yul\":3141:3410   */\n  pop\n  pop\n  pop\n  jump\t// out\n    /* \"#utility.yul\":3416:3489   */\ntag_49:\n    /* \"#utility.yul\":3461:3464   */\n  0x00\n    /* \"#utility.yul\":3416:3489   */\n  swap1\n  jump\t// out\n    /* \"#utility.yul\":3495:3684   */\ntag_50:\n    /* \"#utility.yul\":3572:3604   */\n  tag_104\n  tag_49\n  jump\t// in\ntag_104:\n    /* \"#utility.yul\":3613:3678   */\n  tag_105\n    /* \"#utility.yul\":3671:3677   */\n  dup2\n    /* \"#utility.yul\":3663:3669   */\n  dup5\n    /* \"#utility.yul\":3657:3661   */\n  dup5\n    /* \"#utility.yul\":3613:3678   */\n  tag_48\n  jump\t// in\ntag_105:\n    /* \"#utility.yul\":3548:3684   */\n  pop\n    /* \"#utility.yul\":3495:3684   */\n  pop\n  pop\n  jump\t// out\n    /* \"#utility.yul\":3690:3876   */\ntag_51:\n    /* \"#utility.yul\":3750:3870   */\ntag_107:\n    /* \"#utility.yul\":3767:3770   */\n  dup2\n    /* \"#utility.yul\":3760:3765   */\n  dup2\n    /* \"#utility.yul\":3757:3771   */\n  lt\n    /* \"#utility.yul\":3750:3870   */\n  iszero\n  tag_109\n  jumpi\n    /* \"#utility.yul\":3821:3860   */\n  tag_110\n    /* \"#utility.yul\":3858:3859   */\n  0x00\n    /* \"#utility.yul\":3851:3856   */\n  dup3\n    /* \"#utility.yul\":3821:3860   */\n  tag_50\n  jump\t// in\ntag_110:\n    /* \"#utility.yul\":3794:3795   */\n  0x01\n    /* \"#utility.yul\":3787:3792   */\n  dup2\n    /* \"#utility.yul\":3783:3796   */\n  add\n    /* \"#utility.yul\":3774:3796   */\n  swap1\n  pop\n    /* \"#utility.yul\":3750:3870   */\n  jump(tag_107)\ntag_109:\n    /* \"#utility.yul\":3690:3876   */\n  pop\n  pop\n  jump\t// out\n    /* \"#utility.yul\":3882:4425   */\ntag_52:\n    /* \"#utility.yul\":3983:3985   */\n  0x1f\n    /* \"#utility.yul\":3978:3981   */\n  dup3\n    /* \"#utility.yul\":3975:3986   */\n  gt\n    /* \"#utility.yul\":3972:4418   */\n  iszero\n  tag_112\n  jumpi\n    /* \"#utility.yul\":4017:4055   */\n  tag_113\n    /* \"#utility.yul\":4049:4054   */\n  dup2\n    /* \"#utility.yul\":4017:4055   */\n  tag_40\n  jump\t// in\ntag_113:\n    /* \"#utility.yul\":4101:4130   */\n  tag_114\n    /* \"#utility.yul\":4119:4129   */\n  dup5\n    /* \"#utility.yul\":4101:4130   */\n  tag_41\n  jump\t// in\ntag_114:\n    /* \"#utility.yul\":4091:4099   */\n  dup2\n    /* \"#utility.yul\":4087:4131   */\n  add\n    /* \"#utility.yul\":4284:4286   */\n  0x20\n    /* \"#utility.yul\":4272:4282   */\n  dup6\n    /* \"#utility.yul\":4269:4287   */\n  lt\n    /* \"#utility.yul\":4266:4315   */\n  iszero\n  tag_115\n  jumpi\n    /* \"#utility.yul\":4305:4313   */\n  dup2\n    /* \"#utility.yul\":4290:4313   */\n  swap1\n  pop\n    /* \"#utility.yul\":4266:4315   */\ntag_115:\n    /* \"#utility.yul\":4328:4408   */\n  tag_116\n    /* \"#utility.yul\":4384:4406   */\n  tag_117\n    /* \"#utility.yul\":4402:4405   */\n  dup6\n    /* \"#utility.yul\":4384:4406   */\n  tag_41\n  jump\t// in\ntag_117:\n    /* \"#utility.yul\":4374:4382   */\n  dup4\n    /* \"#utility.yul\":4370:4407   */\n  add\n    /* \"#utility.yul\":4357:4368   */\n  dup3\n    /* \"#utility.yul\":4328:4408   */\n  tag_51\n  jump\t// in\ntag_116:\n    /* \"#utility.yul\":3987:4418   */\n  pop\n  pop\n    /* \"#utility.yul\":3972:4418   */\ntag_112:\n    /* \"#utility.yul\":3882:4425   */\n  pop\n  pop\n  pop\n  jump\t// out\n    /* \"#utility.yul\":4431:4548   */\ntag_53:\n    /* \"#utility.yul\":4485:4493   */\n  0x00\n    /* \"#utility.yul\":4535:4540   */\n  dup3\n    /* \"#utility.yul\":4529:4533   */\n  dup3\n    /* \"#utility.yul\":4525:4541   */\n  shr\n    /* \"#utility.yul\":4504:4541   */\n  swap1\n  pop\n    /* \"#utility.yul\":4431:4548   */\n  swap3\n  swap2\n  pop\n  pop\n  jump\t// out\n    /* \"#utility.yul\":4554:4723   */\ntag_54:\n    /* \"#utility.yul\":4598:4604   */\n  0x00\n    /* \"#utility.yul\":4631:4682   */\n  tag_120\n    /* \"#utility.yul\":4679:4680   */\n  0x00\n    /* \"#utility.yul\":4675:4681   */\n  not\n    /* \"#utility.yul\":4667:4672   */\n  dup5\n    /* \"#utility.yul\":4664:4665   */\n  0x08\n    /* \"#utility.yul\":4660:4673   */\n  mul\n    /* \"#utility.yul\":4631:4682   */\n  tag_53\n  jump\t// in\ntag_120:\n    /* \"#utility.yul\":4627:4683   */\n  not\n    /* \"#utility.yul\":4712:4716   */\n  dup1\n    /* \"#utility.yul\":4706:4710   */\n  dup4\n    /* \"#utility.yul\":4702:4717   */\n  and\n    /* \"#utility.yul\":4692:4717   */\n  swap2\n  pop\n    /* \"#utility.yul\":4605:4723   */\n  pop\n    /* \"#utility.yul\":4554:4723   */\n  swap3\n  swap2\n  pop\n  pop\n  jump\t// out\n    /* \"#utility.yul\":4728:5023   */\ntag_55:\n    /* \"#utility.yul\":4804:4808   */\n  0x00\n    /* \"#utility.yul\":4950:4979   */\n  tag_122\n    /* \"#utility.yul\":4975:4978   */\n  dup4\n    /* \"#utility.yul\":4969:4973   */\n  dup4\n    /* \"#utility.yul\":4950:4979   */\n  tag_54\n  jump\t// in\ntag_122:\n    /* \"#utility.yul\":4942:4979   */\n  swap2\n  pop\n    /* \"#utility.yul\":5012:5015   */\n  dup3\n    /* \"#utility.yul\":5009:5010   */\n  0x02\n    /* \"#utility.yul\":5005:5016   */\n  mul\n    /* \"#utility.yul\":4999:5003   */\n  dup3\n    /* \"#utility.yul\":4996:5017   */\n  or\n    /* \"#utility.yul\":4988:5017   */\n  swap1\n  pop\n    /* \"#utility.yul\":4728:5023   */\n  swap3\n  swap2\n  pop\n  pop\n  jump\t// out\n    /* \"#utility.yul\":5028:6423   */\ntag_9:\n    /* \"#utility.yul\":5145:5182   */\n  tag_124\n    /* \"#utility.yul\":5178:5181   */\n  dup3\n    /* \"#utility.yul\":5145:5182   */\n  tag_36\n  jump\t// in\ntag_124:\n    /* \"#utility.yul\":5247:5265   */\n  0xffffffffffffffff\n    /* \"#utility.yul\":5239:5245   */\n  dup2\n    /* \"#utility.yul\":5236:5266   */\n  gt\n    /* \"#utility.yul\":5233:5289   */\n  iszero\n  tag_125\n  jumpi\n    /* \"#utility.yul\":5269:5287   */\n  tag_126\n  tag_37\n  jump\t// in\ntag_126:\n    /* \"#utility.yul\":5233:5289   */\ntag_125:\n    /* \"#utility.yul\":5313:5351   */\n  tag_127\n    /* \"#utility.yul\":5345:5349   */\n  dup3\n    /* \"#utility.yul\":5339:5350   */\n  sload\n    /* \"#utility.yul\":5313:5351   */\n  tag_39\n  jump\t// in\ntag_127:\n    /* \"#utility.yul\":5398:5465   */\n  tag_128\n    /* \"#utility.yul\":5458:5464   */\n  dup3\n    /* \"#utility.yul\":5450:5456   */\n  dup3\n    /* \"#utility.yul\":5444:5448   */\n  dup6\n    /* \"#utility.yul\":5398:5465   */\n  tag_52\n  jump\t// in\ntag_128:\n    /* \"#utility.yul\":5492:5493   */\n  0x00\n    /* \"#utility.yul\":5516:5520   */\n  0x20\n    /* \"#utility.yul\":5503:5520   */\n  swap1\n  pop\n    /* \"#utility.yul\":5548:5550   */\n  0x1f\n    /* \"#utility.yul\":5540:5546   */\n  dup4\n    /* \"#utility.yul\":5537:5551   */\n  gt\n    /* \"#utility.yul\":5565:5566   */\n  0x01\n    /* \"#utility.yul\":5560:6178   */\n  dup2\n  eq\n  tag_130\n  jumpi\n    /* \"#utility.yul\":6222:6223   */\n  0x00\n    /* \"#utility.yul\":6239:6245   */\n  dup5\n    /* \"#utility.yul\":6236:6313   */\n  iszero\n  tag_131\n  jumpi\n    /* \"#utility.yul\":6288:6297   */\n  dup3\n    /* \"#utility.yul\":6283:6286   */\n  dup8\n    /* \"#utility.yul\":6279:6298   */\n  add\n    /* \"#utility.yul\":6273:6299   */\n  mload\n    /* \"#utility.yul\":6264:6299   */\n  swap1\n  pop\n    /* \"#utility.yul\":6236:6313   */\ntag_131:\n    /* \"#utility.yul\":6339:6406   */\n  tag_132\n    /* \"#utility.yul\":6399:6405   */\n  dup6\n    /* \"#utility.yul\":6392:6397   */\n  dup3\n    /* \"#utility.yul\":6339:6406   */\n  tag_55\n  jump\t// in\ntag_132:\n    /* \"#utility.yul\":6333:6337   */\n  dup7\n    /* \"#utility.yul\":6326:6407   */\n  sstore\n    /* \"#utility.yul\":6195:6417   */\n  pop\n    /* \"#utility.yul\":5530:6417   */\n  jump(tag_129)\n    /* \"#utility.yul\":5560:6178   */\ntag_130:\n    /* \"#utility.yul\":5612:5616   */\n  0x1f\n    /* \"#utility.yul\":5608:5617   */\n  not\n    /* \"#utility.yul\":5600:5606   */\n  dup5\n    /* \"#utility.yul\":5596:5618   */\n  and\n    /* \"#utility.yul\":5646:5683   */\n  tag_133\n    /* \"#utility.yul\":5678:5682   */\n  dup7\n    /* \"#utility.yul\":5646:5683   */\n  tag_40\n  jump\t// in\ntag_133:\n    /* \"#utility.yul\":5705:5706   */\n  0x00\n    /* \"#utility.yul\":5719:5927   */\ntag_134:\n    /* \"#utility.yul\":5733:5740   */\n  dup3\n    /* \"#utility.yul\":5730:5731   */\n  dup2\n    /* \"#utility.yul\":5727:5741   */\n  lt\n    /* \"#utility.yul\":5719:5927   */\n  iszero\n  tag_136\n  jumpi\n    /* \"#utility.yul\":5812:5821   */\n  dup5\n    /* \"#utility.yul\":5807:5810   */\n  dup10\n    /* \"#utility.yul\":5803:5822   */\n  add\n    /* \"#utility.yul\":5797:5823   */\n  mload\n    /* \"#utility.yul\":5789:5795   */\n  dup3\n    /* \"#utility.yul\":5782:5824   */\n  sstore\n    /* \"#utility.yul\":5863:5864   */\n  0x01\n    /* \"#utility.yul\":5855:5861   */\n  dup3\n    /* \"#utility.yul\":5851:5865   */\n  add\n    /* \"#utility.yul\":5841:5865   */\n  swap2\n  pop\n    /* \"#utility.yul\":5910:5912   */\n  0x20\n    /* \"#utility.yul\":5899:5908   */\n  dup6\n    /* \"#utility.yul\":5895:5913   */\n  add\n    /* \"#utility.yul\":5882:5913   */\n  swap5\n  pop\n    /* \"#utility.yul\":5756:5760   */\n  0x20\n    /* \"#utility.yul\":5753:5754   */\n  dup2\n    /* \"#utility.yul\":5749:5761   */\n  add\n    /* \"#utility.yul\":5744:5761   */\n  swap1\n  pop\n    /* \"#utility.yul\":5719:5927   */\n  jump(tag_134)\ntag_136:\n    /* \"#utility.yul\":5955:5961   */\n  dup7\n    /* \"#utility.yul\":5946:5953   */\n  dup4\n    /* \"#utility.yul\":5943:5962   */\n  lt\n    /* \"#utility.yul\":5940:6119   */\n  iszero\n  tag_137\n  jumpi\n    /* \"#utility.yul\":6013:6022   */\n  dup5\n    /* \"#utility.yul\":6008:6011   */\n  dup10\n    /* \"#utility.yul\":6004:6023   */\n  add\n    /* \"#utility.yul\":5998:6024   */\n  mload\n    /* \"#utility.yul\":6056:6104   */\n  tag_138\n    /* \"#utility.yul\":6098:6102   */\n  0x1f\n    /* \"#utility.yul\":6090:6096   */\n  dup10\n    /* \"#utility.yul\":6086:6103   */\n  and\n    /* \"#utility.yul\":6075:6084   */\n  dup3\n    /* \"#utility.yul\":6056:6104   */\n  tag_54\n  jump\t// in\ntag_138:\n    /* \"#utility.yul\":6048:6054   */\n  dup4\n    /* \"#utility.yul\":6041:6105   */\n  sstore\n    /* \"#utility.yul\":5963:6119   */\n  pop\n    /* \"#utility.yul\":5940:6119   */\ntag_137:\n    /* \"#utility.yul\":6165:6166   */\n  0x01\n    /* \"#utility.yul\":6161:6162   */\n  0x02\n    /* \"#utility.yul\":6153:6159   */\n  dup9\n    /* \"#utility.yul\":6149:6163   */\n  mul\n    /* \"#utility.yul\":6145:6167   */\n  add\n    /* \"#utility.yul\":6139:6143   */\n  dup9\n    /* \"#utility.yul\":6132:6168   */\n  sstore\n    /* \"#utility.yul\":5567:6178   */\n  pop\n  pop\n  pop\n    /* \"#utility.yul\":5530:6417   */\ntag_129:\n  pop\n    /* \"#utility.yul\":5120:6423   */\n  pop\n  pop\n  pop\n    /* \"#utility.yul\":5028:6423   */\n  pop\n  pop\n  jump\t// out\n    /* \"#utility.yul\":6429:6527   */\ntag_56:\n    /* \"#utility.yul\":6480:6486   */\n  0x00\n    /* \"#utility.yul\":6514:6519   */\n  dup2\n    /* \"#utility.yul\":6508:6520   */\n  mload\n    /* \"#utility.yul\":6498:6520   */\n  swap1\n  pop\n    /* \"#utility.yul\":6429:6527   */\n  swap2\n  swap1\n  pop\n  jump\t// out\n    /* \"#utility.yul\":6533:6680   */\ntag_57:\n    /* \"#utility.yul\":6634:6645   */\n  0x00\n    /* \"#utility.yul\":6671:6674   */\n  dup2\n    /* \"#utility.yul\":6656:6674   */\n  swap1\n  pop\n    /* \"#utility.yul\":6533:6680   */\n  swap3\n  swap2\n  pop\n  pop\n  jump\t// out\n    /* \"#utility.yul\":6686:6825   */\ntag_58:\n    /* \"#utility.yul\":6775:6781   */\n  dup3\n    /* \"#utility.yul\":6770:6773   */\n  dup2\n    /* \"#utility.yul\":6765:6768   */\n  dup4\n    /* \"#utility.yul\":6759:6782   */\n  mcopy\n    /* \"#utility.yul\":6816:6817   */\n  0x00\n    /* \"#utility.yul\":6807:6813   */\n  dup4\n    /* \"#utility.yul\":6802:6805   */\n  dup4\n    /* \"#utility.yul\":6798:6814   */\n  add\n    /* \"#utility.yul\":6791:6818   */\n  mstore\n    /* \"#utility.yul\":6686:6825   */\n  pop\n  pop\n  pop\n  jump\t// out\n    /* \"#utility.yul\":6831:7217   */\ntag_59:\n    /* \"#utility.yul\":6935:6938   */\n  0x00\n    /* \"#utility.yul\":6963:7001   */\n  tag_143\n    /* \"#utility.yul\":6995:7000   */\n  dup3\n    /* \"#utility.yul\":6963:7001   */\n  tag_56\n  jump\t// in\ntag_143:\n    /* \"#utility.yul\":7017:7105   */\n  tag_144\n    /* \"#utility.yul\":7098:7104   */\n  dup2\n    /* \"#utility.yul\":7093:7096   */\n  dup6\n    /* \"#utility.yul\":7017:7105   */\n  tag_57\n  jump\t// in\ntag_144:\n    /* \"#utility.yul\":7010:7105   */\n  swap4\n  pop\n    /* \"#utility.yul\":7114:7179   */\n  tag_145\n    /* \"#utility.yul\":7172:7178   */\n  dup2\n    /* \"#utility.yul\":7167:7170   */\n  dup6\n    /* \"#utility.yul\":7160:7164   */\n  0x20\n    /* \"#utility.yul\":7153:7158   */\n  dup7\n    /* \"#utility.yul\":7149:7165   */\n  add\n    /* \"#utility.yul\":7114:7179   */\n  tag_58\n  jump\t// in\ntag_145:\n    /* \"#utility.yul\":7204:7210   */\n  dup1\n    /* \"#utility.yul\":7199:7202   */\n  dup5\n    /* \"#utility.yul\":7195:7211   */\n  add\n    /* \"#utility.yul\":7188:7211   */\n  swap2\n  pop\n    /* \"#utility.yul\":6939:7217   */\n  pop\n    /* \"#utility.yul\":6831:7217   */\n  swap3\n  swap2\n  pop\n  pop\n  jump\t// out\n    /* \"#utility.yul\":7223:7494   */\ntag_20:\n    /* \"#utility.yul\":7353:7356   */\n  0x00\n    /* \"#utility.yul\":7375:7468   */\n  tag_147\n    /* \"#utility.yul\":7464:7467   */\n  dup3\n    /* \"#utility.yul\":7455:7461   */\n  dup5\n    /* \"#utility.yul\":7375:7468   */\n  tag_59\n  jump\t// in\ntag_147:\n    /* \"#utility.yul\":7368:7468   */\n  swap2\n  pop\n    /* \"#utility.yul\":7485:7488   */\n  dup2\n    /* \"#utility.yul\":7478:7488   */\n  swap1\n  pop\n    /* \"#utility.yul\":7223:7494   */\n  swap3\n  swap2\n  pop\n  pop\n  jump\t// out\n    /* \"#utility.yul\":7500:7622   */\ntag_60:\n    /* \"#utility.yul\":7573:7597   */\n  tag_149\n    /* \"#utility.yul\":7591:7596   */\n  dup2\n    /* \"#utility.yul\":7573:7597   */\n  tag_44\n  jump\t// in\ntag_149:\n    /* \"#utility.yul\":7566:7571   */\n  dup2\n    /* \"#utility.yul\":7563:7598   */\n  eq\n    /* \"#utility.yul\":7553:7616   */\n  tag_150\n  jumpi\n    /* \"#utility.yul\":7612:7613   */\n  0x00\n    /* \"#utility.yul\":7609:7610   */\n  dup1\n    /* \"#utility.yul\":7602:7614   */\n  revert\n    /* \"#utility.yul\":7553:7616   */\ntag_150:\n    /* \"#utility.yul\":7500:7622   */\n  pop\n  jump\t// out\n    /* \"#utility.yul\":7628:7771   */\ntag_61:\n    /* \"#utility.yul\":7685:7690   */\n  0x00\n    /* \"#utility.yul\":7716:7722   */\n  dup2\n    /* \"#utility.yul\":7710:7723   */\n  mload\n    /* \"#utility.yul\":7701:7723   */\n  swap1\n  pop\n    /* \"#utility.yul\":7732:7765   */\n  tag_152\n    /* \"#utility.yul\":7759:7764   */\n  dup2\n    /* \"#utility.yul\":7732:7765   */\n  tag_60\n  jump\t// in\ntag_152:\n    /* \"#utility.yul\":7628:7771   */\n  swap3\n  swap2\n  pop\n  pop\n  jump\t// out\n    /* \"#utility.yul\":7777:8128   */\ntag_27:\n    /* \"#utility.yul\":7847:7853   */\n  0x00\n    /* \"#utility.yul\":7896:7898   */\n  0x20\n    /* \"#utility.yul\":7884:7893   */\n  dup3\n    /* \"#utility.yul\":7875:7882   */\n  dup5\n    /* \"#utility.yul\":7871:7894   */\n  sub\n    /* \"#utility.yul\":7867:7899   */\n  slt\n    /* \"#utility.yul\":7864:7983   */\n  iszero\n  tag_154\n  jumpi\n    /* \"#utility.yul\":7902:7981   */\n  tag_155\n  tag_30\n  jump\t// in\ntag_155:\n    /* \"#utility.yul\":7864:7983   */\ntag_154:\n    /* \"#utility.yul\":8022:8023   */\n  0x00\n    /* \"#utility.yul\":8047:8111   */\n  tag_156\n    /* \"#utility.yul\":8103:8110   */\n  dup5\n    /* \"#utility.yul\":8094:8100   */\n  dup3\n    /* \"#utility.yul\":8083:8092   */\n  dup6\n    /* \"#utility.yul\":8079:8101   */\n  add\n    /* \"#utility.yul\":8047:8111   */\n  tag_61\n  jump\t// in\ntag_156:\n    /* \"#utility.yul\":8037:8111   */\n  swap2\n  pop\n    /* \"#utility.yul\":7993:8121   */\n  pop\n    /* \"#utility.yul\":7777:8128   */\n  swap3\n  swap2\n  pop\n  pop\n  jump\t// out\n    /* \"contracts/Pool.sol\":254:2224  contract Pool is ERC4626 {... */\ntag_17:\n  mload(0x80)\n  mload(0xa0)\n  codecopy(0x00, dataOffset(sub_0), dataSize(sub_0))\n  0x00\n  assignImmutable(\"0x03ded74204f6f646223f7cf6a543675febcd907713c268f77886749ddbf07d3e\")\n  0x00\n  assignImmutable(\"0x912cdad641b4408bd64eb5a331e5fe393f33f2296e0c7fad54e613ac760cfb47\")\n  return(0x00, dataSize(sub_0))\nstop\n\nsub_0: assembly {\n        /* \"contracts/Pool.sol\":254:2224  contract Pool is ERC4626 {... */\n      mstore(0x40, 0x80)\n      callvalue\n      dup1\n      iszero\n      tag_1\n      jumpi\n      0x00\n      dup1\n      revert\n    tag_1:\n      pop\n      jumpi(tag_2, lt(calldatasize, 0x04))\n      shr(0xe0, calldataload(0x00))\n      dup1\n      0x866c99e2\n      gt\n      tag_29\n      jumpi\n      dup1\n      0xba087652\n      gt\n      tag_30\n      jumpi\n      dup1\n      0xce96cb77\n      gt\n      tag_31\n      jumpi\n      dup1\n      0xce96cb77\n      eq\n      tag_25\n      jumpi\n      dup1\n      0xd905777e\n      eq\n      tag_26\n      jumpi\n      dup1\n      0xdd62ed3e\n      eq\n      tag_27\n      jumpi\n      dup1\n      0xef8b30f7\n      eq\n      tag_28\n      jumpi\n      jump(tag_2)\n    tag_31:\n      dup1\n      0xba087652\n      eq\n      tag_22\n      jumpi\n      dup1\n      0xc63d75b6\n      eq\n      tag_23\n      jumpi\n      dup1\n      0xc6e6f592\n      eq\n      tag_24\n      jumpi\n      jump(tag_2)\n    tag_30:\n      dup1\n      0x866c99e2\n      eq\n      tag_16\n      jumpi\n      dup1\n      0x94bf804d\n      eq\n      tag_17\n      jumpi\n      dup1\n      0x95d89b41\n      eq\n      tag_18\n      jumpi\n      dup1\n      0xa9059cbb\n      eq\n      tag_19\n      jumpi\n      dup1\n      0xb3d7f6b9\n      eq\n      tag_20\n      jumpi\n      dup1\n      0xb460af94\n      eq\n      tag_21\n      jumpi\n      jump(tag_2)\n    tag_29:\n      dup1\n      0x23b872dd\n      gt\n      tag_32\n      jumpi\n      dup1\n      0x402d267d\n      gt\n      tag_33\n      jumpi\n      dup1\n      0x402d267d\n      eq\n      tag_12\n      jumpi\n      dup1\n      0x4cdad506\n      eq\n      tag_13\n      jumpi\n      dup1\n      0x6e553f65\n      eq\n      tag_14\n      jumpi\n      dup1\n      0x70a08231\n      eq\n      tag_15\n      jumpi\n      jump(tag_2)\n    tag_33:\n      dup1\n      0x23b872dd\n      eq\n      tag_9\n      jumpi\n      dup1\n      0x313ce567\n      eq\n      tag_10\n      jumpi\n      dup1\n      0x38d52e0f\n      eq\n      tag_11\n      jumpi\n      jump(tag_2)\n    tag_32:\n      dup1\n      0x01e1d114\n      eq\n      tag_3\n      jumpi\n      dup1\n      0x06fdde03\n      eq\n      tag_4\n      jumpi\n      dup1\n      0x07a2d13a\n      eq\n      tag_5\n      jumpi\n      dup1\n      0x095ea7b3\n      eq\n      tag_6\n      jumpi\n      dup1\n      0x0a28a477\n      eq\n      tag_7\n      jumpi\n      dup1\n      0x18160ddd\n      eq\n      tag_8\n      jumpi\n    tag_2:\n      0x00\n      dup1\n      revert\n        /* \"@openzeppelin/contracts/token/ERC20/extensions/ERC4626.sol\":5780:5896  function totalAssets() public view virtual returns (uint256) {... */\n    tag_3:\n      tag_34\n      tag_35\n      jump\t// in\n    tag_34:\n      mload(0x40)\n      tag_36\n      swap2\n      swap1\n      tag_37\n      jump\t// in\n    tag_36:\n      mload(0x40)\n      dup1\n      swap2\n      sub\n      swap1\n      return\n        /* \"@openzeppelin/contracts/token/ERC20/ERC20.sol\":2074:2163  function name() public view virtual returns (string memory) {... */\n    tag_4:\n      tag_38\n      tag_39\n      jump\t// in\n    tag_38:\n      mload(0x40)\n      tag_40\n      swap2\n      swap1\n      tag_41\n      jump\t// in\n    tag_40:\n      mload(0x40)\n      dup1\n      swap2\n      sub\n      swap1\n      return\n        /* \"@openzeppelin/contracts/token/ERC20/extensions/ERC4626.sol\":6152:6300  function convertToAssets(uint256 shares) public view virtual returns (uint256) {... */\n    tag_5:\n      tag_42\n      0x04\n      dup1\n      calldatasize\n      sub\n      dup2\n      add\n      swap1\n      tag_43\n      swap2\n      swap1\n      tag_44\n      jump\t// in\n    tag_43:\n      tag_45\n      jump\t// in\n    tag_42:\n      mload(0x40)\n      tag_46\n      swap2\n      swap1\n      tag_37\n      jump\t// in\n    tag_46:\n      mload(0x40)\n      dup1\n      swap2\n      sub\n      swap1\n      return\n        /* \"@openzeppelin/contracts/token/ERC20/ERC20.sol\":4293:4479  function approve(address spender, uint256 value) public virtual returns (bool) {... */\n    tag_6:\n      tag_47\n      0x04\n      dup1\n      calldatasize\n      sub\n      dup2\n      add\n      swap1\n      tag_48\n      swap2\n      swap1\n      tag_49\n      jump\t// in\n    tag_48:\n      tag_50\n      jump\t// in\n    tag_47:\n      mload(0x40)\n      tag_51\n      swap2\n      swap1\n      tag_52\n      jump\t// in\n    tag_51:\n      mload(0x40)\n      dup1\n      swap2\n      sub\n      swap1\n      return\n        /* \"@openzeppelin/contracts/token/ERC20/extensions/ERC4626.sol\":7418:7565  function previewWithdraw(uint256 assets) public view virtual returns (uint256) {... */\n    tag_7:\n      tag_53\n      0x04\n      dup1\n      calldatasize\n      sub\n      dup2\n      add\n      swap1\n      tag_54\n      swap2\n      swap1\n      tag_44\n      jump\t// in\n    tag_54:\n      tag_55\n      jump\t// in\n    tag_53:\n      mload(0x40)\n      tag_56\n      swap2\n      swap1\n      tag_37\n      jump\t// in\n    tag_56:\n      mload(0x40)\n      dup1\n      swap2\n      sub\n      swap1\n      return\n        /* \"@openzeppelin/contracts/token/ERC20/ERC20.sol\":3144:3241  function totalSupply() public view virtual returns (uint256) {... */\n    tag_8:\n      tag_57\n      tag_58\n      jump\t// in\n    tag_57:\n      mload(0x40)\n      tag_59\n      swap2\n      swap1\n      tag_37\n      jump\t// in\n    tag_59:\n      mload(0x40)\n      dup1\n      swap2\n      sub\n      swap1\n      return\n        /* \"@openzeppelin/contracts/token/ERC20/ERC20.sol\":5039:5283  function transferFrom(address from, address to, uint256 value) public virtual returns (bool) {... */\n    tag_9:\n      tag_60\n      0x04\n      dup1\n      calldatasize\n      sub\n      dup2\n      add\n      swap1\n      tag_61\n      swap2\n      swap1\n      tag_62\n      jump\t// in\n    tag_61:\n      tag_63\n      jump\t// in\n    tag_60:\n      mload(0x40)\n      tag_64\n      swap2\n      swap1\n      tag_52\n      jump\t// in\n    tag_64:\n      mload(0x40)\n      dup1\n      swap2\n      sub\n      swap1\n      return\n        /* \"@openzeppelin/contracts/token/ERC20/extensions/ERC4626.sol\":5441:5592  function decimals() public view virtual override(IERC20Metadata, ERC20) returns (uint8) {... */\n    tag_10:\n      tag_65\n      tag_66\n      jump\t// in\n    tag_65:\n      mload(0x40)\n      tag_67\n      swap2\n      swap1\n      tag_68\n      jump\t// in\n    tag_67:\n      mload(0x40)\n      dup1\n      swap2\n      sub\n      swap1\n      return\n        /* \"@openzeppelin/contracts/token/ERC20/extensions/ERC4626.sol\":5636:5730  function asset() public view virtual returns (address) {... */\n    tag_11:\n      tag_69\n      tag_70\n      jump\t// in\n    tag_69:\n      mload(0x40)\n      tag_71\n      swap2\n      swap1\n      tag_72\n      jump\t// in\n    tag_71:\n      mload(0x40)\n      dup1\n      swap2\n      sub\n      swap1\n      return\n        /* \"@openzeppelin/contracts/token/ERC20/extensions/ERC4626.sol\":6349:6457  function maxDeposit(address) public view virtual returns (uint256) {... */\n    tag_12:\n      tag_73\n      0x04\n      dup1\n      calldatasize\n      sub\n      dup2\n      add\n      swap1\n      tag_74\n      swap2\n      swap1\n      tag_75\n      jump\t// in\n    tag_74:\n      tag_76\n      jump\t// in\n    tag_73:\n      mload(0x40)\n      tag_77\n      swap2\n      swap1\n      tag_37\n      jump\t// in\n    tag_77:\n      mload(0x40)\n      dup1\n      swap2\n      sub\n      swap1\n      return\n        /* \"@openzeppelin/contracts/token/ERC20/extensions/ERC4626.sol\":7617:7763  function previewRedeem(uint256 shares) public view virtual returns (uint256) {... */\n    tag_13:\n      tag_78\n      0x04\n      dup1\n      calldatasize\n      sub\n      dup2\n      add\n      swap1\n      tag_79\n      swap2\n      swap1\n      tag_44\n      jump\t// in\n    tag_79:\n      tag_80\n      jump\t// in\n    tag_78:\n      mload(0x40)\n      tag_81\n      swap2\n      swap1\n      tag_37\n      jump\t// in\n    tag_81:\n      mload(0x40)\n      dup1\n      swap2\n      sub\n      swap1\n      return\n        /* \"contracts/Pool.sol\":635:1131  function deposit(uint256 assets, address receiver) auth public override returns (uint256) {... */\n    tag_14:\n      tag_82\n      0x04\n      dup1\n      calldatasize\n      sub\n      dup2\n      add\n      swap1\n      tag_83\n      swap2\n      swap1\n      tag_84\n      jump\t// in\n    tag_83:\n      tag_85\n      jump\t// in\n    tag_82:\n      mload(0x40)\n      tag_86\n      swap2\n      swap1\n      tag_37\n      jump\t// in\n    tag_86:\n      mload(0x40)\n      dup1\n      swap2\n      sub\n      swap1\n      return\n        /* \"@openzeppelin/contracts/token/ERC20/ERC20.sol\":3299:3415  function balanceOf(address account) public view virtual returns (uint256) {... */\n    tag_15:\n      tag_87\n      0x04\n      dup1\n      calldatasize\n      sub\n      dup2\n      add\n      swap1\n      tag_88\n      swap2\n      swap1\n      tag_75\n      jump\t// in\n    tag_88:\n      tag_89\n      jump\t// in\n    tag_87:\n      mload(0x40)\n      tag_90\n      swap2\n      swap1\n      tag_37\n      jump\t// in\n    tag_90:\n      mload(0x40)\n      dup1\n      swap2\n      sub\n      swap1\n      return\n        /* \"contracts/Pool.sol\":285:306  IERC20 public satoken */\n    tag_16:\n      tag_91\n      tag_92\n      jump\t// in\n    tag_91:\n      mload(0x40)\n      tag_93\n      swap2\n      swap1\n      tag_94\n      jump\t// in\n    tag_93:\n      mload(0x40)\n      dup1\n      swap2\n      sub\n      swap1\n      return\n        /* \"contracts/Pool.sol\":1572:1699  function mint(uint256 shares, address receiver) public override returns (uint256) {... */\n    tag_17:\n      tag_95\n      0x04\n      dup1\n      calldatasize\n      sub\n      dup2\n      add\n      swap1\n      tag_96\n      swap2\n      swap1\n      tag_84\n      jump\t// in\n    tag_96:\n      tag_97\n      jump\t// in\n    tag_95:\n      mload(0x40)\n      tag_98\n      swap2\n      swap1\n      tag_37\n      jump\t// in\n    tag_98:\n      mload(0x40)\n      dup1\n      swap2\n      sub\n      swap1\n      return\n        /* \"@openzeppelin/contracts/token/ERC20/ERC20.sol\":2276:2369  function symbol() public view virtual returns (string memory) {... */\n    tag_18:\n      tag_99\n      tag_100\n      jump\t// in\n    tag_99:\n      mload(0x40)\n      tag_101\n      swap2\n      swap1\n      tag_41\n      jump\t// in\n    tag_101:\n      mload(0x40)\n      dup1\n      swap2\n      sub\n      swap1\n      return\n        /* \"@openzeppelin/contracts/token/ERC20/ERC20.sol\":3610:3788  function transfer(address to, uint256 value) public virtual returns (bool) {... */\n    tag_19:\n      tag_102\n      0x04\n      dup1\n      calldatasize\n      sub\n      dup2\n      add\n      swap1\n      tag_103\n      swap2\n      swap1\n      tag_49\n      jump\t// in\n    tag_103:\n      tag_104\n      jump\t// in\n    tag_102:\n      mload(0x40)\n      tag_105\n      swap2\n      swap1\n      tag_52\n      jump\t// in\n    tag_105:\n      mload(0x40)\n      dup1\n      swap2\n      sub\n      swap1\n      return\n        /* \"@openzeppelin/contracts/token/ERC20/extensions/ERC4626.sol\":7221:7364  function previewMint(uint256 shares) public view virtual returns (uint256) {... */\n    tag_20:\n      tag_106\n      0x04\n      dup1\n      calldatasize\n      sub\n      dup2\n      add\n      swap1\n      tag_107\n      swap2\n      swap1\n      tag_44\n      jump\t// in\n    tag_107:\n      tag_108\n      jump\t// in\n    tag_106:\n      mload(0x40)\n      tag_109\n      swap2\n      swap1\n      tag_37\n      jump\t// in\n    tag_109:\n      mload(0x40)\n      dup1\n      swap2\n      sub\n      swap1\n      return\n        /* \"contracts/Pool.sol\":1178:1564  function withdraw(uint256 assets, address receiver, address owner) auth public override returns (uint256) {... */\n    tag_21:\n      tag_110\n      0x04\n      dup1\n      calldatasize\n      sub\n      dup2\n      add\n      swap1\n      tag_111\n      swap2\n      swap1\n      tag_112\n      jump\t// in\n    tag_111:\n      tag_113\n      jump\t// in\n    tag_110:\n      mload(0x40)\n      tag_114\n      swap2\n      swap1\n      tag_37\n      jump\t// in\n    tag_114:\n      mload(0x40)\n      dup1\n      swap2\n      sub\n      swap1\n      return\n        /* \"@openzeppelin/contracts/token/ERC20/extensions/ERC4626.sol\":9353:9758  function redeem(uint256 shares, address receiver, address owner) public virtual returns (uint256) {... */\n    tag_22:\n      tag_115\n      0x04\n      dup1\n      calldatasize\n      sub\n      dup2\n      add\n      swap1\n      tag_116\n      swap2\n      swap1\n      tag_112\n      jump\t// in\n    tag_116:\n      tag_117\n      jump\t// in\n    tag_115:\n      mload(0x40)\n      tag_118\n      swap2\n      swap1\n      tag_37\n      jump\t// in\n    tag_118:\n      mload(0x40)\n      dup1\n      swap2\n      sub\n      swap1\n      return\n        /* \"@openzeppelin/contracts/token/ERC20/extensions/ERC4626.sol\":6503:6608  function maxMint(address) public view virtual returns (uint256) {... */\n    tag_23:\n      tag_119\n      0x04\n      dup1\n      calldatasize\n      sub\n      dup2\n      add\n      swap1\n      tag_120\n      swap2\n      swap1\n      tag_75\n      jump\t// in\n    tag_120:\n      tag_121\n      jump\t// in\n    tag_119:\n      mload(0x40)\n      tag_122\n      swap2\n      swap1\n      tag_37\n      jump\t// in\n    tag_122:\n      mload(0x40)\n      dup1\n      swap2\n      sub\n      swap1\n      return\n        /* \"@openzeppelin/contracts/token/ERC20/extensions/ERC4626.sol\":5950:6098  function convertToShares(uint256 assets) public view virtual returns (uint256) {... */\n    tag_24:\n      tag_123\n      0x04\n      dup1\n      calldatasize\n      sub\n      dup2\n      add\n      swap1\n      tag_124\n      swap2\n      swap1\n      tag_44\n      jump\t// in\n    tag_124:\n      tag_125\n      jump\t// in\n    tag_123:\n      mload(0x40)\n      tag_126\n      swap2\n      swap1\n      tag_37\n      jump\t// in\n    tag_126:\n      mload(0x40)\n      dup1\n      swap2\n      sub\n      swap1\n      return\n        /* \"@openzeppelin/contracts/token/ERC20/extensions/ERC4626.sol\":6658:6811  function maxWithdraw(address owner) public view virtual returns (uint256) {... */\n    tag_25:\n      tag_127\n      0x04\n      dup1\n      calldatasize\n      sub\n      dup2\n      add\n      swap1\n      tag_128\n      swap2\n      swap1\n      tag_75\n      jump\t// in\n    tag_128:\n      tag_129\n      jump\t// in\n    tag_127:\n      mload(0x40)\n      tag_130\n      swap2\n      swap1\n      tag_37\n      jump\t// in\n    tag_130:\n      mload(0x40)\n      dup1\n      swap2\n      sub\n      swap1\n      return\n        /* \"@openzeppelin/contracts/token/ERC20/extensions/ERC4626.sol\":6859:6971  function maxRedeem(address owner) public view virtual returns (uint256) {... */\n    tag_26:\n      tag_131\n      0x04\n      dup1\n      calldatasize\n      sub\n      dup2\n      add\n      swap1\n      tag_132\n      swap2\n      swap1\n      tag_75\n      jump\t// in\n    tag_132:\n      tag_133\n      jump\t// in\n    tag_131:\n      mload(0x40)\n      tag_134\n      swap2\n      swap1\n      tag_37\n      jump\t// in\n    tag_134:\n      mload(0x40)\n      dup1\n      swap2\n      sub\n      swap1\n      return\n        /* \"@openzeppelin/contracts/token/ERC20/ERC20.sol\":3846:3986  function allowance(address owner, address spender) public view virtual returns (uint256) {... */\n    tag_27:\n      tag_135\n      0x04\n      dup1\n      calldatasize\n      sub\n      dup2\n      add\n      swap1\n      tag_136\n      swap2\n      swap1\n      tag_137\n      jump\t// in\n    tag_136:\n      tag_138\n      jump\t// in\n    tag_135:\n      mload(0x40)\n      tag_139\n      swap2\n      swap1\n      tag_37\n      jump\t// in\n    tag_139:\n      mload(0x40)\n      dup1\n      swap2\n      sub\n      swap1\n      return\n        /* \"@openzeppelin/contracts/token/ERC20/extensions/ERC4626.sol\":7024:7171  function previewDeposit(uint256 assets) public view virtual returns (uint256) {... */\n    tag_28:\n      tag_140\n      0x04\n      dup1\n      calldatasize\n      sub\n      dup2\n      add\n      swap1\n      tag_141\n      swap2\n      swap1\n      tag_44\n      jump\t// in\n    tag_141:\n      tag_142\n      jump\t// in\n    tag_140:\n      mload(0x40)\n      tag_143\n      swap2\n      swap1\n      tag_37\n      jump\t// in\n    tag_143:\n      mload(0x40)\n      dup1\n      swap2\n      sub\n      swap1\n      return\n        /* \"@openzeppelin/contracts/token/ERC20/extensions/ERC4626.sol\":5780:5896  function totalAssets() public view virtual returns (uint256) {... */\n    tag_35:\n        /* \"@openzeppelin/contracts/token/ERC20/extensions/ERC4626.sol\":5832:5839  uint256 */\n      0x00\n        /* \"@openzeppelin/contracts/token/ERC20/extensions/ERC4626.sol\":5858:5864  _asset */\n      immutable(\"0x912cdad641b4408bd64eb5a331e5fe393f33f2296e0c7fad54e613ac760cfb47\")\n        /* \"@openzeppelin/contracts/token/ERC20/extensions/ERC4626.sol\":5858:5874  _asset.balanceOf */\n      0xffffffffffffffffffffffffffffffffffffffff\n      and\n      0x70a08231\n        /* \"@openzeppelin/contracts/token/ERC20/extensions/ERC4626.sol\":5883:5887  this */\n      address\n        /* \"@openzeppelin/contracts/token/ERC20/extensions/ERC4626.sol\":5858:5889  _asset.balanceOf(address(this)) */\n      mload(0x40)\n      dup3\n      0xffffffff\n      and\n      0xe0\n      shl\n      dup2\n      mstore\n      0x04\n      add\n      tag_145\n      swap2\n      swap1\n      tag_72\n      jump\t// in\n    tag_145:\n      0x20\n      mload(0x40)\n      dup1\n      dup4\n      sub\n      dup2\n      dup7\n      gas\n      staticcall\n      iszero\n      dup1\n      iszero\n      tag_147\n      jumpi\n      returndatasize\n      0x00\n      dup1\n      returndatacopy\n      revert(0x00, returndatasize)\n    tag_147:\n      pop\n      pop\n      pop\n      pop\n      mload(0x40)\n      returndatasize\n      not(0x1f)\n      0x1f\n      dup3\n      add\n      and\n      dup3\n      add\n      dup1\n      0x40\n      mstore\n      pop\n      dup2\n      add\n      swap1\n      tag_148\n      swap2\n      swap1\n      tag_149\n      jump\t// in\n    tag_148:\n        /* \"@openzeppelin/contracts/token/ERC20/extensions/ERC4626.sol\":5851:5889  return _asset.balanceOf(address(this)) */\n      swap1\n      pop\n        /* \"@openzeppelin/contracts/token/ERC20/extensions/ERC4626.sol\":5780:5896  function totalAssets() public view virtual returns (uint256) {... */\n      swap1\n      jump\t// out\n        /* \"@openzeppelin/contracts/token/ERC20/ERC20.sol\":2074:2163  function name() public view virtual returns (string memory) {... */\n    tag_39:\n        /* \"@openzeppelin/contracts/token/ERC20/ERC20.sol\":2119:2132  string memory */\n      0x60\n        /* \"@openzeppelin/contracts/token/ERC20/ERC20.sol\":2151:2156  _name */\n      0x03\n        /* \"@openzeppelin/contracts/token/ERC20/ERC20.sol\":2144:2156  return _name */\n      dup1\n      sload\n      tag_151\n      swap1\n      tag_152\n      jump\t// in\n    tag_151:\n      dup1\n      0x1f\n      add\n      0x20\n      dup1\n      swap2\n      div\n      mul\n      0x20\n      add\n      mload(0x40)\n      swap1\n      dup2\n      add\n      0x40\n      mstore\n      dup1\n      swap3\n      swap2\n      swap1\n      dup2\n      dup2\n      mstore\n      0x20\n      add\n      dup3\n      dup1\n      sload\n      tag_153\n      swap1\n      tag_152\n      jump\t// in\n    tag_153:\n      dup1\n      iszero\n      tag_154\n      jumpi\n      dup1\n      0x1f\n      lt\n      tag_155\n      jumpi\n      0x0100\n      dup1\n      dup4\n      sload\n      div\n      mul\n      dup4\n      mstore\n      swap2\n      0x20\n      add\n      swap2\n      jump(tag_154)\n    tag_155:\n      dup3\n      add\n      swap2\n      swap1\n      0x00\n      mstore\n      keccak256(0x00, 0x20)\n      swap1\n    tag_156:\n      dup2\n      sload\n      dup2\n      mstore\n      swap1\n      0x01\n      add\n      swap1\n      0x20\n      add\n      dup1\n      dup4\n      gt\n      tag_156\n      jumpi\n      dup3\n      swap1\n      sub\n      0x1f\n      and\n      dup3\n      add\n      swap2\n    tag_154:\n      pop\n      pop\n      pop\n      pop\n      pop\n      swap1\n      pop\n        /* \"@openzeppelin/contracts/token/ERC20/ERC20.sol\":2074:2163  function name() public view virtual returns (string memory) {... */\n      swap1\n      jump\t// out\n        /* \"@openzeppelin/contracts/token/ERC20/extensions/ERC4626.sol\":6152:6300  function convertToAssets(uint256 shares) public view virtual returns (uint256) {... */\n    tag_45:\n        /* \"@openzeppelin/contracts/token/ERC20/extensions/ERC4626.sol\":6222:6229  uint256 */\n      0x00\n        /* \"@openzeppelin/contracts/token/ERC20/extensions/ERC4626.sol\":6248:6293  _convertToAssets(shares, Math.Rounding.Floor) */\n      tag_158\n        /* \"@openzeppelin/contracts/token/ERC20/extensions/ERC4626.sol\":6265:6271  shares */\n      dup3\n        /* \"@openzeppelin/contracts/token/ERC20/extensions/ERC4626.sol\":6273:6292  Math.Rounding.Floor */\n      0x00\n        /* \"@openzeppelin/contracts/token/ERC20/extensions/ERC4626.sol\":6248:6264  _convertToAssets */\n      tag_159\n        /* \"@openzeppelin/contracts/token/ERC20/extensions/ERC4626.sol\":6248:6293  _convertToAssets(shares, Math.Rounding.Floor) */\n      jump\t// in\n    tag_158:\n        /* \"@openzeppelin/contracts/token/ERC20/extensions/ERC4626.sol\":6241:6293  return _convertToAssets(shares, Math.Rounding.Floor) */\n      swap1\n      pop\n        /* \"@openzeppelin/contracts/token/ERC20/extensions/ERC4626.sol\":6152:6300  function convertToAssets(uint256 shares) public view virtual returns (uint256) {... */\n      swap2\n      swap1\n      pop\n      jump\t// out\n        /* \"@openzeppelin/contracts/token/ERC20/ERC20.sol\":4293:4479  function approve(address spender, uint256 value) public virtual returns (bool) {... */\n    tag_50:\n        /* \"@openzeppelin/contracts/token/ERC20/ERC20.sol\":4366:4370  bool */\n      0x00\n        /* \"@openzeppelin/contracts/token/ERC20/ERC20.sol\":4382:4395  address owner */\n      dup1\n        /* \"@openzeppelin/contracts/token/ERC20/ERC20.sol\":4398:4410  _msgSender() */\n      tag_161\n        /* \"@openzeppelin/contracts/token/ERC20/ERC20.sol\":4398:4408  _msgSender */\n      tag_162\n        /* \"@openzeppelin/contracts/token/ERC20/ERC20.sol\":4398:4410  _msgSender() */\n      jump\t// in\n    tag_161:\n        /* \"@openzeppelin/contracts/token/ERC20/ERC20.sol\":4382:4410  address owner = _msgSender() */\n      swap1\n      pop\n        /* \"@openzeppelin/contracts/token/ERC20/ERC20.sol\":4420:4451  _approve(owner, spender, value) */\n      tag_163\n        /* \"@openzeppelin/contracts/token/ERC20/ERC20.sol\":4429:4434  owner */\n      dup2\n        /* \"@openzeppelin/contracts/token/ERC20/ERC20.sol\":4436:4443  spender */\n      dup6\n        /* \"@openzeppelin/contracts/token/ERC20/ERC20.sol\":4445:4450  value */\n      dup6\n        /* \"@openzeppelin/contracts/token/ERC20/ERC20.sol\":4420:4428  _approve */\n      tag_164\n        /* \"@openzeppelin/contracts/token/ERC20/ERC20.sol\":4420:4451  _approve(owner, spender, value) */\n      jump\t// in\n    tag_163:\n        /* \"@openzeppelin/contracts/token/ERC20/ERC20.sol\":4468:4472  true */\n      0x01\n        /* \"@openzeppelin/contracts/token/ERC20/ERC20.sol\":4461:4472  return true */\n      swap2\n      pop\n      pop\n        /* \"@openzeppelin/contracts/token/ERC20/ERC20.sol\":4293:4479  function approve(address spender, uint256 value) public virtual returns (bool) {... */\n      swap3\n      swap2\n      pop\n      pop\n      jump\t// out\n        /* \"@openzeppelin/contracts/token/ERC20/extensions/ERC4626.sol\":7418:7565  function previewWithdraw(uint256 assets) public view virtual returns (uint256) {... */\n    tag_55:\n        /* \"@openzeppelin/contracts/token/ERC20/extensions/ERC4626.sol\":7488:7495  uint256 */\n      0x00\n        /* \"@openzeppelin/contracts/token/ERC20/extensions/ERC4626.sol\":7514:7558  _convertToShares(assets, Math.Rounding.Ceil) */\n      tag_166\n        /* \"@openzeppelin/contracts/token/ERC20/extensions/ERC4626.sol\":7531:7537  assets */\n      dup3\n        /* \"@openzeppelin/contracts/token/ERC20/extensions/ERC4626.sol\":7539:7557  Math.Rounding.Ceil */\n      0x01\n        /* \"@openzeppelin/contracts/token/ERC20/extensions/ERC4626.sol\":7514:7530  _convertToShares */\n      tag_167\n        /* \"@openzeppelin/contracts/token/ERC20/extensions/ERC4626.sol\":7514:7558  _convertToShares(assets, Math.Rounding.Ceil) */\n      jump\t// in\n    tag_166:\n        /* \"@openzeppelin/contracts/token/ERC20/extensions/ERC4626.sol\":7507:7558  return _convertToShares(assets, Math.Rounding.Ceil) */\n      swap1\n      pop\n        /* \"@openzeppelin/contracts/token/ERC20/extensions/ERC4626.sol\":7418:7565  function previewWithdraw(uint256 assets) public view virtual returns (uint256) {... */\n      swap2\n      swap1\n      pop\n      jump\t// out\n        /* \"@openzeppelin/contracts/token/ERC20/ERC20.sol\":3144:3241  function totalSupply() public view virtual returns (uint256) {... */\n    tag_58:\n        /* \"@openzeppelin/contracts/token/ERC20/ERC20.sol\":3196:3203  uint256 */\n      0x00\n        /* \"@openzeppelin/contracts/token/ERC20/ERC20.sol\":3222:3234  _totalSupply */\n      sload(0x02)\n        /* \"@openzeppelin/contracts/token/ERC20/ERC20.sol\":3215:3234  return _totalSupply */\n      swap1\n      pop\n        /* \"@openzeppelin/contracts/token/ERC20/ERC20.sol\":3144:3241  function totalSupply() public view virtual returns (uint256) {... */\n      swap1\n      jump\t// out\n        /* \"@openzeppelin/contracts/token/ERC20/ERC20.sol\":5039:5283  function transferFrom(address from, address to, uint256 value) public virtual returns (bool) {... */\n    tag_63:\n        /* \"@openzeppelin/contracts/token/ERC20/ERC20.sol\":5126:5130  bool */\n      0x00\n        /* \"@openzeppelin/contracts/token/ERC20/ERC20.sol\":5142:5157  address spender */\n      dup1\n        /* \"@openzeppelin/contracts/token/ERC20/ERC20.sol\":5160:5172  _msgSender() */\n      tag_170\n        /* \"@openzeppelin/contracts/token/ERC20/ERC20.sol\":5160:5170  _msgSender */\n      tag_162\n        /* \"@openzeppelin/contracts/token/ERC20/ERC20.sol\":5160:5172  _msgSender() */\n      jump\t// in\n    tag_170:\n        /* \"@openzeppelin/contracts/token/ERC20/ERC20.sol\":5142:5172  address spender = _msgSender() */\n      swap1\n      pop\n        /* \"@openzeppelin/contracts/token/ERC20/ERC20.sol\":5182:5219  _spendAllowance(from, spender, value) */\n      tag_171\n        /* \"@openzeppelin/contracts/token/ERC20/ERC20.sol\":5198:5202  from */\n      dup6\n        /* \"@openzeppelin/contracts/token/ERC20/ERC20.sol\":5204:5211  spender */\n      dup3\n        /* \"@openzeppelin/contracts/token/ERC20/ERC20.sol\":5213:5218  value */\n      dup6\n        /* \"@openzeppelin/contracts/token/ERC20/ERC20.sol\":5182:5197  _spendAllowance */\n      tag_172\n        /* \"@openzeppelin/contracts/token/ERC20/ERC20.sol\":5182:5219  _spendAllowance(from, spender, value) */\n      jump\t// in\n    tag_171:\n        /* \"@openzeppelin/contracts/token/ERC20/ERC20.sol\":5229:5255  _transfer(from, to, value) */\n      tag_173\n        /* \"@openzeppelin/contracts/token/ERC20/ERC20.sol\":5239:5243  from */\n      dup6\n        /* \"@openzeppelin/contracts/token/ERC20/ERC20.sol\":5245:5247  to */\n      dup6\n        /* \"@openzeppelin/contracts/token/ERC20/ERC20.sol\":5249:5254  value */\n      dup6\n        /* \"@openzeppelin/contracts/token/ERC20/ERC20.sol\":5229:5238  _transfer */\n      tag_174\n        /* \"@openzeppelin/contracts/token/ERC20/ERC20.sol\":5229:5255  _transfer(from, to, value) */\n      jump\t// in\n    tag_173:\n        /* \"@openzeppelin/contracts/token/ERC20/ERC20.sol\":5272:5276  true */\n      0x01\n        /* \"@openzeppelin/contracts/token/ERC20/ERC20.sol\":5265:5276  return true */\n      swap2\n      pop\n      pop\n        /* \"@openzeppelin/contracts/token/ERC20/ERC20.sol\":5039:5283  function transferFrom(address from, address to, uint256 value) public virtual returns (bool) {... */\n      swap4\n      swap3\n      pop\n      pop\n      pop\n      jump\t// out\n        /* \"@openzeppelin/contracts/token/ERC20/extensions/ERC4626.sol\":5441:5592  function decimals() public view virtual override(IERC20Metadata, ERC20) returns (uint8) {... */\n    tag_66:\n        /* \"@openzeppelin/contracts/token/ERC20/extensions/ERC4626.sol\":5522:5527  uint8 */\n      0x00\n        /* \"@openzeppelin/contracts/token/ERC20/extensions/ERC4626.sol\":5568:5585  _decimalsOffset() */\n      tag_176\n        /* \"@openzeppelin/contracts/token/ERC20/extensions/ERC4626.sol\":5568:5583  _decimalsOffset */\n      tag_177\n        /* \"@openzeppelin/contracts/token/ERC20/extensions/ERC4626.sol\":5568:5585  _decimalsOffset() */\n      jump\t// in\n    tag_176:\n        /* \"@openzeppelin/contracts/token/ERC20/extensions/ERC4626.sol\":5546:5565  _underlyingDecimals */\n      immutable(\"0x03ded74204f6f646223f7cf6a543675febcd907713c268f77886749ddbf07d3e\")\n        /* \"@openzeppelin/contracts/token/ERC20/extensions/ERC4626.sol\":5546:5585  _underlyingDecimals + _decimalsOffset() */\n      tag_178\n      swap2\n      swap1\n      tag_179\n      jump\t// in\n    tag_178:\n        /* \"@openzeppelin/contracts/token/ERC20/extensions/ERC4626.sol\":5539:5585  return _underlyingDecimals + _decimalsOffset() */\n      swap1\n      pop\n        /* \"@openzeppelin/contracts/token/ERC20/extensions/ERC4626.sol\":5441:5592  function decimals() public view virtual override(IERC20Metadata, ERC20) returns (uint8) {... */\n      swap1\n      jump\t// out\n        /* \"@openzeppelin/contracts/token/ERC20/extensions/ERC4626.sol\":5636:5730  function asset() public view virtual returns (address) {... */\n    tag_70:\n        /* \"@openzeppelin/contracts/token/ERC20/extensions/ERC4626.sol\":5682:5689  address */\n      0x00\n        /* \"@openzeppelin/contracts/token/ERC20/extensions/ERC4626.sol\":5716:5722  _asset */\n      immutable(\"0x912cdad641b4408bd64eb5a331e5fe393f33f2296e0c7fad54e613ac760cfb47\")\n        /* \"@openzeppelin/contracts/token/ERC20/extensions/ERC4626.sol\":5701:5723  return address(_asset) */\n      swap1\n      pop\n        /* \"@openzeppelin/contracts/token/ERC20/extensions/ERC4626.sol\":5636:5730  function asset() public view virtual returns (address) {... */\n      swap1\n      jump\t// out\n        /* \"@openzeppelin/contracts/token/ERC20/extensions/ERC4626.sol\":6349:6457  function maxDeposit(address) public view virtual returns (uint256) {... */\n    tag_76:\n        /* \"@openzeppelin/contracts/token/ERC20/extensions/ERC4626.sol\":6407:6414  uint256 */\n      0x00\n        /* \"@openzeppelin/contracts/token/ERC20/extensions/ERC4626.sol\":6433:6450  type(uint256).max */\n      0xffffffffffffffffffffffffffffffffffffffffffffffffffffffffffffffff\n        /* \"@openzeppelin/contracts/token/ERC20/extensions/ERC4626.sol\":6426:6450  return type(uint256).max */\n      swap1\n      pop\n        /* \"@openzeppelin/contracts/token/ERC20/extensions/ERC4626.sol\":6349:6457  function maxDeposit(address) public view virtual returns (uint256) {... */\n      swap2\n      swap1\n      pop\n      jump\t// out\n        /* \"@openzeppelin/contracts/token/ERC20/extensions/ERC4626.sol\":7617:7763  function previewRedeem(uint256 shares) public view virtual returns (uint256) {... */\n    tag_80:\n        /* \"@openzeppelin/contracts/token/ERC20/extensions/ERC4626.sol\":7685:7692  uint256 */\n      0x00\n        /* \"@openzeppelin/contracts/token/ERC20/extensions/ERC4626.sol\":7711:7756  _convertToAssets(shares, Math.Rounding.Floor) */\n      tag_183\n        /* \"@openzeppelin/contracts/token/ERC20/extensions/ERC4626.sol\":7728:7734  shares */\n      dup3\n        /* \"@openzeppelin/contracts/token/ERC20/extensions/ERC4626.sol\":7736:7755  Math.Rounding.Floor */\n      0x00\n        /* \"@openzeppelin/contracts/token/ERC20/extensions/ERC4626.sol\":7711:7727  _convertToAssets */\n      tag_159\n        /* \"@openzeppelin/contracts/token/ERC20/extensions/ERC4626.sol\":7711:7756  _convertToAssets(shares, Math.Rounding.Floor) */\n      jump\t// in\n    tag_183:\n        /* \"@openzeppelin/contracts/token/ERC20/extensions/ERC4626.sol\":7704:7756  return _convertToAssets(shares, Math.Rounding.Floor) */\n      swap1\n      pop\n        /* \"@openzeppelin/contracts/token/ERC20/extensions/ERC4626.sol\":7617:7763  function previewRedeem(uint256 shares) public view virtual returns (uint256) {... */\n      swap2\n      swap1\n      pop\n      jump\t// out\n        /* \"contracts/Pool.sol\":635:1131  function deposit(uint256 assets, address receiver) auth public override returns (uint256) {... */\n    tag_85:\n        /* \"contracts/Pool.sol\":716:723  uint256 */\n      0x00\n        /* \"contracts/Pool.sol\":437:447  msg.sender */\n      caller\n        /* \"contracts/Pool.sol\":417:447  address(satoken) == msg.sender */\n      0xffffffffffffffffffffffffffffffffffffffff\n      and\n        /* \"contracts/Pool.sol\":425:432  satoken */\n      0x05\n      0x00\n      swap1\n      sload\n      swap1\n      0x0100\n      exp\n      swap1\n      div\n      0xffffffffffffffffffffffffffffffffffffffff\n      and\n        /* \"contracts/Pool.sol\":417:447  address(satoken) == msg.sender */\n      0xffffffffffffffffffffffffffffffffffffffff\n      and\n      eq\n        /* \"contracts/Pool.sol\":409:472  require(address(satoken) == msg.sender, \"Sender is Not Vaults\") */\n      tag_185\n      jumpi\n      mload(0x40)\n      0x08c379a000000000000000000000000000000000000000000000000000000000\n      dup2\n      mstore\n      0x04\n      add\n      tag_186\n      swap1\n      tag_187\n      jump\t// in\n    tag_186:\n      mload(0x40)\n      dup1\n      swap2\n      sub\n      swap1\n      revert\n    tag_185:\n        /* \"contracts/Pool.sol\":747:751  true */\n      0x01\n        /* \"contracts/Pool.sol\":735:744  isDeposit */\n      0x05\n      0x14\n        /* \"contracts/Pool.sol\":735:751  isDeposit = true */\n      0x0100\n      exp\n      dup2\n      sload\n      dup2\n      0xff\n      mul\n      not\n      and\n      swap1\n      dup4\n      iszero\n      iszero\n      mul\n      or\n      swap1\n      sstore\n      pop\n        /* \"contracts/Pool.sol\":779:780  0 */\n      0x00\n        /* \"contracts/Pool.sol\":770:776  assets */\n      dup4\n        /* \"contracts/Pool.sol\":770:780  assets > 0 */\n      gt\n        /* \"contracts/Pool.sol\":762:814  require(assets > 0, \"Amount must be greater than 0\") */\n      tag_189\n      jumpi\n      mload(0x40)\n      0x08c379a000000000000000000000000000000000000000000000000000000000\n      dup2\n      mstore\n      0x04\n      add\n      tag_190\n      swap1\n      tag_191\n      jump\t// in\n    tag_190:\n      mload(0x40)\n      dup1\n      swap2\n      sub\n      swap1\n      revert\n    tag_189:\n        /* \"contracts/Pool.sol\":824:841  uint256 maxAssets */\n      0x00\n        /* \"contracts/Pool.sol\":844:864  maxDeposit(receiver) */\n      tag_192\n        /* \"contracts/Pool.sol\":855:863  receiver */\n      dup4\n        /* \"contracts/Pool.sol\":844:854  maxDeposit */\n      tag_76\n        /* \"contracts/Pool.sol\":844:864  maxDeposit(receiver) */\n      jump\t// in\n    tag_192:\n        /* \"contracts/Pool.sol\":824:864  uint256 maxAssets = maxDeposit(receiver) */\n      swap1\n      pop\n        /* \"contracts/Pool.sol\":887:896  maxAssets */\n      dup1\n        /* \"contracts/Pool.sol\":878:884  assets */\n      dup5\n        /* \"contracts/Pool.sol\":878:896  assets > maxAssets */\n      gt\n        /* \"contracts/Pool.sol\":874:984  if (assets > maxAssets) {... */\n      iszero\n      tag_193\n      jumpi\n        /* \"contracts/Pool.sol\":945:953  receiver */\n      dup3\n        /* \"contracts/Pool.sol\":955:961  assets */\n      dup5\n        /* \"contracts/Pool.sol\":963:972  maxAssets */\n      dup3\n        /* \"contracts/Pool.sol\":919:973  ERC4626ExceededMaxDeposit(receiver, assets, maxAssets) */\n      mload(0x40)\n      0x79012fb200000000000000000000000000000000000000000000000000000000\n      dup2\n      mstore\n      0x04\n      add\n      tag_194\n      swap4\n      swap3\n      swap2\n      swap1\n      tag_195\n      jump\t// in\n    tag_194:\n      mload(0x40)\n      dup1\n      swap2\n      sub\n      swap1\n      revert\n        /* \"contracts/Pool.sol\":874:984  if (assets > maxAssets) {... */\n    tag_193:\n        /* \"contracts/Pool.sol\":1002:1016  uint256 shares */\n      0x00\n        /* \"contracts/Pool.sol\":1019:1041  previewDeposit(assets) */\n      tag_196\n        /* \"contracts/Pool.sol\":1034:1040  assets */\n      dup6\n        /* \"contracts/Pool.sol\":1019:1033  previewDeposit */\n      tag_142\n        /* \"contracts/Pool.sol\":1019:1041  previewDeposit(assets) */\n      jump\t// in\n    tag_196:\n        /* \"contracts/Pool.sol\":1002:1041  uint256 shares = previewDeposit(assets) */\n      swap1\n      pop\n        /* \"contracts/Pool.sol\":1051:1074  _mint(receiver, shares) */\n      tag_197\n        /* \"contracts/Pool.sol\":1057:1065  receiver */\n      dup5\n        /* \"contracts/Pool.sol\":1067:1073  shares */\n      dup3\n        /* \"contracts/Pool.sol\":1051:1056  _mint */\n      tag_198\n        /* \"contracts/Pool.sol\":1051:1074  _mint(receiver, shares) */\n      jump\t// in\n    tag_197:\n        /* \"contracts/Pool.sol\":1096:1101  false */\n      0x00\n        /* \"contracts/Pool.sol\":1084:1093  isDeposit */\n      0x05\n      0x14\n        /* \"contracts/Pool.sol\":1084:1101  isDeposit = false */\n      0x0100\n      exp\n      dup2\n      sload\n      dup2\n      0xff\n      mul\n      not\n      and\n      swap1\n      dup4\n      iszero\n      iszero\n      mul\n      or\n      swap1\n      sstore\n      pop\n        /* \"contracts/Pool.sol\":1118:1124  shares */\n      dup1\n        /* \"contracts/Pool.sol\":1111:1124  return shares */\n      swap3\n      pop\n      pop\n      pop\n        /* \"contracts/Pool.sol\":635:1131  function deposit(uint256 assets, address receiver) auth public override returns (uint256) {... */\n      swap3\n      swap2\n      pop\n      pop\n      jump\t// out\n        /* \"@openzeppelin/contracts/token/ERC20/ERC20.sol\":3299:3415  function balanceOf(address account) public view virtual returns (uint256) {... */\n    tag_89:\n        /* \"@openzeppelin/contracts/token/ERC20/ERC20.sol\":3364:3371  uint256 */\n      0x00\n        /* \"@openzeppelin/contracts/token/ERC20/ERC20.sol\":3390:3399  _balances */\n      dup1\n        /* \"@openzeppelin/contracts/token/ERC20/ERC20.sol\":3390:3408  _balances[account] */\n      0x00\n        /* \"@openzeppelin/contracts/token/ERC20/ERC20.sol\":3400:3407  account */\n      dup4\n        /* \"@openzeppelin/contracts/token/ERC20/ERC20.sol\":3390:3408  _balances[account] */\n      0xffffffffffffffffffffffffffffffffffffffff\n      and\n      0xffffffffffffffffffffffffffffffffffffffff\n      and\n      dup2\n      mstore\n      0x20\n      add\n      swap1\n      dup2\n      mstore\n      0x20\n      add\n      0x00\n      keccak256\n      sload\n        /* \"@openzeppelin/contracts/token/ERC20/ERC20.sol\":3383:3408  return _balances[account] */\n      swap1\n      pop\n        /* \"@openzeppelin/contracts/token/ERC20/ERC20.sol\":3299:3415  function balanceOf(address account) public view virtual returns (uint256) {... */\n      swap2\n      swap1\n      pop\n      jump\t// out\n        /* \"contracts/Pool.sol\":285:306  IERC20 public satoken */\n    tag_92:\n      0x05\n      0x00\n      swap1\n      sload\n      swap1\n      0x0100\n      exp\n      swap1\n      div\n      0xffffffffffffffffffffffffffffffffffffffff\n      and\n      dup2\n      jump\t// out\n        /* \"contracts/Pool.sol\":1572:1699  function mint(uint256 shares, address receiver) public override returns (uint256) {... */\n    tag_97:\n        /* \"contracts/Pool.sol\":1645:1652  uint256 */\n      0x00\n        /* \"contracts/Pool.sol\":1671:1692  DEPRECATED_FUNCTION() */\n      mload(0x40)\n      0xa9a2322b00000000000000000000000000000000000000000000000000000000\n      dup2\n      mstore\n      0x04\n      add\n      mload(0x40)\n      dup1\n      swap2\n      sub\n      swap1\n      revert\n        /* \"@openzeppelin/contracts/token/ERC20/ERC20.sol\":2276:2369  function symbol() public view virtual returns (string memory) {... */\n    tag_100:\n        /* \"@openzeppelin/contracts/token/ERC20/ERC20.sol\":2323:2336  string memory */\n      0x60\n        /* \"@openzeppelin/contracts/token/ERC20/ERC20.sol\":2355:2362  _symbol */\n      0x04\n        /* \"@openzeppelin/contracts/token/ERC20/ERC20.sol\":2348:2362  return _symbol */\n      dup1\n      sload\n      tag_202\n      swap1\n      tag_152\n      jump\t// in\n    tag_202:\n      dup1\n      0x1f\n      add\n      0x20\n      dup1\n      swap2\n      div\n      mul\n      0x20\n      add\n      mload(0x40)\n      swap1\n      dup2\n      add\n      0x40\n      mstore\n      dup1\n      swap3\n      swap2\n      swap1\n      dup2\n      dup2\n      mstore\n      0x20\n      add\n      dup3\n      dup1\n      sload\n      tag_203\n      swap1\n      tag_152\n      jump\t// in\n    tag_203:\n      dup1\n      iszero\n      tag_204\n      jumpi\n      dup1\n      0x1f\n      lt\n      tag_205\n      jumpi\n      0x0100\n      dup1\n      dup4\n      sload\n      div\n      mul\n      dup4\n      mstore\n      swap2\n      0x20\n      add\n      swap2\n      jump(tag_204)\n    tag_205:\n      dup3\n      add\n      swap2\n      swap1\n      0x00\n      mstore\n      keccak256(0x00, 0x20)\n      swap1\n    tag_206:\n      dup2\n      sload\n      dup2\n      mstore\n      swap1\n      0x01\n      add\n      swap1\n      0x20\n      add\n      dup1\n      dup4\n      gt\n      tag_206\n      jumpi\n      dup3\n      swap1\n      sub\n      0x1f\n      and\n      dup3\n      add\n      swap2\n    tag_204:\n      pop\n      pop\n      pop\n      pop\n      pop\n      swap1\n      pop\n        /* \"@openzeppelin/contracts/token/ERC20/ERC20.sol\":2276:2369  function symbol() public view virtual returns (string memory) {... */\n      swap1\n      jump\t// out\n        /* \"@openzeppelin/contracts/token/ERC20/ERC20.sol\":3610:3788  function transfer(address to, uint256 value) public virtual returns (bool) {... */\n    tag_104:\n        /* \"@openzeppelin/contracts/token/ERC20/ERC20.sol\":3679:3683  bool */\n      0x00\n        /* \"@openzeppelin/contracts/token/ERC20/ERC20.sol\":3695:3708  address owner */\n      dup1\n        /* \"@openzeppelin/contracts/token/ERC20/ERC20.sol\":3711:3723  _msgSender() */\n      tag_208\n        /* \"@openzeppelin/contracts/token/ERC20/ERC20.sol\":3711:3721  _msgSender */\n      tag_162\n        /* \"@openzeppelin/contracts/token/ERC20/ERC20.sol\":3711:3723  _msgSender() */\n      jump\t// in\n    tag_208:\n        /* \"@openzeppelin/contracts/token/ERC20/ERC20.sol\":3695:3723  address owner = _msgSender() */\n      swap1\n      pop\n        /* \"@openzeppelin/contracts/token/ERC20/ERC20.sol\":3733:3760  _transfer(owner, to, value) */\n      tag_209\n        /* \"@openzeppelin/contracts/token/ERC20/ERC20.sol\":3743:3748  owner */\n      dup2\n        /* \"@openzeppelin/contracts/token/ERC20/ERC20.sol\":3750:3752  to */\n      dup6\n        /* \"@openzeppelin/contracts/token/ERC20/ERC20.sol\":3754:3759  value */\n      dup6\n        /* \"@openzeppelin/contracts/token/ERC20/ERC20.sol\":3733:3742  _transfer */\n      tag_174\n        /* \"@openzeppelin/contracts/token/ERC20/ERC20.sol\":3733:3760  _transfer(owner, to, value) */\n      jump\t// in\n    tag_209:\n        /* \"@openzeppelin/contracts/token/ERC20/ERC20.sol\":3777:3781  true */\n      0x01\n        /* \"@openzeppelin/contracts/token/ERC20/ERC20.sol\":3770:3781  return true */\n      swap2\n      pop\n      pop\n        /* \"@openzeppelin/contracts/token/ERC20/ERC20.sol\":3610:3788  function transfer(address to, uint256 value) public virtual returns (bool) {... */\n      swap3\n      swap2\n      pop\n      pop\n      jump\t// out\n        /* \"@openzeppelin/contracts/token/ERC20/extensions/ERC4626.sol\":7221:7364  function previewMint(uint256 shares) public view virtual returns (uint256) {... */\n    tag_108:\n        /* \"@openzeppelin/contracts/token/ERC20/extensions/ERC4626.sol\":7287:7294  uint256 */\n      0x00\n        /* \"@openzeppelin/contracts/token/ERC20/extensions/ERC4626.sol\":7313:7357  _convertToAssets(shares, Math.Rounding.Ceil) */\n      tag_211\n        /* \"@openzeppelin/contracts/token/ERC20/extensions/ERC4626.sol\":7330:7336  shares */\n      dup3\n        /* \"@openzeppelin/contracts/token/ERC20/extensions/ERC4626.sol\":7338:7356  Math.Rounding.Ceil */\n      0x01\n        /* \"@openzeppelin/contracts/token/ERC20/extensions/ERC4626.sol\":7313:7329  _convertToAssets */\n      tag_159\n        /* \"@openzeppelin/contracts/token/ERC20/extensions/ERC4626.sol\":7313:7357  _convertToAssets(shares, Math.Rounding.Ceil) */\n      jump\t// in\n    tag_211:\n        /* \"@openzeppelin/contracts/token/ERC20/extensions/ERC4626.sol\":7306:7357  return _convertToAssets(shares, Math.Rounding.Ceil) */\n      swap1\n      pop\n        /* \"@openzeppelin/contracts/token/ERC20/extensions/ERC4626.sol\":7221:7364  function previewMint(uint256 shares) public view virtual returns (uint256) {... */\n      swap2\n      swap1\n      pop\n      jump\t// out\n        /* \"contracts/Pool.sol\":1178:1564  function withdraw(uint256 assets, address receiver, address owner) auth public override returns (uint256) {... */\n    tag_113:\n        /* \"contracts/Pool.sol\":1275:1282  uint256 */\n      0x00\n        /* \"contracts/Pool.sol\":437:447  msg.sender */\n      caller\n        /* \"contracts/Pool.sol\":417:447  address(satoken) == msg.sender */\n      0xffffffffffffffffffffffffffffffffffffffff\n      and\n        /* \"contracts/Pool.sol\":425:432  satoken */\n      0x05\n      0x00\n      swap1\n      sload\n      swap1\n      0x0100\n      exp\n      swap1\n      div\n      0xffffffffffffffffffffffffffffffffffffffff\n      and\n        /* \"contracts/Pool.sol\":417:447  address(satoken) == msg.sender */\n      0xffffffffffffffffffffffffffffffffffffffff\n      and\n      eq\n        /* \"contracts/Pool.sol\":409:472  require(address(satoken) == msg.sender, \"Sender is Not Vaults\") */\n      tag_213\n      jumpi\n      mload(0x40)\n      0x08c379a000000000000000000000000000000000000000000000000000000000\n      dup2\n      mstore\n      0x04\n      add\n      tag_214\n      swap1\n      tag_187\n      jump\t// in\n    tag_214:\n      mload(0x40)\n      dup1\n      swap2\n      sub\n      swap1\n      revert\n    tag_213:\n        /* \"contracts/Pool.sol\":1294:1311  uint256 maxAssets */\n      0x00\n        /* \"contracts/Pool.sol\":1314:1332  maxWithdraw(owner) */\n      tag_216\n        /* \"contracts/Pool.sol\":1326:1331  owner */\n      dup4\n        /* \"contracts/Pool.sol\":1314:1325  maxWithdraw */\n      tag_129\n        /* \"contracts/Pool.sol\":1314:1332  maxWithdraw(owner) */\n      jump\t// in\n    tag_216:\n        /* \"contracts/Pool.sol\":1294:1332  uint256 maxAssets = maxWithdraw(owner) */\n      swap1\n      pop\n        /* \"contracts/Pool.sol\":1355:1364  maxAssets */\n      dup1\n        /* \"contracts/Pool.sol\":1346:1352  assets */\n      dup6\n        /* \"contracts/Pool.sol\":1346:1364  assets > maxAssets */\n      gt\n        /* \"contracts/Pool.sol\":1342:1450  if (assets > maxAssets) {... */\n      iszero\n      tag_217\n      jumpi\n        /* \"contracts/Pool.sol\":1414:1419  owner */\n      dup3\n        /* \"contracts/Pool.sol\":1421:1427  assets */\n      dup6\n        /* \"contracts/Pool.sol\":1429:1438  maxAssets */\n      dup3\n        /* \"contracts/Pool.sol\":1387:1439  ERC4626ExceededMaxWithdraw(owner, assets, maxAssets) */\n      mload(0x40)\n      0xfe9cceec00000000000000000000000000000000000000000000000000000000\n      dup2\n      mstore\n      0x04\n      add\n      tag_218\n      swap4\n      swap3\n      swap2\n      swap1\n      tag_195\n      jump\t// in\n    tag_218:\n      mload(0x40)\n      dup1\n      swap2\n      sub\n      swap1\n      revert\n        /* \"contracts/Pool.sol\":1342:1450  if (assets > maxAssets) {... */\n    tag_217:\n        /* \"contracts/Pool.sol\":1460:1474  uint256 shares */\n      0x00\n        /* \"contracts/Pool.sol\":1477:1500  previewWithdraw(assets) */\n      tag_219\n        /* \"contracts/Pool.sol\":1493:1499  assets */\n      dup7\n        /* \"contracts/Pool.sol\":1477:1492  previewWithdraw */\n      tag_55\n        /* \"contracts/Pool.sol\":1477:1500  previewWithdraw(assets) */\n      jump\t// in\n    tag_219:\n        /* \"contracts/Pool.sol\":1460:1500  uint256 shares = previewWithdraw(assets) */\n      swap1\n      pop\n        /* \"contracts/Pool.sol\":1510:1530  _burn(owner, shares) */\n      tag_220\n        /* \"contracts/Pool.sol\":1516:1521  owner */\n      dup5\n        /* \"contracts/Pool.sol\":1523:1529  shares */\n      dup3\n        /* \"contracts/Pool.sol\":1510:1515  _burn */\n      tag_221\n        /* \"contracts/Pool.sol\":1510:1530  _burn(owner, shares) */\n      jump\t// in\n    tag_220:\n        /* \"contracts/Pool.sol\":1548:1557  maxAssets */\n      dup2\n        /* \"contracts/Pool.sol\":1541:1557  return maxAssets */\n      swap3\n      pop\n      pop\n      pop\n        /* \"contracts/Pool.sol\":1178:1564  function withdraw(uint256 assets, address receiver, address owner) auth public override returns (uint256) {... */\n      swap4\n      swap3\n      pop\n      pop\n      pop\n      jump\t// out\n        /* \"@openzeppelin/contracts/token/ERC20/extensions/ERC4626.sol\":9353:9758  function redeem(uint256 shares, address receiver, address owner) public virtual returns (uint256) {... */\n    tag_117:\n        /* \"@openzeppelin/contracts/token/ERC20/extensions/ERC4626.sol\":9442:9449  uint256 */\n      0x00\n        /* \"@openzeppelin/contracts/token/ERC20/extensions/ERC4626.sol\":9461:9478  uint256 maxShares */\n      dup1\n        /* \"@openzeppelin/contracts/token/ERC20/extensions/ERC4626.sol\":9481:9497  maxRedeem(owner) */\n      tag_223\n        /* \"@openzeppelin/contracts/token/ERC20/extensions/ERC4626.sol\":9491:9496  owner */\n      dup4\n        /* \"@openzeppelin/contracts/token/ERC20/extensions/ERC4626.sol\":9481:9490  maxRedeem */\n      tag_133\n        /* \"@openzeppelin/contracts/token/ERC20/extensions/ERC4626.sol\":9481:9497  maxRedeem(owner) */\n      jump\t// in\n    tag_223:\n        /* \"@openzeppelin/contracts/token/ERC20/extensions/ERC4626.sol\":9461:9497  uint256 maxShares = maxRedeem(owner) */\n      swap1\n      pop\n        /* \"@openzeppelin/contracts/token/ERC20/extensions/ERC4626.sol\":9520:9529  maxShares */\n      dup1\n        /* \"@openzeppelin/contracts/token/ERC20/extensions/ERC4626.sol\":9511:9517  shares */\n      dup6\n        /* \"@openzeppelin/contracts/token/ERC20/extensions/ERC4626.sol\":9511:9529  shares > maxShares */\n      gt\n        /* \"@openzeppelin/contracts/token/ERC20/extensions/ERC4626.sol\":9507:9613  if (shares > maxShares) {... */\n      iszero\n      tag_224\n      jumpi\n        /* \"@openzeppelin/contracts/token/ERC20/extensions/ERC4626.sol\":9577:9582  owner */\n      dup3\n        /* \"@openzeppelin/contracts/token/ERC20/extensions/ERC4626.sol\":9584:9590  shares */\n      dup6\n        /* \"@openzeppelin/contracts/token/ERC20/extensions/ERC4626.sol\":9592:9601  maxShares */\n      dup3\n        /* \"@openzeppelin/contracts/token/ERC20/extensions/ERC4626.sol\":9552:9602  ERC4626ExceededMaxRedeem(owner, shares, maxShares) */\n      mload(0x40)\n      0xb94abeec00000000000000000000000000000000000000000000000000000000\n      dup2\n      mstore\n      0x04\n      add\n      tag_225\n      swap4\n      swap3\n      swap2\n      swap1\n      tag_195\n      jump\t// in\n    tag_225:\n      mload(0x40)\n      dup1\n      swap2\n      sub\n      swap1\n      revert\n        /* \"@openzeppelin/contracts/token/ERC20/extensions/ERC4626.sol\":9507:9613  if (shares > maxShares) {... */\n    tag_224:\n        /* \"@openzeppelin/contracts/token/ERC20/extensions/ERC4626.sol\":9623:9637  uint256 assets */\n      0x00\n        /* \"@openzeppelin/contracts/token/ERC20/extensions/ERC4626.sol\":9640:9661  previewRedeem(shares) */\n      tag_226\n        /* \"@openzeppelin/contracts/token/ERC20/extensions/ERC4626.sol\":9654:9660  shares */\n      dup7\n        /* \"@openzeppelin/contracts/token/ERC20/extensions/ERC4626.sol\":9640:9653  previewRedeem */\n      tag_80\n        /* \"@openzeppelin/contracts/token/ERC20/extensions/ERC4626.sol\":9640:9661  previewRedeem(shares) */\n      jump\t// in\n    tag_226:\n        /* \"@openzeppelin/contracts/token/ERC20/extensions/ERC4626.sol\":9623:9661  uint256 assets = previewRedeem(shares) */\n      swap1\n      pop\n        /* \"@openzeppelin/contracts/token/ERC20/extensions/ERC4626.sol\":9671:9727  _withdraw(_msgSender(), receiver, owner, assets, shares) */\n      tag_227\n        /* \"@openzeppelin/contracts/token/ERC20/extensions/ERC4626.sol\":9681:9693  _msgSender() */\n      tag_228\n        /* \"@openzeppelin/contracts/token/ERC20/extensions/ERC4626.sol\":9681:9691  _msgSender */\n      tag_162\n        /* \"@openzeppelin/contracts/token/ERC20/extensions/ERC4626.sol\":9681:9693  _msgSender() */\n      jump\t// in\n    tag_228:\n        /* \"@openzeppelin/contracts/token/ERC20/extensions/ERC4626.sol\":9695:9703  receiver */\n      dup7\n        /* \"@openzeppelin/contracts/token/ERC20/extensions/ERC4626.sol\":9705:9710  owner */\n      dup7\n        /* \"@openzeppelin/contracts/token/ERC20/extensions/ERC4626.sol\":9712:9718  assets */\n      dup5\n        /* \"@openzeppelin/contracts/token/ERC20/extensions/ERC4626.sol\":9720:9726  shares */\n      dup11\n        /* \"@openzeppelin/contracts/token/ERC20/extensions/ERC4626.sol\":9671:9680  _withdraw */\n      tag_229\n        /* \"@openzeppelin/contracts/token/ERC20/extensions/ERC4626.sol\":9671:9727  _withdraw(_msgSender(), receiver, owner, assets, shares) */\n      jump\t// in\n    tag_227:\n        /* \"@openzeppelin/contracts/token/ERC20/extensions/ERC4626.sol\":9745:9751  assets */\n      dup1\n        /* \"@openzeppelin/contracts/token/ERC20/extensions/ERC4626.sol\":9738:9751  return assets */\n      swap3\n      pop\n      pop\n      pop\n        /* \"@openzeppelin/contracts/token/ERC20/extensions/ERC4626.sol\":9353:9758  function redeem(uint256 shares, address receiver, address owner) public virtual returns (uint256) {... */\n      swap4\n      swap3\n      pop\n      pop\n      pop\n      jump\t// out\n        /* \"@openzeppelin/contracts/token/ERC20/extensions/ERC4626.sol\":6503:6608  function maxMint(address) public view virtual returns (uint256) {... */\n    tag_121:\n        /* \"@openzeppelin/contracts/token/ERC20/extensions/ERC4626.sol\":6558:6565  uint256 */\n      0x00\n        /* \"@openzeppelin/contracts/token/ERC20/extensions/ERC4626.sol\":6584:6601  type(uint256).max */\n      0xffffffffffffffffffffffffffffffffffffffffffffffffffffffffffffffff\n        /* \"@openzeppelin/contracts/token/ERC20/extensions/ERC4626.sol\":6577:6601  return type(uint256).max */\n      swap1\n      pop\n        /* \"@openzeppelin/contracts/token/ERC20/extensions/ERC4626.sol\":6503:6608  function maxMint(address) public view virtual returns (uint256) {... */\n      swap2\n      swap1\n      pop\n      jump\t// out\n        /* \"@openzeppelin/contracts/token/ERC20/extensions/ERC4626.sol\":5950:6098  function convertToShares(uint256 assets) public view virtual returns (uint256) {... */\n    tag_125:\n        /* \"@openzeppelin/contracts/token/ERC20/extensions/ERC4626.sol\":6020:6027  uint256 */\n      0x00\n        /* \"@openzeppelin/contracts/token/ERC20/extensions/ERC4626.sol\":6046:6091  _convertToShares(assets, Math.Rounding.Floor) */\n      tag_232\n        /* \"@openzeppelin/contracts/token/ERC20/extensions/ERC4626.sol\":6063:6069  assets */\n      dup3\n        /* \"@openzeppelin/contracts/token/ERC20/extensions/ERC4626.sol\":6071:6090  Math.Rounding.Floor */\n      0x00\n        /* \"@openzeppelin/contracts/token/ERC20/extensions/ERC4626.sol\":6046:6062  _convertToShares */\n      tag_167\n        /* \"@openzeppelin/contracts/token/ERC20/extensions/ERC4626.sol\":6046:6091  _convertToShares(assets, Math.Rounding.Floor) */\n      jump\t// in\n    tag_232:\n        /* \"@openzeppelin/contracts/token/ERC20/extensions/ERC4626.sol\":6039:6091  return _convertToShares(assets, Math.Rounding.Floor) */\n      swap1\n      pop\n        /* \"@openzeppelin/contracts/token/ERC20/extensions/ERC4626.sol\":5950:6098  function convertToShares(uint256 assets) public view virtual returns (uint256) {... */\n      swap2\n      swap1\n      pop\n      jump\t// out\n        /* \"@openzeppelin/contracts/token/ERC20/extensions/ERC4626.sol\":6658:6811  function maxWithdraw(address owner) public view virtual returns (uint256) {... */\n    tag_129:\n        /* \"@openzeppelin/contracts/token/ERC20/extensions/ERC4626.sol\":6723:6730  uint256 */\n      0x00\n        /* \"@openzeppelin/contracts/token/ERC20/extensions/ERC4626.sol\":6749:6804  _convertToAssets(balanceOf(owner), Math.Rounding.Floor) */\n      tag_234\n        /* \"@openzeppelin/contracts/token/ERC20/extensions/ERC4626.sol\":6766:6782  balanceOf(owner) */\n      tag_235\n        /* \"@openzeppelin/contracts/token/ERC20/extensions/ERC4626.sol\":6776:6781  owner */\n      dup4\n        /* \"@openzeppelin/contracts/token/ERC20/extensions/ERC4626.sol\":6766:6775  balanceOf */\n      tag_89\n        /* \"@openzeppelin/contracts/token/ERC20/extensions/ERC4626.sol\":6766:6782  balanceOf(owner) */\n      jump\t// in\n    tag_235:\n        /* \"@openzeppelin/contracts/token/ERC20/extensions/ERC4626.sol\":6784:6803  Math.Rounding.Floor */\n      0x00\n        /* \"@openzeppelin/contracts/token/ERC20/extensions/ERC4626.sol\":6749:6765  _convertToAssets */\n      tag_159\n        /* \"@openzeppelin/contracts/token/ERC20/extensions/ERC4626.sol\":6749:6804  _convertToAssets(balanceOf(owner), Math.Rounding.Floor) */\n      jump\t// in\n    tag_234:\n        /* \"@openzeppelin/contracts/token/ERC20/extensions/ERC4626.sol\":6742:6804  return _convertToAssets(balanceOf(owner), Math.Rounding.Floor) */\n      swap1\n      pop\n        /* \"@openzeppelin/contracts/token/ERC20/extensions/ERC4626.sol\":6658:6811  function maxWithdraw(address owner) public view virtual returns (uint256) {... */\n      swap2\n      swap1\n      pop\n      jump\t// out\n        /* \"@openzeppelin/contracts/token/ERC20/extensions/ERC4626.sol\":6859:6971  function maxRedeem(address owner) public view virtual returns (uint256) {... */\n    tag_133:\n        /* \"@openzeppelin/contracts/token/ERC20/extensions/ERC4626.sol\":6922:6929  uint256 */\n      0x00\n        /* \"@openzeppelin/contracts/token/ERC20/extensions/ERC4626.sol\":6948:6964  balanceOf(owner) */\n      tag_237\n        /* \"@openzeppelin/contracts/token/ERC20/extensions/ERC4626.sol\":6958:6963  owner */\n      dup3\n        /* \"@openzeppelin/contracts/token/ERC20/extensions/ERC4626.sol\":6948:6957  balanceOf */\n      tag_89\n        /* \"@openzeppelin/contracts/token/ERC20/extensions/ERC4626.sol\":6948:6964  balanceOf(owner) */\n      jump\t// in\n    tag_237:\n        /* \"@openzeppelin/contracts/token/ERC20/extensions/ERC4626.sol\":6941:6964  return balanceOf(owner) */\n      swap1\n      pop\n        /* \"@openzeppelin/contracts/token/ERC20/extensions/ERC4626.sol\":6859:6971  function maxRedeem(address owner) public view virtual returns (uint256) {... */\n      swap2\n      swap1\n      pop\n      jump\t// out\n        /* \"@openzeppelin/contracts/token/ERC20/ERC20.sol\":3846:3986  function allowance(address owner, address spender) public view virtual returns (uint256) {... */\n    tag_138:\n        /* \"@openzeppelin/contracts/token/ERC20/ERC20.sol\":3926:3933  uint256 */\n      0x00\n        /* \"@openzeppelin/contracts/token/ERC20/ERC20.sol\":3952:3963  _allowances */\n      0x01\n        /* \"@openzeppelin/contracts/token/ERC20/ERC20.sol\":3952:3970  _allowances[owner] */\n      0x00\n        /* \"@openzeppelin/contracts/token/ERC20/ERC20.sol\":3964:3969  owner */\n      dup5\n        /* \"@openzeppelin/contracts/token/ERC20/ERC20.sol\":3952:3970  _allowances[owner] */\n      0xffffffffffffffffffffffffffffffffffffffff\n      and\n      0xffffffffffffffffffffffffffffffffffffffff\n      and\n      dup2\n      mstore\n      0x20\n      add\n      swap1\n      dup2\n      mstore\n      0x20\n      add\n      0x00\n      keccak256\n        /* \"@openzeppelin/contracts/token/ERC20/ERC20.sol\":3952:3979  _allowances[owner][spender] */\n      0x00\n        /* \"@openzeppelin/contracts/token/ERC20/ERC20.sol\":3971:3978  spender */\n      dup4\n        /* \"@openzeppelin/contracts/token/ERC20/ERC20.sol\":3952:3979  _allowances[owner][spender] */\n      0xffffffffffffffffffffffffffffffffffffffff\n      and\n      0xffffffffffffffffffffffffffffffffffffffff\n      and\n      dup2\n      mstore\n      0x20\n      add\n      swap1\n      dup2\n      mstore\n      0x20\n      add\n      0x00\n      keccak256\n      sload\n        /* \"@openzeppelin/contracts/token/ERC20/ERC20.sol\":3945:3979  return _allowances[owner][spender] */\n      swap1\n      pop\n        /* \"@openzeppelin/contracts/token/ERC20/ERC20.sol\":3846:3986  function allowance(address owner, address spender) public view virtual returns (uint256) {... */\n      swap3\n      swap2\n      pop\n      pop\n      jump\t// out\n        /* \"@openzeppelin/contracts/token/ERC20/extensions/ERC4626.sol\":7024:7171  function previewDeposit(uint256 assets) public view virtual returns (uint256) {... */\n    tag_142:\n        /* \"@openzeppelin/contracts/token/ERC20/extensions/ERC4626.sol\":7093:7100  uint256 */\n      0x00\n        /* \"@openzeppelin/contracts/token/ERC20/extensions/ERC4626.sol\":7119:7164  _convertToShares(assets, Math.Rounding.Floor) */\n      tag_240\n        /* \"@openzeppelin/contracts/token/ERC20/extensions/ERC4626.sol\":7136:7142  assets */\n      dup3\n        /* \"@openzeppelin/contracts/token/ERC20/extensions/ERC4626.sol\":7144:7163  Math.Rounding.Floor */\n      0x00\n        /* \"@openzeppelin/contracts/token/ERC20/extensions/ERC4626.sol\":7119:7135  _convertToShares */\n      tag_167\n        /* \"@openzeppelin/contracts/token/ERC20/extensions/ERC4626.sol\":7119:7164  _convertToShares(assets, Math.Rounding.Floor) */\n      jump\t// in\n    tag_240:\n        /* \"@openzeppelin/contracts/token/ERC20/extensions/ERC4626.sol\":7112:7164  return _convertToShares(assets, Math.Rounding.Floor) */\n      swap1\n      pop\n        /* \"@openzeppelin/contracts/token/ERC20/extensions/ERC4626.sol\":7024:7171  function previewDeposit(uint256 assets) public view virtual returns (uint256) {... */\n      swap2\n      swap1\n      pop\n      jump\t// out\n        /* \"@openzeppelin/contracts/token/ERC20/extensions/ERC4626.sol\":10219:10432  function _convertToAssets(uint256 shares, Math.Rounding rounding) internal view virtual returns (uint256) {... */\n    tag_159:\n        /* \"@openzeppelin/contracts/token/ERC20/extensions/ERC4626.sol\":10316:10323  uint256 */\n      0x00\n        /* \"@openzeppelin/contracts/token/ERC20/extensions/ERC4626.sol\":10342:10425  shares.mulDiv(totalAssets() + 1, totalSupply() + 10 ** _decimalsOffset(), rounding) */\n      tag_242\n        /* \"@openzeppelin/contracts/token/ERC20/extensions/ERC4626.sol\":10372:10373  1 */\n      0x01\n        /* \"@openzeppelin/contracts/token/ERC20/extensions/ERC4626.sol\":10356:10369  totalAssets() */\n      tag_243\n        /* \"@openzeppelin/contracts/token/ERC20/extensions/ERC4626.sol\":10356:10367  totalAssets */\n      tag_35\n        /* \"@openzeppelin/contracts/token/ERC20/extensions/ERC4626.sol\":10356:10369  totalAssets() */\n      jump\t// in\n    tag_243:\n        /* \"@openzeppelin/contracts/token/ERC20/extensions/ERC4626.sol\":10356:10373  totalAssets() + 1 */\n      tag_244\n      swap2\n      swap1\n      tag_245\n      jump\t// in\n    tag_244:\n        /* \"@openzeppelin/contracts/token/ERC20/extensions/ERC4626.sol\":10397:10414  _decimalsOffset() */\n      tag_246\n        /* \"@openzeppelin/contracts/token/ERC20/extensions/ERC4626.sol\":10397:10412  _decimalsOffset */\n      tag_177\n        /* \"@openzeppelin/contracts/token/ERC20/extensions/ERC4626.sol\":10397:10414  _decimalsOffset() */\n      jump\t// in\n    tag_246:\n        /* \"@openzeppelin/contracts/token/ERC20/extensions/ERC4626.sol\":10391:10393  10 */\n      0x0a\n        /* \"@openzeppelin/contracts/token/ERC20/extensions/ERC4626.sol\":10391:10414  10 ** _decimalsOffset() */\n      tag_247\n      swap2\n      swap1\n      tag_248\n      jump\t// in\n    tag_247:\n        /* \"@openzeppelin/contracts/token/ERC20/extensions/ERC4626.sol\":10375:10388  totalSupply() */\n      tag_249\n        /* \"@openzeppelin/contracts/token/ERC20/extensions/ERC4626.sol\":10375:10386  totalSupply */\n      tag_58\n        /* \"@openzeppelin/contracts/token/ERC20/extensions/ERC4626.sol\":10375:10388  totalSupply() */\n      jump\t// in\n    tag_249:\n        /* \"@openzeppelin/contracts/token/ERC20/extensions/ERC4626.sol\":10375:10414  totalSupply() + 10 ** _decimalsOffset() */\n      tag_250\n      swap2\n      swap1\n      tag_245\n      jump\t// in\n    tag_250:\n        /* \"@openzeppelin/contracts/token/ERC20/extensions/ERC4626.sol\":10416:10424  rounding */\n      dup5\n        /* \"@openzeppelin/contracts/token/ERC20/extensions/ERC4626.sol\":10342:10348  shares */\n      dup7\n        /* \"@openzeppelin/contracts/token/ERC20/extensions/ERC4626.sol\":10342:10355  shares.mulDiv */\n      tag_251\n      swap1\n        /* \"@openzeppelin/contracts/token/ERC20/extensions/ERC4626.sol\":10342:10425  shares.mulDiv(totalAssets() + 1, totalSupply() + 10 ** _decimalsOffset(), rounding) */\n      swap4\n      swap3\n      swap2\n      swap1\n      0xffffffff\n      and\n      jump\t// in\n    tag_242:\n        /* \"@openzeppelin/contracts/token/ERC20/extensions/ERC4626.sol\":10335:10425  return shares.mulDiv(totalAssets() + 1, totalSupply() + 10 ** _decimalsOffset(), rounding) */\n      swap1\n      pop\n        /* \"@openzeppelin/contracts/token/ERC20/extensions/ERC4626.sol\":10219:10432  function _convertToAssets(uint256 shares, Math.Rounding rounding) internal view virtual returns (uint256) {... */\n      swap3\n      swap2\n      pop\n      pop\n      jump\t// out\n        /* \"@openzeppelin/contracts/utils/Context.sol\":656:752  function _msgSender() internal view virtual returns (address) {... */\n    tag_162:\n        /* \"@openzeppelin/contracts/utils/Context.sol\":709:716  address */\n      0x00\n        /* \"@openzeppelin/contracts/utils/Context.sol\":735:745  msg.sender */\n      caller\n        /* \"@openzeppelin/contracts/utils/Context.sol\":728:745  return msg.sender */\n      swap1\n      pop\n        /* \"@openzeppelin/contracts/utils/Context.sol\":656:752  function _msgSender() internal view virtual returns (address) {... */\n      swap1\n      jump\t// out\n        /* \"@openzeppelin/contracts/token/ERC20/ERC20.sol\":8989:9117  function _approve(address owner, address spender, uint256 value) internal {... */\n    tag_164:\n        /* \"@openzeppelin/contracts/token/ERC20/ERC20.sol\":9073:9110  _approve(owner, spender, value, true) */\n      tag_254\n        /* \"@openzeppelin/contracts/token/ERC20/ERC20.sol\":9082:9087  owner */\n      dup4\n        /* \"@openzeppelin/contracts/token/ERC20/ERC20.sol\":9089:9096  spender */\n      dup4\n        /* \"@openzeppelin/contracts/token/ERC20/ERC20.sol\":9098:9103  value */\n      dup4\n        /* \"@openzeppelin/contracts/token/ERC20/ERC20.sol\":9105:9109  true */\n      0x01\n        /* \"@openzeppelin/contracts/token/ERC20/ERC20.sol\":9073:9081  _approve */\n      tag_255\n        /* \"@openzeppelin/contracts/token/ERC20/ERC20.sol\":9073:9110  _approve(owner, spender, value, true) */\n      jump\t// in\n    tag_254:\n        /* \"@openzeppelin/contracts/token/ERC20/ERC20.sol\":8989:9117  function _approve(address owner, address spender, uint256 value) internal {... */\n      pop\n      pop\n      pop\n      jump\t// out\n        /* \"contracts/Pool.sol\":1823:2221  function _convertToShares(uint256 assets, Math.Rounding rounding) internal view override returns (uint256) {... */\n    tag_167:\n        /* \"contracts/Pool.sol\":1921:1928  uint256 */\n      0x00\n        /* \"contracts/Pool.sol\":1944:1953  isDeposit */\n      0x05\n      0x14\n      swap1\n      sload\n      swap1\n      0x0100\n      exp\n      swap1\n      div\n      0xff\n      and\n        /* \"contracts/Pool.sol\":1940:2212  if (isDeposit) {... */\n      iszero\n      tag_257\n      jumpi\n        /* \"contracts/Pool.sol\":1976:2074  Math.mulDiv(assets, totalSupply() + 10 ** _decimalsOffset(), totalAssets() - assets + 1, rounding) */\n      tag_258\n        /* \"contracts/Pool.sol\":1988:1994  assets */\n      dup4\n        /* \"contracts/Pool.sol\":2018:2035  _decimalsOffset() */\n      tag_259\n        /* \"contracts/Pool.sol\":2018:2033  _decimalsOffset */\n      tag_177\n        /* \"contracts/Pool.sol\":2018:2035  _decimalsOffset() */\n      jump\t// in\n    tag_259:\n        /* \"contracts/Pool.sol\":2012:2014  10 */\n      0x0a\n        /* \"contracts/Pool.sol\":2012:2035  10 ** _decimalsOffset() */\n      tag_260\n      swap2\n      swap1\n      tag_248\n      jump\t// in\n    tag_260:\n        /* \"contracts/Pool.sol\":1996:2009  totalSupply() */\n      tag_261\n        /* \"contracts/Pool.sol\":1996:2007  totalSupply */\n      tag_58\n        /* \"contracts/Pool.sol\":1996:2009  totalSupply() */\n      jump\t// in\n    tag_261:\n        /* \"contracts/Pool.sol\":1996:2035  totalSupply() + 10 ** _decimalsOffset() */\n      tag_262\n      swap2\n      swap1\n      tag_245\n      jump\t// in\n    tag_262:\n        /* \"contracts/Pool.sol\":2062:2063  1 */\n      0x01\n        /* \"contracts/Pool.sol\":2053:2059  assets */\n      dup7\n        /* \"contracts/Pool.sol\":2037:2050  totalAssets() */\n      tag_263\n        /* \"contracts/Pool.sol\":2037:2048  totalAssets */\n      tag_35\n        /* \"contracts/Pool.sol\":2037:2050  totalAssets() */\n      jump\t// in\n    tag_263:\n        /* \"contracts/Pool.sol\":2037:2059  totalAssets() - assets */\n      tag_264\n      swap2\n      swap1\n      tag_265\n      jump\t// in\n    tag_264:\n        /* \"contracts/Pool.sol\":2037:2063  totalAssets() - assets + 1 */\n      tag_266\n      swap2\n      swap1\n      tag_245\n      jump\t// in\n    tag_266:\n        /* \"contracts/Pool.sol\":2065:2073  rounding */\n      dup6\n        /* \"contracts/Pool.sol\":1976:1987  Math.mulDiv */\n      tag_251\n        /* \"contracts/Pool.sol\":1976:2074  Math.mulDiv(assets, totalSupply() + 10 ** _decimalsOffset(), totalAssets() - assets + 1, rounding) */\n      jump\t// in\n    tag_258:\n        /* \"contracts/Pool.sol\":1969:2074  return Math.mulDiv(assets, totalSupply() + 10 ** _decimalsOffset(), totalAssets() - assets + 1, rounding) */\n      swap1\n      pop\n      jump(tag_256)\n        /* \"contracts/Pool.sol\":1940:2212  if (isDeposit) {... */\n    tag_257:\n        /* \"contracts/Pool.sol\":2112:2201  Math.mulDiv(assets, totalSupply() + 10 ** _decimalsOffset(), totalAssets() + 1, rounding) */\n      tag_268\n        /* \"contracts/Pool.sol\":2124:2130  assets */\n      dup4\n        /* \"contracts/Pool.sol\":2154:2171  _decimalsOffset() */\n      tag_269\n        /* \"contracts/Pool.sol\":2154:2169  _decimalsOffset */\n      tag_177\n        /* \"contracts/Pool.sol\":2154:2171  _decimalsOffset() */\n      jump\t// in\n    tag_269:\n        /* \"contracts/Pool.sol\":2148:2150  10 */\n      0x0a\n        /* \"contracts/Pool.sol\":2148:2171  10 ** _decimalsOffset() */\n      tag_270\n      swap2\n      swap1\n      tag_248\n      jump\t// in\n    tag_270:\n        /* \"contracts/Pool.sol\":2132:2145  totalSupply() */\n      tag_271\n        /* \"contracts/Pool.sol\":2132:2143  totalSupply */\n      tag_58\n        /* \"contracts/Pool.sol\":2132:2145  totalSupply() */\n      jump\t// in\n    tag_271:\n        /* \"contracts/Pool.sol\":2132:2171  totalSupply() + 10 ** _decimalsOffset() */\n      tag_272\n      swap2\n      swap1\n      tag_245\n      jump\t// in\n    tag_272:\n        /* \"contracts/Pool.sol\":2189:2190  1 */\n      0x01\n        /* \"contracts/Pool.sol\":2173:2186  totalAssets() */\n      tag_273\n        /* \"contracts/Pool.sol\":2173:2184  totalAssets */\n      tag_35\n        /* \"contracts/Pool.sol\":2173:2186  totalAssets() */\n      jump\t// in\n    tag_273:\n        /* \"contracts/Pool.sol\":2173:2190  totalAssets() + 1 */\n      tag_274\n      swap2\n      swap1\n      tag_245\n      jump\t// in\n    tag_274:\n        /* \"contracts/Pool.sol\":2192:2200  rounding */\n      dup6\n        /* \"contracts/Pool.sol\":2112:2123  Math.mulDiv */\n      tag_251\n        /* \"contracts/Pool.sol\":2112:2201  Math.mulDiv(assets, totalSupply() + 10 ** _decimalsOffset(), totalAssets() + 1, rounding) */\n      jump\t// in\n    tag_268:\n        /* \"contracts/Pool.sol\":2105:2201  return Math.mulDiv(assets, totalSupply() + 10 ** _decimalsOffset(), totalAssets() + 1, rounding) */\n      swap1\n      pop\n        /* \"contracts/Pool.sol\":1823:2221  function _convertToShares(uint256 assets, Math.Rounding rounding) internal view override returns (uint256) {... */\n    tag_256:\n      swap3\n      swap2\n      pop\n      pop\n      jump\t// out\n        /* \"@openzeppelin/contracts/token/ERC20/ERC20.sol\":10663:11140  function _spendAllowance(address owner, address spender, uint256 value) internal virtual {... */\n    tag_172:\n        /* \"@openzeppelin/contracts/token/ERC20/ERC20.sol\":10762:10786  uint256 currentAllowance */\n      0x00\n        /* \"@openzeppelin/contracts/token/ERC20/ERC20.sol\":10789:10814  allowance(owner, spender) */\n      tag_276\n        /* \"@openzeppelin/contracts/token/ERC20/ERC20.sol\":10799:10804  owner */\n      dup5\n        /* \"@openzeppelin/contracts/token/ERC20/ERC20.sol\":10806:10813  spender */\n      dup5\n        /* \"@openzeppelin/contracts/token/ERC20/ERC20.sol\":10789:10798  allowance */\n      tag_138\n        /* \"@openzeppelin/contracts/token/ERC20/ERC20.sol\":10789:10814  allowance(owner, spender) */\n      jump\t// in\n    tag_276:\n        /* \"@openzeppelin/contracts/token/ERC20/ERC20.sol\":10762:10814  uint256 currentAllowance = allowance(owner, spender) */\n      swap1\n      pop\n        /* \"@openzeppelin/contracts/token/ERC20/ERC20.sol\":10848:10865  type(uint256).max */\n      0xffffffffffffffffffffffffffffffffffffffffffffffffffffffffffffffff\n        /* \"@openzeppelin/contracts/token/ERC20/ERC20.sol\":10828:10844  currentAllowance */\n      dup2\n        /* \"@openzeppelin/contracts/token/ERC20/ERC20.sol\":10828:10865  currentAllowance != type(uint256).max */\n      eq\n        /* \"@openzeppelin/contracts/token/ERC20/ERC20.sol\":10824:11134  if (currentAllowance != type(uint256).max) {... */\n      tag_277\n      jumpi\n        /* \"@openzeppelin/contracts/token/ERC20/ERC20.sol\":10904:10909  value */\n      dup2\n        /* \"@openzeppelin/contracts/token/ERC20/ERC20.sol\":10885:10901  currentAllowance */\n      dup2\n        /* \"@openzeppelin/contracts/token/ERC20/ERC20.sol\":10885:10909  currentAllowance < value */\n      lt\n        /* \"@openzeppelin/contracts/token/ERC20/ERC20.sol\":10881:11011  if (currentAllowance < value) {... */\n      iszero\n      tag_278\n      jumpi\n        /* \"@openzeppelin/contracts/token/ERC20/ERC20.sol\":10963:10970  spender */\n      dup3\n        /* \"@openzeppelin/contracts/token/ERC20/ERC20.sol\":10972:10988  currentAllowance */\n      dup2\n        /* \"@openzeppelin/contracts/token/ERC20/ERC20.sol\":10990:10995  value */\n      dup4\n        /* \"@openzeppelin/contracts/token/ERC20/ERC20.sol\":10936:10996  ERC20InsufficientAllowance(spender, currentAllowance, value) */\n      mload(0x40)\n      0xfb8f41b200000000000000000000000000000000000000000000000000000000\n      dup2\n      mstore\n      0x04\n      add\n      tag_279\n      swap4\n      swap3\n      swap2\n      swap1\n      tag_195\n      jump\t// in\n    tag_279:\n      mload(0x40)\n      dup1\n      swap2\n      sub\n      swap1\n      revert\n        /* \"@openzeppelin/contracts/token/ERC20/ERC20.sol\":10881:11011  if (currentAllowance < value) {... */\n    tag_278:\n        /* \"@openzeppelin/contracts/token/ERC20/ERC20.sol\":11052:11109  _approve(owner, spender, currentAllowance - value, false) */\n      tag_280\n        /* \"@openzeppelin/contracts/token/ERC20/ERC20.sol\":11061:11066  owner */\n      dup5\n        /* \"@openzeppelin/contracts/token/ERC20/ERC20.sol\":11068:11075  spender */\n      dup5\n        /* \"@openzeppelin/contracts/token/ERC20/ERC20.sol\":11096:11101  value */\n      dup5\n        /* \"@openzeppelin/contracts/token/ERC20/ERC20.sol\":11077:11093  currentAllowance */\n      dup5\n        /* \"@openzeppelin/contracts/token/ERC20/ERC20.sol\":11077:11101  currentAllowance - value */\n      sub\n        /* \"@openzeppelin/contracts/token/ERC20/ERC20.sol\":11103:11108  false */\n      0x00\n        /* \"@openzeppelin/contracts/token/ERC20/ERC20.sol\":11052:11060  _approve */\n      tag_255\n        /* \"@openzeppelin/contracts/token/ERC20/ERC20.sol\":11052:11109  _approve(owner, spender, currentAllowance - value, false) */\n      jump\t// in\n    tag_280:\n        /* \"@openzeppelin/contracts/token/ERC20/ERC20.sol\":10824:11134  if (currentAllowance != type(uint256).max) {... */\n    tag_277:\n        /* \"@openzeppelin/contracts/token/ERC20/ERC20.sol\":10752:11140  {... */\n      pop\n        /* \"@openzeppelin/contracts/token/ERC20/ERC20.sol\":10663:11140  function _spendAllowance(address owner, address spender, uint256 value) internal virtual {... */\n      pop\n      pop\n      pop\n      jump\t// out\n        /* \"@openzeppelin/contracts/token/ERC20/ERC20.sol\":5656:5956  function _transfer(address from, address to, uint256 value) internal {... */\n    tag_174:\n        /* \"@openzeppelin/contracts/token/ERC20/ERC20.sol\":5755:5756  0 */\n      0x00\n        /* \"@openzeppelin/contracts/token/ERC20/ERC20.sol\":5739:5757  from == address(0) */\n      0xffffffffffffffffffffffffffffffffffffffff\n      and\n        /* \"@openzeppelin/contracts/token/ERC20/ERC20.sol\":5739:5743  from */\n      dup4\n        /* \"@openzeppelin/contracts/token/ERC20/ERC20.sol\":5739:5757  from == address(0) */\n      0xffffffffffffffffffffffffffffffffffffffff\n      and\n      sub\n        /* \"@openzeppelin/contracts/token/ERC20/ERC20.sol\":5735:5821  if (from == address(0)) {... */\n      tag_282\n      jumpi\n        /* \"@openzeppelin/contracts/token/ERC20/ERC20.sol\":5807:5808  0 */\n      0x00\n        /* \"@openzeppelin/contracts/token/ERC20/ERC20.sol\":5780:5810  ERC20InvalidSender(address(0)) */\n      mload(0x40)\n      0x96c6fd1e00000000000000000000000000000000000000000000000000000000\n      dup2\n      mstore\n      0x04\n      add\n      tag_283\n      swap2\n      swap1\n      tag_72\n      jump\t// in\n    tag_283:\n      mload(0x40)\n      dup1\n      swap2\n      sub\n      swap1\n      revert\n        /* \"@openzeppelin/contracts/token/ERC20/ERC20.sol\":5735:5821  if (from == address(0)) {... */\n    tag_282:\n        /* \"@openzeppelin/contracts/token/ERC20/ERC20.sol\":5848:5849  0 */\n      0x00\n        /* \"@openzeppelin/contracts/token/ERC20/ERC20.sol\":5834:5850  to == address(0) */\n      0xffffffffffffffffffffffffffffffffffffffff\n      and\n        /* \"@openzeppelin/contracts/token/ERC20/ERC20.sol\":5834:5836  to */\n      dup3\n        /* \"@openzeppelin/contracts/token/ERC20/ERC20.sol\":5834:5850  to == address(0) */\n      0xffffffffffffffffffffffffffffffffffffffff\n      and\n      sub\n        /* \"@openzeppelin/contracts/token/ERC20/ERC20.sol\":5830:5916  if (to == address(0)) {... */\n      tag_284\n      jumpi\n        /* \"@openzeppelin/contracts/token/ERC20/ERC20.sol\":5902:5903  0 */\n      0x00\n        /* \"@openzeppelin/contracts/token/ERC20/ERC20.sol\":5873:5905  ERC20InvalidReceiver(address(0)) */\n      mload(0x40)\n      0xec442f0500000000000000000000000000000000000000000000000000000000\n      dup2\n      mstore\n      0x04\n      add\n      tag_285\n      swap2\n      swap1\n      tag_72\n      jump\t// in\n    tag_285:\n      mload(0x40)\n      dup1\n      swap2\n      sub\n      swap1\n      revert\n        /* \"@openzeppelin/contracts/token/ERC20/ERC20.sol\":5830:5916  if (to == address(0)) {... */\n    tag_284:\n        /* \"@openzeppelin/contracts/token/ERC20/ERC20.sol\":5925:5949  _update(from, to, value) */\n      tag_286\n        /* \"@openzeppelin/contracts/token/ERC20/ERC20.sol\":5933:5937  from */\n      dup4\n        /* \"@openzeppelin/contracts/token/ERC20/ERC20.sol\":5939:5941  to */\n      dup4\n        /* \"@openzeppelin/contracts/token/ERC20/ERC20.sol\":5943:5948  value */\n      dup4\n        /* \"@openzeppelin/contracts/token/ERC20/ERC20.sol\":5925:5932  _update */\n      tag_287\n        /* \"@openzeppelin/contracts/token/ERC20/ERC20.sol\":5925:5949  _update(from, to, value) */\n      jump\t// in\n    tag_286:\n        /* \"@openzeppelin/contracts/token/ERC20/ERC20.sol\":5656:5956  function _transfer(address from, address to, uint256 value) internal {... */\n      pop\n      pop\n      pop\n      jump\t// out\n        /* \"@openzeppelin/contracts/token/ERC20/extensions/ERC4626.sol\":12313:12403  function _decimalsOffset() internal view virtual returns (uint8) {... */\n    tag_177:\n        /* \"@openzeppelin/contracts/token/ERC20/extensions/ERC4626.sol\":12371:12376  uint8 */\n      0x00\n        /* \"@openzeppelin/contracts/token/ERC20/extensions/ERC4626.sol\":12313:12403  function _decimalsOffset() internal view virtual returns (uint8) {... */\n      swap1\n      jump\t// out\n        /* \"@openzeppelin/contracts/token/ERC20/ERC20.sol\":7721:7929  function _mint(address account, uint256 value) internal {... */\n    tag_198:\n        /* \"@openzeppelin/contracts/token/ERC20/ERC20.sol\":7810:7811  0 */\n      0x00\n        /* \"@openzeppelin/contracts/token/ERC20/ERC20.sol\":7791:7812  account == address(0) */\n      0xffffffffffffffffffffffffffffffffffffffff\n      and\n        /* \"@openzeppelin/contracts/token/ERC20/ERC20.sol\":7791:7798  account */\n      dup3\n        /* \"@openzeppelin/contracts/token/ERC20/ERC20.sol\":7791:7812  account == address(0) */\n      0xffffffffffffffffffffffffffffffffffffffff\n      and\n      sub\n        /* \"@openzeppelin/contracts/token/ERC20/ERC20.sol\":7787:7878  if (account == address(0)) {... */\n      tag_290\n      jumpi\n        /* \"@openzeppelin/contracts/token/ERC20/ERC20.sol\":7864:7865  0 */\n      0x00\n        /* \"@openzeppelin/contracts/token/ERC20/ERC20.sol\":7835:7867  ERC20InvalidReceiver(address(0)) */\n      mload(0x40)\n      0xec442f0500000000000000000000000000000000000000000000000000000000\n      dup2\n      mstore\n      0x04\n      add\n      tag_291\n      swap2\n      swap1\n      tag_72\n      jump\t// in\n    tag_291:\n      mload(0x40)\n      dup1\n      swap2\n      sub\n      swap1\n      revert\n        /* \"@openzeppelin/contracts/token/ERC20/ERC20.sol\":7787:7878  if (account == address(0)) {... */\n    tag_290:\n        /* \"@openzeppelin/contracts/token/ERC20/ERC20.sol\":7887:7922  _update(address(0), account, value) */\n      tag_292\n        /* \"@openzeppelin/contracts/token/ERC20/ERC20.sol\":7903:7904  0 */\n      0x00\n        /* \"@openzeppelin/contracts/token/ERC20/ERC20.sol\":7907:7914  account */\n      dup4\n        /* \"@openzeppelin/contracts/token/ERC20/ERC20.sol\":7916:7921  value */\n      dup4\n        /* \"@openzeppelin/contracts/token/ERC20/ERC20.sol\":7887:7894  _update */\n      tag_287\n        /* \"@openzeppelin/contracts/token/ERC20/ERC20.sol\":7887:7922  _update(address(0), account, value) */\n      jump\t// in\n    tag_292:\n        /* \"@openzeppelin/contracts/token/ERC20/ERC20.sol\":7721:7929  function _mint(address account, uint256 value) internal {... */\n      pop\n      pop\n      jump\t// out\n        /* \"@openzeppelin/contracts/token/ERC20/ERC20.sol\":8247:8453  function _burn(address account, uint256 value) internal {... */\n    tag_221:\n        /* \"@openzeppelin/contracts/token/ERC20/ERC20.sol\":8336:8337  0 */\n      0x00\n        /* \"@openzeppelin/contracts/token/ERC20/ERC20.sol\":8317:8338  account == address(0) */\n      0xffffffffffffffffffffffffffffffffffffffff\n      and\n        /* \"@openzeppelin/contracts/token/ERC20/ERC20.sol\":8317:8324  account */\n      dup3\n        /* \"@openzeppelin/contracts/token/ERC20/ERC20.sol\":8317:8338  account == address(0) */\n      0xffffffffffffffffffffffffffffffffffffffff\n      and\n      sub\n        /* \"@openzeppelin/contracts/token/ERC20/ERC20.sol\":8313:8402  if (account == address(0)) {... */\n      tag_294\n      jumpi\n        /* \"@openzeppelin/contracts/token/ERC20/ERC20.sol\":8388:8389  0 */\n      0x00\n        /* \"@openzeppelin/contracts/token/ERC20/ERC20.sol\":8361:8391  ERC20InvalidSender(address(0)) */\n      mload(0x40)\n      0x96c6fd1e00000000000000000000000000000000000000000000000000000000\n      dup2\n      mstore\n      0x04\n      add\n      tag_295\n      swap2\n      swap1\n      tag_72\n      jump\t// in\n    tag_295:\n      mload(0x40)\n      dup1\n      swap2\n      sub\n      swap1\n      revert\n        /* \"@openzeppelin/contracts/token/ERC20/ERC20.sol\":8313:8402  if (account == address(0)) {... */\n    tag_294:\n        /* \"@openzeppelin/contracts/token/ERC20/ERC20.sol\":8411:8446  _update(account, address(0), value) */\n      tag_296\n        /* \"@openzeppelin/contracts/token/ERC20/ERC20.sol\":8419:8426  account */\n      dup3\n        /* \"@openzeppelin/contracts/token/ERC20/ERC20.sol\":8436:8437  0 */\n      0x00\n        /* \"@openzeppelin/contracts/token/ERC20/ERC20.sol\":8440:8445  value */\n      dup4\n        /* \"@openzeppelin/contracts/token/ERC20/ERC20.sol\":8411:8418  _update */\n      tag_287\n        /* \"@openzeppelin/contracts/token/ERC20/ERC20.sol\":8411:8446  _update(account, address(0), value) */\n      jump\t// in\n    tag_296:\n        /* \"@openzeppelin/contracts/token/ERC20/ERC20.sol\":8247:8453  function _burn(address account, uint256 value) internal {... */\n      pop\n      pop\n      jump\t// out\n        /* \"@openzeppelin/contracts/token/ERC20/extensions/ERC4626.sol\":11393:12307  function _withdraw(... */\n    tag_229:\n        /* \"@openzeppelin/contracts/token/ERC20/extensions/ERC4626.sol\":11580:11585  owner */\n      dup3\n        /* \"@openzeppelin/contracts/token/ERC20/extensions/ERC4626.sol\":11570:11585  caller != owner */\n      0xffffffffffffffffffffffffffffffffffffffff\n      and\n        /* \"@openzeppelin/contracts/token/ERC20/extensions/ERC4626.sol\":11570:11576  caller */\n      dup6\n        /* \"@openzeppelin/contracts/token/ERC20/extensions/ERC4626.sol\":11570:11585  caller != owner */\n      0xffffffffffffffffffffffffffffffffffffffff\n      and\n      eq\n        /* \"@openzeppelin/contracts/token/ERC20/extensions/ERC4626.sol\":11566:11650  if (caller != owner) {... */\n      tag_298\n      jumpi\n        /* \"@openzeppelin/contracts/token/ERC20/extensions/ERC4626.sol\":11601:11639  _spendAllowance(owner, caller, shares) */\n      tag_299\n        /* \"@openzeppelin/contracts/token/ERC20/extensions/ERC4626.sol\":11617:11622  owner */\n      dup4\n        /* \"@openzeppelin/contracts/token/ERC20/extensions/ERC4626.sol\":11624:11630  caller */\n      dup7\n        /* \"@openzeppelin/contracts/token/ERC20/extensions/ERC4626.sol\":11632:11638  shares */\n      dup4\n        /* \"@openzeppelin/contracts/token/ERC20/extensions/ERC4626.sol\":11601:11616  _spendAllowance */\n      tag_172\n        /* \"@openzeppelin/contracts/token/ERC20/extensions/ERC4626.sol\":11601:11639  _spendAllowance(owner, caller, shares) */\n      jump\t// in\n    tag_299:\n        /* \"@openzeppelin/contracts/token/ERC20/extensions/ERC4626.sol\":11566:11650  if (caller != owner) {... */\n    tag_298:\n        /* \"@openzeppelin/contracts/token/ERC20/extensions/ERC4626.sol\":12157:12177  _burn(owner, shares) */\n      tag_300\n        /* \"@openzeppelin/contracts/token/ERC20/extensions/ERC4626.sol\":12163:12168  owner */\n      dup4\n        /* \"@openzeppelin/contracts/token/ERC20/extensions/ERC4626.sol\":12170:12176  shares */\n      dup3\n        /* \"@openzeppelin/contracts/token/ERC20/extensions/ERC4626.sol\":12157:12162  _burn */\n      tag_221\n        /* \"@openzeppelin/contracts/token/ERC20/extensions/ERC4626.sol\":12157:12177  _burn(owner, shares) */\n      jump\t// in\n    tag_300:\n        /* \"@openzeppelin/contracts/token/ERC20/extensions/ERC4626.sol\":12187:12235  SafeERC20.safeTransfer(_asset, receiver, assets) */\n      tag_301\n        /* \"@openzeppelin/contracts/token/ERC20/extensions/ERC4626.sol\":12210:12216  _asset */\n      immutable(\"0x912cdad641b4408bd64eb5a331e5fe393f33f2296e0c7fad54e613ac760cfb47\")\n        /* \"@openzeppelin/contracts/token/ERC20/extensions/ERC4626.sol\":12218:12226  receiver */\n      dup6\n        /* \"@openzeppelin/contracts/token/ERC20/extensions/ERC4626.sol\":12228:12234  assets */\n      dup5\n        /* \"@openzeppelin/contracts/token/ERC20/extensions/ERC4626.sol\":12187:12209  SafeERC20.safeTransfer */\n      tag_302\n        /* \"@openzeppelin/contracts/token/ERC20/extensions/ERC4626.sol\":12187:12235  SafeERC20.safeTransfer(_asset, receiver, assets) */\n      jump\t// in\n    tag_301:\n        /* \"@openzeppelin/contracts/token/ERC20/extensions/ERC4626.sol\":12278:12283  owner */\n      dup3\n        /* \"@openzeppelin/contracts/token/ERC20/extensions/ERC4626.sol\":12251:12300  Withdraw(caller, receiver, owner, assets, shares) */\n      0xffffffffffffffffffffffffffffffffffffffff\n      and\n        /* \"@openzeppelin/contracts/token/ERC20/extensions/ERC4626.sol\":12268:12276  receiver */\n      dup5\n        /* \"@openzeppelin/contracts/token/ERC20/extensions/ERC4626.sol\":12251:12300  Withdraw(caller, receiver, owner, assets, shares) */\n      0xffffffffffffffffffffffffffffffffffffffff\n      and\n        /* \"@openzeppelin/contracts/token/ERC20/extensions/ERC4626.sol\":12260:12266  caller */\n      dup7\n        /* \"@openzeppelin/contracts/token/ERC20/extensions/ERC4626.sol\":12251:12300  Withdraw(caller, receiver, owner, assets, shares) */\n      0xffffffffffffffffffffffffffffffffffffffff\n      and\n      0xfbde797d201c681b91056529119e0b02407c7bb96a4a2c75c01fc9667232c8db\n        /* \"@openzeppelin/contracts/token/ERC20/extensions/ERC4626.sol\":12285:12291  assets */\n      dup6\n        /* \"@openzeppelin/contracts/token/ERC20/extensions/ERC4626.sol\":12293:12299  shares */\n      dup6\n        /* \"@openzeppelin/contracts/token/ERC20/extensions/ERC4626.sol\":12251:12300  Withdraw(caller, receiver, owner, assets, shares) */\n      mload(0x40)\n      tag_303\n      swap3\n      swap2\n      swap1\n      tag_304\n      jump\t// in\n    tag_303:\n      mload(0x40)\n      dup1\n      swap2\n      sub\n      swap1\n      log4\n        /* \"@openzeppelin/contracts/token/ERC20/extensions/ERC4626.sol\":11393:12307  function _withdraw(... */\n      pop\n      pop\n      pop\n      pop\n      pop\n      jump\t// out\n        /* \"@openzeppelin/contracts/utils/math/Math.sol\":8051:8353  function mulDiv(uint256 x, uint256 y, uint256 denominator, Rounding rounding) internal pure returns (uint256) {... */\n    tag_251:\n        /* \"@openzeppelin/contracts/utils/math/Math.sol\":8152:8159  uint256 */\n      0x00\n        /* \"@openzeppelin/contracts/utils/math/Math.sol\":8171:8185  uint256 result */\n      dup1\n        /* \"@openzeppelin/contracts/utils/math/Math.sol\":8188:8213  mulDiv(x, y, denominator) */\n      tag_306\n        /* \"@openzeppelin/contracts/utils/math/Math.sol\":8195:8196  x */\n      dup7\n        /* \"@openzeppelin/contracts/utils/math/Math.sol\":8198:8199  y */\n      dup7\n        /* \"@openzeppelin/contracts/utils/math/Math.sol\":8201:8212  denominator */\n      dup7\n        /* \"@openzeppelin/contracts/utils/math/Math.sol\":8188:8194  mulDiv */\n      tag_307\n        /* \"@openzeppelin/contracts/utils/math/Math.sol\":8188:8213  mulDiv(x, y, denominator) */\n      jump\t// in\n    tag_306:\n        /* \"@openzeppelin/contracts/utils/math/Math.sol\":8171:8213  uint256 result = mulDiv(x, y, denominator) */\n      swap1\n      pop\n        /* \"@openzeppelin/contracts/utils/math/Math.sol\":8227:8253  unsignedRoundsUp(rounding) */\n      tag_308\n        /* \"@openzeppelin/contracts/utils/math/Math.sol\":8244:8252  rounding */\n      dup4\n        /* \"@openzeppelin/contracts/utils/math/Math.sol\":8227:8243  unsignedRoundsUp */\n      tag_309\n        /* \"@openzeppelin/contracts/utils/math/Math.sol\":8227:8253  unsignedRoundsUp(rounding) */\n      jump\t// in\n    tag_308:\n        /* \"@openzeppelin/contracts/utils/math/Math.sol\":8227:8286  unsignedRoundsUp(rounding) && mulmod(x, y, denominator) > 0 */\n      dup1\n      iszero\n      tag_310\n      jumpi\n      pop\n        /* \"@openzeppelin/contracts/utils/math/Math.sol\":8285:8286  0 */\n      0x00\n        /* \"@openzeppelin/contracts/utils/math/Math.sol\":8270:8281  denominator */\n      dup5\n        /* \"@openzeppelin/contracts/utils/math/Math.sol\":8257:8282  mulmod(x, y, denominator) */\n      dup1\n      tag_311\n      jumpi\n      tag_312\n      tag_313\n      jump\t// in\n    tag_312:\n    tag_311:\n        /* \"@openzeppelin/contracts/utils/math/Math.sol\":8267:8268  y */\n      dup7\n        /* \"@openzeppelin/contracts/utils/math/Math.sol\":8264:8265  x */\n      dup9\n        /* \"@openzeppelin/contracts/utils/math/Math.sol\":8257:8282  mulmod(x, y, denominator) */\n      mulmod\n        /* \"@openzeppelin/contracts/utils/math/Math.sol\":8257:8286  mulmod(x, y, denominator) > 0 */\n      gt\n        /* \"@openzeppelin/contracts/utils/math/Math.sol\":8227:8286  unsignedRoundsUp(rounding) && mulmod(x, y, denominator) > 0 */\n    tag_310:\n        /* \"@openzeppelin/contracts/utils/math/Math.sol\":8223:8324  if (unsignedRoundsUp(rounding) && mulmod(x, y, denominator) > 0) {... */\n      iszero\n      tag_314\n      jumpi\n        /* \"@openzeppelin/contracts/utils/math/Math.sol\":8312:8313  1 */\n      0x01\n        /* \"@openzeppelin/contracts/utils/math/Math.sol\":8302:8313  result += 1 */\n      dup2\n      tag_315\n      swap2\n      swap1\n      tag_245\n      jump\t// in\n    tag_315:\n      swap1\n      pop\n        /* \"@openzeppelin/contracts/utils/math/Math.sol\":8223:8324  if (unsignedRoundsUp(rounding) && mulmod(x, y, denominator) > 0) {... */\n    tag_314:\n        /* \"@openzeppelin/contracts/utils/math/Math.sol\":8340:8346  result */\n      dup1\n        /* \"@openzeppelin/contracts/utils/math/Math.sol\":8333:8346  return result */\n      swap2\n      pop\n      pop\n        /* \"@openzeppelin/contracts/utils/math/Math.sol\":8051:8353  function mulDiv(uint256 x, uint256 y, uint256 denominator, Rounding rounding) internal pure returns (uint256) {... */\n      swap5\n      swap4\n      pop\n      pop\n      pop\n      pop\n      jump\t// out\n        /* \"@openzeppelin/contracts/token/ERC20/ERC20.sol\":9949:10381  function _approve(address owner, address spender, uint256 value, bool emitEvent) internal virtual {... */\n    tag_255:\n        /* \"@openzeppelin/contracts/token/ERC20/ERC20.sol\":10078:10079  0 */\n      0x00\n        /* \"@openzeppelin/contracts/token/ERC20/ERC20.sol\":10061:10080  owner == address(0) */\n      0xffffffffffffffffffffffffffffffffffffffff\n      and\n        /* \"@openzeppelin/contracts/token/ERC20/ERC20.sol\":10061:10066  owner */\n      dup5\n        /* \"@openzeppelin/contracts/token/ERC20/ERC20.sol\":10061:10080  owner == address(0) */\n      0xffffffffffffffffffffffffffffffffffffffff\n      and\n      sub\n        /* \"@openzeppelin/contracts/token/ERC20/ERC20.sol\":10057:10146  if (owner == address(0)) {... */\n      tag_317\n      jumpi\n        /* \"@openzeppelin/contracts/token/ERC20/ERC20.sol\":10132:10133  0 */\n      0x00\n        /* \"@openzeppelin/contracts/token/ERC20/ERC20.sol\":10103:10135  ERC20InvalidApprover(address(0)) */\n      mload(0x40)\n      0xe602df0500000000000000000000000000000000000000000000000000000000\n      dup2\n      mstore\n      0x04\n      add\n      tag_318\n      swap2\n      swap1\n      tag_72\n      jump\t// in\n    tag_318:\n      mload(0x40)\n      dup1\n      swap2\n      sub\n      swap1\n      revert\n        /* \"@openzeppelin/contracts/token/ERC20/ERC20.sol\":10057:10146  if (owner == address(0)) {... */\n    tag_317:\n        /* \"@openzeppelin/contracts/token/ERC20/ERC20.sol\":10178:10179  0 */\n      0x00\n        /* \"@openzeppelin/contracts/token/ERC20/ERC20.sol\":10159:10180  spender == address(0) */\n      0xffffffffffffffffffffffffffffffffffffffff\n      and\n        /* \"@openzeppelin/contracts/token/ERC20/ERC20.sol\":10159:10166  spender */\n      dup4\n        /* \"@openzeppelin/contracts/token/ERC20/ERC20.sol\":10159:10180  spender == address(0) */\n      0xffffffffffffffffffffffffffffffffffffffff\n      and\n      sub\n        /* \"@openzeppelin/contracts/token/ERC20/ERC20.sol\":10155:10245  if (spender == address(0)) {... */\n      tag_319\n      jumpi\n        /* \"@openzeppelin/contracts/token/ERC20/ERC20.sol\":10231:10232  0 */\n      0x00\n        /* \"@openzeppelin/contracts/token/ERC20/ERC20.sol\":10203:10234  ERC20InvalidSpender(address(0)) */\n      mload(0x40)\n      0x94280d6200000000000000000000000000000000000000000000000000000000\n      dup2\n      mstore\n      0x04\n      add\n      tag_320\n      swap2\n      swap1\n      tag_72\n      jump\t// in\n    tag_320:\n      mload(0x40)\n      dup1\n      swap2\n      sub\n      swap1\n      revert\n        /* \"@openzeppelin/contracts/token/ERC20/ERC20.sol\":10155:10245  if (spender == address(0)) {... */\n    tag_319:\n        /* \"@openzeppelin/contracts/token/ERC20/ERC20.sol\":10284:10289  value */\n      dup2\n        /* \"@openzeppelin/contracts/token/ERC20/ERC20.sol\":10254:10265  _allowances */\n      0x01\n        /* \"@openzeppelin/contracts/token/ERC20/ERC20.sol\":10254:10272  _allowances[owner] */\n      0x00\n        /* \"@openzeppelin/contracts/token/ERC20/ERC20.sol\":10266:10271  owner */\n      dup7\n        /* \"@openzeppelin/contracts/token/ERC20/ERC20.sol\":10254:10272  _allowances[owner] */\n      0xffffffffffffffffffffffffffffffffffffffff\n      and\n      0xffffffffffffffffffffffffffffffffffffffff\n      and\n      dup2\n      mstore\n      0x20\n      add\n      swap1\n      dup2\n      mstore\n      0x20\n      add\n      0x00\n      keccak256\n        /* \"@openzeppelin/contracts/token/ERC20/ERC20.sol\":10254:10281  _allowances[owner][spender] */\n      0x00\n        /* \"@openzeppelin/contracts/token/ERC20/ERC20.sol\":10273:10280  spender */\n      dup6\n        /* \"@openzeppelin/contracts/token/ERC20/ERC20.sol\":10254:10281  _allowances[owner][spender] */\n      0xffffffffffffffffffffffffffffffffffffffff\n      and\n      0xffffffffffffffffffffffffffffffffffffffff\n      and\n      dup2\n      mstore\n      0x20\n      add\n      swap1\n      dup2\n      mstore\n      0x20\n      add\n      0x00\n      keccak256\n        /* \"@openzeppelin/contracts/token/ERC20/ERC20.sol\":10254:10289  _allowances[owner][spender] = value */\n      dup2\n      swap1\n      sstore\n      pop\n        /* \"@openzeppelin/contracts/token/ERC20/ERC20.sol\":10303:10312  emitEvent */\n      dup1\n        /* \"@openzeppelin/contracts/token/ERC20/ERC20.sol\":10299:10375  if (emitEvent) {... */\n      iszero\n      tag_321\n      jumpi\n        /* \"@openzeppelin/contracts/token/ERC20/ERC20.sol\":10349:10356  spender */\n      dup3\n        /* \"@openzeppelin/contracts/token/ERC20/ERC20.sol\":10333:10364  Approval(owner, spender, value) */\n      0xffffffffffffffffffffffffffffffffffffffff\n      and\n        /* \"@openzeppelin/contracts/token/ERC20/ERC20.sol\":10342:10347  owner */\n      dup5\n        /* \"@openzeppelin/contracts/token/ERC20/ERC20.sol\":10333:10364  Approval(owner, spender, value) */\n      0xffffffffffffffffffffffffffffffffffffffff\n      and\n      0x8c5be1e5ebec7d5bd14f71427d1e84f3dd0314c0f7b2291e5b200ac8c7c3b925\n        /* \"@openzeppelin/contracts/token/ERC20/ERC20.sol\":10358:10363  value */\n      dup5\n        /* \"@openzeppelin/contracts/token/ERC20/ERC20.sol\":10333:10364  Approval(owner, spender, value) */\n      mload(0x40)\n      tag_322\n      swap2\n      swap1\n      tag_37\n      jump\t// in\n    tag_322:\n      mload(0x40)\n      dup1\n      swap2\n      sub\n      swap1\n      log3\n        /* \"@openzeppelin/contracts/token/ERC20/ERC20.sol\":10299:10375  if (emitEvent) {... */\n    tag_321:\n        /* \"@openzeppelin/contracts/token/ERC20/ERC20.sol\":9949:10381  function _approve(address owner, address spender, uint256 value, bool emitEvent) internal virtual {... */\n      pop\n      pop\n      pop\n      pop\n      jump\t// out\n        /* \"@openzeppelin/contracts/token/ERC20/ERC20.sol\":6271:7378  function _update(address from, address to, uint256 value) internal virtual {... */\n    tag_287:\n        /* \"@openzeppelin/contracts/token/ERC20/ERC20.sol\":6376:6377  0 */\n      0x00\n        /* \"@openzeppelin/contracts/token/ERC20/ERC20.sol\":6360:6378  from == address(0) */\n      0xffffffffffffffffffffffffffffffffffffffff\n      and\n        /* \"@openzeppelin/contracts/token/ERC20/ERC20.sol\":6360:6364  from */\n      dup4\n        /* \"@openzeppelin/contracts/token/ERC20/ERC20.sol\":6360:6378  from == address(0) */\n      0xffffffffffffffffffffffffffffffffffffffff\n      and\n      sub\n        /* \"@openzeppelin/contracts/token/ERC20/ERC20.sol\":6356:6896  if (from == address(0)) {... */\n      tag_324\n      jumpi\n        /* \"@openzeppelin/contracts/token/ERC20/ERC20.sol\":6512:6517  value */\n      dup1\n        /* \"@openzeppelin/contracts/token/ERC20/ERC20.sol\":6496:6508  _totalSupply */\n      0x02\n      0x00\n        /* \"@openzeppelin/contracts/token/ERC20/ERC20.sol\":6496:6517  _totalSupply += value */\n      dup3\n      dup3\n      sload\n      tag_325\n      swap2\n      swap1\n      tag_245\n      jump\t// in\n    tag_325:\n      swap3\n      pop\n      pop\n      dup2\n      swap1\n      sstore\n      pop\n        /* \"@openzeppelin/contracts/token/ERC20/ERC20.sol\":6356:6896  if (from == address(0)) {... */\n      jump(tag_326)\n    tag_324:\n        /* \"@openzeppelin/contracts/token/ERC20/ERC20.sol\":6548:6567  uint256 fromBalance */\n      0x00\n        /* \"@openzeppelin/contracts/token/ERC20/ERC20.sol\":6570:6579  _balances */\n      dup1\n        /* \"@openzeppelin/contracts/token/ERC20/ERC20.sol\":6570:6585  _balances[from] */\n      0x00\n        /* \"@openzeppelin/contracts/token/ERC20/ERC20.sol\":6580:6584  from */\n      dup6\n        /* \"@openzeppelin/contracts/token/ERC20/ERC20.sol\":6570:6585  _balances[from] */\n      0xffffffffffffffffffffffffffffffffffffffff\n      and\n      0xffffffffffffffffffffffffffffffffffffffff\n      and\n      dup2\n      mstore\n      0x20\n      add\n      swap1\n      dup2\n      mstore\n      0x20\n      add\n      0x00\n      keccak256\n      sload\n        /* \"@openzeppelin/contracts/token/ERC20/ERC20.sol\":6548:6585  uint256 fromBalance = _balances[from] */\n      swap1\n      pop\n        /* \"@openzeppelin/contracts/token/ERC20/ERC20.sol\":6617:6622  value */\n      dup2\n        /* \"@openzeppelin/contracts/token/ERC20/ERC20.sol\":6603:6614  fromBalance */\n      dup2\n        /* \"@openzeppelin/contracts/token/ERC20/ERC20.sol\":6603:6622  fromBalance < value */\n      lt\n        /* \"@openzeppelin/contracts/token/ERC20/ERC20.sol\":6599:6714  if (fromBalance < value) {... */\n      iszero\n      tag_327\n      jumpi\n        /* \"@openzeppelin/contracts/token/ERC20/ERC20.sol\":6674:6678  from */\n      dup4\n        /* \"@openzeppelin/contracts/token/ERC20/ERC20.sol\":6680:6691  fromBalance */\n      dup2\n        /* \"@openzeppelin/contracts/token/ERC20/ERC20.sol\":6693:6698  value */\n      dup4\n        /* \"@openzeppelin/contracts/token/ERC20/ERC20.sol\":6649:6699  ERC20InsufficientBalance(from, fromBalance, value) */\n      mload(0x40)\n      0xe450d38c00000000000000000000000000000000000000000000000000000000\n      dup2\n      mstore\n      0x04\n      add\n      tag_328\n      swap4\n      swap3\n      swap2\n      swap1\n      tag_195\n      jump\t// in\n    tag_328:\n      mload(0x40)\n      dup1\n      swap2\n      sub\n      swap1\n      revert\n        /* \"@openzeppelin/contracts/token/ERC20/ERC20.sol\":6599:6714  if (fromBalance < value) {... */\n    tag_327:\n        /* \"@openzeppelin/contracts/token/ERC20/ERC20.sol\":6866:6871  value */\n      dup2\n        /* \"@openzeppelin/contracts/token/ERC20/ERC20.sol\":6852:6863  fromBalance */\n      dup2\n        /* \"@openzeppelin/contracts/token/ERC20/ERC20.sol\":6852:6871  fromBalance - value */\n      sub\n        /* \"@openzeppelin/contracts/token/ERC20/ERC20.sol\":6834:6843  _balances */\n      0x00\n        /* \"@openzeppelin/contracts/token/ERC20/ERC20.sol\":6834:6849  _balances[from] */\n      dup1\n        /* \"@openzeppelin/contracts/token/ERC20/ERC20.sol\":6844:6848  from */\n      dup7\n        /* \"@openzeppelin/contracts/token/ERC20/ERC20.sol\":6834:6849  _balances[from] */\n      0xffffffffffffffffffffffffffffffffffffffff\n      and\n      0xffffffffffffffffffffffffffffffffffffffff\n      and\n      dup2\n      mstore\n      0x20\n      add\n      swap1\n      dup2\n      mstore\n      0x20\n      add\n      0x00\n      keccak256\n        /* \"@openzeppelin/contracts/token/ERC20/ERC20.sol\":6834:6871  _balances[from] = fromBalance - value */\n      dup2\n      swap1\n      sstore\n      pop\n        /* \"@openzeppelin/contracts/token/ERC20/ERC20.sol\":6534:6896  {... */\n      pop\n        /* \"@openzeppelin/contracts/token/ERC20/ERC20.sol\":6356:6896  if (from == address(0)) {... */\n    tag_326:\n        /* \"@openzeppelin/contracts/token/ERC20/ERC20.sol\":6924:6925  0 */\n      0x00\n        /* \"@openzeppelin/contracts/token/ERC20/ERC20.sol\":6910:6926  to == address(0) */\n      0xffffffffffffffffffffffffffffffffffffffff\n      and\n        /* \"@openzeppelin/contracts/token/ERC20/ERC20.sol\":6910:6912  to */\n      dup3\n        /* \"@openzeppelin/contracts/token/ERC20/ERC20.sol\":6910:6926  to == address(0) */\n      0xffffffffffffffffffffffffffffffffffffffff\n      and\n      sub\n        /* \"@openzeppelin/contracts/token/ERC20/ERC20.sol\":6906:7331  if (to == address(0)) {... */\n      tag_329\n      jumpi\n        /* \"@openzeppelin/contracts/token/ERC20/ERC20.sol\":7089:7094  value */\n      dup1\n        /* \"@openzeppelin/contracts/token/ERC20/ERC20.sol\":7073:7085  _totalSupply */\n      0x02\n      0x00\n        /* \"@openzeppelin/contracts/token/ERC20/ERC20.sol\":7073:7094  _totalSupply -= value */\n      dup3\n      dup3\n      sload\n      sub\n      swap3\n      pop\n      pop\n      dup2\n      swap1\n      sstore\n      pop\n        /* \"@openzeppelin/contracts/token/ERC20/ERC20.sol\":6906:7331  if (to == address(0)) {... */\n      jump(tag_330)\n    tag_329:\n        /* \"@openzeppelin/contracts/token/ERC20/ERC20.sol\":7301:7306  value */\n      dup1\n        /* \"@openzeppelin/contracts/token/ERC20/ERC20.sol\":7284:7293  _balances */\n      0x00\n        /* \"@openzeppelin/contracts/token/ERC20/ERC20.sol\":7284:7297  _balances[to] */\n      dup1\n        /* \"@openzeppelin/contracts/token/ERC20/ERC20.sol\":7294:7296  to */\n      dup5\n        /* \"@openzeppelin/contracts/token/ERC20/ERC20.sol\":7284:7297  _balances[to] */\n      0xffffffffffffffffffffffffffffffffffffffff\n      and\n      0xffffffffffffffffffffffffffffffffffffffff\n      and\n      dup2\n      mstore\n      0x20\n      add\n      swap1\n      dup2\n      mstore\n      0x20\n      add\n      0x00\n      keccak256\n      0x00\n        /* \"@openzeppelin/contracts/token/ERC20/ERC20.sol\":7284:7306  _balances[to] += value */\n      dup3\n      dup3\n      sload\n      add\n      swap3\n      pop\n      pop\n      dup2\n      swap1\n      sstore\n      pop\n        /* \"@openzeppelin/contracts/token/ERC20/ERC20.sol\":6906:7331  if (to == address(0)) {... */\n    tag_330:\n        /* \"@openzeppelin/contracts/token/ERC20/ERC20.sol\":7361:7363  to */\n      dup2\n        /* \"@openzeppelin/contracts/token/ERC20/ERC20.sol\":7346:7371  Transfer(from, to, value) */\n      0xffffffffffffffffffffffffffffffffffffffff\n      and\n        /* \"@openzeppelin/contracts/token/ERC20/ERC20.sol\":7355:7359  from */\n      dup4\n        /* \"@openzeppelin/contracts/token/ERC20/ERC20.sol\":7346:7371  Transfer(from, to, value) */\n      0xffffffffffffffffffffffffffffffffffffffff\n      and\n      0xddf252ad1be2c89b69c2b068fc378daa952ba7f163c4a11628f55a4df523b3ef\n        /* \"@openzeppelin/contracts/token/ERC20/ERC20.sol\":7365:7370  value */\n      dup4\n        /* \"@openzeppelin/contracts/token/ERC20/ERC20.sol\":7346:7371  Transfer(from, to, value) */\n      mload(0x40)\n      tag_331\n      swap2\n      swap1\n      tag_37\n      jump\t// in\n    tag_331:\n      mload(0x40)\n      dup1\n      swap2\n      sub\n      swap1\n      log3\n        /* \"@openzeppelin/contracts/token/ERC20/ERC20.sol\":6271:7378  function _update(address from, address to, uint256 value) internal virtual {... */\n      pop\n      pop\n      pop\n      jump\t// out\n        /* \"@openzeppelin/contracts/token/ERC20/utils/SafeERC20.sol\":1303:1463  function safeTransfer(IERC20 token, address to, uint256 value) internal {... */\n    tag_302:\n        /* \"@openzeppelin/contracts/token/ERC20/utils/SafeERC20.sol\":1385:1456  _callOptionalReturn(token, abi.encodeCall(token.transfer, (to, value))) */\n      tag_333\n        /* \"@openzeppelin/contracts/token/ERC20/utils/SafeERC20.sol\":1405:1410  token */\n      dup4\n        /* \"@openzeppelin/contracts/token/ERC20/utils/SafeERC20.sol\":1427:1432  token */\n      dup5\n        /* \"@openzeppelin/contracts/token/ERC20/utils/SafeERC20.sol\":1427:1441  token.transfer */\n      0xffffffffffffffffffffffffffffffffffffffff\n      and\n      0xa9059cbb\n        /* \"@openzeppelin/contracts/token/ERC20/utils/SafeERC20.sol\":1444:1446  to */\n      dup6\n        /* \"@openzeppelin/contracts/token/ERC20/utils/SafeERC20.sol\":1448:1453  value */\n      dup6\n        /* \"@openzeppelin/contracts/token/ERC20/utils/SafeERC20.sol\":1412:1455  abi.encodeCall(token.transfer, (to, value)) */\n      add(0x24, mload(0x40))\n      tag_334\n      swap3\n      swap2\n      swap1\n      tag_335\n      jump\t// in\n    tag_334:\n      mload(0x40)\n      0x20\n      dup2\n      dup4\n      sub\n      sub\n      dup2\n      mstore\n      swap1\n      0x40\n      mstore\n      swap2\n      pop\n      0xe0\n      shl\n      0x20\n      dup3\n      add\n      dup1\n      mload\n      0xffffffffffffffffffffffffffffffffffffffffffffffffffffffff\n      dup4\n      dup2\n      dup4\n      and\n      or\n      dup4\n      mstore\n      pop\n      pop\n      pop\n      pop\n        /* \"@openzeppelin/contracts/token/ERC20/utils/SafeERC20.sol\":1385:1404  _callOptionalReturn */\n      tag_336\n        /* \"@openzeppelin/contracts/token/ERC20/utils/SafeERC20.sol\":1385:1456  _callOptionalReturn(token, abi.encodeCall(token.transfer, (to, value))) */\n      jump\t// in\n    tag_333:\n        /* \"@openzeppelin/contracts/token/ERC20/utils/SafeERC20.sol\":1303:1463  function safeTransfer(IERC20 token, address to, uint256 value) internal {... */\n      pop\n      pop\n      pop\n      jump\t// out\n        /* \"@openzeppelin/contracts/utils/math/Math.sol\":3803:7919  function mulDiv(uint256 x, uint256 y, uint256 denominator) internal pure returns (uint256 result) {... */\n    tag_307:\n        /* \"@openzeppelin/contracts/utils/math/Math.sol\":3885:3899  uint256 result */\n      0x00\n        /* \"@openzeppelin/contracts/utils/math/Math.sol\":4232:4245  uint256 prod0 */\n      dup1\n        /* \"@openzeppelin/contracts/utils/math/Math.sol\":4252:4253  y */\n      dup4\n        /* \"@openzeppelin/contracts/utils/math/Math.sol\":4248:4249  x */\n      dup6\n        /* \"@openzeppelin/contracts/utils/math/Math.sol\":4248:4253  x * y */\n      mul\n        /* \"@openzeppelin/contracts/utils/math/Math.sol\":4232:4253  uint256 prod0 = x * y */\n      swap1\n      pop\n        /* \"@openzeppelin/contracts/utils/math/Math.sol\":4312:4325  uint256 prod1 */\n      0x00\n        /* \"@openzeppelin/contracts/utils/math/Math.sol\":4437:4438  0 */\n      dup1\n        /* \"@openzeppelin/contracts/utils/math/Math.sol\":4433:4439  not(0) */\n      not\n        /* \"@openzeppelin/contracts/utils/math/Math.sol\":4430:4431  y */\n      dup6\n        /* \"@openzeppelin/contracts/utils/math/Math.sol\":4427:4428  x */\n      dup8\n        /* \"@openzeppelin/contracts/utils/math/Math.sol\":4420:4440  mulmod(x, y, not(0)) */\n      mulmod\n        /* \"@openzeppelin/contracts/utils/math/Math.sol\":4493:4498  prod0 */\n      dup3\n        /* \"@openzeppelin/contracts/utils/math/Math.sol\":4489:4491  mm */\n      dup2\n        /* \"@openzeppelin/contracts/utils/math/Math.sol\":4486:4499  lt(mm, prod0) */\n      lt\n        /* \"@openzeppelin/contracts/utils/math/Math.sol\":4478:4483  prod0 */\n      dup4\n        /* \"@openzeppelin/contracts/utils/math/Math.sol\":4474:4476  mm */\n      dup3\n        /* \"@openzeppelin/contracts/utils/math/Math.sol\":4470:4484  sub(mm, prod0) */\n      sub\n        /* \"@openzeppelin/contracts/utils/math/Math.sol\":4466:4500  sub(sub(mm, prod0), lt(mm, prod0)) */\n      sub\n        /* \"@openzeppelin/contracts/utils/math/Math.sol\":4457:4500  prod1 := sub(sub(mm, prod0), lt(mm, prod0)) */\n      swap2\n      pop\n        /* \"@openzeppelin/contracts/utils/math/Math.sol\":4392:4514  {... */\n      pop\n        /* \"@openzeppelin/contracts/utils/math/Math.sol\":4604:4605  0 */\n      0x00\n        /* \"@openzeppelin/contracts/utils/math/Math.sol\":4595:4600  prod1 */\n      dup2\n        /* \"@openzeppelin/contracts/utils/math/Math.sol\":4595:4605  prod1 == 0 */\n      sub\n        /* \"@openzeppelin/contracts/utils/math/Math.sol\":4591:4959  if (prod1 == 0) {... */\n      tag_338\n      jumpi\n        /* \"@openzeppelin/contracts/utils/math/Math.sol\":4933:4944  denominator */\n      dup4\n        /* \"@openzeppelin/contracts/utils/math/Math.sol\":4925:4930  prod0 */\n      dup3\n        /* \"@openzeppelin/contracts/utils/math/Math.sol\":4925:4944  prod0 / denominator */\n      dup2\n      tag_339\n      jumpi\n      tag_340\n      tag_313\n      jump\t// in\n    tag_340:\n    tag_339:\n      div\n        /* \"@openzeppelin/contracts/utils/math/Math.sol\":4918:4944  return prod0 / denominator */\n      swap3\n      pop\n      pop\n      pop\n      jump(tag_337)\n        /* \"@openzeppelin/contracts/utils/math/Math.sol\":4591:4959  if (prod1 == 0) {... */\n    tag_338:\n        /* \"@openzeppelin/contracts/utils/math/Math.sol\":5080:5085  prod1 */\n      dup1\n        /* \"@openzeppelin/contracts/utils/math/Math.sol\":5065:5076  denominator */\n      dup5\n        /* \"@openzeppelin/contracts/utils/math/Math.sol\":5065:5085  denominator <= prod1 */\n      gt\n        /* \"@openzeppelin/contracts/utils/math/Math.sol\":5061:5149  if (denominator <= prod1) {... */\n      tag_341\n      jumpi\n        /* \"@openzeppelin/contracts/utils/math/Math.sol\":5112:5134  MathOverflowedMulDiv() */\n      mload(0x40)\n      0x227bc15300000000000000000000000000000000000000000000000000000000\n      dup2\n      mstore\n      0x04\n      add\n      mload(0x40)\n      dup1\n      swap2\n      sub\n      swap1\n      revert\n        /* \"@openzeppelin/contracts/utils/math/Math.sol\":5061:5149  if (denominator <= prod1) {... */\n    tag_341:\n        /* \"@openzeppelin/contracts/utils/math/Math.sol\":5404:5421  uint256 remainder */\n      0x00\n        /* \"@openzeppelin/contracts/utils/math/Math.sol\":5539:5550  denominator */\n      dup5\n        /* \"@openzeppelin/contracts/utils/math/Math.sol\":5536:5537  y */\n      dup7\n        /* \"@openzeppelin/contracts/utils/math/Math.sol\":5533:5534  x */\n      dup9\n        /* \"@openzeppelin/contracts/utils/math/Math.sol\":5526:5551  mulmod(x, y, denominator) */\n      mulmod\n        /* \"@openzeppelin/contracts/utils/math/Math.sol\":5513:5551  remainder := mulmod(x, y, denominator) */\n      swap1\n      pop\n        /* \"@openzeppelin/contracts/utils/math/Math.sol\":5667:5672  prod0 */\n      dup3\n        /* \"@openzeppelin/contracts/utils/math/Math.sol\":5656:5665  remainder */\n      dup2\n        /* \"@openzeppelin/contracts/utils/math/Math.sol\":5653:5673  gt(remainder, prod0) */\n      gt\n        /* \"@openzeppelin/contracts/utils/math/Math.sol\":5646:5651  prod1 */\n      dup3\n        /* \"@openzeppelin/contracts/utils/math/Math.sol\":5642:5674  sub(prod1, gt(remainder, prod0)) */\n      sub\n        /* \"@openzeppelin/contracts/utils/math/Math.sol\":5633:5674  prod1 := sub(prod1, gt(remainder, prod0)) */\n      swap2\n      pop\n        /* \"@openzeppelin/contracts/utils/math/Math.sol\":5711:5720  remainder */\n      dup1\n        /* \"@openzeppelin/contracts/utils/math/Math.sol\":5704:5709  prod0 */\n      dup4\n        /* \"@openzeppelin/contracts/utils/math/Math.sol\":5700:5721  sub(prod0, remainder) */\n      sub\n        /* \"@openzeppelin/contracts/utils/math/Math.sol\":5691:5721  prod0 := sub(prod0, remainder) */\n      swap3\n      pop\n        /* \"@openzeppelin/contracts/utils/math/Math.sol\":5939:5951  uint256 twos */\n      0x00\n        /* \"@openzeppelin/contracts/utils/math/Math.sol\":5973:5984  denominator */\n      dup6\n        /* \"@openzeppelin/contracts/utils/math/Math.sol\":5969:5970  0 */\n      0x00\n        /* \"@openzeppelin/contracts/utils/math/Math.sol\":5969:5984  0 - denominator */\n      sub\n        /* \"@openzeppelin/contracts/utils/math/Math.sol\":5954:5965  denominator */\n      dup7\n        /* \"@openzeppelin/contracts/utils/math/Math.sol\":5954:5985  denominator & (0 - denominator) */\n      and\n        /* \"@openzeppelin/contracts/utils/math/Math.sol\":5939:5985  uint256 twos = denominator & (0 - denominator) */\n      swap1\n      pop\n        /* \"@openzeppelin/contracts/utils/math/Math.sol\":6105:6109  twos */\n      dup1\n        /* \"@openzeppelin/contracts/utils/math/Math.sol\":6092:6103  denominator */\n      dup7\n        /* \"@openzeppelin/contracts/utils/math/Math.sol\":6088:6110  div(denominator, twos) */\n      div\n        /* \"@openzeppelin/contracts/utils/math/Math.sol\":6073:6110  denominator := div(denominator, twos) */\n      swap6\n      pop\n        /* \"@openzeppelin/contracts/utils/math/Math.sol\":6197:6201  twos */\n      dup1\n        /* \"@openzeppelin/contracts/utils/math/Math.sol\":6190:6195  prod0 */\n      dup5\n        /* \"@openzeppelin/contracts/utils/math/Math.sol\":6186:6202  div(prod0, twos) */\n      div\n        /* \"@openzeppelin/contracts/utils/math/Math.sol\":6177:6202  prod0 := div(prod0, twos) */\n      swap4\n      pop\n        /* \"@openzeppelin/contracts/utils/math/Math.sol\":6354:6355  1 */\n      0x01\n        /* \"@openzeppelin/contracts/utils/math/Math.sol\":6347:6351  twos */\n      dup2\n        /* \"@openzeppelin/contracts/utils/math/Math.sol\":6340:6344  twos */\n      dup3\n        /* \"@openzeppelin/contracts/utils/math/Math.sol\":6337:6338  0 */\n      0x00\n        /* \"@openzeppelin/contracts/utils/math/Math.sol\":6333:6345  sub(0, twos) */\n      sub\n        /* \"@openzeppelin/contracts/utils/math/Math.sol\":6329:6352  div(sub(0, twos), twos) */\n      div\n        /* \"@openzeppelin/contracts/utils/math/Math.sol\":6325:6356  add(div(sub(0, twos), twos), 1) */\n      add\n        /* \"@openzeppelin/contracts/utils/math/Math.sol\":6317:6356  twos := add(div(sub(0, twos), twos), 1) */\n      swap1\n      pop\n        /* \"@openzeppelin/contracts/utils/math/Math.sol\":6453:6457  twos */\n      dup1\n        /* \"@openzeppelin/contracts/utils/math/Math.sol\":6445:6450  prod1 */\n      dup4\n        /* \"@openzeppelin/contracts/utils/math/Math.sol\":6445:6457  prod1 * twos */\n      mul\n        /* \"@openzeppelin/contracts/utils/math/Math.sol\":6436:6457  prod0 |= prod1 * twos */\n      dup5\n      or\n      swap4\n      pop\n        /* \"@openzeppelin/contracts/utils/math/Math.sol\":6775:6790  uint256 inverse */\n      0x00\n        /* \"@openzeppelin/contracts/utils/math/Math.sol\":6813:6814  2 */\n      0x02\n        /* \"@openzeppelin/contracts/utils/math/Math.sol\":6798:6809  denominator */\n      dup8\n        /* \"@openzeppelin/contracts/utils/math/Math.sol\":6794:6795  3 */\n      0x03\n        /* \"@openzeppelin/contracts/utils/math/Math.sol\":6794:6809  3 * denominator */\n      mul\n        /* \"@openzeppelin/contracts/utils/math/Math.sol\":6793:6814  (3 * denominator) ^ 2 */\n      xor\n        /* \"@openzeppelin/contracts/utils/math/Math.sol\":6775:6814  uint256 inverse = (3 * denominator) ^ 2 */\n      swap1\n      pop\n        /* \"@openzeppelin/contracts/utils/math/Math.sol\":7060:7067  inverse */\n      dup1\n        /* \"@openzeppelin/contracts/utils/math/Math.sol\":7046:7057  denominator */\n      dup8\n        /* \"@openzeppelin/contracts/utils/math/Math.sol\":7046:7067  denominator * inverse */\n      mul\n        /* \"@openzeppelin/contracts/utils/math/Math.sol\":7042:7043  2 */\n      0x02\n        /* \"@openzeppelin/contracts/utils/math/Math.sol\":7042:7067  2 - denominator * inverse */\n      sub\n        /* \"@openzeppelin/contracts/utils/math/Math.sol\":7031:7067  inverse *= 2 - denominator * inverse */\n      dup2\n      mul\n      swap1\n      pop\n        /* \"@openzeppelin/contracts/utils/math/Math.sol\":7129:7136  inverse */\n      dup1\n        /* \"@openzeppelin/contracts/utils/math/Math.sol\":7115:7126  denominator */\n      dup8\n        /* \"@openzeppelin/contracts/utils/math/Math.sol\":7115:7136  denominator * inverse */\n      mul\n        /* \"@openzeppelin/contracts/utils/math/Math.sol\":7111:7112  2 */\n      0x02\n        /* \"@openzeppelin/contracts/utils/math/Math.sol\":7111:7136  2 - denominator * inverse */\n      sub\n        /* \"@openzeppelin/contracts/utils/math/Math.sol\":7100:7136  inverse *= 2 - denominator * inverse */\n      dup2\n      mul\n      swap1\n      pop\n        /* \"@openzeppelin/contracts/utils/math/Math.sol\":7199:7206  inverse */\n      dup1\n        /* \"@openzeppelin/contracts/utils/math/Math.sol\":7185:7196  denominator */\n      dup8\n        /* \"@openzeppelin/contracts/utils/math/Math.sol\":7185:7206  denominator * inverse */\n      mul\n        /* \"@openzeppelin/contracts/utils/math/Math.sol\":7181:7182  2 */\n      0x02\n        /* \"@openzeppelin/contracts/utils/math/Math.sol\":7181:7206  2 - denominator * inverse */\n      sub\n        /* \"@openzeppelin/contracts/utils/math/Math.sol\":7170:7206  inverse *= 2 - denominator * inverse */\n      dup2\n      mul\n      swap1\n      pop\n        /* \"@openzeppelin/contracts/utils/math/Math.sol\":7269:7276  inverse */\n      dup1\n        /* \"@openzeppelin/contracts/utils/math/Math.sol\":7255:7266  denominator */\n      dup8\n        /* \"@openzeppelin/contracts/utils/math/Math.sol\":7255:7276  denominator * inverse */\n      mul\n        /* \"@openzeppelin/contracts/utils/math/Math.sol\":7251:7252  2 */\n      0x02\n        /* \"@openzeppelin/contracts/utils/math/Math.sol\":7251:7276  2 - denominator * inverse */\n      sub\n        /* \"@openzeppelin/contracts/utils/math/Math.sol\":7240:7276  inverse *= 2 - denominator * inverse */\n      dup2\n      mul\n      swap1\n      pop\n        /* \"@openzeppelin/contracts/utils/math/Math.sol\":7339:7346  inverse */\n      dup1\n        /* \"@openzeppelin/contracts/utils/math/Math.sol\":7325:7336  denominator */\n      dup8\n        /* \"@openzeppelin/contracts/utils/math/Math.sol\":7325:7346  denominator * inverse */\n      mul\n        /* \"@openzeppelin/contracts/utils/math/Math.sol\":7321:7322  2 */\n      0x02\n        /* \"@openzeppelin/contracts/utils/math/Math.sol\":7321:7346  2 - denominator * inverse */\n      sub\n        /* \"@openzeppelin/contracts/utils/math/Math.sol\":7310:7346  inverse *= 2 - denominator * inverse */\n      dup2\n      mul\n      swap1\n      pop\n        /* \"@openzeppelin/contracts/utils/math/Math.sol\":7410:7417  inverse */\n      dup1\n        /* \"@openzeppelin/contracts/utils/math/Math.sol\":7396:7407  denominator */\n      dup8\n        /* \"@openzeppelin/contracts/utils/math/Math.sol\":7396:7417  denominator * inverse */\n      mul\n        /* \"@openzeppelin/contracts/utils/math/Math.sol\":7392:7393  2 */\n      0x02\n        /* \"@openzeppelin/contracts/utils/math/Math.sol\":7392:7417  2 - denominator * inverse */\n      sub\n        /* \"@openzeppelin/contracts/utils/math/Math.sol\":7381:7417  inverse *= 2 - denominator * inverse */\n      dup2\n      mul\n      swap1\n      pop\n        /* \"@openzeppelin/contracts/utils/math/Math.sol\":7868:7875  inverse */\n      dup1\n        /* \"@openzeppelin/contracts/utils/math/Math.sol\":7860:7865  prod0 */\n      dup6\n        /* \"@openzeppelin/contracts/utils/math/Math.sol\":7860:7875  prod0 * inverse */\n      mul\n        /* \"@openzeppelin/contracts/utils/math/Math.sol\":7851:7875  result = prod0 * inverse */\n      swap6\n      pop\n        /* \"@openzeppelin/contracts/utils/math/Math.sol\":7889:7902  return result */\n      pop\n      pop\n      pop\n      pop\n      pop\n        /* \"@openzeppelin/contracts/utils/math/Math.sol\":3803:7919  function mulDiv(uint256 x, uint256 y, uint256 denominator) internal pure returns (uint256 result) {... */\n    tag_337:\n      swap4\n      swap3\n      pop\n      pop\n      pop\n      jump\t// out\n        /* \"@openzeppelin/contracts/utils/math/Math.sol\":14993:15115  function unsignedRoundsUp(Rounding rounding) internal pure returns (bool) {... */\n    tag_309:\n        /* \"@openzeppelin/contracts/utils/math/Math.sol\":15061:15065  bool */\n      0x00\n        /* \"@openzeppelin/contracts/utils/math/Math.sol\":15107:15108  1 */\n      0x01\n        /* \"@openzeppelin/contracts/utils/math/Math.sol\":15102:15103  2 */\n      0x02\n        /* \"@openzeppelin/contracts/utils/math/Math.sol\":15090:15098  rounding */\n      dup4\n        /* \"@openzeppelin/contracts/utils/math/Math.sol\":15084:15099  uint8(rounding) */\n      0x03\n      dup2\n      gt\n      iszero\n      tag_343\n      jumpi\n      tag_344\n      tag_345\n      jump\t// in\n    tag_344:\n    tag_343:\n        /* \"@openzeppelin/contracts/utils/math/Math.sol\":15084:15103  uint8(rounding) % 2 */\n      tag_346\n      swap2\n      swap1\n      tag_347\n      jump\t// in\n    tag_346:\n        /* \"@openzeppelin/contracts/utils/math/Math.sol\":15084:15108  uint8(rounding) % 2 == 1 */\n      0xff\n      and\n      eq\n        /* \"@openzeppelin/contracts/utils/math/Math.sol\":15077:15108  return uint8(rounding) % 2 == 1 */\n      swap1\n      pop\n        /* \"@openzeppelin/contracts/utils/math/Math.sol\":14993:15115  function unsignedRoundsUp(Rounding rounding) internal pure returns (bool) {... */\n      swap2\n      swap1\n      pop\n      jump\t// out\n        /* \"@openzeppelin/contracts/token/ERC20/utils/SafeERC20.sol\":4059:4688  function _callOptionalReturn(IERC20 token, bytes memory data) private {... */\n    tag_336:\n        /* \"@openzeppelin/contracts/token/ERC20/utils/SafeERC20.sol\":4478:4501  bytes memory returndata */\n      0x00\n        /* \"@openzeppelin/contracts/token/ERC20/utils/SafeERC20.sol\":4504:4537  address(token).functionCall(data) */\n      tag_349\n        /* \"@openzeppelin/contracts/token/ERC20/utils/SafeERC20.sol\":4532:4536  data */\n      dup3\n        /* \"@openzeppelin/contracts/token/ERC20/utils/SafeERC20.sol\":4512:4517  token */\n      dup5\n        /* \"@openzeppelin/contracts/token/ERC20/utils/SafeERC20.sol\":4504:4531  address(token).functionCall */\n      0xffffffffffffffffffffffffffffffffffffffff\n      and\n      tag_350\n      swap1\n        /* \"@openzeppelin/contracts/token/ERC20/utils/SafeERC20.sol\":4504:4537  address(token).functionCall(data) */\n      swap2\n      swap1\n      0xffffffff\n      and\n      jump\t// in\n    tag_349:\n        /* \"@openzeppelin/contracts/token/ERC20/utils/SafeERC20.sol\":4478:4537  bytes memory returndata = address(token).functionCall(data) */\n      swap1\n      pop\n        /* \"@openzeppelin/contracts/token/ERC20/utils/SafeERC20.sol\":4572:4573  0 */\n      0x00\n        /* \"@openzeppelin/contracts/token/ERC20/utils/SafeERC20.sol\":4551:4561  returndata */\n      dup2\n        /* \"@openzeppelin/contracts/token/ERC20/utils/SafeERC20.sol\":4551:4568  returndata.length */\n      mload\n        /* \"@openzeppelin/contracts/token/ERC20/utils/SafeERC20.sol\":4551:4573  returndata.length != 0 */\n      eq\n      iszero\n        /* \"@openzeppelin/contracts/token/ERC20/utils/SafeERC20.sol\":4551:4608  returndata.length != 0 && !abi.decode(returndata, (bool)) */\n      dup1\n      iszero\n      tag_351\n      jumpi\n      pop\n        /* \"@openzeppelin/contracts/token/ERC20/utils/SafeERC20.sol\":4589:4599  returndata */\n      dup1\n        /* \"@openzeppelin/contracts/token/ERC20/utils/SafeERC20.sol\":4578:4608  abi.decode(returndata, (bool)) */\n      dup1\n      0x20\n      add\n      swap1\n      mload\n      dup2\n      add\n      swap1\n      tag_352\n      swap2\n      swap1\n      tag_353\n      jump\t// in\n    tag_352:\n        /* \"@openzeppelin/contracts/token/ERC20/utils/SafeERC20.sol\":4577:4608  !abi.decode(returndata, (bool)) */\n      iszero\n        /* \"@openzeppelin/contracts/token/ERC20/utils/SafeERC20.sol\":4551:4608  returndata.length != 0 && !abi.decode(returndata, (bool)) */\n    tag_351:\n        /* \"@openzeppelin/contracts/token/ERC20/utils/SafeERC20.sol\":4547:4682  if (returndata.length != 0 && !abi.decode(returndata, (bool))) {... */\n      iszero\n      tag_354\n      jumpi\n        /* \"@openzeppelin/contracts/token/ERC20/utils/SafeERC20.sol\":4664:4669  token */\n      dup3\n        /* \"@openzeppelin/contracts/token/ERC20/utils/SafeERC20.sol\":4631:4671  SafeERC20FailedOperation(address(token)) */\n      mload(0x40)\n      0x5274afe700000000000000000000000000000000000000000000000000000000\n      dup2\n      mstore\n      0x04\n      add\n      tag_355\n      swap2\n      swap1\n      tag_72\n      jump\t// in\n    tag_355:\n      mload(0x40)\n      dup1\n      swap2\n      sub\n      swap1\n      revert\n        /* \"@openzeppelin/contracts/token/ERC20/utils/SafeERC20.sol\":4547:4682  if (returndata.length != 0 && !abi.decode(returndata, (bool))) {... */\n    tag_354:\n        /* \"@openzeppelin/contracts/token/ERC20/utils/SafeERC20.sol\":4129:4688  {... */\n      pop\n        /* \"@openzeppelin/contracts/token/ERC20/utils/SafeERC20.sol\":4059:4688  function _callOptionalReturn(IERC20 token, bytes memory data) private {... */\n      pop\n      pop\n      jump\t// out\n        /* \"@openzeppelin/contracts/utils/Address.sol\":2705:2856  function functionCall(address target, bytes memory data) internal returns (bytes memory) {... */\n    tag_350:\n        /* \"@openzeppelin/contracts/utils/Address.sol\":2780:2792  bytes memory */\n      0x60\n        /* \"@openzeppelin/contracts/utils/Address.sol\":2811:2849  functionCallWithValue(target, data, 0) */\n      tag_357\n        /* \"@openzeppelin/contracts/utils/Address.sol\":2833:2839  target */\n      dup4\n        /* \"@openzeppelin/contracts/utils/Address.sol\":2841:2845  data */\n      dup4\n        /* \"@openzeppelin/contracts/utils/Address.sol\":2847:2848  0 */\n      0x00\n        /* \"@openzeppelin/contracts/utils/Address.sol\":2811:2832  functionCallWithValue */\n      tag_358\n        /* \"@openzeppelin/contracts/utils/Address.sol\":2811:2849  functionCallWithValue(target, data, 0) */\n      jump\t// in\n    tag_357:\n        /* \"@openzeppelin/contracts/utils/Address.sol\":2804:2849  return functionCallWithValue(target, data, 0) */\n      swap1\n      pop\n        /* \"@openzeppelin/contracts/utils/Address.sol\":2705:2856  function functionCall(address target, bytes memory data) internal returns (bytes memory) {... */\n      swap3\n      swap2\n      pop\n      pop\n      jump\t// out\n        /* \"@openzeppelin/contracts/utils/Address.sol\":3180:3572  function functionCallWithValue(address target, bytes memory data, uint256 value) internal returns (bytes memory) {... */\n    tag_358:\n        /* \"@openzeppelin/contracts/utils/Address.sol\":3279:3291  bytes memory */\n      0x60\n        /* \"@openzeppelin/contracts/utils/Address.sol\":3331:3336  value */\n      dup2\n        /* \"@openzeppelin/contracts/utils/Address.sol\":3307:3328  address(this).balance */\n      selfbalance\n        /* \"@openzeppelin/contracts/utils/Address.sol\":3307:3336  address(this).balance < value */\n      lt\n        /* \"@openzeppelin/contracts/utils/Address.sol\":3303:3411  if (address(this).balance < value) {... */\n      iszero\n      tag_360\n      jumpi\n        /* \"@openzeppelin/contracts/utils/Address.sol\":3394:3398  this */\n      address\n        /* \"@openzeppelin/contracts/utils/Address.sol\":3359:3400  AddressInsufficientBalance(address(this)) */\n      mload(0x40)\n      0xcd78605900000000000000000000000000000000000000000000000000000000\n      dup2\n      mstore\n      0x04\n      add\n      tag_361\n      swap2\n      swap1\n      tag_72\n      jump\t// in\n    tag_361:\n      mload(0x40)\n      dup1\n      swap2\n      sub\n      swap1\n      revert\n        /* \"@openzeppelin/contracts/utils/Address.sol\":3303:3411  if (address(this).balance < value) {... */\n    tag_360:\n        /* \"@openzeppelin/contracts/utils/Address.sol\":3421:3433  bool success */\n      0x00\n        /* \"@openzeppelin/contracts/utils/Address.sol\":3435:3458  bytes memory returndata */\n      dup1\n        /* \"@openzeppelin/contracts/utils/Address.sol\":3462:3468  target */\n      dup6\n        /* \"@openzeppelin/contracts/utils/Address.sol\":3462:3473  target.call */\n      0xffffffffffffffffffffffffffffffffffffffff\n      and\n        /* \"@openzeppelin/contracts/utils/Address.sol\":3481:3486  value */\n      dup5\n        /* \"@openzeppelin/contracts/utils/Address.sol\":3488:3492  data */\n      dup7\n        /* \"@openzeppelin/contracts/utils/Address.sol\":3462:3493  target.call{value: value}(data) */\n      mload(0x40)\n      tag_362\n      swap2\n      swap1\n      tag_363\n      jump\t// in\n    tag_362:\n      0x00\n      mload(0x40)\n      dup1\n      dup4\n      sub\n      dup2\n      dup6\n      dup8\n      gas\n      call\n      swap3\n      pop\n      pop\n      pop\n      returndatasize\n      dup1\n      0x00\n      dup2\n      eq\n      tag_366\n      jumpi\n      mload(0x40)\n      swap2\n      pop\n      and(add(returndatasize, 0x3f), not(0x1f))\n      dup3\n      add\n      0x40\n      mstore\n      returndatasize\n      dup3\n      mstore\n      returndatasize\n      0x00\n      0x20\n      dup5\n      add\n      returndatacopy\n      jump(tag_365)\n    tag_366:\n      0x60\n      swap2\n      pop\n    tag_365:\n      pop\n        /* \"@openzeppelin/contracts/utils/Address.sol\":3420:3493  (bool success, bytes memory returndata) = target.call{value: value}(data) */\n      swap2\n      pop\n      swap2\n      pop\n        /* \"@openzeppelin/contracts/utils/Address.sol\":3510:3565  verifyCallResultFromTarget(target, success, returndata) */\n      tag_367\n        /* \"@openzeppelin/contracts/utils/Address.sol\":3537:3543  target */\n      dup7\n        /* \"@openzeppelin/contracts/utils/Address.sol\":3545:3552  success */\n      dup4\n        /* \"@openzeppelin/contracts/utils/Address.sol\":3554:3564  returndata */\n      dup4\n        /* \"@openzeppelin/contracts/utils/Address.sol\":3510:3536  verifyCallResultFromTarget */\n      tag_368\n        /* \"@openzeppelin/contracts/utils/Address.sol\":3510:3565  verifyCallResultFromTarget(target, success, returndata) */\n      jump\t// in\n    tag_367:\n        /* \"@openzeppelin/contracts/utils/Address.sol\":3503:3565  return verifyCallResultFromTarget(target, success, returndata) */\n      swap3\n      pop\n      pop\n      pop\n        /* \"@openzeppelin/contracts/utils/Address.sol\":3180:3572  function functionCallWithValue(address target, bytes memory data, uint256 value) internal returns (bytes memory) {... */\n      swap4\n      swap3\n      pop\n      pop\n      pop\n      jump\t// out\n        /* \"@openzeppelin/contracts/utils/Address.sol\":4625:5207  function verifyCallResultFromTarget(... */\n    tag_368:\n        /* \"@openzeppelin/contracts/utils/Address.sol\":4769:4781  bytes memory */\n      0x60\n        /* \"@openzeppelin/contracts/utils/Address.sol\":4798:4805  success */\n      dup3\n        /* \"@openzeppelin/contracts/utils/Address.sol\":4793:5201  if (!success) {... */\n      tag_370\n      jumpi\n        /* \"@openzeppelin/contracts/utils/Address.sol\":4821:4840  _revert(returndata) */\n      tag_371\n        /* \"@openzeppelin/contracts/utils/Address.sol\":4829:4839  returndata */\n      dup3\n        /* \"@openzeppelin/contracts/utils/Address.sol\":4821:4828  _revert */\n      tag_372\n        /* \"@openzeppelin/contracts/utils/Address.sol\":4821:4840  _revert(returndata) */\n      jump\t// in\n    tag_371:\n        /* \"@openzeppelin/contracts/utils/Address.sol\":4793:5201  if (!success) {... */\n      jump(tag_373)\n    tag_370:\n        /* \"@openzeppelin/contracts/utils/Address.sol\":5066:5067  0 */\n      0x00\n        /* \"@openzeppelin/contracts/utils/Address.sol\":5045:5055  returndata */\n      dup3\n        /* \"@openzeppelin/contracts/utils/Address.sol\":5045:5062  returndata.length */\n      mload\n        /* \"@openzeppelin/contracts/utils/Address.sol\":5045:5067  returndata.length == 0 */\n      eq\n        /* \"@openzeppelin/contracts/utils/Address.sol\":5045:5094  returndata.length == 0 && target.code.length == 0 */\n      dup1\n      iszero\n      tag_374\n      jumpi\n      pop\n        /* \"@openzeppelin/contracts/utils/Address.sol\":5093:5094  0 */\n      0x00\n        /* \"@openzeppelin/contracts/utils/Address.sol\":5071:5077  target */\n      dup5\n        /* \"@openzeppelin/contracts/utils/Address.sol\":5071:5089  target.code.length */\n      0xffffffffffffffffffffffffffffffffffffffff\n      and\n      extcodesize\n        /* \"@openzeppelin/contracts/utils/Address.sol\":5071:5094  target.code.length == 0 */\n      eq\n        /* \"@openzeppelin/contracts/utils/Address.sol\":5045:5094  returndata.length == 0 && target.code.length == 0 */\n    tag_374:\n        /* \"@openzeppelin/contracts/utils/Address.sol\":5041:5160  if (returndata.length == 0 && target.code.length == 0) {... */\n      iszero\n      tag_375\n      jumpi\n        /* \"@openzeppelin/contracts/utils/Address.sol\":5138:5144  target */\n      dup4\n        /* \"@openzeppelin/contracts/utils/Address.sol\":5121:5145  AddressEmptyCode(target) */\n      mload(0x40)\n      0x9996b31500000000000000000000000000000000000000000000000000000000\n      dup2\n      mstore\n      0x04\n      add\n      tag_376\n      swap2\n      swap1\n      tag_72\n      jump\t// in\n    tag_376:\n      mload(0x40)\n      dup1\n      swap2\n      sub\n      swap1\n      revert\n        /* \"@openzeppelin/contracts/utils/Address.sol\":5041:5160  if (returndata.length == 0 && target.code.length == 0) {... */\n    tag_375:\n        /* \"@openzeppelin/contracts/utils/Address.sol\":5180:5190  returndata */\n      dup2\n        /* \"@openzeppelin/contracts/utils/Address.sol\":5173:5190  return returndata */\n      swap1\n      pop\n      jump(tag_369)\n        /* \"@openzeppelin/contracts/utils/Address.sol\":4793:5201  if (!success) {... */\n    tag_373:\n        /* \"@openzeppelin/contracts/utils/Address.sol\":4625:5207  function verifyCallResultFromTarget(... */\n    tag_369:\n      swap4\n      swap3\n      pop\n      pop\n      pop\n      jump\t// out\n        /* \"@openzeppelin/contracts/utils/Address.sol\":5743:6259  function _revert(bytes memory returndata) private pure {... */\n    tag_372:\n        /* \"@openzeppelin/contracts/utils/Address.sol\":5894:5895  0 */\n      0x00\n        /* \"@openzeppelin/contracts/utils/Address.sol\":5874:5884  returndata */\n      dup2\n        /* \"@openzeppelin/contracts/utils/Address.sol\":5874:5891  returndata.length */\n      mload\n        /* \"@openzeppelin/contracts/utils/Address.sol\":5874:5895  returndata.length > 0 */\n      gt\n        /* \"@openzeppelin/contracts/utils/Address.sol\":5870:6253  if (returndata.length > 0) {... */\n      iszero\n      tag_378\n      jumpi\n        /* \"@openzeppelin/contracts/utils/Address.sol\":6102:6112  returndata */\n      dup1\n        /* \"@openzeppelin/contracts/utils/Address.sol\":6096:6113  mload(returndata) */\n      mload\n        /* \"@openzeppelin/contracts/utils/Address.sol\":6158:6173  returndata_size */\n      dup1\n        /* \"@openzeppelin/contracts/utils/Address.sol\":6145:6155  returndata */\n      dup3\n        /* \"@openzeppelin/contracts/utils/Address.sol\":6141:6143  32 */\n      0x20\n        /* \"@openzeppelin/contracts/utils/Address.sol\":6137:6156  add(32, returndata) */\n      add\n        /* \"@openzeppelin/contracts/utils/Address.sol\":6130:6174  revert(add(32, returndata), returndata_size) */\n      revert\n        /* \"@openzeppelin/contracts/utils/Address.sol\":5870:6253  if (returndata.length > 0) {... */\n    tag_378:\n        /* \"@openzeppelin/contracts/utils/Address.sol\":6225:6242  FailedInnerCall() */\n      mload(0x40)\n      0x1425ea4200000000000000000000000000000000000000000000000000000000\n      dup2\n      mstore\n      0x04\n      add\n      mload(0x40)\n      dup1\n      swap2\n      sub\n      swap1\n      revert\n        /* \"#utility.yul\":7:84   */\n    tag_380:\n        /* \"#utility.yul\":44:51   */\n      0x00\n        /* \"#utility.yul\":73:78   */\n      dup2\n        /* \"#utility.yul\":62:78   */\n      swap1\n      pop\n        /* \"#utility.yul\":7:84   */\n      swap2\n      swap1\n      pop\n      jump\t// out\n        /* \"#utility.yul\":90:208   */\n    tag_381:\n        /* \"#utility.yul\":177:201   */\n      tag_424\n        /* \"#utility.yul\":195:200   */\n      dup2\n        /* \"#utility.yul\":177:201   */\n      tag_380\n      jump\t// in\n    tag_424:\n        /* \"#utility.yul\":172:175   */\n      dup3\n        /* \"#utility.yul\":165:202   */\n      mstore\n        /* \"#utility.yul\":90:208   */\n      pop\n      pop\n      jump\t// out\n        /* \"#utility.yul\":214:436   */\n    tag_37:\n        /* \"#utility.yul\":307:311   */\n      0x00\n        /* \"#utility.yul\":345:347   */\n      0x20\n        /* \"#utility.yul\":334:343   */\n      dup3\n        /* \"#utility.yul\":330:348   */\n      add\n        /* \"#utility.yul\":322:348   */\n      swap1\n      pop\n        /* \"#utility.yul\":358:429   */\n      tag_426\n        /* \"#utility.yul\":426:427   */\n      0x00\n        /* \"#utility.yul\":415:424   */\n      dup4\n        /* \"#utility.yul\":411:428   */\n      add\n        /* \"#utility.yul\":402:408   */\n      dup5\n        /* \"#utility.yul\":358:429   */\n      tag_381\n      jump\t// in\n    tag_426:\n        /* \"#utility.yul\":214:436   */\n      swap3\n      swap2\n      pop\n      pop\n      jump\t// out\n        /* \"#utility.yul\":442:541   */\n    tag_382:\n        /* \"#utility.yul\":494:500   */\n      0x00\n        /* \"#utility.yul\":528:533   */\n      dup2\n        /* \"#utility.yul\":522:534   */\n      mload\n        /* \"#utility.yul\":512:534   */\n      swap1\n      pop\n        /* \"#utility.yul\":442:541   */\n      swap2\n      swap1\n      pop\n      jump\t// out\n        /* \"#utility.yul\":547:716   */\n    tag_383:\n        /* \"#utility.yul\":631:642   */\n      0x00\n        /* \"#utility.yul\":665:671   */\n      dup3\n        /* \"#utility.yul\":660:663   */\n      dup3\n        /* \"#utility.yul\":653:672   */\n      mstore\n        /* \"#utility.yul\":705:709   */\n      0x20\n        /* \"#utility.yul\":700:703   */\n      dup3\n        /* \"#utility.yul\":696:710   */\n      add\n        /* \"#utility.yul\":681:710   */\n      swap1\n      pop\n        /* \"#utility.yul\":547:716   */\n      swap3\n      swap2\n      pop\n      pop\n      jump\t// out\n        /* \"#utility.yul\":722:861   */\n    tag_384:\n        /* \"#utility.yul\":811:817   */\n      dup3\n        /* \"#utility.yul\":806:809   */\n      dup2\n        /* \"#utility.yul\":801:804   */\n      dup4\n        /* \"#utility.yul\":795:818   */\n      mcopy\n        /* \"#utility.yul\":852:853   */\n      0x00\n        /* \"#utility.yul\":843:849   */\n      dup4\n        /* \"#utility.yul\":838:841   */\n      dup4\n        /* \"#utility.yul\":834:850   */\n      add\n        /* \"#utility.yul\":827:854   */\n      mstore\n        /* \"#utility.yul\":722:861   */\n      pop\n      pop\n      pop\n      jump\t// out\n        /* \"#utility.yul\":867:969   */\n    tag_385:\n        /* \"#utility.yul\":908:914   */\n      0x00\n        /* \"#utility.yul\":959:961   */\n      0x1f\n        /* \"#utility.yul\":955:962   */\n      not\n        /* \"#utility.yul\":950:952   */\n      0x1f\n        /* \"#utility.yul\":943:948   */\n      dup4\n        /* \"#utility.yul\":939:953   */\n      add\n        /* \"#utility.yul\":935:963   */\n      and\n        /* \"#utility.yul\":925:963   */\n      swap1\n      pop\n        /* \"#utility.yul\":867:969   */\n      swap2\n      swap1\n      pop\n      jump\t// out\n        /* \"#utility.yul\":975:1352   */\n    tag_386:\n        /* \"#utility.yul\":1063:1066   */\n      0x00\n        /* \"#utility.yul\":1091:1130   */\n      tag_432\n        /* \"#utility.yul\":1124:1129   */\n      dup3\n        /* \"#utility.yul\":1091:1130   */\n      tag_382\n      jump\t// in\n    tag_432:\n        /* \"#utility.yul\":1146:1217   */\n      tag_433\n        /* \"#utility.yul\":1210:1216   */\n      dup2\n        /* \"#utility.yul\":1205:1208   */\n      dup6\n        /* \"#utility.yul\":1146:1217   */\n      tag_383\n      jump\t// in\n    tag_433:\n        /* \"#utility.yul\":1139:1217   */\n      swap4\n      pop\n        /* \"#utility.yul\":1226:1291   */\n      tag_434\n        /* \"#utility.yul\":1284:1290   */\n      dup2\n        /* \"#utility.yul\":1279:1282   */\n      dup6\n        /* \"#utility.yul\":1272:1276   */\n      0x20\n        /* \"#utility.yul\":1265:1270   */\n      dup7\n        /* \"#utility.yul\":1261:1277   */\n      add\n        /* \"#utility.yul\":1226:1291   */\n      tag_384\n      jump\t// in\n    tag_434:\n        /* \"#utility.yul\":1316:1345   */\n      tag_435\n        /* \"#utility.yul\":1338:1344   */\n      dup2\n        /* \"#utility.yul\":1316:1345   */\n      tag_385\n      jump\t// in\n    tag_435:\n        /* \"#utility.yul\":1311:1314   */\n      dup5\n        /* \"#utility.yul\":1307:1346   */\n      add\n        /* \"#utility.yul\":1300:1346   */\n      swap2\n      pop\n        /* \"#utility.yul\":1067:1352   */\n      pop\n        /* \"#utility.yul\":975:1352   */\n      swap3\n      swap2\n      pop\n      pop\n      jump\t// out\n        /* \"#utility.yul\":1358:1671   */\n    tag_41:\n        /* \"#utility.yul\":1471:1475   */\n      0x00\n        /* \"#utility.yul\":1509:1511   */\n      0x20\n        /* \"#utility.yul\":1498:1507   */\n      dup3\n        /* \"#utility.yul\":1494:1512   */\n      add\n        /* \"#utility.yul\":1486:1512   */\n      swap1\n      pop\n        /* \"#utility.yul\":1558:1567   */\n      dup2\n        /* \"#utility.yul\":1552:1556   */\n      dup2\n        /* \"#utility.yul\":1548:1568   */\n      sub\n        /* \"#utility.yul\":1544:1545   */\n      0x00\n        /* \"#utility.yul\":1533:1542   */\n      dup4\n        /* \"#utility.yul\":1529:1546   */\n      add\n        /* \"#utility.yul\":1522:1569   */\n      mstore\n        /* \"#utility.yul\":1586:1664   */\n      tag_437\n        /* \"#utility.yul\":1659:1663   */\n      dup2\n        /* \"#utility.yul\":1650:1656   */\n      dup5\n        /* \"#utility.yul\":1586:1664   */\n      tag_386\n      jump\t// in\n    tag_437:\n        /* \"#utility.yul\":1578:1664   */\n      swap1\n      pop\n        /* \"#utility.yul\":1358:1671   */\n      swap3\n      swap2\n      pop\n      pop\n      jump\t// out\n        /* \"#utility.yul\":1758:1875   */\n    tag_388:\n        /* \"#utility.yul\":1867:1868   */\n      0x00\n        /* \"#utility.yul\":1864:1865   */\n      dup1\n        /* \"#utility.yul\":1857:1869   */\n      revert\n        /* \"#utility.yul\":2004:2126   */\n    tag_390:\n        /* \"#utility.yul\":2077:2101   */\n      tag_442\n        /* \"#utility.yul\":2095:2100   */\n      dup2\n        /* \"#utility.yul\":2077:2101   */\n      tag_380\n      jump\t// in\n    tag_442:\n        /* \"#utility.yul\":2070:2075   */\n      dup2\n        /* \"#utility.yul\":2067:2102   */\n      eq\n        /* \"#utility.yul\":2057:2120   */\n      tag_443\n      jumpi\n        /* \"#utility.yul\":2116:2117   */\n      0x00\n        /* \"#utility.yul\":2113:2114   */\n      dup1\n        /* \"#utility.yul\":2106:2118   */\n      revert\n        /* \"#utility.yul\":2057:2120   */\n    tag_443:\n        /* \"#utility.yul\":2004:2126   */\n      pop\n      jump\t// out\n        /* \"#utility.yul\":2132:2271   */\n    tag_391:\n        /* \"#utility.yul\":2178:2183   */\n      0x00\n        /* \"#utility.yul\":2216:2222   */\n      dup2\n        /* \"#utility.yul\":2203:2223   */\n      calldataload\n        /* \"#utility.yul\":2194:2223   */\n      swap1\n      pop\n        /* \"#utility.yul\":2232:2265   */\n      tag_445\n        /* \"#utility.yul\":2259:2264   */\n      dup2\n        /* \"#utility.yul\":2232:2265   */\n      tag_390\n      jump\t// in\n    tag_445:\n        /* \"#utility.yul\":2132:2271   */\n      swap3\n      swap2\n      pop\n      pop\n      jump\t// out\n        /* \"#utility.yul\":2277:2606   */\n    tag_44:\n        /* \"#utility.yul\":2336:2342   */\n      0x00\n        /* \"#utility.yul\":2385:2387   */\n      0x20\n        /* \"#utility.yul\":2373:2382   */\n      dup3\n        /* \"#utility.yul\":2364:2371   */\n      dup5\n        /* \"#utility.yul\":2360:2383   */\n      sub\n        /* \"#utility.yul\":2356:2388   */\n      slt\n        /* \"#utility.yul\":2353:2472   */\n      iszero\n      tag_447\n      jumpi\n        /* \"#utility.yul\":2391:2470   */\n      tag_448\n      tag_388\n      jump\t// in\n    tag_448:\n        /* \"#utility.yul\":2353:2472   */\n    tag_447:\n        /* \"#utility.yul\":2511:2512   */\n      0x00\n        /* \"#utility.yul\":2536:2589   */\n      tag_449\n        /* \"#utility.yul\":2581:2588   */\n      dup5\n        /* \"#utility.yul\":2572:2578   */\n      dup3\n        /* \"#utility.yul\":2561:2570   */\n      dup6\n        /* \"#utility.yul\":2557:2579   */\n      add\n        /* \"#utility.yul\":2536:2589   */\n      tag_391\n      jump\t// in\n    tag_449:\n        /* \"#utility.yul\":2526:2589   */\n      swap2\n      pop\n        /* \"#utility.yul\":2482:2599   */\n      pop\n        /* \"#utility.yul\":2277:2606   */\n      swap3\n      swap2\n      pop\n      pop\n      jump\t// out\n        /* \"#utility.yul\":2612:2738   */\n    tag_392:\n        /* \"#utility.yul\":2649:2656   */\n      0x00\n        /* \"#utility.yul\":2689:2731   */\n      0xffffffffffffffffffffffffffffffffffffffff\n        /* \"#utility.yul\":2682:2687   */\n      dup3\n        /* \"#utility.yul\":2678:2732   */\n      and\n        /* \"#utility.yul\":2667:2732   */\n      swap1\n      pop\n        /* \"#utility.yul\":2612:2738   */\n      swap2\n      swap1\n      pop\n      jump\t// out\n        /* \"#utility.yul\":2744:2840   */\n    tag_393:\n        /* \"#utility.yul\":2781:2788   */\n      0x00\n        /* \"#utility.yul\":2810:2834   */\n      tag_452\n        /* \"#utility.yul\":2828:2833   */\n      dup3\n        /* \"#utility.yul\":2810:2834   */\n      tag_392\n      jump\t// in\n    tag_452:\n        /* \"#utility.yul\":2799:2834   */\n      swap1\n      pop\n        /* \"#utility.yul\":2744:2840   */\n      swap2\n      swap1\n      pop\n      jump\t// out\n        /* \"#utility.yul\":2846:2968   */\n    tag_394:\n        /* \"#utility.yul\":2919:2943   */\n      tag_454\n        /* \"#utility.yul\":2937:2942   */\n      dup2\n        /* \"#utility.yul\":2919:2943   */\n      tag_393\n      jump\t// in\n    tag_454:\n        /* \"#utility.yul\":2912:2917   */\n      dup2\n        /* \"#utility.yul\":2909:2944   */\n      eq\n        /* \"#utility.yul\":2899:2962   */\n      tag_455\n      jumpi\n        /* \"#utility.yul\":2958:2959   */\n      0x00\n        /* \"#utility.yul\":2955:2956   */\n      dup1\n        /* \"#utility.yul\":2948:2960   */\n      revert\n        /* \"#utility.yul\":2899:2962   */\n    tag_455:\n        /* \"#utility.yul\":2846:2968   */\n      pop\n      jump\t// out\n        /* \"#utility.yul\":2974:3113   */\n    tag_395:\n        /* \"#utility.yul\":3020:3025   */\n      0x00\n        /* \"#utility.yul\":3058:3064   */\n      dup2\n        /* \"#utility.yul\":3045:3065   */\n      calldataload\n        /* \"#utility.yul\":3036:3065   */\n      swap1\n      pop\n        /* \"#utility.yul\":3074:3107   */\n      tag_457\n        /* \"#utility.yul\":3101:3106   */\n      dup2\n        /* \"#utility.yul\":3074:3107   */\n      tag_394\n      jump\t// in\n    tag_457:\n        /* \"#utility.yul\":2974:3113   */\n      swap3\n      swap2\n      pop\n      pop\n      jump\t// out\n        /* \"#utility.yul\":3119:3593   */\n    tag_49:\n        /* \"#utility.yul\":3187:3193   */\n      0x00\n        /* \"#utility.yul\":3195:3201   */\n      dup1\n        /* \"#utility.yul\":3244:3246   */\n      0x40\n        /* \"#utility.yul\":3232:3241   */\n      dup4\n        /* \"#utility.yul\":3223:3230   */\n      dup6\n        /* \"#utility.yul\":3219:3242   */\n      sub\n        /* \"#utility.yul\":3215:3247   */\n      slt\n        /* \"#utility.yul\":3212:3331   */\n      iszero\n      tag_459\n      jumpi\n        /* \"#utility.yul\":3250:3329   */\n      tag_460\n      tag_388\n      jump\t// in\n    tag_460:\n        /* \"#utility.yul\":3212:3331   */\n    tag_459:\n        /* \"#utility.yul\":3370:3371   */\n      0x00\n        /* \"#utility.yul\":3395:3448   */\n      tag_461\n        /* \"#utility.yul\":3440:3447   */\n      dup6\n        /* \"#utility.yul\":3431:3437   */\n      dup3\n        /* \"#utility.yul\":3420:3429   */\n      dup7\n        /* \"#utility.yul\":3416:3438   */\n      add\n        /* \"#utility.yul\":3395:3448   */\n      tag_395\n      jump\t// in\n    tag_461:\n        /* \"#utility.yul\":3385:3448   */\n      swap3\n      pop\n        /* \"#utility.yul\":3341:3458   */\n      pop\n        /* \"#utility.yul\":3497:3499   */\n      0x20\n        /* \"#utility.yul\":3523:3576   */\n      tag_462\n        /* \"#utility.yul\":3568:3575   */\n      dup6\n        /* \"#utility.yul\":3559:3565   */\n      dup3\n        /* \"#utility.yul\":3548:3557   */\n      dup7\n        /* \"#utility.yul\":3544:3566   */\n      add\n        /* \"#utility.yul\":3523:3576   */\n      tag_391\n      jump\t// in\n    tag_462:\n        /* \"#utility.yul\":3513:3576   */\n      swap2\n      pop\n        /* \"#utility.yul\":3468:3586   */\n      pop\n        /* \"#utility.yul\":3119:3593   */\n      swap3\n      pop\n      swap3\n      swap1\n      pop\n      jump\t// out\n        /* \"#utility.yul\":3599:3689   */\n    tag_396:\n        /* \"#utility.yul\":3633:3640   */\n      0x00\n        /* \"#utility.yul\":3676:3681   */\n      dup2\n        /* \"#utility.yul\":3669:3682   */\n      iszero\n        /* \"#utility.yul\":3662:3683   */\n      iszero\n        /* \"#utility.yul\":3651:3683   */\n      swap1\n      pop\n        /* \"#utility.yul\":3599:3689   */\n      swap2\n      swap1\n      pop\n      jump\t// out\n        /* \"#utility.yul\":3695:3804   */\n    tag_397:\n        /* \"#utility.yul\":3776:3797   */\n      tag_465\n        /* \"#utility.yul\":3791:3796   */\n      dup2\n        /* \"#utility.yul\":3776:3797   */\n      tag_396\n      jump\t// in\n    tag_465:\n        /* \"#utility.yul\":3771:3774   */\n      dup3\n        /* \"#utility.yul\":3764:3798   */\n      mstore\n        /* \"#utility.yul\":3695:3804   */\n      pop\n      pop\n      jump\t// out\n        /* \"#utility.yul\":3810:4020   */\n    tag_52:\n        /* \"#utility.yul\":3897:3901   */\n      0x00\n        /* \"#utility.yul\":3935:3937   */\n      0x20\n        /* \"#utility.yul\":3924:3933   */\n      dup3\n        /* \"#utility.yul\":3920:3938   */\n      add\n        /* \"#utility.yul\":3912:3938   */\n      swap1\n      pop\n        /* \"#utility.yul\":3948:4013   */\n      tag_467\n        /* \"#utility.yul\":4010:4011   */\n      0x00\n        /* \"#utility.yul\":3999:4008   */\n      dup4\n        /* \"#utility.yul\":3995:4012   */\n      add\n        /* \"#utility.yul\":3986:3992   */\n      dup5\n        /* \"#utility.yul\":3948:4013   */\n      tag_397\n      jump\t// in\n    tag_467:\n        /* \"#utility.yul\":3810:4020   */\n      swap3\n      swap2\n      pop\n      pop\n      jump\t// out\n        /* \"#utility.yul\":4026:4645   */\n    tag_62:\n        /* \"#utility.yul\":4103:4109   */\n      0x00\n        /* \"#utility.yul\":4111:4117   */\n      dup1\n        /* \"#utility.yul\":4119:4125   */\n      0x00\n        /* \"#utility.yul\":4168:4170   */\n      0x60\n        /* \"#utility.yul\":4156:4165   */\n      dup5\n        /* \"#utility.yul\":4147:4154   */\n      dup7\n        /* \"#utility.yul\":4143:4166   */\n      sub\n        /* \"#utility.yul\":4139:4171   */\n      slt\n        /* \"#utility.yul\":4136:4255   */\n      iszero\n      tag_469\n      jumpi\n        /* \"#utility.yul\":4174:4253   */\n      tag_470\n      tag_388\n      jump\t// in\n    tag_470:\n        /* \"#utility.yul\":4136:4255   */\n    tag_469:\n        /* \"#utility.yul\":4294:4295   */\n      0x00\n        /* \"#utility.yul\":4319:4372   */\n      tag_471\n        /* \"#utility.yul\":4364:4371   */\n      dup7\n        /* \"#utility.yul\":4355:4361   */\n      dup3\n        /* \"#utility.yul\":4344:4353   */\n      dup8\n        /* \"#utility.yul\":4340:4362   */\n      add\n        /* \"#utility.yul\":4319:4372   */\n      tag_395\n      jump\t// in\n    tag_471:\n        /* \"#utility.yul\":4309:4372   */\n      swap4\n      pop\n        /* \"#utility.yul\":4265:4382   */\n      pop\n        /* \"#utility.yul\":4421:4423   */\n      0x20\n        /* \"#utility.yul\":4447:4500   */\n      tag_472\n        /* \"#utility.yul\":4492:4499   */\n      dup7\n        /* \"#utility.yul\":4483:4489   */\n      dup3\n        /* \"#utility.yul\":4472:4481   */\n      dup8\n        /* \"#utility.yul\":4468:4490   */\n      add\n        /* \"#utility.yul\":4447:4500   */\n      tag_395\n      jump\t// in\n    tag_472:\n        /* \"#utility.yul\":4437:4500   */\n      swap3\n      pop\n        /* \"#utility.yul\":4392:4510   */\n      pop\n        /* \"#utility.yul\":4549:4551   */\n      0x40\n        /* \"#utility.yul\":4575:4628   */\n      tag_473\n        /* \"#utility.yul\":4620:4627   */\n      dup7\n        /* \"#utility.yul\":4611:4617   */\n      dup3\n        /* \"#utility.yul\":4600:4609   */\n      dup8\n        /* \"#utility.yul\":4596:4618   */\n      add\n        /* \"#utility.yul\":4575:4628   */\n      tag_391\n      jump\t// in\n    tag_473:\n        /* \"#utility.yul\":4565:4628   */\n      swap2\n      pop\n        /* \"#utility.yul\":4520:4638   */\n      pop\n        /* \"#utility.yul\":4026:4645   */\n      swap3\n      pop\n      swap3\n      pop\n      swap3\n      jump\t// out\n        /* \"#utility.yul\":4651:4737   */\n    tag_398:\n        /* \"#utility.yul\":4686:4693   */\n      0x00\n        /* \"#utility.yul\":4726:4730   */\n      0xff\n        /* \"#utility.yul\":4719:4724   */\n      dup3\n        /* \"#utility.yul\":4715:4731   */\n      and\n        /* \"#utility.yul\":4704:4731   */\n      swap1\n      pop\n        /* \"#utility.yul\":4651:4737   */\n      swap2\n      swap1\n      pop\n      jump\t// out\n        /* \"#utility.yul\":4743:4855   */\n    tag_399:\n        /* \"#utility.yul\":4826:4848   */\n      tag_476\n        /* \"#utility.yul\":4842:4847   */\n      dup2\n        /* \"#utility.yul\":4826:4848   */\n      tag_398\n      jump\t// in\n    tag_476:\n        /* \"#utility.yul\":4821:4824   */\n      dup3\n        /* \"#utility.yul\":4814:4849   */\n      mstore\n        /* \"#utility.yul\":4743:4855   */\n      pop\n      pop\n      jump\t// out\n        /* \"#utility.yul\":4861:5075   */\n    tag_68:\n        /* \"#utility.yul\":4950:4954   */\n      0x00\n        /* \"#utility.yul\":4988:4990   */\n      0x20\n        /* \"#utility.yul\":4977:4986   */\n      dup3\n        /* \"#utility.yul\":4973:4991   */\n      add\n        /* \"#utility.yul\":4965:4991   */\n      swap1\n      pop\n        /* \"#utility.yul\":5001:5068   */\n      tag_478\n        /* \"#utility.yul\":5065:5066   */\n      0x00\n        /* \"#utility.yul\":5054:5063   */\n      dup4\n        /* \"#utility.yul\":5050:5067   */\n      add\n        /* \"#utility.yul\":5041:5047   */\n      dup5\n        /* \"#utility.yul\":5001:5068   */\n      tag_399\n      jump\t// in\n    tag_478:\n        /* \"#utility.yul\":4861:5075   */\n      swap3\n      swap2\n      pop\n      pop\n      jump\t// out\n        /* \"#utility.yul\":5081:5199   */\n    tag_400:\n        /* \"#utility.yul\":5168:5192   */\n      tag_480\n        /* \"#utility.yul\":5186:5191   */\n      dup2\n        /* \"#utility.yul\":5168:5192   */\n      tag_393\n      jump\t// in\n    tag_480:\n        /* \"#utility.yul\":5163:5166   */\n      dup3\n        /* \"#utility.yul\":5156:5193   */\n      mstore\n        /* \"#utility.yul\":5081:5199   */\n      pop\n      pop\n      jump\t// out\n        /* \"#utility.yul\":5205:5427   */\n    tag_72:\n        /* \"#utility.yul\":5298:5302   */\n      0x00\n        /* \"#utility.yul\":5336:5338   */\n      0x20\n        /* \"#utility.yul\":5325:5334   */\n      dup3\n        /* \"#utility.yul\":5321:5339   */\n      add\n        /* \"#utility.yul\":5313:5339   */\n      swap1\n      pop\n        /* \"#utility.yul\":5349:5420   */\n      tag_482\n        /* \"#utility.yul\":5417:5418   */\n      0x00\n        /* \"#utility.yul\":5406:5415   */\n      dup4\n        /* \"#utility.yul\":5402:5419   */\n      add\n        /* \"#utility.yul\":5393:5399   */\n      dup5\n        /* \"#utility.yul\":5349:5420   */\n      tag_400\n      jump\t// in\n    tag_482:\n        /* \"#utility.yul\":5205:5427   */\n      swap3\n      swap2\n      pop\n      pop\n      jump\t// out\n        /* \"#utility.yul\":5433:5762   */\n    tag_75:\n        /* \"#utility.yul\":5492:5498   */\n      0x00\n        /* \"#utility.yul\":5541:5543   */\n      0x20\n        /* \"#utility.yul\":5529:5538   */\n      dup3\n        /* \"#utility.yul\":5520:5527   */\n      dup5\n        /* \"#utility.yul\":5516:5539   */\n      sub\n        /* \"#utility.yul\":5512:5544   */\n      slt\n        /* \"#utility.yul\":5509:5628   */\n      iszero\n      tag_484\n      jumpi\n        /* \"#utility.yul\":5547:5626   */\n      tag_485\n      tag_388\n      jump\t// in\n    tag_485:\n        /* \"#utility.yul\":5509:5628   */\n    tag_484:\n        /* \"#utility.yul\":5667:5668   */\n      0x00\n        /* \"#utility.yul\":5692:5745   */\n      tag_486\n        /* \"#utility.yul\":5737:5744   */\n      dup5\n        /* \"#utility.yul\":5728:5734   */\n      dup3\n        /* \"#utility.yul\":5717:5726   */\n      dup6\n        /* \"#utility.yul\":5713:5735   */\n      add\n        /* \"#utility.yul\":5692:5745   */\n      tag_395\n      jump\t// in\n    tag_486:\n        /* \"#utility.yul\":5682:5745   */\n      swap2\n      pop\n        /* \"#utility.yul\":5638:5755   */\n      pop\n        /* \"#utility.yul\":5433:5762   */\n      swap3\n      swap2\n      pop\n      pop\n      jump\t// out\n        /* \"#utility.yul\":5768:6242   */\n    tag_84:\n        /* \"#utility.yul\":5836:5842   */\n      0x00\n        /* \"#utility.yul\":5844:5850   */\n      dup1\n        /* \"#utility.yul\":5893:5895   */\n      0x40\n        /* \"#utility.yul\":5881:5890   */\n      dup4\n        /* \"#utility.yul\":5872:5879   */\n      dup6\n        /* \"#utility.yul\":5868:5891   */\n      sub\n        /* \"#utility.yul\":5864:5896   */\n      slt\n        /* \"#utility.yul\":5861:5980   */\n      iszero\n      tag_488\n      jumpi\n        /* \"#utility.yul\":5899:5978   */\n      tag_489\n      tag_388\n      jump\t// in\n    tag_489:\n        /* \"#utility.yul\":5861:5980   */\n    tag_488:\n        /* \"#utility.yul\":6019:6020   */\n      0x00\n        /* \"#utility.yul\":6044:6097   */\n      tag_490\n        /* \"#utility.yul\":6089:6096   */\n      dup6\n        /* \"#utility.yul\":6080:6086   */\n      dup3\n        /* \"#utility.yul\":6069:6078   */\n      dup7\n        /* \"#utility.yul\":6065:6087   */\n      add\n        /* \"#utility.yul\":6044:6097   */\n      tag_391\n      jump\t// in\n    tag_490:\n        /* \"#utility.yul\":6034:6097   */\n      swap3\n      pop\n        /* \"#utility.yul\":5990:6107   */\n      pop\n        /* \"#utility.yul\":6146:6148   */\n      0x20\n        /* \"#utility.yul\":6172:6225   */\n      tag_491\n        /* \"#utility.yul\":6217:6224   */\n      dup6\n        /* \"#utility.yul\":6208:6214   */\n      dup3\n        /* \"#utility.yul\":6197:6206   */\n      dup7\n        /* \"#utility.yul\":6193:6215   */\n      add\n        /* \"#utility.yul\":6172:6225   */\n      tag_395\n      jump\t// in\n    tag_491:\n        /* \"#utility.yul\":6162:6225   */\n      swap2\n      pop\n        /* \"#utility.yul\":6117:6235   */\n      pop\n        /* \"#utility.yul\":5768:6242   */\n      swap3\n      pop\n      swap3\n      swap1\n      pop\n      jump\t// out\n        /* \"#utility.yul\":6248:6308   */\n    tag_401:\n        /* \"#utility.yul\":6276:6279   */\n      0x00\n        /* \"#utility.yul\":6297:6302   */\n      dup2\n        /* \"#utility.yul\":6290:6302   */\n      swap1\n      pop\n        /* \"#utility.yul\":6248:6308   */\n      swap2\n      swap1\n      pop\n      jump\t// out\n        /* \"#utility.yul\":6314:6456   */\n    tag_402:\n        /* \"#utility.yul\":6364:6373   */\n      0x00\n        /* \"#utility.yul\":6397:6450   */\n      tag_494\n        /* \"#utility.yul\":6415:6449   */\n      tag_495\n        /* \"#utility.yul\":6424:6448   */\n      tag_496\n        /* \"#utility.yul\":6442:6447   */\n      dup5\n        /* \"#utility.yul\":6424:6448   */\n      tag_392\n      jump\t// in\n    tag_496:\n        /* \"#utility.yul\":6415:6449   */\n      tag_401\n      jump\t// in\n    tag_495:\n        /* \"#utility.yul\":6397:6450   */\n      tag_392\n      jump\t// in\n    tag_494:\n        /* \"#utility.yul\":6384:6450   */\n      swap1\n      pop\n        /* \"#utility.yul\":6314:6456   */\n      swap2\n      swap1\n      pop\n      jump\t// out\n        /* \"#utility.yul\":6462:6588   */\n    tag_403:\n        /* \"#utility.yul\":6512:6521   */\n      0x00\n        /* \"#utility.yul\":6545:6582   */\n      tag_498\n        /* \"#utility.yul\":6576:6581   */\n      dup3\n        /* \"#utility.yul\":6545:6582   */\n      tag_402\n      jump\t// in\n    tag_498:\n        /* \"#utility.yul\":6532:6582   */\n      swap1\n      pop\n        /* \"#utility.yul\":6462:6588   */\n      swap2\n      swap1\n      pop\n      jump\t// out\n        /* \"#utility.yul\":6594:6735   */\n    tag_404:\n        /* \"#utility.yul\":6659:6668   */\n      0x00\n        /* \"#utility.yul\":6692:6729   */\n      tag_500\n        /* \"#utility.yul\":6723:6728   */\n      dup3\n        /* \"#utility.yul\":6692:6729   */\n      tag_403\n      jump\t// in\n    tag_500:\n        /* \"#utility.yul\":6679:6729   */\n      swap1\n      pop\n        /* \"#utility.yul\":6594:6735   */\n      swap2\n      swap1\n      pop\n      jump\t// out\n        /* \"#utility.yul\":6741:6902   */\n    tag_405:\n        /* \"#utility.yul\":6843:6895   */\n      tag_502\n        /* \"#utility.yul\":6889:6894   */\n      dup2\n        /* \"#utility.yul\":6843:6895   */\n      tag_404\n      jump\t// in\n    tag_502:\n        /* \"#utility.yul\":6838:6841   */\n      dup3\n        /* \"#utility.yul\":6831:6896   */\n      mstore\n        /* \"#utility.yul\":6741:6902   */\n      pop\n      pop\n      jump\t// out\n        /* \"#utility.yul\":6908:7160   */\n    tag_94:\n        /* \"#utility.yul\":7016:7020   */\n      0x00\n        /* \"#utility.yul\":7054:7056   */\n      0x20\n        /* \"#utility.yul\":7043:7052   */\n      dup3\n        /* \"#utility.yul\":7039:7057   */\n      add\n        /* \"#utility.yul\":7031:7057   */\n      swap1\n      pop\n        /* \"#utility.yul\":7067:7153   */\n      tag_504\n        /* \"#utility.yul\":7150:7151   */\n      0x00\n        /* \"#utility.yul\":7139:7148   */\n      dup4\n        /* \"#utility.yul\":7135:7152   */\n      add\n        /* \"#utility.yul\":7126:7132   */\n      dup5\n        /* \"#utility.yul\":7067:7153   */\n      tag_405\n      jump\t// in\n    tag_504:\n        /* \"#utility.yul\":6908:7160   */\n      swap3\n      swap2\n      pop\n      pop\n      jump\t// out\n        /* \"#utility.yul\":7166:7785   */\n    tag_112:\n        /* \"#utility.yul\":7243:7249   */\n      0x00\n        /* \"#utility.yul\":7251:7257   */\n      dup1\n        /* \"#utility.yul\":7259:7265   */\n      0x00\n        /* \"#utility.yul\":7308:7310   */\n      0x60\n        /* \"#utility.yul\":7296:7305   */\n      dup5\n        /* \"#utility.yul\":7287:7294   */\n      dup7\n        /* \"#utility.yul\":7283:7306   */\n      sub\n        /* \"#utility.yul\":7279:7311   */\n      slt\n        /* \"#utility.yul\":7276:7395   */\n      iszero\n      tag_506\n      jumpi\n        /* \"#utility.yul\":7314:7393   */\n      tag_507\n      tag_388\n      jump\t// in\n    tag_507:\n        /* \"#utility.yul\":7276:7395   */\n    tag_506:\n        /* \"#utility.yul\":7434:7435   */\n      0x00\n        /* \"#utility.yul\":7459:7512   */\n      tag_508\n        /* \"#utility.yul\":7504:7511   */\n      dup7\n        /* \"#utility.yul\":7495:7501   */\n      dup3\n        /* \"#utility.yul\":7484:7493   */\n      dup8\n        /* \"#utility.yul\":7480:7502   */\n      add\n        /* \"#utility.yul\":7459:7512   */\n      tag_391\n      jump\t// in\n    tag_508:\n        /* \"#utility.yul\":7449:7512   */\n      swap4\n      pop\n        /* \"#utility.yul\":7405:7522   */\n      pop\n        /* \"#utility.yul\":7561:7563   */\n      0x20\n        /* \"#utility.yul\":7587:7640   */\n      tag_509\n        /* \"#utility.yul\":7632:7639   */\n      dup7\n        /* \"#utility.yul\":7623:7629   */\n      dup3\n        /* \"#utility.yul\":7612:7621   */\n      dup8\n        /* \"#utility.yul\":7608:7630   */\n      add\n        /* \"#utility.yul\":7587:7640   */\n      tag_395\n      jump\t// in\n    tag_509:\n        /* \"#utility.yul\":7577:7640   */\n      swap3\n      pop\n        /* \"#utility.yul\":7532:7650   */\n      pop\n        /* \"#utility.yul\":7689:7691   */\n      0x40\n        /* \"#utility.yul\":7715:7768   */\n      tag_510\n        /* \"#utility.yul\":7760:7767   */\n      dup7\n        /* \"#utility.yul\":7751:7757   */\n      dup3\n        /* \"#utility.yul\":7740:7749   */\n      dup8\n        /* \"#utility.yul\":7736:7758   */\n      add\n        /* \"#utility.yul\":7715:7768   */\n      tag_395\n      jump\t// in\n    tag_510:\n        /* \"#utility.yul\":7705:7768   */\n      swap2\n      pop\n        /* \"#utility.yul\":7660:7778   */\n      pop\n        /* \"#utility.yul\":7166:7785   */\n      swap3\n      pop\n      swap3\n      pop\n      swap3\n      jump\t// out\n        /* \"#utility.yul\":7791:8265   */\n    tag_137:\n        /* \"#utility.yul\":7859:7865   */\n      0x00\n        /* \"#utility.yul\":7867:7873   */\n      dup1\n        /* \"#utility.yul\":7916:7918   */\n      0x40\n        /* \"#utility.yul\":7904:7913   */\n      dup4\n        /* \"#utility.yul\":7895:7902   */\n      dup6\n        /* \"#utility.yul\":7891:7914   */\n      sub\n        /* \"#utility.yul\":7887:7919   */\n      slt\n        /* \"#utility.yul\":7884:8003   */\n      iszero\n      tag_512\n      jumpi\n        /* \"#utility.yul\":7922:8001   */\n      tag_513\n      tag_388\n      jump\t// in\n    tag_513:\n        /* \"#utility.yul\":7884:8003   */\n    tag_512:\n        /* \"#utility.yul\":8042:8043   */\n      0x00\n        /* \"#utility.yul\":8067:8120   */\n      tag_514\n        /* \"#utility.yul\":8112:8119   */\n      dup6\n        /* \"#utility.yul\":8103:8109   */\n      dup3\n        /* \"#utility.yul\":8092:8101   */\n      dup7\n        /* \"#utility.yul\":8088:8110   */\n      add\n        /* \"#utility.yul\":8067:8120   */\n      tag_395\n      jump\t// in\n    tag_514:\n        /* \"#utility.yul\":8057:8120   */\n      swap3\n      pop\n        /* \"#utility.yul\":8013:8130   */\n      pop\n        /* \"#utility.yul\":8169:8171   */\n      0x20\n        /* \"#utility.yul\":8195:8248   */\n      tag_515\n        /* \"#utility.yul\":8240:8247   */\n      dup6\n        /* \"#utility.yul\":8231:8237   */\n      dup3\n        /* \"#utility.yul\":8220:8229   */\n      dup7\n        /* \"#utility.yul\":8216:8238   */\n      add\n        /* \"#utility.yul\":8195:8248   */\n      tag_395\n      jump\t// in\n    tag_515:\n        /* \"#utility.yul\":8185:8248   */\n      swap2\n      pop\n        /* \"#utility.yul\":8140:8258   */\n      pop\n        /* \"#utility.yul\":7791:8265   */\n      swap3\n      pop\n      swap3\n      swap1\n      pop\n      jump\t// out\n        /* \"#utility.yul\":8271:8414   */\n    tag_406:\n        /* \"#utility.yul\":8328:8333   */\n      0x00\n        /* \"#utility.yul\":8359:8365   */\n      dup2\n        /* \"#utility.yul\":8353:8366   */\n      mload\n        /* \"#utility.yul\":8344:8366   */\n      swap1\n      pop\n        /* \"#utility.yul\":8375:8408   */\n      tag_517\n        /* \"#utility.yul\":8402:8407   */\n      dup2\n        /* \"#utility.yul\":8375:8408   */\n      tag_390\n      jump\t// in\n    tag_517:\n        /* \"#utility.yul\":8271:8414   */\n      swap3\n      swap2\n      pop\n      pop\n      jump\t// out\n        /* \"#utility.yul\":8420:8771   */\n    tag_149:\n        /* \"#utility.yul\":8490:8496   */\n      0x00\n        /* \"#utility.yul\":8539:8541   */\n      0x20\n        /* \"#utility.yul\":8527:8536   */\n      dup3\n        /* \"#utility.yul\":8518:8525   */\n      dup5\n        /* \"#utility.yul\":8514:8537   */\n      sub\n        /* \"#utility.yul\":8510:8542   */\n      slt\n        /* \"#utility.yul\":8507:8626   */\n      iszero\n      tag_519\n      jumpi\n        /* \"#utility.yul\":8545:8624   */\n      tag_520\n      tag_388\n      jump\t// in\n    tag_520:\n        /* \"#utility.yul\":8507:8626   */\n    tag_519:\n        /* \"#utility.yul\":8665:8666   */\n      0x00\n        /* \"#utility.yul\":8690:8754   */\n      tag_521\n        /* \"#utility.yul\":8746:8753   */\n      dup5\n        /* \"#utility.yul\":8737:8743   */\n      dup3\n        /* \"#utility.yul\":8726:8735   */\n      dup6\n        /* \"#utility.yul\":8722:8744   */\n      add\n        /* \"#utility.yul\":8690:8754   */\n      tag_406\n      jump\t// in\n    tag_521:\n        /* \"#utility.yul\":8680:8754   */\n      swap2\n      pop\n        /* \"#utility.yul\":8636:8764   */\n      pop\n        /* \"#utility.yul\":8420:8771   */\n      swap3\n      swap2\n      pop\n      pop\n      jump\t// out\n        /* \"#utility.yul\":8777:8957   */\n    tag_407:\n        /* \"#utility.yul\":8825:8902   */\n      0x4e487b7100000000000000000000000000000000000000000000000000000000\n        /* \"#utility.yul\":8822:8823   */\n      0x00\n        /* \"#utility.yul\":8815:8903   */\n      mstore\n        /* \"#utility.yul\":8922:8926   */\n      0x22\n        /* \"#utility.yul\":8919:8920   */\n      0x04\n        /* \"#utility.yul\":8912:8927   */\n      mstore\n        /* \"#utility.yul\":8946:8950   */\n      0x24\n        /* \"#utility.yul\":8943:8944   */\n      0x00\n        /* \"#utility.yul\":8936:8951   */\n      revert\n        /* \"#utility.yul\":8963:9283   */\n    tag_152:\n        /* \"#utility.yul\":9007:9013   */\n      0x00\n        /* \"#utility.yul\":9044:9045   */\n      0x02\n        /* \"#utility.yul\":9038:9042   */\n      dup3\n        /* \"#utility.yul\":9034:9046   */\n      div\n        /* \"#utility.yul\":9024:9046   */\n      swap1\n      pop\n        /* \"#utility.yul\":9091:9092   */\n      0x01\n        /* \"#utility.yul\":9085:9089   */\n      dup3\n        /* \"#utility.yul\":9081:9093   */\n      and\n        /* \"#utility.yul\":9112:9130   */\n      dup1\n        /* \"#utility.yul\":9102:9183   */\n      tag_524\n      jumpi\n        /* \"#utility.yul\":9168:9172   */\n      0x7f\n        /* \"#utility.yul\":9160:9166   */\n      dup3\n        /* \"#utility.yul\":9156:9173   */\n      and\n        /* \"#utility.yul\":9146:9173   */\n      swap2\n      pop\n        /* \"#utility.yul\":9102:9183   */\n    tag_524:\n        /* \"#utility.yul\":9230:9232   */\n      0x20\n        /* \"#utility.yul\":9222:9228   */\n      dup3\n        /* \"#utility.yul\":9219:9233   */\n      lt\n        /* \"#utility.yul\":9199:9217   */\n      dup2\n        /* \"#utility.yul\":9196:9234   */\n      sub\n        /* \"#utility.yul\":9193:9277   */\n      tag_525\n      jumpi\n        /* \"#utility.yul\":9249:9267   */\n      tag_526\n      tag_407\n      jump\t// in\n    tag_526:\n        /* \"#utility.yul\":9193:9277   */\n    tag_525:\n        /* \"#utility.yul\":9014:9283   */\n      pop\n        /* \"#utility.yul\":8963:9283   */\n      swap2\n      swap1\n      pop\n      jump\t// out\n        /* \"#utility.yul\":9289:9469   */\n    tag_408:\n        /* \"#utility.yul\":9337:9414   */\n      0x4e487b7100000000000000000000000000000000000000000000000000000000\n        /* \"#utility.yul\":9334:9335   */\n      0x00\n        /* \"#utility.yul\":9327:9415   */\n      mstore\n        /* \"#utility.yul\":9434:9438   */\n      0x11\n        /* \"#utility.yul\":9431:9432   */\n      0x04\n        /* \"#utility.yul\":9424:9439   */\n      mstore\n        /* \"#utility.yul\":9458:9462   */\n      0x24\n        /* \"#utility.yul\":9455:9456   */\n      0x00\n        /* \"#utility.yul\":9448:9463   */\n      revert\n        /* \"#utility.yul\":9475:9663   */\n    tag_179:\n        /* \"#utility.yul\":9513:9516   */\n      0x00\n        /* \"#utility.yul\":9532:9550   */\n      tag_529\n        /* \"#utility.yul\":9548:9549   */\n      dup3\n        /* \"#utility.yul\":9532:9550   */\n      tag_398\n      jump\t// in\n    tag_529:\n        /* \"#utility.yul\":9527:9550   */\n      swap2\n      pop\n        /* \"#utility.yul\":9564:9582   */\n      tag_530\n        /* \"#utility.yul\":9580:9581   */\n      dup4\n        /* \"#utility.yul\":9564:9582   */\n      tag_398\n      jump\t// in\n    tag_530:\n        /* \"#utility.yul\":9559:9582   */\n      swap3\n      pop\n        /* \"#utility.yul\":9605:9606   */\n      dup3\n        /* \"#utility.yul\":9602:9603   */\n      dup3\n        /* \"#utility.yul\":9598:9607   */\n      add\n        /* \"#utility.yul\":9591:9607   */\n      swap1\n      pop\n        /* \"#utility.yul\":9628:9632   */\n      0xff\n        /* \"#utility.yul\":9623:9626   */\n      dup2\n        /* \"#utility.yul\":9620:9633   */\n      gt\n        /* \"#utility.yul\":9617:9656   */\n      iszero\n      tag_531\n      jumpi\n        /* \"#utility.yul\":9636:9654   */\n      tag_532\n      tag_408\n      jump\t// in\n    tag_532:\n        /* \"#utility.yul\":9617:9656   */\n    tag_531:\n        /* \"#utility.yul\":9475:9663   */\n      swap3\n      swap2\n      pop\n      pop\n      jump\t// out\n        /* \"#utility.yul\":9669:9839   */\n    tag_409:\n        /* \"#utility.yul\":9809:9831   */\n      0x53656e646572206973204e6f74205661756c7473000000000000000000000000\n        /* \"#utility.yul\":9805:9806   */\n      0x00\n        /* \"#utility.yul\":9797:9803   */\n      dup3\n        /* \"#utility.yul\":9793:9807   */\n      add\n        /* \"#utility.yul\":9786:9832   */\n      mstore\n        /* \"#utility.yul\":9669:9839   */\n      pop\n      jump\t// out\n        /* \"#utility.yul\":9845:10211   */\n    tag_410:\n        /* \"#utility.yul\":9987:9990   */\n      0x00\n        /* \"#utility.yul\":10008:10075   */\n      tag_535\n        /* \"#utility.yul\":10072:10074   */\n      0x14\n        /* \"#utility.yul\":10067:10070   */\n      dup4\n        /* \"#utility.yul\":10008:10075   */\n      tag_383\n      jump\t// in\n    tag_535:\n        /* \"#utility.yul\":10001:10075   */\n      swap2\n      pop\n        /* \"#utility.yul\":10084:10177   */\n      tag_536\n        /* \"#utility.yul\":10173:10176   */\n      dup3\n        /* \"#utility.yul\":10084:10177   */\n      tag_409\n      jump\t// in\n    tag_536:\n        /* \"#utility.yul\":10202:10204   */\n      0x20\n        /* \"#utility.yul\":10197:10200   */\n      dup3\n        /* \"#utility.yul\":10193:10205   */\n      add\n        /* \"#utility.yul\":10186:10205   */\n      swap1\n      pop\n        /* \"#utility.yul\":9845:10211   */\n      swap2\n      swap1\n      pop\n      jump\t// out\n        /* \"#utility.yul\":10217:10636   */\n    tag_187:\n        /* \"#utility.yul\":10383:10387   */\n      0x00\n        /* \"#utility.yul\":10421:10423   */\n      0x20\n        /* \"#utility.yul\":10410:10419   */\n      dup3\n        /* \"#utility.yul\":10406:10424   */\n      add\n        /* \"#utility.yul\":10398:10424   */\n      swap1\n      pop\n        /* \"#utility.yul\":10470:10479   */\n      dup2\n        /* \"#utility.yul\":10464:10468   */\n      dup2\n        /* \"#utility.yul\":10460:10480   */\n      sub\n        /* \"#utility.yul\":10456:10457   */\n      0x00\n        /* \"#utility.yul\":10445:10454   */\n      dup4\n        /* \"#utility.yul\":10441:10458   */\n      add\n        /* \"#utility.yul\":10434:10481   */\n      mstore\n        /* \"#utility.yul\":10498:10629   */\n      tag_538\n        /* \"#utility.yul\":10624:10628   */\n      dup2\n        /* \"#utility.yul\":10498:10629   */\n      tag_410\n      jump\t// in\n    tag_538:\n        /* \"#utility.yul\":10490:10629   */\n      swap1\n      pop\n        /* \"#utility.yul\":10217:10636   */\n      swap2\n      swap1\n      pop\n      jump\t// out\n        /* \"#utility.yul\":10642:10821   */\n    tag_411:\n        /* \"#utility.yul\":10782:10813   */\n      0x416d6f756e74206d7573742062652067726561746572207468616e2030000000\n        /* \"#utility.yul\":10778:10779   */\n      0x00\n        /* \"#utility.yul\":10770:10776   */\n      dup3\n        /* \"#utility.yul\":10766:10780   */\n      add\n        /* \"#utility.yul\":10759:10814   */\n      mstore\n        /* \"#utility.yul\":10642:10821   */\n      pop\n      jump\t// out\n        /* \"#utility.yul\":10827:11193   */\n    tag_412:\n        /* \"#utility.yul\":10969:10972   */\n      0x00\n        /* \"#utility.yul\":10990:11057   */\n      tag_541\n        /* \"#utility.yul\":11054:11056   */\n      0x1d\n        /* \"#utility.yul\":11049:11052   */\n      dup4\n        /* \"#utility.yul\":10990:11057   */\n      tag_383\n      jump\t// in\n    tag_541:\n        /* \"#utility.yul\":10983:11057   */\n      swap2\n      pop\n        /* \"#utility.yul\":11066:11159   */\n      tag_542\n        /* \"#utility.yul\":11155:11158   */\n      dup3\n        /* \"#utility.yul\":11066:11159   */\n      tag_411\n      jump\t// in\n    tag_542:\n        /* \"#utility.yul\":11184:11186   */\n      0x20\n        /* \"#utility.yul\":11179:11182   */\n      dup3\n        /* \"#utility.yul\":11175:11187   */\n      add\n        /* \"#utility.yul\":11168:11187   */\n      swap1\n      pop\n        /* \"#utility.yul\":10827:11193   */\n      swap2\n      swap1\n      pop\n      jump\t// out\n        /* \"#utility.yul\":11199:11618   */\n    tag_191:\n        /* \"#utility.yul\":11365:11369   */\n      0x00\n        /* \"#utility.yul\":11403:11405   */\n      0x20\n        /* \"#utility.yul\":11392:11401   */\n      dup3\n        /* \"#utility.yul\":11388:11406   */\n      add\n        /* \"#utility.yul\":11380:11406   */\n      swap1\n      pop\n        /* \"#utility.yul\":11452:11461   */\n      dup2\n        /* \"#utility.yul\":11446:11450   */\n      dup2\n        /* \"#utility.yul\":11442:11462   */\n      sub\n        /* \"#utility.yul\":11438:11439   */\n      0x00\n        /* \"#utility.yul\":11427:11436   */\n      dup4\n        /* \"#utility.yul\":11423:11440   */\n      add\n        /* \"#utility.yul\":11416:11463   */\n      mstore\n        /* \"#utility.yul\":11480:11611   */\n      tag_544\n        /* \"#utility.yul\":11606:11610   */\n      dup2\n        /* \"#utility.yul\":11480:11611   */\n      tag_412\n      jump\t// in\n    tag_544:\n        /* \"#utility.yul\":11472:11611   */\n      swap1\n      pop\n        /* \"#utility.yul\":11199:11618   */\n      swap2\n      swap1\n      pop\n      jump\t// out\n        /* \"#utility.yul\":11624:12066   */\n    tag_195:\n        /* \"#utility.yul\":11773:11777   */\n      0x00\n        /* \"#utility.yul\":11811:11813   */\n      0x60\n        /* \"#utility.yul\":11800:11809   */\n      dup3\n        /* \"#utility.yul\":11796:11814   */\n      add\n        /* \"#utility.yul\":11788:11814   */\n      swap1\n      pop\n        /* \"#utility.yul\":11824:11895   */\n      tag_546\n        /* \"#utility.yul\":11892:11893   */\n      0x00\n        /* \"#utility.yul\":11881:11890   */\n      dup4\n        /* \"#utility.yul\":11877:11894   */\n      add\n        /* \"#utility.yul\":11868:11874   */\n      dup7\n        /* \"#utility.yul\":11824:11895   */\n      tag_400\n      jump\t// in\n    tag_546:\n        /* \"#utility.yul\":11905:11977   */\n      tag_547\n        /* \"#utility.yul\":11973:11975   */\n      0x20\n        /* \"#utility.yul\":11962:11971   */\n      dup4\n        /* \"#utility.yul\":11958:11976   */\n      add\n        /* \"#utility.yul\":11949:11955   */\n      dup6\n        /* \"#utility.yul\":11905:11977   */\n      tag_381\n      jump\t// in\n    tag_547:\n        /* \"#utility.yul\":11987:12059   */\n      tag_548\n        /* \"#utility.yul\":12055:12057   */\n      0x40\n        /* \"#utility.yul\":12044:12053   */\n      dup4\n        /* \"#utility.yul\":12040:12058   */\n      add\n        /* \"#utility.yul\":12031:12037   */\n      dup5\n        /* \"#utility.yul\":11987:12059   */\n      tag_381\n      jump\t// in\n    tag_548:\n        /* \"#utility.yul\":11624:12066   */\n      swap5\n      swap4\n      pop\n      pop\n      pop\n      pop\n      jump\t// out\n        /* \"#utility.yul\":12072:12263   */\n    tag_245:\n        /* \"#utility.yul\":12112:12115   */\n      0x00\n        /* \"#utility.yul\":12131:12151   */\n      tag_550\n        /* \"#utility.yul\":12149:12150   */\n      dup3\n        /* \"#utility.yul\":12131:12151   */\n      tag_380\n      jump\t// in\n    tag_550:\n        /* \"#utility.yul\":12126:12151   */\n      swap2\n      pop\n        /* \"#utility.yul\":12165:12185   */\n      tag_551\n        /* \"#utility.yul\":12183:12184   */\n      dup4\n        /* \"#utility.yul\":12165:12185   */\n      tag_380\n      jump\t// in\n    tag_551:\n        /* \"#utility.yul\":12160:12185   */\n      swap3\n      pop\n        /* \"#utility.yul\":12208:12209   */\n      dup3\n        /* \"#utility.yul\":12205:12206   */\n      dup3\n        /* \"#utility.yul\":12201:12210   */\n      add\n        /* \"#utility.yul\":12194:12210   */\n      swap1\n      pop\n        /* \"#utility.yul\":12229:12232   */\n      dup1\n        /* \"#utility.yul\":12226:12227   */\n      dup3\n        /* \"#utility.yul\":12223:12233   */\n      gt\n        /* \"#utility.yul\":12220:12256   */\n      iszero\n      tag_552\n      jumpi\n        /* \"#utility.yul\":12236:12254   */\n      tag_553\n      tag_408\n      jump\t// in\n    tag_553:\n        /* \"#utility.yul\":12220:12256   */\n    tag_552:\n        /* \"#utility.yul\":12072:12263   */\n      swap3\n      swap2\n      pop\n      pop\n      jump\t// out\n        /* \"#utility.yul\":12269:12371   */\n    tag_413:\n        /* \"#utility.yul\":12311:12319   */\n      0x00\n        /* \"#utility.yul\":12358:12363   */\n      dup2\n        /* \"#utility.yul\":12355:12356   */\n      0x01\n        /* \"#utility.yul\":12351:12364   */\n      shr\n        /* \"#utility.yul\":12330:12364   */\n      swap1\n      pop\n        /* \"#utility.yul\":12269:12371   */\n      swap2\n      swap1\n      pop\n      jump\t// out\n        /* \"#utility.yul\":12377:13225   */\n    tag_414:\n        /* \"#utility.yul\":12438:12443   */\n      0x00\n        /* \"#utility.yul\":12445:12449   */\n      dup1\n        /* \"#utility.yul\":12469:12475   */\n      dup3\n        /* \"#utility.yul\":12460:12475   */\n      swap2\n      pop\n        /* \"#utility.yul\":12493:12498   */\n      dup4\n        /* \"#utility.yul\":12484:12498   */\n      swap1\n      pop\n        /* \"#utility.yul\":12507:13219   */\n    tag_556:\n        /* \"#utility.yul\":12528:12529   */\n      0x01\n        /* \"#utility.yul\":12518:12526   */\n      dup6\n        /* \"#utility.yul\":12515:12530   */\n      gt\n        /* \"#utility.yul\":12507:13219   */\n      iszero\n      tag_558\n      jumpi\n        /* \"#utility.yul\":12623:12627   */\n      dup1\n        /* \"#utility.yul\":12618:12621   */\n      dup7\n        /* \"#utility.yul\":12614:12628   */\n      div\n        /* \"#utility.yul\":12608:12612   */\n      dup2\n        /* \"#utility.yul\":12605:12629   */\n      gt\n        /* \"#utility.yul\":12602:12652   */\n      iszero\n      tag_559\n      jumpi\n        /* \"#utility.yul\":12632:12650   */\n      tag_560\n      tag_408\n      jump\t// in\n    tag_560:\n        /* \"#utility.yul\":12602:12652   */\n    tag_559:\n        /* \"#utility.yul\":12682:12683   */\n      0x01\n        /* \"#utility.yul\":12672:12680   */\n      dup6\n        /* \"#utility.yul\":12668:12684   */\n      and\n        /* \"#utility.yul\":12665:13116   */\n      iszero\n      tag_561\n      jumpi\n        /* \"#utility.yul\":13097:13101   */\n      dup1\n        /* \"#utility.yul\":13090:13095   */\n      dup3\n        /* \"#utility.yul\":13086:13102   */\n      mul\n        /* \"#utility.yul\":13077:13102   */\n      swap2\n      pop\n        /* \"#utility.yul\":12665:13116   */\n    tag_561:\n        /* \"#utility.yul\":13147:13151   */\n      dup1\n        /* \"#utility.yul\":13141:13145   */\n      dup2\n        /* \"#utility.yul\":13137:13152   */\n      mul\n        /* \"#utility.yul\":13129:13152   */\n      swap1\n      pop\n        /* \"#utility.yul\":13177:13209   */\n      tag_562\n        /* \"#utility.yul\":13200:13208   */\n      dup6\n        /* \"#utility.yul\":13177:13209   */\n      tag_413\n      jump\t// in\n    tag_562:\n        /* \"#utility.yul\":13165:13209   */\n      swap5\n      pop\n        /* \"#utility.yul\":12507:13219   */\n      jump(tag_556)\n    tag_558:\n        /* \"#utility.yul\":12377:13225   */\n      swap5\n      pop\n      swap5\n      swap3\n      pop\n      pop\n      pop\n      jump\t// out\n        /* \"#utility.yul\":13231:14304   */\n    tag_415:\n        /* \"#utility.yul\":13285:13290   */\n      0x00\n        /* \"#utility.yul\":13476:13484   */\n      dup3\n        /* \"#utility.yul\":13466:13506   */\n      tag_564\n      jumpi\n        /* \"#utility.yul\":13497:13498   */\n      0x01\n        /* \"#utility.yul\":13488:13498   */\n      swap1\n      pop\n        /* \"#utility.yul\":13499:13504   */\n      jump(tag_563)\n        /* \"#utility.yul\":13466:13506   */\n    tag_564:\n        /* \"#utility.yul\":13525:13529   */\n      dup2\n        /* \"#utility.yul\":13515:13551   */\n      tag_565\n      jumpi\n        /* \"#utility.yul\":13542:13543   */\n      0x00\n        /* \"#utility.yul\":13533:13543   */\n      swap1\n      pop\n        /* \"#utility.yul\":13544:13549   */\n      jump(tag_563)\n        /* \"#utility.yul\":13515:13551   */\n    tag_565:\n        /* \"#utility.yul\":13611:13615   */\n      dup2\n        /* \"#utility.yul\":13659:13660   */\n      0x01\n        /* \"#utility.yul\":13654:13681   */\n      dup2\n      eq\n      tag_567\n      jumpi\n        /* \"#utility.yul\":13695:13696   */\n      0x02\n        /* \"#utility.yul\":13690:13881   */\n      dup2\n      eq\n      tag_568\n      jumpi\n        /* \"#utility.yul\":13604:13881   */\n      jump(tag_566)\n        /* \"#utility.yul\":13654:13681   */\n    tag_567:\n        /* \"#utility.yul\":13672:13673   */\n      0x01\n        /* \"#utility.yul\":13663:13673   */\n      swap2\n      pop\n        /* \"#utility.yul\":13674:13679   */\n      pop\n      jump(tag_563)\n        /* \"#utility.yul\":13690:13881   */\n    tag_568:\n        /* \"#utility.yul\":13735:13738   */\n      0xff\n        /* \"#utility.yul\":13725:13733   */\n      dup5\n        /* \"#utility.yul\":13722:13739   */\n      gt\n        /* \"#utility.yul\":13719:13762   */\n      iszero\n      tag_569\n      jumpi\n        /* \"#utility.yul\":13742:13760   */\n      tag_570\n      tag_408\n      jump\t// in\n    tag_570:\n        /* \"#utility.yul\":13719:13762   */\n    tag_569:\n        /* \"#utility.yul\":13791:13799   */\n      dup4\n        /* \"#utility.yul\":13788:13789   */\n      0x02\n        /* \"#utility.yul\":13784:13800   */\n      exp\n        /* \"#utility.yul\":13775:13800   */\n      swap2\n      pop\n        /* \"#utility.yul\":13826:13829   */\n      dup5\n        /* \"#utility.yul\":13819:13824   */\n      dup3\n        /* \"#utility.yul\":13816:13830   */\n      gt\n        /* \"#utility.yul\":13813:13853   */\n      iszero\n      tag_571\n      jumpi\n        /* \"#utility.yul\":13833:13851   */\n      tag_572\n      tag_408\n      jump\t// in\n    tag_572:\n        /* \"#utility.yul\":13813:13853   */\n    tag_571:\n        /* \"#utility.yul\":13866:13871   */\n      pop\n      jump(tag_563)\n        /* \"#utility.yul\":13604:13881   */\n    tag_566:\n      pop\n        /* \"#utility.yul\":13990:13992   */\n      0x20\n        /* \"#utility.yul\":13980:13988   */\n      dup4\n        /* \"#utility.yul\":13977:13993   */\n      lt\n        /* \"#utility.yul\":13971:13974   */\n      0x0133\n        /* \"#utility.yul\":13965:13969   */\n      dup4\n        /* \"#utility.yul\":13962:13975   */\n      lt\n        /* \"#utility.yul\":13958:13994   */\n      and\n        /* \"#utility.yul\":13940:13942   */\n      0x4e\n        /* \"#utility.yul\":13930:13938   */\n      dup5\n        /* \"#utility.yul\":13927:13943   */\n      lt\n        /* \"#utility.yul\":13922:13924   */\n      0x0b\n        /* \"#utility.yul\":13916:13920   */\n      dup5\n        /* \"#utility.yul\":13913:13925   */\n      lt\n        /* \"#utility.yul\":13909:13944   */\n      and\n        /* \"#utility.yul\":13893:14004   */\n      or\n        /* \"#utility.yul\":13890:14136   */\n      iszero\n      tag_573\n      jumpi\n        /* \"#utility.yul\":14046:14054   */\n      dup3\n        /* \"#utility.yul\":14040:14044   */\n      dup3\n        /* \"#utility.yul\":14036:14055   */\n      exp\n        /* \"#utility.yul\":14027:14055   */\n      swap1\n      pop\n        /* \"#utility.yul\":14081:14084   */\n      dup4\n        /* \"#utility.yul\":14074:14079   */\n      dup2\n        /* \"#utility.yul\":14071:14085   */\n      gt\n        /* \"#utility.yul\":14068:14108   */\n      iszero\n      tag_574\n      jumpi\n        /* \"#utility.yul\":14088:14106   */\n      tag_575\n      tag_408\n      jump\t// in\n    tag_575:\n        /* \"#utility.yul\":14068:14108   */\n    tag_574:\n        /* \"#utility.yul\":14121:14126   */\n      jump(tag_563)\n        /* \"#utility.yul\":13890:14136   */\n    tag_573:\n        /* \"#utility.yul\":14161:14203   */\n      tag_576\n        /* \"#utility.yul\":14199:14202   */\n      dup5\n        /* \"#utility.yul\":14189:14197   */\n      dup5\n        /* \"#utility.yul\":14183:14187   */\n      dup5\n        /* \"#utility.yul\":14180:14181   */\n      0x01\n        /* \"#utility.yul\":14161:14203   */\n      tag_414\n      jump\t// in\n    tag_576:\n        /* \"#utility.yul\":14146:14203   */\n      swap3\n      pop\n      swap1\n      pop\n        /* \"#utility.yul\":14235:14239   */\n      dup2\n        /* \"#utility.yul\":14230:14233   */\n      dup5\n        /* \"#utility.yul\":14226:14240   */\n      div\n        /* \"#utility.yul\":14219:14224   */\n      dup2\n        /* \"#utility.yul\":14216:14241   */\n      gt\n        /* \"#utility.yul\":14213:14264   */\n      iszero\n      tag_577\n      jumpi\n        /* \"#utility.yul\":14244:14262   */\n      tag_578\n      tag_408\n      jump\t// in\n    tag_578:\n        /* \"#utility.yul\":14213:14264   */\n    tag_577:\n        /* \"#utility.yul\":14293:14297   */\n      dup2\n        /* \"#utility.yul\":14286:14291   */\n      dup2\n        /* \"#utility.yul\":14282:14298   */\n      mul\n        /* \"#utility.yul\":14273:14298   */\n      swap1\n      pop\n        /* \"#utility.yul\":13231:14304   */\n    tag_563:\n      swap4\n      swap3\n      pop\n      pop\n      pop\n      jump\t// out\n        /* \"#utility.yul\":14310:14591   */\n    tag_248:\n        /* \"#utility.yul\":14368:14373   */\n      0x00\n        /* \"#utility.yul\":14392:14415   */\n      tag_580\n        /* \"#utility.yul\":14410:14414   */\n      dup3\n        /* \"#utility.yul\":14392:14415   */\n      tag_380\n      jump\t// in\n    tag_580:\n        /* \"#utility.yul\":14384:14415   */\n      swap2\n      pop\n        /* \"#utility.yul\":14436:14461   */\n      tag_581\n        /* \"#utility.yul\":14452:14460   */\n      dup4\n        /* \"#utility.yul\":14436:14461   */\n      tag_398\n      jump\t// in\n    tag_581:\n        /* \"#utility.yul\":14424:14461   */\n      swap3\n      pop\n        /* \"#utility.yul\":14480:14584   */\n      tag_582\n        /* \"#utility.yul\":14517:14583   */\n      0xffffffffffffffffffffffffffffffffffffffffffffffffffffffffffffffff\n        /* \"#utility.yul\":14507:14515   */\n      dup5\n        /* \"#utility.yul\":14501:14505   */\n      dup5\n        /* \"#utility.yul\":14480:14584   */\n      tag_415\n      jump\t// in\n    tag_582:\n        /* \"#utility.yul\":14471:14584   */\n      swap1\n      pop\n        /* \"#utility.yul\":14310:14591   */\n      swap3\n      swap2\n      pop\n      pop\n      jump\t// out\n        /* \"#utility.yul\":14597:14791   */\n    tag_265:\n        /* \"#utility.yul\":14637:14641   */\n      0x00\n        /* \"#utility.yul\":14657:14677   */\n      tag_584\n        /* \"#utility.yul\":14675:14676   */\n      dup3\n        /* \"#utility.yul\":14657:14677   */\n      tag_380\n      jump\t// in\n    tag_584:\n        /* \"#utility.yul\":14652:14677   */\n      swap2\n      pop\n        /* \"#utility.yul\":14691:14711   */\n      tag_585\n        /* \"#utility.yul\":14709:14710   */\n      dup4\n        /* \"#utility.yul\":14691:14711   */\n      tag_380\n      jump\t// in\n    tag_585:\n        /* \"#utility.yul\":14686:14711   */\n      swap3\n      pop\n        /* \"#utility.yul\":14735:14736   */\n      dup3\n        /* \"#utility.yul\":14732:14733   */\n      dup3\n        /* \"#utility.yul\":14728:14737   */\n      sub\n        /* \"#utility.yul\":14720:14737   */\n      swap1\n      pop\n        /* \"#utility.yul\":14759:14760   */\n      dup2\n        /* \"#utility.yul\":14753:14757   */\n      dup2\n        /* \"#utility.yul\":14750:14761   */\n      gt\n        /* \"#utility.yul\":14747:14784   */\n      iszero\n      tag_586\n      jumpi\n        /* \"#utility.yul\":14764:14782   */\n      tag_587\n      tag_408\n      jump\t// in\n    tag_587:\n        /* \"#utility.yul\":14747:14784   */\n    tag_586:\n        /* \"#utility.yul\":14597:14791   */\n      swap3\n      swap2\n      pop\n      pop\n      jump\t// out\n        /* \"#utility.yul\":14797:15129   */\n    tag_304:\n        /* \"#utility.yul\":14918:14922   */\n      0x00\n        /* \"#utility.yul\":14956:14958   */\n      0x40\n        /* \"#utility.yul\":14945:14954   */\n      dup3\n        /* \"#utility.yul\":14941:14959   */\n      add\n        /* \"#utility.yul\":14933:14959   */\n      swap1\n      pop\n        /* \"#utility.yul\":14969:15040   */\n      tag_589\n        /* \"#utility.yul\":15037:15038   */\n      0x00\n        /* \"#utility.yul\":15026:15035   */\n      dup4\n        /* \"#utility.yul\":15022:15039   */\n      add\n        /* \"#utility.yul\":15013:15019   */\n      dup6\n        /* \"#utility.yul\":14969:15040   */\n      tag_381\n      jump\t// in\n    tag_589:\n        /* \"#utility.yul\":15050:15122   */\n      tag_590\n        /* \"#utility.yul\":15118:15120   */\n      0x20\n        /* \"#utility.yul\":15107:15116   */\n      dup4\n        /* \"#utility.yul\":15103:15121   */\n      add\n        /* \"#utility.yul\":15094:15100   */\n      dup5\n        /* \"#utility.yul\":15050:15122   */\n      tag_381\n      jump\t// in\n    tag_590:\n        /* \"#utility.yul\":14797:15129   */\n      swap4\n      swap3\n      pop\n      pop\n      pop\n      jump\t// out\n        /* \"#utility.yul\":15135:15315   */\n    tag_313:\n        /* \"#utility.yul\":15183:15260   */\n      0x4e487b7100000000000000000000000000000000000000000000000000000000\n        /* \"#utility.yul\":15180:15181   */\n      0x00\n        /* \"#utility.yul\":15173:15261   */\n      mstore\n        /* \"#utility.yul\":15280:15284   */\n      0x12\n        /* \"#utility.yul\":15277:15278   */\n      0x04\n        /* \"#utility.yul\":15270:15285   */\n      mstore\n        /* \"#utility.yul\":15304:15308   */\n      0x24\n        /* \"#utility.yul\":15301:15302   */\n      0x00\n        /* \"#utility.yul\":15294:15309   */\n      revert\n        /* \"#utility.yul\":15321:15653   */\n    tag_335:\n        /* \"#utility.yul\":15442:15446   */\n      0x00\n        /* \"#utility.yul\":15480:15482   */\n      0x40\n        /* \"#utility.yul\":15469:15478   */\n      dup3\n        /* \"#utility.yul\":15465:15483   */\n      add\n        /* \"#utility.yul\":15457:15483   */\n      swap1\n      pop\n        /* \"#utility.yul\":15493:15564   */\n      tag_593\n        /* \"#utility.yul\":15561:15562   */\n      0x00\n        /* \"#utility.yul\":15550:15559   */\n      dup4\n        /* \"#utility.yul\":15546:15563   */\n      add\n        /* \"#utility.yul\":15537:15543   */\n      dup6\n        /* \"#utility.yul\":15493:15564   */\n      tag_400\n      jump\t// in\n    tag_593:\n        /* \"#utility.yul\":15574:15646   */\n      tag_594\n        /* \"#utility.yul\":15642:15644   */\n      0x20\n        /* \"#utility.yul\":15631:15640   */\n      dup4\n        /* \"#utility.yul\":15627:15645   */\n      add\n        /* \"#utility.yul\":15618:15624   */\n      dup5\n        /* \"#utility.yul\":15574:15646   */\n      tag_381\n      jump\t// in\n    tag_594:\n        /* \"#utility.yul\":15321:15653   */\n      swap4\n      swap3\n      pop\n      pop\n      pop\n      jump\t// out\n        /* \"#utility.yul\":15659:15839   */\n    tag_345:\n        /* \"#utility.yul\":15707:15784   */\n      0x4e487b7100000000000000000000000000000000000000000000000000000000\n        /* \"#utility.yul\":15704:15705   */\n      0x00\n        /* \"#utility.yul\":15697:15785   */\n      mstore\n        /* \"#utility.yul\":15804:15808   */\n      0x21\n        /* \"#utility.yul\":15801:15802   */\n      0x04\n        /* \"#utility.yul\":15794:15809   */\n      mstore\n        /* \"#utility.yul\":15828:15832   */\n      0x24\n        /* \"#utility.yul\":15825:15826   */\n      0x00\n        /* \"#utility.yul\":15818:15833   */\n      revert\n        /* \"#utility.yul\":15845:16015   */\n    tag_347:\n        /* \"#utility.yul\":15875:15876   */\n      0x00\n        /* \"#utility.yul\":15892:15910   */\n      tag_597\n        /* \"#utility.yul\":15908:15909   */\n      dup3\n        /* \"#utility.yul\":15892:15910   */\n      tag_398\n      jump\t// in\n    tag_597:\n        /* \"#utility.yul\":15887:15910   */\n      swap2\n      pop\n        /* \"#utility.yul\":15924:15942   */\n      tag_598\n        /* \"#utility.yul\":15940:15941   */\n      dup4\n        /* \"#utility.yul\":15924:15942   */\n      tag_398\n      jump\t// in\n    tag_598:\n        /* \"#utility.yul\":15919:15942   */\n      swap3\n      pop\n        /* \"#utility.yul\":15961:15962   */\n      dup3\n        /* \"#utility.yul\":15951:15986   */\n      tag_599\n      jumpi\n        /* \"#utility.yul\":15966:15984   */\n      tag_600\n      tag_313\n      jump\t// in\n    tag_600:\n        /* \"#utility.yul\":15951:15986   */\n    tag_599:\n        /* \"#utility.yul\":16007:16008   */\n      dup3\n        /* \"#utility.yul\":16004:16005   */\n      dup3\n        /* \"#utility.yul\":16000:16009   */\n      mod\n        /* \"#utility.yul\":15995:16009   */\n      swap1\n      pop\n        /* \"#utility.yul\":15845:16015   */\n      swap3\n      swap2\n      pop\n      pop\n      jump\t// out\n        /* \"#utility.yul\":16021:16137   */\n    tag_416:\n        /* \"#utility.yul\":16091:16112   */\n      tag_602\n        /* \"#utility.yul\":16106:16111   */\n      dup2\n        /* \"#utility.yul\":16091:16112   */\n      tag_396\n      jump\t// in\n    tag_602:\n        /* \"#utility.yul\":16084:16089   */\n      dup2\n        /* \"#utility.yul\":16081:16113   */\n      eq\n        /* \"#utility.yul\":16071:16131   */\n      tag_603\n      jumpi\n        /* \"#utility.yul\":16127:16128   */\n      0x00\n        /* \"#utility.yul\":16124:16125   */\n      dup1\n        /* \"#utility.yul\":16117:16129   */\n      revert\n        /* \"#utility.yul\":16071:16131   */\n    tag_603:\n        /* \"#utility.yul\":16021:16137   */\n      pop\n      jump\t// out\n        /* \"#utility.yul\":16143:16280   */\n    tag_417:\n        /* \"#utility.yul\":16197:16202   */\n      0x00\n        /* \"#utility.yul\":16228:16234   */\n      dup2\n        /* \"#utility.yul\":16222:16235   */\n      mload\n        /* \"#utility.yul\":16213:16235   */\n      swap1\n      pop\n        /* \"#utility.yul\":16244:16274   */\n      tag_605\n        /* \"#utility.yul\":16268:16273   */\n      dup2\n        /* \"#utility.yul\":16244:16274   */\n      tag_416\n      jump\t// in\n    tag_605:\n        /* \"#utility.yul\":16143:16280   */\n      swap3\n      swap2\n      pop\n      pop\n      jump\t// out\n        /* \"#utility.yul\":16286:16631   */\n    tag_353:\n        /* \"#utility.yul\":16353:16359   */\n      0x00\n        /* \"#utility.yul\":16402:16404   */\n      0x20\n        /* \"#utility.yul\":16390:16399   */\n      dup3\n        /* \"#utility.yul\":16381:16388   */\n      dup5\n        /* \"#utility.yul\":16377:16400   */\n      sub\n        /* \"#utility.yul\":16373:16405   */\n      slt\n        /* \"#utility.yul\":16370:16489   */\n      iszero\n      tag_607\n      jumpi\n        /* \"#utility.yul\":16408:16487   */\n      tag_608\n      tag_388\n      jump\t// in\n    tag_608:\n        /* \"#utility.yul\":16370:16489   */\n    tag_607:\n        /* \"#utility.yul\":16528:16529   */\n      0x00\n        /* \"#utility.yul\":16553:16614   */\n      tag_609\n        /* \"#utility.yul\":16606:16613   */\n      dup5\n        /* \"#utility.yul\":16597:16603   */\n      dup3\n        /* \"#utility.yul\":16586:16595   */\n      dup6\n        /* \"#utility.yul\":16582:16604   */\n      add\n        /* \"#utility.yul\":16553:16614   */\n      tag_417\n      jump\t// in\n    tag_609:\n        /* \"#utility.yul\":16543:16614   */\n      swap2\n      pop\n        /* \"#utility.yul\":16499:16624   */\n      pop\n        /* \"#utility.yul\":16286:16631   */\n      swap3\n      swap2\n      pop\n      pop\n      jump\t// out\n        /* \"#utility.yul\":16637:16735   */\n    tag_418:\n        /* \"#utility.yul\":16688:16694   */\n      0x00\n        /* \"#utility.yul\":16722:16727   */\n      dup2\n        /* \"#utility.yul\":16716:16728   */\n      mload\n        /* \"#utility.yul\":16706:16728   */\n      swap1\n      pop\n        /* \"#utility.yul\":16637:16735   */\n      swap2\n      swap1\n      pop\n      jump\t// out\n        /* \"#utility.yul\":16741:16888   */\n    tag_419:\n        /* \"#utility.yul\":16842:16853   */\n      0x00\n        /* \"#utility.yul\":16879:16882   */\n      dup2\n        /* \"#utility.yul\":16864:16882   */\n      swap1\n      pop\n        /* \"#utility.yul\":16741:16888   */\n      swap3\n      swap2\n      pop\n      pop\n      jump\t// out\n        /* \"#utility.yul\":16894:17280   */\n    tag_420:\n        /* \"#utility.yul\":16998:17001   */\n      0x00\n        /* \"#utility.yul\":17026:17064   */\n      tag_613\n        /* \"#utility.yul\":17058:17063   */\n      dup3\n        /* \"#utility.yul\":17026:17064   */\n      tag_418\n      jump\t// in\n    tag_613:\n        /* \"#utility.yul\":17080:17168   */\n      tag_614\n        /* \"#utility.yul\":17161:17167   */\n      dup2\n        /* \"#utility.yul\":17156:17159   */\n      dup6\n        /* \"#utility.yul\":17080:17168   */\n      tag_419\n      jump\t// in\n    tag_614:\n        /* \"#utility.yul\":17073:17168   */\n      swap4\n      pop\n        /* \"#utility.yul\":17177:17242   */\n      tag_615\n        /* \"#utility.yul\":17235:17241   */\n      dup2\n        /* \"#utility.yul\":17230:17233   */\n      dup6\n        /* \"#utility.yul\":17223:17227   */\n      0x20\n        /* \"#utility.yul\":17216:17221   */\n      dup7\n        /* \"#utility.yul\":17212:17228   */\n      add\n        /* \"#utility.yul\":17177:17242   */\n      tag_384\n      jump\t// in\n    tag_615:\n        /* \"#utility.yul\":17267:17273   */\n      dup1\n        /* \"#utility.yul\":17262:17265   */\n      dup5\n        /* \"#utility.yul\":17258:17274   */\n      add\n        /* \"#utility.yul\":17251:17274   */\n      swap2\n      pop\n        /* \"#utility.yul\":17002:17280   */\n      pop\n        /* \"#utility.yul\":16894:17280   */\n      swap3\n      swap2\n      pop\n      pop\n      jump\t// out\n        /* \"#utility.yul\":17286:17557   */\n    tag_363:\n        /* \"#utility.yul\":17416:17419   */\n      0x00\n        /* \"#utility.yul\":17438:17531   */\n      tag_617\n        /* \"#utility.yul\":17527:17530   */\n      dup3\n        /* \"#utility.yul\":17518:17524   */\n      dup5\n        /* \"#utility.yul\":17438:17531   */\n      tag_420\n      jump\t// in\n    tag_617:\n        /* \"#utility.yul\":17431:17531   */\n      swap2\n      pop\n        /* \"#utility.yul\":17548:17551   */\n      dup2\n        /* \"#utility.yul\":17541:17551   */\n      swap1\n      pop\n        /* \"#utility.yul\":17286:17557   */\n      swap3\n      swap2\n      pop\n      pop\n      jump\t// out\n\n    auxdata: 0xa264697066735822122003634230a2ae1b2e8a1dc9432523ae5c48734f5090ac093502859b70f72cf95564736f6c63430008190033\n}\n",
				"bytecode": {
					"linkReferences": {},
					"object": "60c06040525f600560146101000a81548160ff021916908315150217905550348015610029575f80fd5b50604051612b16380380612b16833981810160405281019061004b91906102ee565b806040518060400160405280600e81526020017f522d7368617265642061555344430000000000000000000000000000000000008152506040518060400160405280600781526020017f727361555344430000000000000000000000000000000000000000000000000081525081600390816100c79190610553565b5080600490816100d79190610553565b5050505f806100eb8361018760201b60201c565b91509150816100fb5760126100fd565b805b60ff1660a08160ff16815250508273ffffffffffffffffffffffffffffffffffffffff1660808173ffffffffffffffffffffffffffffffffffffffff16815250505050508060055f6101000a81548173ffffffffffffffffffffffffffffffffffffffff021916908373ffffffffffffffffffffffffffffffffffffffff160217905550506106df565b5f805f808473ffffffffffffffffffffffffffffffffffffffff1660405160240160405160208183030381529060405263313ce56760e01b6020820180517bffffffffffffffffffffffffffffffffffffffffffffffffffffffff83818316178352505050506040516101fa9190610674565b5f60405180830381855afa9150503d805f8114610232576040519150601f19603f3d011682016040523d82523d5f602084013e610237565b606091505b509150915081801561024b57506020815110155b15610282575f8180602001905181019061026591906106b4565b905060ff80168111610280576001819450945050505061028b565b505b5f809350935050505b915091565b5f80fd5b5f73ffffffffffffffffffffffffffffffffffffffff82169050919050565b5f6102bd82610294565b9050919050565b6102cd816102b3565b81146102d7575f80fd5b50565b5f815190506102e8816102c4565b92915050565b5f6020828403121561030357610302610290565b5b5f610310848285016102da565b91505092915050565b5f81519050919050565b7f4e487b71000000000000000000000000000000000000000000000000000000005f52604160045260245ffd5b7f4e487b71000000000000000000000000000000000000000000000000000000005f52602260045260245ffd5b5f600282049050600182168061039457607f821691505b6020821081036103a7576103a6610350565b5b50919050565b5f819050815f5260205f209050919050565b5f6020601f8301049050919050565b5f82821b905092915050565b5f600883026104097fffffffffffffffffffffffffffffffffffffffffffffffffffffffffffffffff826103ce565b61041386836103ce565b95508019841693508086168417925050509392505050565b5f819050919050565b5f819050919050565b5f61045761045261044d8461042b565b610434565b61042b565b9050919050565b5f819050919050565b6104708361043d565b61048461047c8261045e565b8484546103da565b825550505050565b5f90565b61049861048c565b6104a3818484610467565b505050565b5b818110156104c6576104bb5f82610490565b6001810190506104a9565b5050565b601f82111561050b576104dc816103ad565b6104e5846103bf565b810160208510156104f4578190505b610508610500856103bf565b8301826104a8565b50505b505050565b5f82821c905092915050565b5f61052b5f1984600802610510565b1980831691505092915050565b5f610543838361051c565b9150826002028217905092915050565b61055c82610319565b67ffffffffffffffff81111561057557610574610323565b5b61057f825461037d565b61058a8282856104ca565b5f60209050601f8311600181146105bb575f84156105a9578287015190505b6105b38582610538565b86555061061a565b601f1984166105c9866103ad565b5f5b828110156105f0578489015182556001820191506020850194506020810190506105cb565b8683101561060d5784890151610609601f89168261051c565b8355505b6001600288020188555050505b505050505050565b5f81519050919050565b5f81905092915050565b8281835e5f83830152505050565b5f61064e82610622565b610658818561062c565b9350610668818560208601610636565b80840191505092915050565b5f61067f8284610644565b915081905092915050565b6106938161042b565b811461069d575f80fd5b50565b5f815190506106ae8161068a565b92915050565b5f602082840312156106c9576106c8610290565b5b5f6106d6848285016106a0565b91505092915050565b60805160a05161240861070e5f395f6107a901525f81816105f5015281816107da015261119701526124085ff3fe608060405234801561000f575f80fd5b506004361061018c575f3560e01c8063866c99e2116100dc578063ba08765211610095578063ce96cb771161006f578063ce96cb7714610532578063d905777e14610562578063dd62ed3e14610592578063ef8b30f7146105c25761018c565b8063ba087652146104a2578063c63d75b6146104d2578063c6e6f592146105025761018c565b8063866c99e2146103a657806394bf804d146103c457806395d89b41146103f4578063a9059cbb14610412578063b3d7f6b914610442578063b460af94146104725761018c565b806323b872dd11610149578063402d267d11610123578063402d267d146102e65780634cdad506146103165780636e553f651461034657806370a08231146103765761018c565b806323b872dd1461027a578063313ce567146102aa57806338d52e0f146102c85761018c565b806301e1d1141461019057806306fdde03146101ae57806307a2d13a146101cc578063095ea7b3146101fc5780630a28a4771461022c57806318160ddd1461025c575b5f80fd5b6101986105f2565b6040516101a59190611a86565b60405180910390f35b6101b6610690565b6040516101c39190611b0f565b60405180910390f35b6101e660048036038101906101e19190611b5d565b610720565b6040516101f39190611a86565b60405180910390f35b61021660048036038101906102119190611be2565b610732565b6040516102239190611c3a565b60405180910390f35b61024660048036038101906102419190611b5d565b610754565b6040516102539190611a86565b60405180910390f35b610264610767565b6040516102719190611a86565b60405180910390f35b610294600480360381019061028f9190611c53565b610770565b6040516102a19190611c3a565b60405180910390f35b6102b261079e565b6040516102bf9190611cbe565b60405180910390f35b6102d06107d7565b6040516102dd9190611ce6565b60405180910390f35b61030060048036038101906102fb9190611cff565b6107fe565b60405161030d9190611a86565b60405180910390f35b610330600480360381019061032b9190611b5d565b610827565b60405161033d9190611a86565b60405180910390f35b610360600480360381019061035b9190611d2a565b610839565b60405161036d9190611a86565b60405180910390f35b610390600480360381019061038b9190611cff565b6109b6565b60405161039d9190611a86565b60405180910390f35b6103ae6109fb565b6040516103bb9190611dc3565b60405180910390f35b6103de60048036038101906103d99190611d2a565b610a20565b6040516103eb9190611a86565b60405180910390f35b6103fc610a53565b6040516104099190611b0f565b60405180910390f35b61042c60048036038101906104279190611be2565b610ae3565b6040516104399190611c3a565b60405180910390f35b61045c60048036038101906104579190611b5d565b610b05565b6040516104699190611a86565b60405180910390f35b61048c60048036038101906104879190611ddc565b610b18565b6040516104999190611a86565b60405180910390f35b6104bc60048036038101906104b79190611ddc565b610c1f565b6040516104c99190611a86565b60405180910390f35b6104ec60048036038101906104e79190611cff565b610ca1565b6040516104f99190611a86565b60405180910390f35b61051c60048036038101906105179190611b5d565b610cca565b6040516105299190611a86565b60405180910390f35b61054c60048036038101906105479190611cff565b610cdc565b6040516105599190611a86565b60405180910390f35b61057c60048036038101906105779190611cff565b610cf6565b6040516105899190611a86565b60405180910390f35b6105ac60048036038101906105a79190611e2c565b610d07565b6040516105b99190611a86565b60405180910390f35b6105dc60048036038101906105d79190611b5d565b610d89565b6040516105e99190611a86565b60405180910390f35b5f7f000000000000000000000000000000000000000000000000000000000000000073ffffffffffffffffffffffffffffffffffffffff166370a08231306040518263ffffffff1660e01b815260040161064c9190611ce6565b602060405180830381865afa158015610667573d5f803e3d5ffd5b505050506040513d601f19601f8201168201806040525081019061068b9190611e7e565b905090565b60606003805461069f90611ed6565b80601f01602080910402602001604051908101604052809291908181526020018280546106cb90611ed6565b80156107165780601f106106ed57610100808354040283529160200191610716565b820191905f5260205f20905b8154815290600101906020018083116106f957829003601f168201915b5050505050905090565b5f61072b825f610d9b565b9050919050565b5f8061073c610df3565b9050610749818585610dfa565b600191505092915050565b5f610760826001610e0c565b9050919050565b5f600254905090565b5f8061077a610df3565b9050610787858285610ec5565b610792858585610f57565b60019150509392505050565b5f6107a7611047565b7f00000000000000000000000000000000000000000000000000000000000000006107d29190611f33565b905090565b5f7f0000000000000000000000000000000000000000000000000000000000000000905090565b5f7fffffffffffffffffffffffffffffffffffffffffffffffffffffffffffffffff9050919050565b5f610832825f610d9b565b9050919050565b5f3373ffffffffffffffffffffffffffffffffffffffff1660055f9054906101000a900473ffffffffffffffffffffffffffffffffffffffff1673ffffffffffffffffffffffffffffffffffffffff16146108c9576040517f08c379a00000000000000000000000000000000000000000000000000000000081526004016108c090611fb1565b60405180910390fd5b6001600560146101000a81548160ff0219169083151502179055505f8311610926576040517f08c379a000000000000000000000000000000000000000000000000000000000815260040161091d90612019565b60405180910390fd5b5f610930836107fe565b90508084111561097b578284826040517f79012fb200000000000000000000000000000000000000000000000000000000815260040161097293929190612037565b60405180910390fd5b5f61098585610d89565b9050610991848261104b565b5f600560146101000a81548160ff021916908315150217905550809250505092915050565b5f805f8373ffffffffffffffffffffffffffffffffffffffff1673ffffffffffffffffffffffffffffffffffffffff1681526020019081526020015f20549050919050565b60055f9054906101000a900473ffffffffffffffffffffffffffffffffffffffff1681565b5f6040517fa9a2322b00000000000000000000000000000000000000000000000000000000815260040160405180910390fd5b606060048054610a6290611ed6565b80601f0160208091040260200160405190810160405280929190818152602001828054610a8e90611ed6565b8015610ad95780601f10610ab057610100808354040283529160200191610ad9565b820191905f5260205f20905b815481529060010190602001808311610abc57829003601f168201915b5050505050905090565b5f80610aed610df3565b9050610afa818585610f57565b600191505092915050565b5f610b11826001610d9b565b9050919050565b5f3373ffffffffffffffffffffffffffffffffffffffff1660055f9054906101000a900473ffffffffffffffffffffffffffffffffffffffff1673ffffffffffffffffffffffffffffffffffffffff1614610ba8576040517f08c379a0000000000000000000000000000000000000000000000000000000008152600401610b9f90611fb1565b60405180910390fd5b5f610bb283610cdc565b905080851115610bfd578285826040517ffe9cceec000000000000000000000000000000000000000000000000000000008152600401610bf493929190612037565b60405180910390fd5b5f610c0786610754565b9050610c1384826110ca565b81925050509392505050565b5f80610c2a83610cf6565b905080851115610c75578285826040517fb94abeec000000000000000000000000000000000000000000000000000000008152600401610c6c93929190612037565b60405180910390fd5b5f610c7f86610827565b9050610c95610c8c610df3565b8686848a611149565b80925050509392505050565b5f7fffffffffffffffffffffffffffffffffffffffffffffffffffffffffffffffff9050919050565b5f610cd5825f610e0c565b9050919050565b5f610cef610ce9836109b6565b5f610d9b565b9050919050565b5f610d00826109b6565b9050919050565b5f60015f8473ffffffffffffffffffffffffffffffffffffffff1673ffffffffffffffffffffffffffffffffffffffff1681526020019081526020015f205f8373ffffffffffffffffffffffffffffffffffffffff1673ffffffffffffffffffffffffffffffffffffffff1681526020019081526020015f2054905092915050565b5f610d94825f610e0c565b9050919050565b5f610deb6001610da96105f2565b610db3919061206c565b610dbb611047565b600a610dc791906121ce565b610dcf610767565b610dd9919061206c565b8486611242909392919063ffffffff16565b905092915050565b5f33905090565b610e078383836001611297565b505050565b5f600560149054906101000a900460ff1615610e7857610e7183610e2e611047565b600a610e3a91906121ce565b610e42610767565b610e4c919061206c565b600186610e576105f2565b610e619190612218565b610e6b919061206c565b85611242565b9050610ebf565b610ebc83610e84611047565b600a610e9091906121ce565b610e98610767565b610ea2919061206c565b6001610eac6105f2565b610eb6919061206c565b85611242565b90505b92915050565b5f610ed08484610d07565b90507fffffffffffffffffffffffffffffffffffffffffffffffffffffffffffffffff8114610f515781811015610f42578281836040517ffb8f41b2000000000000000000000000000000000000000000000000000000008152600401610f3993929190612037565b60405180910390fd5b610f5084848484035f611297565b5b50505050565b5f73ffffffffffffffffffffffffffffffffffffffff168373ffffffffffffffffffffffffffffffffffffffff1603610fc7575f6040517f96c6fd1e000000000000000000000000000000000000000000000000000000008152600401610fbe9190611ce6565b60405180910390fd5b5f73ffffffffffffffffffffffffffffffffffffffff168273ffffffffffffffffffffffffffffffffffffffff1603611037575f6040517fec442f0500000000000000000000000000000000000000000000000000000000815260040161102e9190611ce6565b60405180910390fd5b611042838383611466565b505050565b5f90565b5f73ffffffffffffffffffffffffffffffffffffffff168273ffffffffffffffffffffffffffffffffffffffff16036110bb575f6040517fec442f050000000000000000000000000000000000000000000000000000000081526004016110b29190611ce6565b60405180910390fd5b6110c65f8383611466565b5050565b5f73ffffffffffffffffffffffffffffffffffffffff168273ffffffffffffffffffffffffffffffffffffffff160361113a575f6040517f96c6fd1e0000000000000000000000000000000000000000000000000000000081526004016111319190611ce6565b60405180910390fd5b611145825f83611466565b5050565b8273ffffffffffffffffffffffffffffffffffffffff168573ffffffffffffffffffffffffffffffffffffffff161461118857611187838683610ec5565b5b61119283826110ca565b6111bd7f0000000000000000000000000000000000000000000000000000000000000000858461167f565b8273ffffffffffffffffffffffffffffffffffffffff168473ffffffffffffffffffffffffffffffffffffffff168673ffffffffffffffffffffffffffffffffffffffff167ffbde797d201c681b91056529119e0b02407c7bb96a4a2c75c01fc9667232c8db858560405161123392919061224b565b60405180910390a45050505050565b5f8061124f8686866116fe565b905061125a836117fd565b801561127657505f848061127157611270612272565b5b868809115b1561128b57600181611288919061206c565b90505b80915050949350505050565b5f73ffffffffffffffffffffffffffffffffffffffff168473ffffffffffffffffffffffffffffffffffffffff1603611307575f6040517fe602df050000000000000000000000000000000000000000000000000000000081526004016112fe9190611ce6565b60405180910390fd5b5f73ffffffffffffffffffffffffffffffffffffffff168373ffffffffffffffffffffffffffffffffffffffff1603611377575f6040517f94280d6200000000000000000000000000000000000000000000000000000000815260040161136e9190611ce6565b60405180910390fd5b8160015f8673ffffffffffffffffffffffffffffffffffffffff1673ffffffffffffffffffffffffffffffffffffffff1681526020019081526020015f205f8573ffffffffffffffffffffffffffffffffffffffff1673ffffffffffffffffffffffffffffffffffffffff1681526020019081526020015f20819055508015611460578273ffffffffffffffffffffffffffffffffffffffff168473ffffffffffffffffffffffffffffffffffffffff167f8c5be1e5ebec7d5bd14f71427d1e84f3dd0314c0f7b2291e5b200ac8c7c3b925846040516114579190611a86565b60405180910390a35b50505050565b5f73ffffffffffffffffffffffffffffffffffffffff168373ffffffffffffffffffffffffffffffffffffffff16036114b6578060025f8282546114aa919061206c565b92505081905550611584565b5f805f8573ffffffffffffffffffffffffffffffffffffffff1673ffffffffffffffffffffffffffffffffffffffff1681526020019081526020015f205490508181101561153f578381836040517fe450d38c00000000000000000000000000000000000000000000000000000000815260040161153693929190612037565b60405180910390fd5b8181035f808673ffffffffffffffffffffffffffffffffffffffff1673ffffffffffffffffffffffffffffffffffffffff1681526020019081526020015f2081905550505b5f73ffffffffffffffffffffffffffffffffffffffff168273ffffffffffffffffffffffffffffffffffffffff16036115cb578060025f8282540392505081905550611615565b805f808473ffffffffffffffffffffffffffffffffffffffff1673ffffffffffffffffffffffffffffffffffffffff1681526020019081526020015f205f82825401925050819055505b8173ffffffffffffffffffffffffffffffffffffffff168373ffffffffffffffffffffffffffffffffffffffff167fddf252ad1be2c89b69c2b068fc378daa952ba7f163c4a11628f55a4df523b3ef836040516116729190611a86565b60405180910390a3505050565b6116f9838473ffffffffffffffffffffffffffffffffffffffff1663a9059cbb85856040516024016116b292919061229f565b604051602081830303815290604052915060e01b6020820180517bffffffffffffffffffffffffffffffffffffffffffffffffffffffff838183161783525050505061182a565b505050565b5f8083850290505f8019858709828110838203039150505f81036117365783828161172c5761172b612272565b5b04925050506117f6565b80841161176f576040517f227bc15300000000000000000000000000000000000000000000000000000000815260040160405180910390fd5b5f8486880990508281118203915080830392505f855f038616905080860495508084049350600181825f0304019050808302841793505f600287600302189050808702600203810290508087026002038102905080870260020381029050808702600203810290508087026002038102905080870260020381029050808502955050505050505b9392505050565b5f60016002836003811115611815576118146122c6565b5b61181f91906122f3565b60ff16149050919050565b5f611854828473ffffffffffffffffffffffffffffffffffffffff166118bf90919063ffffffff16565b90505f815114158015611878575080806020019051810190611876919061234d565b155b156118ba57826040517f5274afe70000000000000000000000000000000000000000000000000000000081526004016118b19190611ce6565b60405180910390fd5b505050565b60606118cc83835f6118d4565b905092915050565b60608147101561191b57306040517fcd7860590000000000000000000000000000000000000000000000000000000081526004016119129190611ce6565b60405180910390fd5b5f808573ffffffffffffffffffffffffffffffffffffffff16848660405161194391906123bc565b5f6040518083038185875af1925050503d805f811461197d576040519150601f19603f3d011682016040523d82523d5f602084013e611982565b606091505b509150915061199286838361199d565b925050509392505050565b6060826119b2576119ad82611a2a565b611a22565b5f82511480156119d857505f8473ffffffffffffffffffffffffffffffffffffffff163b145b15611a1a57836040517f9996b315000000000000000000000000000000000000000000000000000000008152600401611a119190611ce6565b60405180910390fd5b819050611a23565b5b9392505050565b5f81511115611a3c5780518082602001fd5b6040517f1425ea4200000000000000000000000000000000000000000000000000000000815260040160405180910390fd5b5f819050919050565b611a8081611a6e565b82525050565b5f602082019050611a995f830184611a77565b92915050565b5f81519050919050565b5f82825260208201905092915050565b8281835e5f83830152505050565b5f601f19601f8301169050919050565b5f611ae182611a9f565b611aeb8185611aa9565b9350611afb818560208601611ab9565b611b0481611ac7565b840191505092915050565b5f6020820190508181035f830152611b278184611ad7565b905092915050565b5f80fd5b611b3c81611a6e565b8114611b46575f80fd5b50565b5f81359050611b5781611b33565b92915050565b5f60208284031215611b7257611b71611b2f565b5b5f611b7f84828501611b49565b91505092915050565b5f73ffffffffffffffffffffffffffffffffffffffff82169050919050565b5f611bb182611b88565b9050919050565b611bc181611ba7565b8114611bcb575f80fd5b50565b5f81359050611bdc81611bb8565b92915050565b5f8060408385031215611bf857611bf7611b2f565b5b5f611c0585828601611bce565b9250506020611c1685828601611b49565b9150509250929050565b5f8115159050919050565b611c3481611c20565b82525050565b5f602082019050611c4d5f830184611c2b565b92915050565b5f805f60608486031215611c6a57611c69611b2f565b5b5f611c7786828701611bce565b9350506020611c8886828701611bce565b9250506040611c9986828701611b49565b9150509250925092565b5f60ff82169050919050565b611cb881611ca3565b82525050565b5f602082019050611cd15f830184611caf565b92915050565b611ce081611ba7565b82525050565b5f602082019050611cf95f830184611cd7565b92915050565b5f60208284031215611d1457611d13611b2f565b5b5f611d2184828501611bce565b91505092915050565b5f8060408385031215611d4057611d3f611b2f565b5b5f611d4d85828601611b49565b9250506020611d5e85828601611bce565b9150509250929050565b5f819050919050565b5f611d8b611d86611d8184611b88565b611d68565b611b88565b9050919050565b5f611d9c82611d71565b9050919050565b5f611dad82611d92565b9050919050565b611dbd81611da3565b82525050565b5f602082019050611dd65f830184611db4565b92915050565b5f805f60608486031215611df357611df2611b2f565b5b5f611e0086828701611b49565b9350506020611e1186828701611bce565b9250506040611e2286828701611bce565b9150509250925092565b5f8060408385031215611e4257611e41611b2f565b5b5f611e4f85828601611bce565b9250506020611e6085828601611bce565b9150509250929050565b5f81519050611e7881611b33565b92915050565b5f60208284031215611e9357611e92611b2f565b5b5f611ea084828501611e6a565b91505092915050565b7f4e487b71000000000000000000000000000000000000000000000000000000005f52602260045260245ffd5b5f6002820490506001821680611eed57607f821691505b602082108103611f0057611eff611ea9565b5b50919050565b7f4e487b71000000000000000000000000000000000000000000000000000000005f52601160045260245ffd5b5f611f3d82611ca3565b9150611f4883611ca3565b9250828201905060ff811115611f6157611f60611f06565b5b92915050565b7f53656e646572206973204e6f74205661756c74730000000000000000000000005f82015250565b5f611f9b601483611aa9565b9150611fa682611f67565b602082019050919050565b5f6020820190508181035f830152611fc881611f8f565b9050919050565b7f416d6f756e74206d7573742062652067726561746572207468616e20300000005f82015250565b5f612003601d83611aa9565b915061200e82611fcf565b602082019050919050565b5f6020820190508181035f83015261203081611ff7565b9050919050565b5f60608201905061204a5f830186611cd7565b6120576020830185611a77565b6120646040830184611a77565b949350505050565b5f61207682611a6e565b915061208183611a6e565b925082820190508082111561209957612098611f06565b5b92915050565b5f8160011c9050919050565b5f808291508390505b60018511156120f4578086048111156120d0576120cf611f06565b5b60018516156120df5780820291505b80810290506120ed8561209f565b94506120b4565b94509492505050565b5f8261210c57600190506121c7565b81612119575f90506121c7565b816001811461212f576002811461213957612168565b60019150506121c7565b60ff84111561214b5761214a611f06565b5b8360020a91508482111561216257612161611f06565b5b506121c7565b5060208310610133831016604e8410600b841016171561219d5782820a90508381111561219857612197611f06565b5b6121c7565b6121aa84848460016120ab565b925090508184048111156121c1576121c0611f06565b5b81810290505b9392505050565b5f6121d882611a6e565b91506121e383611ca3565b92506122107fffffffffffffffffffffffffffffffffffffffffffffffffffffffffffffffff84846120fd565b905092915050565b5f61222282611a6e565b915061222d83611a6e565b925082820390508181111561224557612244611f06565b5b92915050565b5f60408201905061225e5f830185611a77565b61226b6020830184611a77565b9392505050565b7f4e487b71000000000000000000000000000000000000000000000000000000005f52601260045260245ffd5b5f6040820190506122b25f830185611cd7565b6122bf6020830184611a77565b9392505050565b7f4e487b71000000000000000000000000000000000000000000000000000000005f52602160045260245ffd5b5f6122fd82611ca3565b915061230883611ca3565b92508261231857612317612272565b5b828206905092915050565b61232c81611c20565b8114612336575f80fd5b50565b5f8151905061234781612323565b92915050565b5f6020828403121561236257612361611b2f565b5b5f61236f84828501612339565b91505092915050565b5f81519050919050565b5f81905092915050565b5f61239682612378565b6123a08185612382565b93506123b0818560208601611ab9565b80840191505092915050565b5f6123c7828461238c565b91508190509291505056fea264697066735822122003634230a2ae1b2e8a1dc9432523ae5c48734f5090ac093502859b70f72cf95564736f6c63430008190033",
					"opcodes": "PUSH1 0xC0 PUSH1 0x40 MSTORE PUSH0 PUSH1 0x5 PUSH1 0x14 PUSH2 0x100 EXP DUP2 SLOAD DUP2 PUSH1 0xFF MUL NOT AND SWAP1 DUP4 ISZERO ISZERO MUL OR SWAP1 SSTORE POP CALLVALUE DUP1 ISZERO PUSH2 0x29 JUMPI PUSH0 DUP1 REVERT JUMPDEST POP PUSH1 0x40 MLOAD PUSH2 0x2B16 CODESIZE SUB DUP1 PUSH2 0x2B16 DUP4 CODECOPY DUP2 DUP2 ADD PUSH1 0x40 MSTORE DUP2 ADD SWAP1 PUSH2 0x4B SWAP2 SWAP1 PUSH2 0x2EE JUMP JUMPDEST DUP1 PUSH1 0x40 MLOAD DUP1 PUSH1 0x40 ADD PUSH1 0x40 MSTORE DUP1 PUSH1 0xE DUP2 MSTORE PUSH1 0x20 ADD PUSH32 0x522D736861726564206155534443000000000000000000000000000000000000 DUP2 MSTORE POP PUSH1 0x40 MLOAD DUP1 PUSH1 0x40 ADD PUSH1 0x40 MSTORE DUP1 PUSH1 0x7 DUP2 MSTORE PUSH1 0x20 ADD PUSH32 0x7273615553444300000000000000000000000000000000000000000000000000 DUP2 MSTORE POP DUP2 PUSH1 0x3 SWAP1 DUP2 PUSH2 0xC7 SWAP2 SWAP1 PUSH2 0x553 JUMP JUMPDEST POP DUP1 PUSH1 0x4 SWAP1 DUP2 PUSH2 0xD7 SWAP2 SWAP1 PUSH2 0x553 JUMP JUMPDEST POP POP POP PUSH0 DUP1 PUSH2 0xEB DUP4 PUSH2 0x187 PUSH1 0x20 SHL PUSH1 0x20 SHR JUMP JUMPDEST SWAP2 POP SWAP2 POP DUP2 PUSH2 0xFB JUMPI PUSH1 0x12 PUSH2 0xFD JUMP JUMPDEST DUP1 JUMPDEST PUSH1 0xFF AND PUSH1 0xA0 DUP2 PUSH1 0xFF AND DUP2 MSTORE POP POP DUP3 PUSH20 0xFFFFFFFFFFFFFFFFFFFFFFFFFFFFFFFFFFFFFFFF AND PUSH1 0x80 DUP2 PUSH20 0xFFFFFFFFFFFFFFFFFFFFFFFFFFFFFFFFFFFFFFFF AND DUP2 MSTORE POP POP POP POP POP DUP1 PUSH1 0x5 PUSH0 PUSH2 0x100 EXP DUP2 SLOAD DUP2 PUSH20 0xFFFFFFFFFFFFFFFFFFFFFFFFFFFFFFFFFFFFFFFF MUL NOT AND SWAP1 DUP4 PUSH20 0xFFFFFFFFFFFFFFFFFFFFFFFFFFFFFFFFFFFFFFFF AND MUL OR SWAP1 SSTORE POP POP PUSH2 0x6DF JUMP JUMPDEST PUSH0 DUP1 PUSH0 DUP1 DUP5 PUSH20 0xFFFFFFFFFFFFFFFFFFFFFFFFFFFFFFFFFFFFFFFF AND PUSH1 0x40 MLOAD PUSH1 0x24 ADD PUSH1 0x40 MLOAD PUSH1 0x20 DUP2 DUP4 SUB SUB DUP2 MSTORE SWAP1 PUSH1 0x40 MSTORE PUSH4 0x313CE567 PUSH1 0xE0 SHL PUSH1 0x20 DUP3 ADD DUP1 MLOAD PUSH28 0xFFFFFFFFFFFFFFFFFFFFFFFFFFFFFFFFFFFFFFFFFFFFFFFFFFFFFFFF DUP4 DUP2 DUP4 AND OR DUP4 MSTORE POP POP POP POP PUSH1 0x40 MLOAD PUSH2 0x1FA SWAP2 SWAP1 PUSH2 0x674 JUMP JUMPDEST PUSH0 PUSH1 0x40 MLOAD DUP1 DUP4 SUB DUP2 DUP6 GAS STATICCALL SWAP2 POP POP RETURNDATASIZE DUP1 PUSH0 DUP2 EQ PUSH2 0x232 JUMPI PUSH1 0x40 MLOAD SWAP2 POP PUSH1 0x1F NOT PUSH1 0x3F RETURNDATASIZE ADD AND DUP3 ADD PUSH1 0x40 MSTORE RETURNDATASIZE DUP3 MSTORE RETURNDATASIZE PUSH0 PUSH1 0x20 DUP5 ADD RETURNDATACOPY PUSH2 0x237 JUMP JUMPDEST PUSH1 0x60 SWAP2 POP JUMPDEST POP SWAP2 POP SWAP2 POP DUP2 DUP1 ISZERO PUSH2 0x24B JUMPI POP PUSH1 0x20 DUP2 MLOAD LT ISZERO JUMPDEST ISZERO PUSH2 0x282 JUMPI PUSH0 DUP2 DUP1 PUSH1 0x20 ADD SWAP1 MLOAD DUP2 ADD SWAP1 PUSH2 0x265 SWAP2 SWAP1 PUSH2 0x6B4 JUMP JUMPDEST SWAP1 POP PUSH1 0xFF DUP1 AND DUP2 GT PUSH2 0x280 JUMPI PUSH1 0x1 DUP2 SWAP5 POP SWAP5 POP POP POP POP PUSH2 0x28B JUMP JUMPDEST POP JUMPDEST PUSH0 DUP1 SWAP4 POP SWAP4 POP POP POP JUMPDEST SWAP2 POP SWAP2 JUMP JUMPDEST PUSH0 DUP1 REVERT JUMPDEST PUSH0 PUSH20 0xFFFFFFFFFFFFFFFFFFFFFFFFFFFFFFFFFFFFFFFF DUP3 AND SWAP1 POP SWAP2 SWAP1 POP JUMP JUMPDEST PUSH0 PUSH2 0x2BD DUP3 PUSH2 0x294 JUMP JUMPDEST SWAP1 POP SWAP2 SWAP1 POP JUMP JUMPDEST PUSH2 0x2CD DUP2 PUSH2 0x2B3 JUMP JUMPDEST DUP2 EQ PUSH2 0x2D7 JUMPI PUSH0 DUP1 REVERT JUMPDEST POP JUMP JUMPDEST PUSH0 DUP2 MLOAD SWAP1 POP PUSH2 0x2E8 DUP2 PUSH2 0x2C4 JUMP JUMPDEST SWAP3 SWAP2 POP POP JUMP JUMPDEST PUSH0 PUSH1 0x20 DUP3 DUP5 SUB SLT ISZERO PUSH2 0x303 JUMPI PUSH2 0x302 PUSH2 0x290 JUMP JUMPDEST JUMPDEST PUSH0 PUSH2 0x310 DUP5 DUP3 DUP6 ADD PUSH2 0x2DA JUMP JUMPDEST SWAP2 POP POP SWAP3 SWAP2 POP POP JUMP JUMPDEST PUSH0 DUP2 MLOAD SWAP1 POP SWAP2 SWAP1 POP JUMP JUMPDEST PUSH32 0x4E487B7100000000000000000000000000000000000000000000000000000000 PUSH0 MSTORE PUSH1 0x41 PUSH1 0x4 MSTORE PUSH1 0x24 PUSH0 REVERT JUMPDEST PUSH32 0x4E487B7100000000000000000000000000000000000000000000000000000000 PUSH0 MSTORE PUSH1 0x22 PUSH1 0x4 MSTORE PUSH1 0x24 PUSH0 REVERT JUMPDEST PUSH0 PUSH1 0x2 DUP3 DIV SWAP1 POP PUSH1 0x1 DUP3 AND DUP1 PUSH2 0x394 JUMPI PUSH1 0x7F DUP3 AND SWAP2 POP JUMPDEST PUSH1 0x20 DUP3 LT DUP2 SUB PUSH2 0x3A7 JUMPI PUSH2 0x3A6 PUSH2 0x350 JUMP JUMPDEST JUMPDEST POP SWAP2 SWAP1 POP JUMP JUMPDEST PUSH0 DUP2 SWAP1 POP DUP2 PUSH0 MSTORE PUSH1 0x20 PUSH0 KECCAK256 SWAP1 POP SWAP2 SWAP1 POP JUMP JUMPDEST PUSH0 PUSH1 0x20 PUSH1 0x1F DUP4 ADD DIV SWAP1 POP SWAP2 SWAP1 POP JUMP JUMPDEST PUSH0 DUP3 DUP3 SHL SWAP1 POP SWAP3 SWAP2 POP POP JUMP JUMPDEST PUSH0 PUSH1 0x8 DUP4 MUL PUSH2 0x409 PUSH32 0xFFFFFFFFFFFFFFFFFFFFFFFFFFFFFFFFFFFFFFFFFFFFFFFFFFFFFFFFFFFFFFFF DUP3 PUSH2 0x3CE JUMP JUMPDEST PUSH2 0x413 DUP7 DUP4 PUSH2 0x3CE JUMP JUMPDEST SWAP6 POP DUP1 NOT DUP5 AND SWAP4 POP DUP1 DUP7 AND DUP5 OR SWAP3 POP POP POP SWAP4 SWAP3 POP POP POP JUMP JUMPDEST PUSH0 DUP2 SWAP1 POP SWAP2 SWAP1 POP JUMP JUMPDEST PUSH0 DUP2 SWAP1 POP SWAP2 SWAP1 POP JUMP JUMPDEST PUSH0 PUSH2 0x457 PUSH2 0x452 PUSH2 0x44D DUP5 PUSH2 0x42B JUMP JUMPDEST PUSH2 0x434 JUMP JUMPDEST PUSH2 0x42B JUMP JUMPDEST SWAP1 POP SWAP2 SWAP1 POP JUMP JUMPDEST PUSH0 DUP2 SWAP1 POP SWAP2 SWAP1 POP JUMP JUMPDEST PUSH2 0x470 DUP4 PUSH2 0x43D JUMP JUMPDEST PUSH2 0x484 PUSH2 0x47C DUP3 PUSH2 0x45E JUMP JUMPDEST DUP5 DUP5 SLOAD PUSH2 0x3DA JUMP JUMPDEST DUP3 SSTORE POP POP POP POP JUMP JUMPDEST PUSH0 SWAP1 JUMP JUMPDEST PUSH2 0x498 PUSH2 0x48C JUMP JUMPDEST PUSH2 0x4A3 DUP2 DUP5 DUP5 PUSH2 0x467 JUMP JUMPDEST POP POP POP JUMP JUMPDEST JUMPDEST DUP2 DUP2 LT ISZERO PUSH2 0x4C6 JUMPI PUSH2 0x4BB PUSH0 DUP3 PUSH2 0x490 JUMP JUMPDEST PUSH1 0x1 DUP2 ADD SWAP1 POP PUSH2 0x4A9 JUMP JUMPDEST POP POP JUMP JUMPDEST PUSH1 0x1F DUP3 GT ISZERO PUSH2 0x50B JUMPI PUSH2 0x4DC DUP2 PUSH2 0x3AD JUMP JUMPDEST PUSH2 0x4E5 DUP5 PUSH2 0x3BF JUMP JUMPDEST DUP2 ADD PUSH1 0x20 DUP6 LT ISZERO PUSH2 0x4F4 JUMPI DUP2 SWAP1 POP JUMPDEST PUSH2 0x508 PUSH2 0x500 DUP6 PUSH2 0x3BF JUMP JUMPDEST DUP4 ADD DUP3 PUSH2 0x4A8 JUMP JUMPDEST POP POP JUMPDEST POP POP POP JUMP JUMPDEST PUSH0 DUP3 DUP3 SHR SWAP1 POP SWAP3 SWAP2 POP POP JUMP JUMPDEST PUSH0 PUSH2 0x52B PUSH0 NOT DUP5 PUSH1 0x8 MUL PUSH2 0x510 JUMP JUMPDEST NOT DUP1 DUP4 AND SWAP2 POP POP SWAP3 SWAP2 POP POP JUMP JUMPDEST PUSH0 PUSH2 0x543 DUP4 DUP4 PUSH2 0x51C JUMP JUMPDEST SWAP2 POP DUP3 PUSH1 0x2 MUL DUP3 OR SWAP1 POP SWAP3 SWAP2 POP POP JUMP JUMPDEST PUSH2 0x55C DUP3 PUSH2 0x319 JUMP JUMPDEST PUSH8 0xFFFFFFFFFFFFFFFF DUP2 GT ISZERO PUSH2 0x575 JUMPI PUSH2 0x574 PUSH2 0x323 JUMP JUMPDEST JUMPDEST PUSH2 0x57F DUP3 SLOAD PUSH2 0x37D JUMP JUMPDEST PUSH2 0x58A DUP3 DUP3 DUP6 PUSH2 0x4CA JUMP JUMPDEST PUSH0 PUSH1 0x20 SWAP1 POP PUSH1 0x1F DUP4 GT PUSH1 0x1 DUP2 EQ PUSH2 0x5BB JUMPI PUSH0 DUP5 ISZERO PUSH2 0x5A9 JUMPI DUP3 DUP8 ADD MLOAD SWAP1 POP JUMPDEST PUSH2 0x5B3 DUP6 DUP3 PUSH2 0x538 JUMP JUMPDEST DUP7 SSTORE POP PUSH2 0x61A JUMP JUMPDEST PUSH1 0x1F NOT DUP5 AND PUSH2 0x5C9 DUP7 PUSH2 0x3AD JUMP JUMPDEST PUSH0 JUMPDEST DUP3 DUP2 LT ISZERO PUSH2 0x5F0 JUMPI DUP5 DUP10 ADD MLOAD DUP3 SSTORE PUSH1 0x1 DUP3 ADD SWAP2 POP PUSH1 0x20 DUP6 ADD SWAP5 POP PUSH1 0x20 DUP2 ADD SWAP1 POP PUSH2 0x5CB JUMP JUMPDEST DUP7 DUP4 LT ISZERO PUSH2 0x60D JUMPI DUP5 DUP10 ADD MLOAD PUSH2 0x609 PUSH1 0x1F DUP10 AND DUP3 PUSH2 0x51C JUMP JUMPDEST DUP4 SSTORE POP JUMPDEST PUSH1 0x1 PUSH1 0x2 DUP9 MUL ADD DUP9 SSTORE POP POP POP JUMPDEST POP POP POP POP POP POP JUMP JUMPDEST PUSH0 DUP2 MLOAD SWAP1 POP SWAP2 SWAP1 POP JUMP JUMPDEST PUSH0 DUP2 SWAP1 POP SWAP3 SWAP2 POP POP JUMP JUMPDEST DUP3 DUP2 DUP4 MCOPY PUSH0 DUP4 DUP4 ADD MSTORE POP POP POP JUMP JUMPDEST PUSH0 PUSH2 0x64E DUP3 PUSH2 0x622 JUMP JUMPDEST PUSH2 0x658 DUP2 DUP6 PUSH2 0x62C JUMP JUMPDEST SWAP4 POP PUSH2 0x668 DUP2 DUP6 PUSH1 0x20 DUP7 ADD PUSH2 0x636 JUMP JUMPDEST DUP1 DUP5 ADD SWAP2 POP POP SWAP3 SWAP2 POP POP JUMP JUMPDEST PUSH0 PUSH2 0x67F DUP3 DUP5 PUSH2 0x644 JUMP JUMPDEST SWAP2 POP DUP2 SWAP1 POP SWAP3 SWAP2 POP POP JUMP JUMPDEST PUSH2 0x693 DUP2 PUSH2 0x42B JUMP JUMPDEST DUP2 EQ PUSH2 0x69D JUMPI PUSH0 DUP1 REVERT JUMPDEST POP JUMP JUMPDEST PUSH0 DUP2 MLOAD SWAP1 POP PUSH2 0x6AE DUP2 PUSH2 0x68A JUMP JUMPDEST SWAP3 SWAP2 POP POP JUMP JUMPDEST PUSH0 PUSH1 0x20 DUP3 DUP5 SUB SLT ISZERO PUSH2 0x6C9 JUMPI PUSH2 0x6C8 PUSH2 0x290 JUMP JUMPDEST JUMPDEST PUSH0 PUSH2 0x6D6 DUP5 DUP3 DUP6 ADD PUSH2 0x6A0 JUMP JUMPDEST SWAP2 POP POP SWAP3 SWAP2 POP POP JUMP JUMPDEST PUSH1 0x80 MLOAD PUSH1 0xA0 MLOAD PUSH2 0x2408 PUSH2 0x70E PUSH0 CODECOPY PUSH0 PUSH2 0x7A9 ADD MSTORE PUSH0 DUP2 DUP2 PUSH2 0x5F5 ADD MSTORE DUP2 DUP2 PUSH2 0x7DA ADD MSTORE PUSH2 0x1197 ADD MSTORE PUSH2 0x2408 PUSH0 RETURN INVALID PUSH1 0x80 PUSH1 0x40 MSTORE CALLVALUE DUP1 ISZERO PUSH2 0xF JUMPI PUSH0 DUP1 REVERT JUMPDEST POP PUSH1 0x4 CALLDATASIZE LT PUSH2 0x18C JUMPI PUSH0 CALLDATALOAD PUSH1 0xE0 SHR DUP1 PUSH4 0x866C99E2 GT PUSH2 0xDC JUMPI DUP1 PUSH4 0xBA087652 GT PUSH2 0x95 JUMPI DUP1 PUSH4 0xCE96CB77 GT PUSH2 0x6F JUMPI DUP1 PUSH4 0xCE96CB77 EQ PUSH2 0x532 JUMPI DUP1 PUSH4 0xD905777E EQ PUSH2 0x562 JUMPI DUP1 PUSH4 0xDD62ED3E EQ PUSH2 0x592 JUMPI DUP1 PUSH4 0xEF8B30F7 EQ PUSH2 0x5C2 JUMPI PUSH2 0x18C JUMP JUMPDEST DUP1 PUSH4 0xBA087652 EQ PUSH2 0x4A2 JUMPI DUP1 PUSH4 0xC63D75B6 EQ PUSH2 0x4D2 JUMPI DUP1 PUSH4 0xC6E6F592 EQ PUSH2 0x502 JUMPI PUSH2 0x18C JUMP JUMPDEST DUP1 PUSH4 0x866C99E2 EQ PUSH2 0x3A6 JUMPI DUP1 PUSH4 0x94BF804D EQ PUSH2 0x3C4 JUMPI DUP1 PUSH4 0x95D89B41 EQ PUSH2 0x3F4 JUMPI DUP1 PUSH4 0xA9059CBB EQ PUSH2 0x412 JUMPI DUP1 PUSH4 0xB3D7F6B9 EQ PUSH2 0x442 JUMPI DUP1 PUSH4 0xB460AF94 EQ PUSH2 0x472 JUMPI PUSH2 0x18C JUMP JUMPDEST DUP1 PUSH4 0x23B872DD GT PUSH2 0x149 JUMPI DUP1 PUSH4 0x402D267D GT PUSH2 0x123 JUMPI DUP1 PUSH4 0x402D267D EQ PUSH2 0x2E6 JUMPI DUP1 PUSH4 0x4CDAD506 EQ PUSH2 0x316 JUMPI DUP1 PUSH4 0x6E553F65 EQ PUSH2 0x346 JUMPI DUP1 PUSH4 0x70A08231 EQ PUSH2 0x376 JUMPI PUSH2 0x18C JUMP JUMPDEST DUP1 PUSH4 0x23B872DD EQ PUSH2 0x27A JUMPI DUP1 PUSH4 0x313CE567 EQ PUSH2 0x2AA JUMPI DUP1 PUSH4 0x38D52E0F EQ PUSH2 0x2C8 JUMPI PUSH2 0x18C JUMP JUMPDEST DUP1 PUSH4 0x1E1D114 EQ PUSH2 0x190 JUMPI DUP1 PUSH4 0x6FDDE03 EQ PUSH2 0x1AE JUMPI DUP1 PUSH4 0x7A2D13A EQ PUSH2 0x1CC JUMPI DUP1 PUSH4 0x95EA7B3 EQ PUSH2 0x1FC JUMPI DUP1 PUSH4 0xA28A477 EQ PUSH2 0x22C JUMPI DUP1 PUSH4 0x18160DDD EQ PUSH2 0x25C JUMPI JUMPDEST PUSH0 DUP1 REVERT JUMPDEST PUSH2 0x198 PUSH2 0x5F2 JUMP JUMPDEST PUSH1 0x40 MLOAD PUSH2 0x1A5 SWAP2 SWAP1 PUSH2 0x1A86 JUMP JUMPDEST PUSH1 0x40 MLOAD DUP1 SWAP2 SUB SWAP1 RETURN JUMPDEST PUSH2 0x1B6 PUSH2 0x690 JUMP JUMPDEST PUSH1 0x40 MLOAD PUSH2 0x1C3 SWAP2 SWAP1 PUSH2 0x1B0F JUMP JUMPDEST PUSH1 0x40 MLOAD DUP1 SWAP2 SUB SWAP1 RETURN JUMPDEST PUSH2 0x1E6 PUSH1 0x4 DUP1 CALLDATASIZE SUB DUP2 ADD SWAP1 PUSH2 0x1E1 SWAP2 SWAP1 PUSH2 0x1B5D JUMP JUMPDEST PUSH2 0x720 JUMP JUMPDEST PUSH1 0x40 MLOAD PUSH2 0x1F3 SWAP2 SWAP1 PUSH2 0x1A86 JUMP JUMPDEST PUSH1 0x40 MLOAD DUP1 SWAP2 SUB SWAP1 RETURN JUMPDEST PUSH2 0x216 PUSH1 0x4 DUP1 CALLDATASIZE SUB DUP2 ADD SWAP1 PUSH2 0x211 SWAP2 SWAP1 PUSH2 0x1BE2 JUMP JUMPDEST PUSH2 0x732 JUMP JUMPDEST PUSH1 0x40 MLOAD PUSH2 0x223 SWAP2 SWAP1 PUSH2 0x1C3A JUMP JUMPDEST PUSH1 0x40 MLOAD DUP1 SWAP2 SUB SWAP1 RETURN JUMPDEST PUSH2 0x246 PUSH1 0x4 DUP1 CALLDATASIZE SUB DUP2 ADD SWAP1 PUSH2 0x241 SWAP2 SWAP1 PUSH2 0x1B5D JUMP JUMPDEST PUSH2 0x754 JUMP JUMPDEST PUSH1 0x40 MLOAD PUSH2 0x253 SWAP2 SWAP1 PUSH2 0x1A86 JUMP JUMPDEST PUSH1 0x40 MLOAD DUP1 SWAP2 SUB SWAP1 RETURN JUMPDEST PUSH2 0x264 PUSH2 0x767 JUMP JUMPDEST PUSH1 0x40 MLOAD PUSH2 0x271 SWAP2 SWAP1 PUSH2 0x1A86 JUMP JUMPDEST PUSH1 0x40 MLOAD DUP1 SWAP2 SUB SWAP1 RETURN JUMPDEST PUSH2 0x294 PUSH1 0x4 DUP1 CALLDATASIZE SUB DUP2 ADD SWAP1 PUSH2 0x28F SWAP2 SWAP1 PUSH2 0x1C53 JUMP JUMPDEST PUSH2 0x770 JUMP JUMPDEST PUSH1 0x40 MLOAD PUSH2 0x2A1 SWAP2 SWAP1 PUSH2 0x1C3A JUMP JUMPDEST PUSH1 0x40 MLOAD DUP1 SWAP2 SUB SWAP1 RETURN JUMPDEST PUSH2 0x2B2 PUSH2 0x79E JUMP JUMPDEST PUSH1 0x40 MLOAD PUSH2 0x2BF SWAP2 SWAP1 PUSH2 0x1CBE JUMP JUMPDEST PUSH1 0x40 MLOAD DUP1 SWAP2 SUB SWAP1 RETURN JUMPDEST PUSH2 0x2D0 PUSH2 0x7D7 JUMP JUMPDEST PUSH1 0x40 MLOAD PUSH2 0x2DD SWAP2 SWAP1 PUSH2 0x1CE6 JUMP JUMPDEST PUSH1 0x40 MLOAD DUP1 SWAP2 SUB SWAP1 RETURN JUMPDEST PUSH2 0x300 PUSH1 0x4 DUP1 CALLDATASIZE SUB DUP2 ADD SWAP1 PUSH2 0x2FB SWAP2 SWAP1 PUSH2 0x1CFF JUMP JUMPDEST PUSH2 0x7FE JUMP JUMPDEST PUSH1 0x40 MLOAD PUSH2 0x30D SWAP2 SWAP1 PUSH2 0x1A86 JUMP JUMPDEST PUSH1 0x40 MLOAD DUP1 SWAP2 SUB SWAP1 RETURN JUMPDEST PUSH2 0x330 PUSH1 0x4 DUP1 CALLDATASIZE SUB DUP2 ADD SWAP1 PUSH2 0x32B SWAP2 SWAP1 PUSH2 0x1B5D JUMP JUMPDEST PUSH2 0x827 JUMP JUMPDEST PUSH1 0x40 MLOAD PUSH2 0x33D SWAP2 SWAP1 PUSH2 0x1A86 JUMP JUMPDEST PUSH1 0x40 MLOAD DUP1 SWAP2 SUB SWAP1 RETURN JUMPDEST PUSH2 0x360 PUSH1 0x4 DUP1 CALLDATASIZE SUB DUP2 ADD SWAP1 PUSH2 0x35B SWAP2 SWAP1 PUSH2 0x1D2A JUMP JUMPDEST PUSH2 0x839 JUMP JUMPDEST PUSH1 0x40 MLOAD PUSH2 0x36D SWAP2 SWAP1 PUSH2 0x1A86 JUMP JUMPDEST PUSH1 0x40 MLOAD DUP1 SWAP2 SUB SWAP1 RETURN JUMPDEST PUSH2 0x390 PUSH1 0x4 DUP1 CALLDATASIZE SUB DUP2 ADD SWAP1 PUSH2 0x38B SWAP2 SWAP1 PUSH2 0x1CFF JUMP JUMPDEST PUSH2 0x9B6 JUMP JUMPDEST PUSH1 0x40 MLOAD PUSH2 0x39D SWAP2 SWAP1 PUSH2 0x1A86 JUMP JUMPDEST PUSH1 0x40 MLOAD DUP1 SWAP2 SUB SWAP1 RETURN JUMPDEST PUSH2 0x3AE PUSH2 0x9FB JUMP JUMPDEST PUSH1 0x40 MLOAD PUSH2 0x3BB SWAP2 SWAP1 PUSH2 0x1DC3 JUMP JUMPDEST PUSH1 0x40 MLOAD DUP1 SWAP2 SUB SWAP1 RETURN JUMPDEST PUSH2 0x3DE PUSH1 0x4 DUP1 CALLDATASIZE SUB DUP2 ADD SWAP1 PUSH2 0x3D9 SWAP2 SWAP1 PUSH2 0x1D2A JUMP JUMPDEST PUSH2 0xA20 JUMP JUMPDEST PUSH1 0x40 MLOAD PUSH2 0x3EB SWAP2 SWAP1 PUSH2 0x1A86 JUMP JUMPDEST PUSH1 0x40 MLOAD DUP1 SWAP2 SUB SWAP1 RETURN JUMPDEST PUSH2 0x3FC PUSH2 0xA53 JUMP JUMPDEST PUSH1 0x40 MLOAD PUSH2 0x409 SWAP2 SWAP1 PUSH2 0x1B0F JUMP JUMPDEST PUSH1 0x40 MLOAD DUP1 SWAP2 SUB SWAP1 RETURN JUMPDEST PUSH2 0x42C PUSH1 0x4 DUP1 CALLDATASIZE SUB DUP2 ADD SWAP1 PUSH2 0x427 SWAP2 SWAP1 PUSH2 0x1BE2 JUMP JUMPDEST PUSH2 0xAE3 JUMP JUMPDEST PUSH1 0x40 MLOAD PUSH2 0x439 SWAP2 SWAP1 PUSH2 0x1C3A JUMP JUMPDEST PUSH1 0x40 MLOAD DUP1 SWAP2 SUB SWAP1 RETURN JUMPDEST PUSH2 0x45C PUSH1 0x4 DUP1 CALLDATASIZE SUB DUP2 ADD SWAP1 PUSH2 0x457 SWAP2 SWAP1 PUSH2 0x1B5D JUMP JUMPDEST PUSH2 0xB05 JUMP JUMPDEST PUSH1 0x40 MLOAD PUSH2 0x469 SWAP2 SWAP1 PUSH2 0x1A86 JUMP JUMPDEST PUSH1 0x40 MLOAD DUP1 SWAP2 SUB SWAP1 RETURN JUMPDEST PUSH2 0x48C PUSH1 0x4 DUP1 CALLDATASIZE SUB DUP2 ADD SWAP1 PUSH2 0x487 SWAP2 SWAP1 PUSH2 0x1DDC JUMP JUMPDEST PUSH2 0xB18 JUMP JUMPDEST PUSH1 0x40 MLOAD PUSH2 0x499 SWAP2 SWAP1 PUSH2 0x1A86 JUMP JUMPDEST PUSH1 0x40 MLOAD DUP1 SWAP2 SUB SWAP1 RETURN JUMPDEST PUSH2 0x4BC PUSH1 0x4 DUP1 CALLDATASIZE SUB DUP2 ADD SWAP1 PUSH2 0x4B7 SWAP2 SWAP1 PUSH2 0x1DDC JUMP JUMPDEST PUSH2 0xC1F JUMP JUMPDEST PUSH1 0x40 MLOAD PUSH2 0x4C9 SWAP2 SWAP1 PUSH2 0x1A86 JUMP JUMPDEST PUSH1 0x40 MLOAD DUP1 SWAP2 SUB SWAP1 RETURN JUMPDEST PUSH2 0x4EC PUSH1 0x4 DUP1 CALLDATASIZE SUB DUP2 ADD SWAP1 PUSH2 0x4E7 SWAP2 SWAP1 PUSH2 0x1CFF JUMP JUMPDEST PUSH2 0xCA1 JUMP JUMPDEST PUSH1 0x40 MLOAD PUSH2 0x4F9 SWAP2 SWAP1 PUSH2 0x1A86 JUMP JUMPDEST PUSH1 0x40 MLOAD DUP1 SWAP2 SUB SWAP1 RETURN JUMPDEST PUSH2 0x51C PUSH1 0x4 DUP1 CALLDATASIZE SUB DUP2 ADD SWAP1 PUSH2 0x517 SWAP2 SWAP1 PUSH2 0x1B5D JUMP JUMPDEST PUSH2 0xCCA JUMP JUMPDEST PUSH1 0x40 MLOAD PUSH2 0x529 SWAP2 SWAP1 PUSH2 0x1A86 JUMP JUMPDEST PUSH1 0x40 MLOAD DUP1 SWAP2 SUB SWAP1 RETURN JUMPDEST PUSH2 0x54C PUSH1 0x4 DUP1 CALLDATASIZE SUB DUP2 ADD SWAP1 PUSH2 0x547 SWAP2 SWAP1 PUSH2 0x1CFF JUMP JUMPDEST PUSH2 0xCDC JUMP JUMPDEST PUSH1 0x40 MLOAD PUSH2 0x559 SWAP2 SWAP1 PUSH2 0x1A86 JUMP JUMPDEST PUSH1 0x40 MLOAD DUP1 SWAP2 SUB SWAP1 RETURN JUMPDEST PUSH2 0x57C PUSH1 0x4 DUP1 CALLDATASIZE SUB DUP2 ADD SWAP1 PUSH2 0x577 SWAP2 SWAP1 PUSH2 0x1CFF JUMP JUMPDEST PUSH2 0xCF6 JUMP JUMPDEST PUSH1 0x40 MLOAD PUSH2 0x589 SWAP2 SWAP1 PUSH2 0x1A86 JUMP JUMPDEST PUSH1 0x40 MLOAD DUP1 SWAP2 SUB SWAP1 RETURN JUMPDEST PUSH2 0x5AC PUSH1 0x4 DUP1 CALLDATASIZE SUB DUP2 ADD SWAP1 PUSH2 0x5A7 SWAP2 SWAP1 PUSH2 0x1E2C JUMP JUMPDEST PUSH2 0xD07 JUMP JUMPDEST PUSH1 0x40 MLOAD PUSH2 0x5B9 SWAP2 SWAP1 PUSH2 0x1A86 JUMP JUMPDEST PUSH1 0x40 MLOAD DUP1 SWAP2 SUB SWAP1 RETURN JUMPDEST PUSH2 0x5DC PUSH1 0x4 DUP1 CALLDATASIZE SUB DUP2 ADD SWAP1 PUSH2 0x5D7 SWAP2 SWAP1 PUSH2 0x1B5D JUMP JUMPDEST PUSH2 0xD89 JUMP JUMPDEST PUSH1 0x40 MLOAD PUSH2 0x5E9 SWAP2 SWAP1 PUSH2 0x1A86 JUMP JUMPDEST PUSH1 0x40 MLOAD DUP1 SWAP2 SUB SWAP1 RETURN JUMPDEST PUSH0 PUSH32 0x0 PUSH20 0xFFFFFFFFFFFFFFFFFFFFFFFFFFFFFFFFFFFFFFFF AND PUSH4 0x70A08231 ADDRESS PUSH1 0x40 MLOAD DUP3 PUSH4 0xFFFFFFFF AND PUSH1 0xE0 SHL DUP2 MSTORE PUSH1 0x4 ADD PUSH2 0x64C SWAP2 SWAP1 PUSH2 0x1CE6 JUMP JUMPDEST PUSH1 0x20 PUSH1 0x40 MLOAD DUP1 DUP4 SUB DUP2 DUP7 GAS STATICCALL ISZERO DUP1 ISZERO PUSH2 0x667 JUMPI RETURNDATASIZE PUSH0 DUP1 RETURNDATACOPY RETURNDATASIZE PUSH0 REVERT JUMPDEST POP POP POP POP PUSH1 0x40 MLOAD RETURNDATASIZE PUSH1 0x1F NOT PUSH1 0x1F DUP3 ADD AND DUP3 ADD DUP1 PUSH1 0x40 MSTORE POP DUP2 ADD SWAP1 PUSH2 0x68B SWAP2 SWAP1 PUSH2 0x1E7E JUMP JUMPDEST SWAP1 POP SWAP1 JUMP JUMPDEST PUSH1 0x60 PUSH1 0x3 DUP1 SLOAD PUSH2 0x69F SWAP1 PUSH2 0x1ED6 JUMP JUMPDEST DUP1 PUSH1 0x1F ADD PUSH1 0x20 DUP1 SWAP2 DIV MUL PUSH1 0x20 ADD PUSH1 0x40 MLOAD SWAP1 DUP2 ADD PUSH1 0x40 MSTORE DUP1 SWAP3 SWAP2 SWAP1 DUP2 DUP2 MSTORE PUSH1 0x20 ADD DUP3 DUP1 SLOAD PUSH2 0x6CB SWAP1 PUSH2 0x1ED6 JUMP JUMPDEST DUP1 ISZERO PUSH2 0x716 JUMPI DUP1 PUSH1 0x1F LT PUSH2 0x6ED JUMPI PUSH2 0x100 DUP1 DUP4 SLOAD DIV MUL DUP4 MSTORE SWAP2 PUSH1 0x20 ADD SWAP2 PUSH2 0x716 JUMP JUMPDEST DUP3 ADD SWAP2 SWAP1 PUSH0 MSTORE PUSH1 0x20 PUSH0 KECCAK256 SWAP1 JUMPDEST DUP2 SLOAD DUP2 MSTORE SWAP1 PUSH1 0x1 ADD SWAP1 PUSH1 0x20 ADD DUP1 DUP4 GT PUSH2 0x6F9 JUMPI DUP3 SWAP1 SUB PUSH1 0x1F AND DUP3 ADD SWAP2 JUMPDEST POP POP POP POP POP SWAP1 POP SWAP1 JUMP JUMPDEST PUSH0 PUSH2 0x72B DUP3 PUSH0 PUSH2 0xD9B JUMP JUMPDEST SWAP1 POP SWAP2 SWAP1 POP JUMP JUMPDEST PUSH0 DUP1 PUSH2 0x73C PUSH2 0xDF3 JUMP JUMPDEST SWAP1 POP PUSH2 0x749 DUP2 DUP6 DUP6 PUSH2 0xDFA JUMP JUMPDEST PUSH1 0x1 SWAP2 POP POP SWAP3 SWAP2 POP POP JUMP JUMPDEST PUSH0 PUSH2 0x760 DUP3 PUSH1 0x1 PUSH2 0xE0C JUMP JUMPDEST SWAP1 POP SWAP2 SWAP1 POP JUMP JUMPDEST PUSH0 PUSH1 0x2 SLOAD SWAP1 POP SWAP1 JUMP JUMPDEST PUSH0 DUP1 PUSH2 0x77A PUSH2 0xDF3 JUMP JUMPDEST SWAP1 POP PUSH2 0x787 DUP6 DUP3 DUP6 PUSH2 0xEC5 JUMP JUMPDEST PUSH2 0x792 DUP6 DUP6 DUP6 PUSH2 0xF57 JUMP JUMPDEST PUSH1 0x1 SWAP2 POP POP SWAP4 SWAP3 POP POP POP JUMP JUMPDEST PUSH0 PUSH2 0x7A7 PUSH2 0x1047 JUMP JUMPDEST PUSH32 0x0 PUSH2 0x7D2 SWAP2 SWAP1 PUSH2 0x1F33 JUMP JUMPDEST SWAP1 POP SWAP1 JUMP JUMPDEST PUSH0 PUSH32 0x0 SWAP1 POP SWAP1 JUMP JUMPDEST PUSH0 PUSH32 0xFFFFFFFFFFFFFFFFFFFFFFFFFFFFFFFFFFFFFFFFFFFFFFFFFFFFFFFFFFFFFFFF SWAP1 POP SWAP2 SWAP1 POP JUMP JUMPDEST PUSH0 PUSH2 0x832 DUP3 PUSH0 PUSH2 0xD9B JUMP JUMPDEST SWAP1 POP SWAP2 SWAP1 POP JUMP JUMPDEST PUSH0 CALLER PUSH20 0xFFFFFFFFFFFFFFFFFFFFFFFFFFFFFFFFFFFFFFFF AND PUSH1 0x5 PUSH0 SWAP1 SLOAD SWAP1 PUSH2 0x100 EXP SWAP1 DIV PUSH20 0xFFFFFFFFFFFFFFFFFFFFFFFFFFFFFFFFFFFFFFFF AND PUSH20 0xFFFFFFFFFFFFFFFFFFFFFFFFFFFFFFFFFFFFFFFF AND EQ PUSH2 0x8C9 JUMPI PUSH1 0x40 MLOAD PUSH32 0x8C379A000000000000000000000000000000000000000000000000000000000 DUP2 MSTORE PUSH1 0x4 ADD PUSH2 0x8C0 SWAP1 PUSH2 0x1FB1 JUMP JUMPDEST PUSH1 0x40 MLOAD DUP1 SWAP2 SUB SWAP1 REVERT JUMPDEST PUSH1 0x1 PUSH1 0x5 PUSH1 0x14 PUSH2 0x100 EXP DUP2 SLOAD DUP2 PUSH1 0xFF MUL NOT AND SWAP1 DUP4 ISZERO ISZERO MUL OR SWAP1 SSTORE POP PUSH0 DUP4 GT PUSH2 0x926 JUMPI PUSH1 0x40 MLOAD PUSH32 0x8C379A000000000000000000000000000000000000000000000000000000000 DUP2 MSTORE PUSH1 0x4 ADD PUSH2 0x91D SWAP1 PUSH2 0x2019 JUMP JUMPDEST PUSH1 0x40 MLOAD DUP1 SWAP2 SUB SWAP1 REVERT JUMPDEST PUSH0 PUSH2 0x930 DUP4 PUSH2 0x7FE JUMP JUMPDEST SWAP1 POP DUP1 DUP5 GT ISZERO PUSH2 0x97B JUMPI DUP3 DUP5 DUP3 PUSH1 0x40 MLOAD PUSH32 0x79012FB200000000000000000000000000000000000000000000000000000000 DUP2 MSTORE PUSH1 0x4 ADD PUSH2 0x972 SWAP4 SWAP3 SWAP2 SWAP1 PUSH2 0x2037 JUMP JUMPDEST PUSH1 0x40 MLOAD DUP1 SWAP2 SUB SWAP1 REVERT JUMPDEST PUSH0 PUSH2 0x985 DUP6 PUSH2 0xD89 JUMP JUMPDEST SWAP1 POP PUSH2 0x991 DUP5 DUP3 PUSH2 0x104B JUMP JUMPDEST PUSH0 PUSH1 0x5 PUSH1 0x14 PUSH2 0x100 EXP DUP2 SLOAD DUP2 PUSH1 0xFF MUL NOT AND SWAP1 DUP4 ISZERO ISZERO MUL OR SWAP1 SSTORE POP DUP1 SWAP3 POP POP POP SWAP3 SWAP2 POP POP JUMP JUMPDEST PUSH0 DUP1 PUSH0 DUP4 PUSH20 0xFFFFFFFFFFFFFFFFFFFFFFFFFFFFFFFFFFFFFFFF AND PUSH20 0xFFFFFFFFFFFFFFFFFFFFFFFFFFFFFFFFFFFFFFFF AND DUP2 MSTORE PUSH1 0x20 ADD SWAP1 DUP2 MSTORE PUSH1 0x20 ADD PUSH0 KECCAK256 SLOAD SWAP1 POP SWAP2 SWAP1 POP JUMP JUMPDEST PUSH1 0x5 PUSH0 SWAP1 SLOAD SWAP1 PUSH2 0x100 EXP SWAP1 DIV PUSH20 0xFFFFFFFFFFFFFFFFFFFFFFFFFFFFFFFFFFFFFFFF AND DUP2 JUMP JUMPDEST PUSH0 PUSH1 0x40 MLOAD PUSH32 0xA9A2322B00000000000000000000000000000000000000000000000000000000 DUP2 MSTORE PUSH1 0x4 ADD PUSH1 0x40 MLOAD DUP1 SWAP2 SUB SWAP1 REVERT JUMPDEST PUSH1 0x60 PUSH1 0x4 DUP1 SLOAD PUSH2 0xA62 SWAP1 PUSH2 0x1ED6 JUMP JUMPDEST DUP1 PUSH1 0x1F ADD PUSH1 0x20 DUP1 SWAP2 DIV MUL PUSH1 0x20 ADD PUSH1 0x40 MLOAD SWAP1 DUP2 ADD PUSH1 0x40 MSTORE DUP1 SWAP3 SWAP2 SWAP1 DUP2 DUP2 MSTORE PUSH1 0x20 ADD DUP3 DUP1 SLOAD PUSH2 0xA8E SWAP1 PUSH2 0x1ED6 JUMP JUMPDEST DUP1 ISZERO PUSH2 0xAD9 JUMPI DUP1 PUSH1 0x1F LT PUSH2 0xAB0 JUMPI PUSH2 0x100 DUP1 DUP4 SLOAD DIV MUL DUP4 MSTORE SWAP2 PUSH1 0x20 ADD SWAP2 PUSH2 0xAD9 JUMP JUMPDEST DUP3 ADD SWAP2 SWAP1 PUSH0 MSTORE PUSH1 0x20 PUSH0 KECCAK256 SWAP1 JUMPDEST DUP2 SLOAD DUP2 MSTORE SWAP1 PUSH1 0x1 ADD SWAP1 PUSH1 0x20 ADD DUP1 DUP4 GT PUSH2 0xABC JUMPI DUP3 SWAP1 SUB PUSH1 0x1F AND DUP3 ADD SWAP2 JUMPDEST POP POP POP POP POP SWAP1 POP SWAP1 JUMP JUMPDEST PUSH0 DUP1 PUSH2 0xAED PUSH2 0xDF3 JUMP JUMPDEST SWAP1 POP PUSH2 0xAFA DUP2 DUP6 DUP6 PUSH2 0xF57 JUMP JUMPDEST PUSH1 0x1 SWAP2 POP POP SWAP3 SWAP2 POP POP JUMP JUMPDEST PUSH0 PUSH2 0xB11 DUP3 PUSH1 0x1 PUSH2 0xD9B JUMP JUMPDEST SWAP1 POP SWAP2 SWAP1 POP JUMP JUMPDEST PUSH0 CALLER PUSH20 0xFFFFFFFFFFFFFFFFFFFFFFFFFFFFFFFFFFFFFFFF AND PUSH1 0x5 PUSH0 SWAP1 SLOAD SWAP1 PUSH2 0x100 EXP SWAP1 DIV PUSH20 0xFFFFFFFFFFFFFFFFFFFFFFFFFFFFFFFFFFFFFFFF AND PUSH20 0xFFFFFFFFFFFFFFFFFFFFFFFFFFFFFFFFFFFFFFFF AND EQ PUSH2 0xBA8 JUMPI PUSH1 0x40 MLOAD PUSH32 0x8C379A000000000000000000000000000000000000000000000000000000000 DUP2 MSTORE PUSH1 0x4 ADD PUSH2 0xB9F SWAP1 PUSH2 0x1FB1 JUMP JUMPDEST PUSH1 0x40 MLOAD DUP1 SWAP2 SUB SWAP1 REVERT JUMPDEST PUSH0 PUSH2 0xBB2 DUP4 PUSH2 0xCDC JUMP JUMPDEST SWAP1 POP DUP1 DUP6 GT ISZERO PUSH2 0xBFD JUMPI DUP3 DUP6 DUP3 PUSH1 0x40 MLOAD PUSH32 0xFE9CCEEC00000000000000000000000000000000000000000000000000000000 DUP2 MSTORE PUSH1 0x4 ADD PUSH2 0xBF4 SWAP4 SWAP3 SWAP2 SWAP1 PUSH2 0x2037 JUMP JUMPDEST PUSH1 0x40 MLOAD DUP1 SWAP2 SUB SWAP1 REVERT JUMPDEST PUSH0 PUSH2 0xC07 DUP7 PUSH2 0x754 JUMP JUMPDEST SWAP1 POP PUSH2 0xC13 DUP5 DUP3 PUSH2 0x10CA JUMP JUMPDEST DUP2 SWAP3 POP POP POP SWAP4 SWAP3 POP POP POP JUMP JUMPDEST PUSH0 DUP1 PUSH2 0xC2A DUP4 PUSH2 0xCF6 JUMP JUMPDEST SWAP1 POP DUP1 DUP6 GT ISZERO PUSH2 0xC75 JUMPI DUP3 DUP6 DUP3 PUSH1 0x40 MLOAD PUSH32 0xB94ABEEC00000000000000000000000000000000000000000000000000000000 DUP2 MSTORE PUSH1 0x4 ADD PUSH2 0xC6C SWAP4 SWAP3 SWAP2 SWAP1 PUSH2 0x2037 JUMP JUMPDEST PUSH1 0x40 MLOAD DUP1 SWAP2 SUB SWAP1 REVERT JUMPDEST PUSH0 PUSH2 0xC7F DUP7 PUSH2 0x827 JUMP JUMPDEST SWAP1 POP PUSH2 0xC95 PUSH2 0xC8C PUSH2 0xDF3 JUMP JUMPDEST DUP7 DUP7 DUP5 DUP11 PUSH2 0x1149 JUMP JUMPDEST DUP1 SWAP3 POP POP POP SWAP4 SWAP3 POP POP POP JUMP JUMPDEST PUSH0 PUSH32 0xFFFFFFFFFFFFFFFFFFFFFFFFFFFFFFFFFFFFFFFFFFFFFFFFFFFFFFFFFFFFFFFF SWAP1 POP SWAP2 SWAP1 POP JUMP JUMPDEST PUSH0 PUSH2 0xCD5 DUP3 PUSH0 PUSH2 0xE0C JUMP JUMPDEST SWAP1 POP SWAP2 SWAP1 POP JUMP JUMPDEST PUSH0 PUSH2 0xCEF PUSH2 0xCE9 DUP4 PUSH2 0x9B6 JUMP JUMPDEST PUSH0 PUSH2 0xD9B JUMP JUMPDEST SWAP1 POP SWAP2 SWAP1 POP JUMP JUMPDEST PUSH0 PUSH2 0xD00 DUP3 PUSH2 0x9B6 JUMP JUMPDEST SWAP1 POP SWAP2 SWAP1 POP JUMP JUMPDEST PUSH0 PUSH1 0x1 PUSH0 DUP5 PUSH20 0xFFFFFFFFFFFFFFFFFFFFFFFFFFFFFFFFFFFFFFFF AND PUSH20 0xFFFFFFFFFFFFFFFFFFFFFFFFFFFFFFFFFFFFFFFF AND DUP2 MSTORE PUSH1 0x20 ADD SWAP1 DUP2 MSTORE PUSH1 0x20 ADD PUSH0 KECCAK256 PUSH0 DUP4 PUSH20 0xFFFFFFFFFFFFFFFFFFFFFFFFFFFFFFFFFFFFFFFF AND PUSH20 0xFFFFFFFFFFFFFFFFFFFFFFFFFFFFFFFFFFFFFFFF AND DUP2 MSTORE PUSH1 0x20 ADD SWAP1 DUP2 MSTORE PUSH1 0x20 ADD PUSH0 KECCAK256 SLOAD SWAP1 POP SWAP3 SWAP2 POP POP JUMP JUMPDEST PUSH0 PUSH2 0xD94 DUP3 PUSH0 PUSH2 0xE0C JUMP JUMPDEST SWAP1 POP SWAP2 SWAP1 POP JUMP JUMPDEST PUSH0 PUSH2 0xDEB PUSH1 0x1 PUSH2 0xDA9 PUSH2 0x5F2 JUMP JUMPDEST PUSH2 0xDB3 SWAP2 SWAP1 PUSH2 0x206C JUMP JUMPDEST PUSH2 0xDBB PUSH2 0x1047 JUMP JUMPDEST PUSH1 0xA PUSH2 0xDC7 SWAP2 SWAP1 PUSH2 0x21CE JUMP JUMPDEST PUSH2 0xDCF PUSH2 0x767 JUMP JUMPDEST PUSH2 0xDD9 SWAP2 SWAP1 PUSH2 0x206C JUMP JUMPDEST DUP5 DUP7 PUSH2 0x1242 SWAP1 SWAP4 SWAP3 SWAP2 SWAP1 PUSH4 0xFFFFFFFF AND JUMP JUMPDEST SWAP1 POP SWAP3 SWAP2 POP POP JUMP JUMPDEST PUSH0 CALLER SWAP1 POP SWAP1 JUMP JUMPDEST PUSH2 0xE07 DUP4 DUP4 DUP4 PUSH1 0x1 PUSH2 0x1297 JUMP JUMPDEST POP POP POP JUMP JUMPDEST PUSH0 PUSH1 0x5 PUSH1 0x14 SWAP1 SLOAD SWAP1 PUSH2 0x100 EXP SWAP1 DIV PUSH1 0xFF AND ISZERO PUSH2 0xE78 JUMPI PUSH2 0xE71 DUP4 PUSH2 0xE2E PUSH2 0x1047 JUMP JUMPDEST PUSH1 0xA PUSH2 0xE3A SWAP2 SWAP1 PUSH2 0x21CE JUMP JUMPDEST PUSH2 0xE42 PUSH2 0x767 JUMP JUMPDEST PUSH2 0xE4C SWAP2 SWAP1 PUSH2 0x206C JUMP JUMPDEST PUSH1 0x1 DUP7 PUSH2 0xE57 PUSH2 0x5F2 JUMP JUMPDEST PUSH2 0xE61 SWAP2 SWAP1 PUSH2 0x2218 JUMP JUMPDEST PUSH2 0xE6B SWAP2 SWAP1 PUSH2 0x206C JUMP JUMPDEST DUP6 PUSH2 0x1242 JUMP JUMPDEST SWAP1 POP PUSH2 0xEBF JUMP JUMPDEST PUSH2 0xEBC DUP4 PUSH2 0xE84 PUSH2 0x1047 JUMP JUMPDEST PUSH1 0xA PUSH2 0xE90 SWAP2 SWAP1 PUSH2 0x21CE JUMP JUMPDEST PUSH2 0xE98 PUSH2 0x767 JUMP JUMPDEST PUSH2 0xEA2 SWAP2 SWAP1 PUSH2 0x206C JUMP JUMPDEST PUSH1 0x1 PUSH2 0xEAC PUSH2 0x5F2 JUMP JUMPDEST PUSH2 0xEB6 SWAP2 SWAP1 PUSH2 0x206C JUMP JUMPDEST DUP6 PUSH2 0x1242 JUMP JUMPDEST SWAP1 POP JUMPDEST SWAP3 SWAP2 POP POP JUMP JUMPDEST PUSH0 PUSH2 0xED0 DUP5 DUP5 PUSH2 0xD07 JUMP JUMPDEST SWAP1 POP PUSH32 0xFFFFFFFFFFFFFFFFFFFFFFFFFFFFFFFFFFFFFFFFFFFFFFFFFFFFFFFFFFFFFFFF DUP2 EQ PUSH2 0xF51 JUMPI DUP2 DUP2 LT ISZERO PUSH2 0xF42 JUMPI DUP3 DUP2 DUP4 PUSH1 0x40 MLOAD PUSH32 0xFB8F41B200000000000000000000000000000000000000000000000000000000 DUP2 MSTORE PUSH1 0x4 ADD PUSH2 0xF39 SWAP4 SWAP3 SWAP2 SWAP1 PUSH2 0x2037 JUMP JUMPDEST PUSH1 0x40 MLOAD DUP1 SWAP2 SUB SWAP1 REVERT JUMPDEST PUSH2 0xF50 DUP5 DUP5 DUP5 DUP5 SUB PUSH0 PUSH2 0x1297 JUMP JUMPDEST JUMPDEST POP POP POP POP JUMP JUMPDEST PUSH0 PUSH20 0xFFFFFFFFFFFFFFFFFFFFFFFFFFFFFFFFFFFFFFFF AND DUP4 PUSH20 0xFFFFFFFFFFFFFFFFFFFFFFFFFFFFFFFFFFFFFFFF AND SUB PUSH2 0xFC7 JUMPI PUSH0 PUSH1 0x40 MLOAD PUSH32 0x96C6FD1E00000000000000000000000000000000000000000000000000000000 DUP2 MSTORE PUSH1 0x4 ADD PUSH2 0xFBE SWAP2 SWAP1 PUSH2 0x1CE6 JUMP JUMPDEST PUSH1 0x40 MLOAD DUP1 SWAP2 SUB SWAP1 REVERT JUMPDEST PUSH0 PUSH20 0xFFFFFFFFFFFFFFFFFFFFFFFFFFFFFFFFFFFFFFFF AND DUP3 PUSH20 0xFFFFFFFFFFFFFFFFFFFFFFFFFFFFFFFFFFFFFFFF AND SUB PUSH2 0x1037 JUMPI PUSH0 PUSH1 0x40 MLOAD PUSH32 0xEC442F0500000000000000000000000000000000000000000000000000000000 DUP2 MSTORE PUSH1 0x4 ADD PUSH2 0x102E SWAP2 SWAP1 PUSH2 0x1CE6 JUMP JUMPDEST PUSH1 0x40 MLOAD DUP1 SWAP2 SUB SWAP1 REVERT JUMPDEST PUSH2 0x1042 DUP4 DUP4 DUP4 PUSH2 0x1466 JUMP JUMPDEST POP POP POP JUMP JUMPDEST PUSH0 SWAP1 JUMP JUMPDEST PUSH0 PUSH20 0xFFFFFFFFFFFFFFFFFFFFFFFFFFFFFFFFFFFFFFFF AND DUP3 PUSH20 0xFFFFFFFFFFFFFFFFFFFFFFFFFFFFFFFFFFFFFFFF AND SUB PUSH2 0x10BB JUMPI PUSH0 PUSH1 0x40 MLOAD PUSH32 0xEC442F0500000000000000000000000000000000000000000000000000000000 DUP2 MSTORE PUSH1 0x4 ADD PUSH2 0x10B2 SWAP2 SWAP1 PUSH2 0x1CE6 JUMP JUMPDEST PUSH1 0x40 MLOAD DUP1 SWAP2 SUB SWAP1 REVERT JUMPDEST PUSH2 0x10C6 PUSH0 DUP4 DUP4 PUSH2 0x1466 JUMP JUMPDEST POP POP JUMP JUMPDEST PUSH0 PUSH20 0xFFFFFFFFFFFFFFFFFFFFFFFFFFFFFFFFFFFFFFFF AND DUP3 PUSH20 0xFFFFFFFFFFFFFFFFFFFFFFFFFFFFFFFFFFFFFFFF AND SUB PUSH2 0x113A JUMPI PUSH0 PUSH1 0x40 MLOAD PUSH32 0x96C6FD1E00000000000000000000000000000000000000000000000000000000 DUP2 MSTORE PUSH1 0x4 ADD PUSH2 0x1131 SWAP2 SWAP1 PUSH2 0x1CE6 JUMP JUMPDEST PUSH1 0x40 MLOAD DUP1 SWAP2 SUB SWAP1 REVERT JUMPDEST PUSH2 0x1145 DUP3 PUSH0 DUP4 PUSH2 0x1466 JUMP JUMPDEST POP POP JUMP JUMPDEST DUP3 PUSH20 0xFFFFFFFFFFFFFFFFFFFFFFFFFFFFFFFFFFFFFFFF AND DUP6 PUSH20 0xFFFFFFFFFFFFFFFFFFFFFFFFFFFFFFFFFFFFFFFF AND EQ PUSH2 0x1188 JUMPI PUSH2 0x1187 DUP4 DUP7 DUP4 PUSH2 0xEC5 JUMP JUMPDEST JUMPDEST PUSH2 0x1192 DUP4 DUP3 PUSH2 0x10CA JUMP JUMPDEST PUSH2 0x11BD PUSH32 0x0 DUP6 DUP5 PUSH2 0x167F JUMP JUMPDEST DUP3 PUSH20 0xFFFFFFFFFFFFFFFFFFFFFFFFFFFFFFFFFFFFFFFF AND DUP5 PUSH20 0xFFFFFFFFFFFFFFFFFFFFFFFFFFFFFFFFFFFFFFFF AND DUP7 PUSH20 0xFFFFFFFFFFFFFFFFFFFFFFFFFFFFFFFFFFFFFFFF AND PUSH32 0xFBDE797D201C681B91056529119E0B02407C7BB96A4A2C75C01FC9667232C8DB DUP6 DUP6 PUSH1 0x40 MLOAD PUSH2 0x1233 SWAP3 SWAP2 SWAP1 PUSH2 0x224B JUMP JUMPDEST PUSH1 0x40 MLOAD DUP1 SWAP2 SUB SWAP1 LOG4 POP POP POP POP POP JUMP JUMPDEST PUSH0 DUP1 PUSH2 0x124F DUP7 DUP7 DUP7 PUSH2 0x16FE JUMP JUMPDEST SWAP1 POP PUSH2 0x125A DUP4 PUSH2 0x17FD JUMP JUMPDEST DUP1 ISZERO PUSH2 0x1276 JUMPI POP PUSH0 DUP5 DUP1 PUSH2 0x1271 JUMPI PUSH2 0x1270 PUSH2 0x2272 JUMP JUMPDEST JUMPDEST DUP7 DUP9 MULMOD GT JUMPDEST ISZERO PUSH2 0x128B JUMPI PUSH1 0x1 DUP2 PUSH2 0x1288 SWAP2 SWAP1 PUSH2 0x206C JUMP JUMPDEST SWAP1 POP JUMPDEST DUP1 SWAP2 POP POP SWAP5 SWAP4 POP POP POP POP JUMP JUMPDEST PUSH0 PUSH20 0xFFFFFFFFFFFFFFFFFFFFFFFFFFFFFFFFFFFFFFFF AND DUP5 PUSH20 0xFFFFFFFFFFFFFFFFFFFFFFFFFFFFFFFFFFFFFFFF AND SUB PUSH2 0x1307 JUMPI PUSH0 PUSH1 0x40 MLOAD PUSH32 0xE602DF0500000000000000000000000000000000000000000000000000000000 DUP2 MSTORE PUSH1 0x4 ADD PUSH2 0x12FE SWAP2 SWAP1 PUSH2 0x1CE6 JUMP JUMPDEST PUSH1 0x40 MLOAD DUP1 SWAP2 SUB SWAP1 REVERT JUMPDEST PUSH0 PUSH20 0xFFFFFFFFFFFFFFFFFFFFFFFFFFFFFFFFFFFFFFFF AND DUP4 PUSH20 0xFFFFFFFFFFFFFFFFFFFFFFFFFFFFFFFFFFFFFFFF AND SUB PUSH2 0x1377 JUMPI PUSH0 PUSH1 0x40 MLOAD PUSH32 0x94280D6200000000000000000000000000000000000000000000000000000000 DUP2 MSTORE PUSH1 0x4 ADD PUSH2 0x136E SWAP2 SWAP1 PUSH2 0x1CE6 JUMP JUMPDEST PUSH1 0x40 MLOAD DUP1 SWAP2 SUB SWAP1 REVERT JUMPDEST DUP2 PUSH1 0x1 PUSH0 DUP7 PUSH20 0xFFFFFFFFFFFFFFFFFFFFFFFFFFFFFFFFFFFFFFFF AND PUSH20 0xFFFFFFFFFFFFFFFFFFFFFFFFFFFFFFFFFFFFFFFF AND DUP2 MSTORE PUSH1 0x20 ADD SWAP1 DUP2 MSTORE PUSH1 0x20 ADD PUSH0 KECCAK256 PUSH0 DUP6 PUSH20 0xFFFFFFFFFFFFFFFFFFFFFFFFFFFFFFFFFFFFFFFF AND PUSH20 0xFFFFFFFFFFFFFFFFFFFFFFFFFFFFFFFFFFFFFFFF AND DUP2 MSTORE PUSH1 0x20 ADD SWAP1 DUP2 MSTORE PUSH1 0x20 ADD PUSH0 KECCAK256 DUP2 SWAP1 SSTORE POP DUP1 ISZERO PUSH2 0x1460 JUMPI DUP3 PUSH20 0xFFFFFFFFFFFFFFFFFFFFFFFFFFFFFFFFFFFFFFFF AND DUP5 PUSH20 0xFFFFFFFFFFFFFFFFFFFFFFFFFFFFFFFFFFFFFFFF AND PUSH32 0x8C5BE1E5EBEC7D5BD14F71427D1E84F3DD0314C0F7B2291E5B200AC8C7C3B925 DUP5 PUSH1 0x40 MLOAD PUSH2 0x1457 SWAP2 SWAP1 PUSH2 0x1A86 JUMP JUMPDEST PUSH1 0x40 MLOAD DUP1 SWAP2 SUB SWAP1 LOG3 JUMPDEST POP POP POP POP JUMP JUMPDEST PUSH0 PUSH20 0xFFFFFFFFFFFFFFFFFFFFFFFFFFFFFFFFFFFFFFFF AND DUP4 PUSH20 0xFFFFFFFFFFFFFFFFFFFFFFFFFFFFFFFFFFFFFFFF AND SUB PUSH2 0x14B6 JUMPI DUP1 PUSH1 0x2 PUSH0 DUP3 DUP3 SLOAD PUSH2 0x14AA SWAP2 SWAP1 PUSH2 0x206C JUMP JUMPDEST SWAP3 POP POP DUP2 SWAP1 SSTORE POP PUSH2 0x1584 JUMP JUMPDEST PUSH0 DUP1 PUSH0 DUP6 PUSH20 0xFFFFFFFFFFFFFFFFFFFFFFFFFFFFFFFFFFFFFFFF AND PUSH20 0xFFFFFFFFFFFFFFFFFFFFFFFFFFFFFFFFFFFFFFFF AND DUP2 MSTORE PUSH1 0x20 ADD SWAP1 DUP2 MSTORE PUSH1 0x20 ADD PUSH0 KECCAK256 SLOAD SWAP1 POP DUP2 DUP2 LT ISZERO PUSH2 0x153F JUMPI DUP4 DUP2 DUP4 PUSH1 0x40 MLOAD PUSH32 0xE450D38C00000000000000000000000000000000000000000000000000000000 DUP2 MSTORE PUSH1 0x4 ADD PUSH2 0x1536 SWAP4 SWAP3 SWAP2 SWAP1 PUSH2 0x2037 JUMP JUMPDEST PUSH1 0x40 MLOAD DUP1 SWAP2 SUB SWAP1 REVERT JUMPDEST DUP2 DUP2 SUB PUSH0 DUP1 DUP7 PUSH20 0xFFFFFFFFFFFFFFFFFFFFFFFFFFFFFFFFFFFFFFFF AND PUSH20 0xFFFFFFFFFFFFFFFFFFFFFFFFFFFFFFFFFFFFFFFF AND DUP2 MSTORE PUSH1 0x20 ADD SWAP1 DUP2 MSTORE PUSH1 0x20 ADD PUSH0 KECCAK256 DUP2 SWAP1 SSTORE POP POP JUMPDEST PUSH0 PUSH20 0xFFFFFFFFFFFFFFFFFFFFFFFFFFFFFFFFFFFFFFFF AND DUP3 PUSH20 0xFFFFFFFFFFFFFFFFFFFFFFFFFFFFFFFFFFFFFFFF AND SUB PUSH2 0x15CB JUMPI DUP1 PUSH1 0x2 PUSH0 DUP3 DUP3 SLOAD SUB SWAP3 POP POP DUP2 SWAP1 SSTORE POP PUSH2 0x1615 JUMP JUMPDEST DUP1 PUSH0 DUP1 DUP5 PUSH20 0xFFFFFFFFFFFFFFFFFFFFFFFFFFFFFFFFFFFFFFFF AND PUSH20 0xFFFFFFFFFFFFFFFFFFFFFFFFFFFFFFFFFFFFFFFF AND DUP2 MSTORE PUSH1 0x20 ADD SWAP1 DUP2 MSTORE PUSH1 0x20 ADD PUSH0 KECCAK256 PUSH0 DUP3 DUP3 SLOAD ADD SWAP3 POP POP DUP2 SWAP1 SSTORE POP JUMPDEST DUP2 PUSH20 0xFFFFFFFFFFFFFFFFFFFFFFFFFFFFFFFFFFFFFFFF AND DUP4 PUSH20 0xFFFFFFFFFFFFFFFFFFFFFFFFFFFFFFFFFFFFFFFF AND PUSH32 0xDDF252AD1BE2C89B69C2B068FC378DAA952BA7F163C4A11628F55A4DF523B3EF DUP4 PUSH1 0x40 MLOAD PUSH2 0x1672 SWAP2 SWAP1 PUSH2 0x1A86 JUMP JUMPDEST PUSH1 0x40 MLOAD DUP1 SWAP2 SUB SWAP1 LOG3 POP POP POP JUMP JUMPDEST PUSH2 0x16F9 DUP4 DUP5 PUSH20 0xFFFFFFFFFFFFFFFFFFFFFFFFFFFFFFFFFFFFFFFF AND PUSH4 0xA9059CBB DUP6 DUP6 PUSH1 0x40 MLOAD PUSH1 0x24 ADD PUSH2 0x16B2 SWAP3 SWAP2 SWAP1 PUSH2 0x229F JUMP JUMPDEST PUSH1 0x40 MLOAD PUSH1 0x20 DUP2 DUP4 SUB SUB DUP2 MSTORE SWAP1 PUSH1 0x40 MSTORE SWAP2 POP PUSH1 0xE0 SHL PUSH1 0x20 DUP3 ADD DUP1 MLOAD PUSH28 0xFFFFFFFFFFFFFFFFFFFFFFFFFFFFFFFFFFFFFFFFFFFFFFFFFFFFFFFF DUP4 DUP2 DUP4 AND OR DUP4 MSTORE POP POP POP POP PUSH2 0x182A JUMP JUMPDEST POP POP POP JUMP JUMPDEST PUSH0 DUP1 DUP4 DUP6 MUL SWAP1 POP PUSH0 DUP1 NOT DUP6 DUP8 MULMOD DUP3 DUP2 LT DUP4 DUP3 SUB SUB SWAP2 POP POP PUSH0 DUP2 SUB PUSH2 0x1736 JUMPI DUP4 DUP3 DUP2 PUSH2 0x172C JUMPI PUSH2 0x172B PUSH2 0x2272 JUMP JUMPDEST JUMPDEST DIV SWAP3 POP POP POP PUSH2 0x17F6 JUMP JUMPDEST DUP1 DUP5 GT PUSH2 0x176F JUMPI PUSH1 0x40 MLOAD PUSH32 0x227BC15300000000000000000000000000000000000000000000000000000000 DUP2 MSTORE PUSH1 0x4 ADD PUSH1 0x40 MLOAD DUP1 SWAP2 SUB SWAP1 REVERT JUMPDEST PUSH0 DUP5 DUP7 DUP9 MULMOD SWAP1 POP DUP3 DUP2 GT DUP3 SUB SWAP2 POP DUP1 DUP4 SUB SWAP3 POP PUSH0 DUP6 PUSH0 SUB DUP7 AND SWAP1 POP DUP1 DUP7 DIV SWAP6 POP DUP1 DUP5 DIV SWAP4 POP PUSH1 0x1 DUP2 DUP3 PUSH0 SUB DIV ADD SWAP1 POP DUP1 DUP4 MUL DUP5 OR SWAP4 POP PUSH0 PUSH1 0x2 DUP8 PUSH1 0x3 MUL XOR SWAP1 POP DUP1 DUP8 MUL PUSH1 0x2 SUB DUP2 MUL SWAP1 POP DUP1 DUP8 MUL PUSH1 0x2 SUB DUP2 MUL SWAP1 POP DUP1 DUP8 MUL PUSH1 0x2 SUB DUP2 MUL SWAP1 POP DUP1 DUP8 MUL PUSH1 0x2 SUB DUP2 MUL SWAP1 POP DUP1 DUP8 MUL PUSH1 0x2 SUB DUP2 MUL SWAP1 POP DUP1 DUP8 MUL PUSH1 0x2 SUB DUP2 MUL SWAP1 POP DUP1 DUP6 MUL SWAP6 POP POP POP POP POP POP JUMPDEST SWAP4 SWAP3 POP POP POP JUMP JUMPDEST PUSH0 PUSH1 0x1 PUSH1 0x2 DUP4 PUSH1 0x3 DUP2 GT ISZERO PUSH2 0x1815 JUMPI PUSH2 0x1814 PUSH2 0x22C6 JUMP JUMPDEST JUMPDEST PUSH2 0x181F SWAP2 SWAP1 PUSH2 0x22F3 JUMP JUMPDEST PUSH1 0xFF AND EQ SWAP1 POP SWAP2 SWAP1 POP JUMP JUMPDEST PUSH0 PUSH2 0x1854 DUP3 DUP5 PUSH20 0xFFFFFFFFFFFFFFFFFFFFFFFFFFFFFFFFFFFFFFFF AND PUSH2 0x18BF SWAP1 SWAP2 SWAP1 PUSH4 0xFFFFFFFF AND JUMP JUMPDEST SWAP1 POP PUSH0 DUP2 MLOAD EQ ISZERO DUP1 ISZERO PUSH2 0x1878 JUMPI POP DUP1 DUP1 PUSH1 0x20 ADD SWAP1 MLOAD DUP2 ADD SWAP1 PUSH2 0x1876 SWAP2 SWAP1 PUSH2 0x234D JUMP JUMPDEST ISZERO JUMPDEST ISZERO PUSH2 0x18BA JUMPI DUP3 PUSH1 0x40 MLOAD PUSH32 0x5274AFE700000000000000000000000000000000000000000000000000000000 DUP2 MSTORE PUSH1 0x4 ADD PUSH2 0x18B1 SWAP2 SWAP1 PUSH2 0x1CE6 JUMP JUMPDEST PUSH1 0x40 MLOAD DUP1 SWAP2 SUB SWAP1 REVERT JUMPDEST POP POP POP JUMP JUMPDEST PUSH1 0x60 PUSH2 0x18CC DUP4 DUP4 PUSH0 PUSH2 0x18D4 JUMP JUMPDEST SWAP1 POP SWAP3 SWAP2 POP POP JUMP JUMPDEST PUSH1 0x60 DUP2 SELFBALANCE LT ISZERO PUSH2 0x191B JUMPI ADDRESS PUSH1 0x40 MLOAD PUSH32 0xCD78605900000000000000000000000000000000000000000000000000000000 DUP2 MSTORE PUSH1 0x4 ADD PUSH2 0x1912 SWAP2 SWAP1 PUSH2 0x1CE6 JUMP JUMPDEST PUSH1 0x40 MLOAD DUP1 SWAP2 SUB SWAP1 REVERT JUMPDEST PUSH0 DUP1 DUP6 PUSH20 0xFFFFFFFFFFFFFFFFFFFFFFFFFFFFFFFFFFFFFFFF AND DUP5 DUP7 PUSH1 0x40 MLOAD PUSH2 0x1943 SWAP2 SWAP1 PUSH2 0x23BC JUMP JUMPDEST PUSH0 PUSH1 0x40 MLOAD DUP1 DUP4 SUB DUP2 DUP6 DUP8 GAS CALL SWAP3 POP POP POP RETURNDATASIZE DUP1 PUSH0 DUP2 EQ PUSH2 0x197D JUMPI PUSH1 0x40 MLOAD SWAP2 POP PUSH1 0x1F NOT PUSH1 0x3F RETURNDATASIZE ADD AND DUP3 ADD PUSH1 0x40 MSTORE RETURNDATASIZE DUP3 MSTORE RETURNDATASIZE PUSH0 PUSH1 0x20 DUP5 ADD RETURNDATACOPY PUSH2 0x1982 JUMP JUMPDEST PUSH1 0x60 SWAP2 POP JUMPDEST POP SWAP2 POP SWAP2 POP PUSH2 0x1992 DUP7 DUP4 DUP4 PUSH2 0x199D JUMP JUMPDEST SWAP3 POP POP POP SWAP4 SWAP3 POP POP POP JUMP JUMPDEST PUSH1 0x60 DUP3 PUSH2 0x19B2 JUMPI PUSH2 0x19AD DUP3 PUSH2 0x1A2A JUMP JUMPDEST PUSH2 0x1A22 JUMP JUMPDEST PUSH0 DUP3 MLOAD EQ DUP1 ISZERO PUSH2 0x19D8 JUMPI POP PUSH0 DUP5 PUSH20 0xFFFFFFFFFFFFFFFFFFFFFFFFFFFFFFFFFFFFFFFF AND EXTCODESIZE EQ JUMPDEST ISZERO PUSH2 0x1A1A JUMPI DUP4 PUSH1 0x40 MLOAD PUSH32 0x9996B31500000000000000000000000000000000000000000000000000000000 DUP2 MSTORE PUSH1 0x4 ADD PUSH2 0x1A11 SWAP2 SWAP1 PUSH2 0x1CE6 JUMP JUMPDEST PUSH1 0x40 MLOAD DUP1 SWAP2 SUB SWAP1 REVERT JUMPDEST DUP2 SWAP1 POP PUSH2 0x1A23 JUMP JUMPDEST JUMPDEST SWAP4 SWAP3 POP POP POP JUMP JUMPDEST PUSH0 DUP2 MLOAD GT ISZERO PUSH2 0x1A3C JUMPI DUP1 MLOAD DUP1 DUP3 PUSH1 0x20 ADD REVERT JUMPDEST PUSH1 0x40 MLOAD PUSH32 0x1425EA4200000000000000000000000000000000000000000000000000000000 DUP2 MSTORE PUSH1 0x4 ADD PUSH1 0x40 MLOAD DUP1 SWAP2 SUB SWAP1 REVERT JUMPDEST PUSH0 DUP2 SWAP1 POP SWAP2 SWAP1 POP JUMP JUMPDEST PUSH2 0x1A80 DUP2 PUSH2 0x1A6E JUMP JUMPDEST DUP3 MSTORE POP POP JUMP JUMPDEST PUSH0 PUSH1 0x20 DUP3 ADD SWAP1 POP PUSH2 0x1A99 PUSH0 DUP4 ADD DUP5 PUSH2 0x1A77 JUMP JUMPDEST SWAP3 SWAP2 POP POP JUMP JUMPDEST PUSH0 DUP2 MLOAD SWAP1 POP SWAP2 SWAP1 POP JUMP JUMPDEST PUSH0 DUP3 DUP3 MSTORE PUSH1 0x20 DUP3 ADD SWAP1 POP SWAP3 SWAP2 POP POP JUMP JUMPDEST DUP3 DUP2 DUP4 MCOPY PUSH0 DUP4 DUP4 ADD MSTORE POP POP POP JUMP JUMPDEST PUSH0 PUSH1 0x1F NOT PUSH1 0x1F DUP4 ADD AND SWAP1 POP SWAP2 SWAP1 POP JUMP JUMPDEST PUSH0 PUSH2 0x1AE1 DUP3 PUSH2 0x1A9F JUMP JUMPDEST PUSH2 0x1AEB DUP2 DUP6 PUSH2 0x1AA9 JUMP JUMPDEST SWAP4 POP PUSH2 0x1AFB DUP2 DUP6 PUSH1 0x20 DUP7 ADD PUSH2 0x1AB9 JUMP JUMPDEST PUSH2 0x1B04 DUP2 PUSH2 0x1AC7 JUMP JUMPDEST DUP5 ADD SWAP2 POP POP SWAP3 SWAP2 POP POP JUMP JUMPDEST PUSH0 PUSH1 0x20 DUP3 ADD SWAP1 POP DUP2 DUP2 SUB PUSH0 DUP4 ADD MSTORE PUSH2 0x1B27 DUP2 DUP5 PUSH2 0x1AD7 JUMP JUMPDEST SWAP1 POP SWAP3 SWAP2 POP POP JUMP JUMPDEST PUSH0 DUP1 REVERT JUMPDEST PUSH2 0x1B3C DUP2 PUSH2 0x1A6E JUMP JUMPDEST DUP2 EQ PUSH2 0x1B46 JUMPI PUSH0 DUP1 REVERT JUMPDEST POP JUMP JUMPDEST PUSH0 DUP2 CALLDATALOAD SWAP1 POP PUSH2 0x1B57 DUP2 PUSH2 0x1B33 JUMP JUMPDEST SWAP3 SWAP2 POP POP JUMP JUMPDEST PUSH0 PUSH1 0x20 DUP3 DUP5 SUB SLT ISZERO PUSH2 0x1B72 JUMPI PUSH2 0x1B71 PUSH2 0x1B2F JUMP JUMPDEST JUMPDEST PUSH0 PUSH2 0x1B7F DUP5 DUP3 DUP6 ADD PUSH2 0x1B49 JUMP JUMPDEST SWAP2 POP POP SWAP3 SWAP2 POP POP JUMP JUMPDEST PUSH0 PUSH20 0xFFFFFFFFFFFFFFFFFFFFFFFFFFFFFFFFFFFFFFFF DUP3 AND SWAP1 POP SWAP2 SWAP1 POP JUMP JUMPDEST PUSH0 PUSH2 0x1BB1 DUP3 PUSH2 0x1B88 JUMP JUMPDEST SWAP1 POP SWAP2 SWAP1 POP JUMP JUMPDEST PUSH2 0x1BC1 DUP2 PUSH2 0x1BA7 JUMP JUMPDEST DUP2 EQ PUSH2 0x1BCB JUMPI PUSH0 DUP1 REVERT JUMPDEST POP JUMP JUMPDEST PUSH0 DUP2 CALLDATALOAD SWAP1 POP PUSH2 0x1BDC DUP2 PUSH2 0x1BB8 JUMP JUMPDEST SWAP3 SWAP2 POP POP JUMP JUMPDEST PUSH0 DUP1 PUSH1 0x40 DUP4 DUP6 SUB SLT ISZERO PUSH2 0x1BF8 JUMPI PUSH2 0x1BF7 PUSH2 0x1B2F JUMP JUMPDEST JUMPDEST PUSH0 PUSH2 0x1C05 DUP6 DUP3 DUP7 ADD PUSH2 0x1BCE JUMP JUMPDEST SWAP3 POP POP PUSH1 0x20 PUSH2 0x1C16 DUP6 DUP3 DUP7 ADD PUSH2 0x1B49 JUMP JUMPDEST SWAP2 POP POP SWAP3 POP SWAP3 SWAP1 POP JUMP JUMPDEST PUSH0 DUP2 ISZERO ISZERO SWAP1 POP SWAP2 SWAP1 POP JUMP JUMPDEST PUSH2 0x1C34 DUP2 PUSH2 0x1C20 JUMP JUMPDEST DUP3 MSTORE POP POP JUMP JUMPDEST PUSH0 PUSH1 0x20 DUP3 ADD SWAP1 POP PUSH2 0x1C4D PUSH0 DUP4 ADD DUP5 PUSH2 0x1C2B JUMP JUMPDEST SWAP3 SWAP2 POP POP JUMP JUMPDEST PUSH0 DUP1 PUSH0 PUSH1 0x60 DUP5 DUP7 SUB SLT ISZERO PUSH2 0x1C6A JUMPI PUSH2 0x1C69 PUSH2 0x1B2F JUMP JUMPDEST JUMPDEST PUSH0 PUSH2 0x1C77 DUP7 DUP3 DUP8 ADD PUSH2 0x1BCE JUMP JUMPDEST SWAP4 POP POP PUSH1 0x20 PUSH2 0x1C88 DUP7 DUP3 DUP8 ADD PUSH2 0x1BCE JUMP JUMPDEST SWAP3 POP POP PUSH1 0x40 PUSH2 0x1C99 DUP7 DUP3 DUP8 ADD PUSH2 0x1B49 JUMP JUMPDEST SWAP2 POP POP SWAP3 POP SWAP3 POP SWAP3 JUMP JUMPDEST PUSH0 PUSH1 0xFF DUP3 AND SWAP1 POP SWAP2 SWAP1 POP JUMP JUMPDEST PUSH2 0x1CB8 DUP2 PUSH2 0x1CA3 JUMP JUMPDEST DUP3 MSTORE POP POP JUMP JUMPDEST PUSH0 PUSH1 0x20 DUP3 ADD SWAP1 POP PUSH2 0x1CD1 PUSH0 DUP4 ADD DUP5 PUSH2 0x1CAF JUMP JUMPDEST SWAP3 SWAP2 POP POP JUMP JUMPDEST PUSH2 0x1CE0 DUP2 PUSH2 0x1BA7 JUMP JUMPDEST DUP3 MSTORE POP POP JUMP JUMPDEST PUSH0 PUSH1 0x20 DUP3 ADD SWAP1 POP PUSH2 0x1CF9 PUSH0 DUP4 ADD DUP5 PUSH2 0x1CD7 JUMP JUMPDEST SWAP3 SWAP2 POP POP JUMP JUMPDEST PUSH0 PUSH1 0x20 DUP3 DUP5 SUB SLT ISZERO PUSH2 0x1D14 JUMPI PUSH2 0x1D13 PUSH2 0x1B2F JUMP JUMPDEST JUMPDEST PUSH0 PUSH2 0x1D21 DUP5 DUP3 DUP6 ADD PUSH2 0x1BCE JUMP JUMPDEST SWAP2 POP POP SWAP3 SWAP2 POP POP JUMP JUMPDEST PUSH0 DUP1 PUSH1 0x40 DUP4 DUP6 SUB SLT ISZERO PUSH2 0x1D40 JUMPI PUSH2 0x1D3F PUSH2 0x1B2F JUMP JUMPDEST JUMPDEST PUSH0 PUSH2 0x1D4D DUP6 DUP3 DUP7 ADD PUSH2 0x1B49 JUMP JUMPDEST SWAP3 POP POP PUSH1 0x20 PUSH2 0x1D5E DUP6 DUP3 DUP7 ADD PUSH2 0x1BCE JUMP JUMPDEST SWAP2 POP POP SWAP3 POP SWAP3 SWAP1 POP JUMP JUMPDEST PUSH0 DUP2 SWAP1 POP SWAP2 SWAP1 POP JUMP JUMPDEST PUSH0 PUSH2 0x1D8B PUSH2 0x1D86 PUSH2 0x1D81 DUP5 PUSH2 0x1B88 JUMP JUMPDEST PUSH2 0x1D68 JUMP JUMPDEST PUSH2 0x1B88 JUMP JUMPDEST SWAP1 POP SWAP2 SWAP1 POP JUMP JUMPDEST PUSH0 PUSH2 0x1D9C DUP3 PUSH2 0x1D71 JUMP JUMPDEST SWAP1 POP SWAP2 SWAP1 POP JUMP JUMPDEST PUSH0 PUSH2 0x1DAD DUP3 PUSH2 0x1D92 JUMP JUMPDEST SWAP1 POP SWAP2 SWAP1 POP JUMP JUMPDEST PUSH2 0x1DBD DUP2 PUSH2 0x1DA3 JUMP JUMPDEST DUP3 MSTORE POP POP JUMP JUMPDEST PUSH0 PUSH1 0x20 DUP3 ADD SWAP1 POP PUSH2 0x1DD6 PUSH0 DUP4 ADD DUP5 PUSH2 0x1DB4 JUMP JUMPDEST SWAP3 SWAP2 POP POP JUMP JUMPDEST PUSH0 DUP1 PUSH0 PUSH1 0x60 DUP5 DUP7 SUB SLT ISZERO PUSH2 0x1DF3 JUMPI PUSH2 0x1DF2 PUSH2 0x1B2F JUMP JUMPDEST JUMPDEST PUSH0 PUSH2 0x1E00 DUP7 DUP3 DUP8 ADD PUSH2 0x1B49 JUMP JUMPDEST SWAP4 POP POP PUSH1 0x20 PUSH2 0x1E11 DUP7 DUP3 DUP8 ADD PUSH2 0x1BCE JUMP JUMPDEST SWAP3 POP POP PUSH1 0x40 PUSH2 0x1E22 DUP7 DUP3 DUP8 ADD PUSH2 0x1BCE JUMP JUMPDEST SWAP2 POP POP SWAP3 POP SWAP3 POP SWAP3 JUMP JUMPDEST PUSH0 DUP1 PUSH1 0x40 DUP4 DUP6 SUB SLT ISZERO PUSH2 0x1E42 JUMPI PUSH2 0x1E41 PUSH2 0x1B2F JUMP JUMPDEST JUMPDEST PUSH0 PUSH2 0x1E4F DUP6 DUP3 DUP7 ADD PUSH2 0x1BCE JUMP JUMPDEST SWAP3 POP POP PUSH1 0x20 PUSH2 0x1E60 DUP6 DUP3 DUP7 ADD PUSH2 0x1BCE JUMP JUMPDEST SWAP2 POP POP SWAP3 POP SWAP3 SWAP1 POP JUMP JUMPDEST PUSH0 DUP2 MLOAD SWAP1 POP PUSH2 0x1E78 DUP2 PUSH2 0x1B33 JUMP JUMPDEST SWAP3 SWAP2 POP POP JUMP JUMPDEST PUSH0 PUSH1 0x20 DUP3 DUP5 SUB SLT ISZERO PUSH2 0x1E93 JUMPI PUSH2 0x1E92 PUSH2 0x1B2F JUMP JUMPDEST JUMPDEST PUSH0 PUSH2 0x1EA0 DUP5 DUP3 DUP6 ADD PUSH2 0x1E6A JUMP JUMPDEST SWAP2 POP POP SWAP3 SWAP2 POP POP JUMP JUMPDEST PUSH32 0x4E487B7100000000000000000000000000000000000000000000000000000000 PUSH0 MSTORE PUSH1 0x22 PUSH1 0x4 MSTORE PUSH1 0x24 PUSH0 REVERT JUMPDEST PUSH0 PUSH1 0x2 DUP3 DIV SWAP1 POP PUSH1 0x1 DUP3 AND DUP1 PUSH2 0x1EED JUMPI PUSH1 0x7F DUP3 AND SWAP2 POP JUMPDEST PUSH1 0x20 DUP3 LT DUP2 SUB PUSH2 0x1F00 JUMPI PUSH2 0x1EFF PUSH2 0x1EA9 JUMP JUMPDEST JUMPDEST POP SWAP2 SWAP1 POP JUMP JUMPDEST PUSH32 0x4E487B7100000000000000000000000000000000000000000000000000000000 PUSH0 MSTORE PUSH1 0x11 PUSH1 0x4 MSTORE PUSH1 0x24 PUSH0 REVERT JUMPDEST PUSH0 PUSH2 0x1F3D DUP3 PUSH2 0x1CA3 JUMP JUMPDEST SWAP2 POP PUSH2 0x1F48 DUP4 PUSH2 0x1CA3 JUMP JUMPDEST SWAP3 POP DUP3 DUP3 ADD SWAP1 POP PUSH1 0xFF DUP2 GT ISZERO PUSH2 0x1F61 JUMPI PUSH2 0x1F60 PUSH2 0x1F06 JUMP JUMPDEST JUMPDEST SWAP3 SWAP2 POP POP JUMP JUMPDEST PUSH32 0x53656E646572206973204E6F74205661756C7473000000000000000000000000 PUSH0 DUP3 ADD MSTORE POP JUMP JUMPDEST PUSH0 PUSH2 0x1F9B PUSH1 0x14 DUP4 PUSH2 0x1AA9 JUMP JUMPDEST SWAP2 POP PUSH2 0x1FA6 DUP3 PUSH2 0x1F67 JUMP JUMPDEST PUSH1 0x20 DUP3 ADD SWAP1 POP SWAP2 SWAP1 POP JUMP JUMPDEST PUSH0 PUSH1 0x20 DUP3 ADD SWAP1 POP DUP2 DUP2 SUB PUSH0 DUP4 ADD MSTORE PUSH2 0x1FC8 DUP2 PUSH2 0x1F8F JUMP JUMPDEST SWAP1 POP SWAP2 SWAP1 POP JUMP JUMPDEST PUSH32 0x416D6F756E74206D7573742062652067726561746572207468616E2030000000 PUSH0 DUP3 ADD MSTORE POP JUMP JUMPDEST PUSH0 PUSH2 0x2003 PUSH1 0x1D DUP4 PUSH2 0x1AA9 JUMP JUMPDEST SWAP2 POP PUSH2 0x200E DUP3 PUSH2 0x1FCF JUMP JUMPDEST PUSH1 0x20 DUP3 ADD SWAP1 POP SWAP2 SWAP1 POP JUMP JUMPDEST PUSH0 PUSH1 0x20 DUP3 ADD SWAP1 POP DUP2 DUP2 SUB PUSH0 DUP4 ADD MSTORE PUSH2 0x2030 DUP2 PUSH2 0x1FF7 JUMP JUMPDEST SWAP1 POP SWAP2 SWAP1 POP JUMP JUMPDEST PUSH0 PUSH1 0x60 DUP3 ADD SWAP1 POP PUSH2 0x204A PUSH0 DUP4 ADD DUP7 PUSH2 0x1CD7 JUMP JUMPDEST PUSH2 0x2057 PUSH1 0x20 DUP4 ADD DUP6 PUSH2 0x1A77 JUMP JUMPDEST PUSH2 0x2064 PUSH1 0x40 DUP4 ADD DUP5 PUSH2 0x1A77 JUMP JUMPDEST SWAP5 SWAP4 POP POP POP POP JUMP JUMPDEST PUSH0 PUSH2 0x2076 DUP3 PUSH2 0x1A6E JUMP JUMPDEST SWAP2 POP PUSH2 0x2081 DUP4 PUSH2 0x1A6E JUMP JUMPDEST SWAP3 POP DUP3 DUP3 ADD SWAP1 POP DUP1 DUP3 GT ISZERO PUSH2 0x2099 JUMPI PUSH2 0x2098 PUSH2 0x1F06 JUMP JUMPDEST JUMPDEST SWAP3 SWAP2 POP POP JUMP JUMPDEST PUSH0 DUP2 PUSH1 0x1 SHR SWAP1 POP SWAP2 SWAP1 POP JUMP JUMPDEST PUSH0 DUP1 DUP3 SWAP2 POP DUP4 SWAP1 POP JUMPDEST PUSH1 0x1 DUP6 GT ISZERO PUSH2 0x20F4 JUMPI DUP1 DUP7 DIV DUP2 GT ISZERO PUSH2 0x20D0 JUMPI PUSH2 0x20CF PUSH2 0x1F06 JUMP JUMPDEST JUMPDEST PUSH1 0x1 DUP6 AND ISZERO PUSH2 0x20DF JUMPI DUP1 DUP3 MUL SWAP2 POP JUMPDEST DUP1 DUP2 MUL SWAP1 POP PUSH2 0x20ED DUP6 PUSH2 0x209F JUMP JUMPDEST SWAP5 POP PUSH2 0x20B4 JUMP JUMPDEST SWAP5 POP SWAP5 SWAP3 POP POP POP JUMP JUMPDEST PUSH0 DUP3 PUSH2 0x210C JUMPI PUSH1 0x1 SWAP1 POP PUSH2 0x21C7 JUMP JUMPDEST DUP2 PUSH2 0x2119 JUMPI PUSH0 SWAP1 POP PUSH2 0x21C7 JUMP JUMPDEST DUP2 PUSH1 0x1 DUP2 EQ PUSH2 0x212F JUMPI PUSH1 0x2 DUP2 EQ PUSH2 0x2139 JUMPI PUSH2 0x2168 JUMP JUMPDEST PUSH1 0x1 SWAP2 POP POP PUSH2 0x21C7 JUMP JUMPDEST PUSH1 0xFF DUP5 GT ISZERO PUSH2 0x214B JUMPI PUSH2 0x214A PUSH2 0x1F06 JUMP JUMPDEST JUMPDEST DUP4 PUSH1 0x2 EXP SWAP2 POP DUP5 DUP3 GT ISZERO PUSH2 0x2162 JUMPI PUSH2 0x2161 PUSH2 0x1F06 JUMP JUMPDEST JUMPDEST POP PUSH2 0x21C7 JUMP JUMPDEST POP PUSH1 0x20 DUP4 LT PUSH2 0x133 DUP4 LT AND PUSH1 0x4E DUP5 LT PUSH1 0xB DUP5 LT AND OR ISZERO PUSH2 0x219D JUMPI DUP3 DUP3 EXP SWAP1 POP DUP4 DUP2 GT ISZERO PUSH2 0x2198 JUMPI PUSH2 0x2197 PUSH2 0x1F06 JUMP JUMPDEST JUMPDEST PUSH2 0x21C7 JUMP JUMPDEST PUSH2 0x21AA DUP5 DUP5 DUP5 PUSH1 0x1 PUSH2 0x20AB JUMP JUMPDEST SWAP3 POP SWAP1 POP DUP2 DUP5 DIV DUP2 GT ISZERO PUSH2 0x21C1 JUMPI PUSH2 0x21C0 PUSH2 0x1F06 JUMP JUMPDEST JUMPDEST DUP2 DUP2 MUL SWAP1 POP JUMPDEST SWAP4 SWAP3 POP POP POP JUMP JUMPDEST PUSH0 PUSH2 0x21D8 DUP3 PUSH2 0x1A6E JUMP JUMPDEST SWAP2 POP PUSH2 0x21E3 DUP4 PUSH2 0x1CA3 JUMP JUMPDEST SWAP3 POP PUSH2 0x2210 PUSH32 0xFFFFFFFFFFFFFFFFFFFFFFFFFFFFFFFFFFFFFFFFFFFFFFFFFFFFFFFFFFFFFFFF DUP5 DUP5 PUSH2 0x20FD JUMP JUMPDEST SWAP1 POP SWAP3 SWAP2 POP POP JUMP JUMPDEST PUSH0 PUSH2 0x2222 DUP3 PUSH2 0x1A6E JUMP JUMPDEST SWAP2 POP PUSH2 0x222D DUP4 PUSH2 0x1A6E JUMP JUMPDEST SWAP3 POP DUP3 DUP3 SUB SWAP1 POP DUP2 DUP2 GT ISZERO PUSH2 0x2245 JUMPI PUSH2 0x2244 PUSH2 0x1F06 JUMP JUMPDEST JUMPDEST SWAP3 SWAP2 POP POP JUMP JUMPDEST PUSH0 PUSH1 0x40 DUP3 ADD SWAP1 POP PUSH2 0x225E PUSH0 DUP4 ADD DUP6 PUSH2 0x1A77 JUMP JUMPDEST PUSH2 0x226B PUSH1 0x20 DUP4 ADD DUP5 PUSH2 0x1A77 JUMP JUMPDEST SWAP4 SWAP3 POP POP POP JUMP JUMPDEST PUSH32 0x4E487B7100000000000000000000000000000000000000000000000000000000 PUSH0 MSTORE PUSH1 0x12 PUSH1 0x4 MSTORE PUSH1 0x24 PUSH0 REVERT JUMPDEST PUSH0 PUSH1 0x40 DUP3 ADD SWAP1 POP PUSH2 0x22B2 PUSH0 DUP4 ADD DUP6 PUSH2 0x1CD7 JUMP JUMPDEST PUSH2 0x22BF PUSH1 0x20 DUP4 ADD DUP5 PUSH2 0x1A77 JUMP JUMPDEST SWAP4 SWAP3 POP POP POP JUMP JUMPDEST PUSH32 0x4E487B7100000000000000000000000000000000000000000000000000000000 PUSH0 MSTORE PUSH1 0x21 PUSH1 0x4 MSTORE PUSH1 0x24 PUSH0 REVERT JUMPDEST PUSH0 PUSH2 0x22FD DUP3 PUSH2 0x1CA3 JUMP JUMPDEST SWAP2 POP PUSH2 0x2308 DUP4 PUSH2 0x1CA3 JUMP JUMPDEST SWAP3 POP DUP3 PUSH2 0x2318 JUMPI PUSH2 0x2317 PUSH2 0x2272 JUMP JUMPDEST JUMPDEST DUP3 DUP3 MOD SWAP1 POP SWAP3 SWAP2 POP POP JUMP JUMPDEST PUSH2 0x232C DUP2 PUSH2 0x1C20 JUMP JUMPDEST DUP2 EQ PUSH2 0x2336 JUMPI PUSH0 DUP1 REVERT JUMPDEST POP JUMP JUMPDEST PUSH0 DUP2 MLOAD SWAP1 POP PUSH2 0x2347 DUP2 PUSH2 0x2323 JUMP JUMPDEST SWAP3 SWAP2 POP POP JUMP JUMPDEST PUSH0 PUSH1 0x20 DUP3 DUP5 SUB SLT ISZERO PUSH2 0x2362 JUMPI PUSH2 0x2361 PUSH2 0x1B2F JUMP JUMPDEST JUMPDEST PUSH0 PUSH2 0x236F DUP5 DUP3 DUP6 ADD PUSH2 0x2339 JUMP JUMPDEST SWAP2 POP POP SWAP3 SWAP2 POP POP JUMP JUMPDEST PUSH0 DUP2 MLOAD SWAP1 POP SWAP2 SWAP1 POP JUMP JUMPDEST PUSH0 DUP2 SWAP1 POP SWAP3 SWAP2 POP POP JUMP JUMPDEST PUSH0 PUSH2 0x2396 DUP3 PUSH2 0x2378 JUMP JUMPDEST PUSH2 0x23A0 DUP2 DUP6 PUSH2 0x2382 JUMP JUMPDEST SWAP4 POP PUSH2 0x23B0 DUP2 DUP6 PUSH1 0x20 DUP7 ADD PUSH2 0x1AB9 JUMP JUMPDEST DUP1 DUP5 ADD SWAP2 POP POP SWAP3 SWAP2 POP POP JUMP JUMPDEST PUSH0 PUSH2 0x23C7 DUP3 DUP5 PUSH2 0x238C JUMP JUMPDEST SWAP2 POP DUP2 SWAP1 POP SWAP3 SWAP2 POP POP JUMP INVALID LOG2 PUSH5 0x6970667358 0x22 SLT KECCAK256 SUB PUSH4 0x4230A2AE SHL 0x2E DUP11 SAR 0xC9 NUMBER 0x25 0x23 0xAE TLOAD BASEFEE PUSH20 0x4F5090AC093502859B70F72CF95564736F6C6343 STOP ADDMOD NOT STOP CALLER "
				},
				"gasEstimates": {
					"creation": {
						"codeDepositCost": "1844800",
						"executionCost": "infinite",
						"totalCost": "infinite"
					},
					"external": {
						"allowance(address,address)": "infinite",
						"approve(address,uint256)": "infinite",
						"asset()": "infinite",
						"balanceOf(address)": "2940",
						"convertToAssets(uint256)": "infinite",
						"convertToShares(uint256)": "infinite",
						"decimals()": "infinite",
						"deposit(uint256,address)": "infinite",
						"maxDeposit(address)": "686",
						"maxMint(address)": "708",
						"maxRedeem(address)": "2937",
						"maxWithdraw(address)": "infinite",
						"mint(uint256,address)": "699",
						"name()": "infinite",
						"previewDeposit(uint256)": "infinite",
						"previewMint(uint256)": "infinite",
						"previewRedeem(uint256)": "infinite",
						"previewWithdraw(uint256)": "infinite",
						"redeem(uint256,address,address)": "infinite",
						"satoken()": "infinite",
						"symbol()": "infinite",
						"totalAssets()": "infinite",
						"totalSupply()": "2566",
						"transfer(address,uint256)": "infinite",
						"transferFrom(address,address,uint256)": "infinite",
						"withdraw(uint256,address,address)": "infinite"
					},
					"internal": {
						"_convertToShares(uint256,enum Math.Rounding)": "infinite"
					}
				},
				"methodIdentifiers": {
					"allowance(address,address)": "dd62ed3e",
					"approve(address,uint256)": "095ea7b3",
					"asset()": "38d52e0f",
					"balanceOf(address)": "70a08231",
					"convertToAssets(uint256)": "07a2d13a",
					"convertToShares(uint256)": "c6e6f592",
					"decimals()": "313ce567",
					"deposit(uint256,address)": "6e553f65",
					"maxDeposit(address)": "402d267d",
					"maxMint(address)": "c63d75b6",
					"maxRedeem(address)": "d905777e",
					"maxWithdraw(address)": "ce96cb77",
					"mint(uint256,address)": "94bf804d",
					"name()": "06fdde03",
					"previewDeposit(uint256)": "ef8b30f7",
					"previewMint(uint256)": "b3d7f6b9",
					"previewRedeem(uint256)": "4cdad506",
					"previewWithdraw(uint256)": "0a28a477",
					"redeem(uint256,address,address)": "ba087652",
					"satoken()": "866c99e2",
					"symbol()": "95d89b41",
					"totalAssets()": "01e1d114",
					"totalSupply()": "18160ddd",
					"transfer(address,uint256)": "a9059cbb",
					"transferFrom(address,address,uint256)": "23b872dd",
					"withdraw(uint256,address,address)": "b460af94"
				}
			},
			"storageLayout": {
				"storage": [
					{
						"astId": 477,
						"contract": "contracts/Pool.sol:Pool",
						"label": "_balances",
						"offset": 0,
						"slot": "0",
						"type": "t_mapping(t_address,t_uint256)"
					},
					{
						"astId": 483,
						"contract": "contracts/Pool.sol:Pool",
						"label": "_allowances",
						"offset": 0,
						"slot": "1",
						"type": "t_mapping(t_address,t_mapping(t_address,t_uint256))"
					},
					{
						"astId": 485,
						"contract": "contracts/Pool.sol:Pool",
						"label": "_totalSupply",
						"offset": 0,
						"slot": "2",
						"type": "t_uint256"
					},
					{
						"astId": 487,
						"contract": "contracts/Pool.sol:Pool",
						"label": "_name",
						"offset": 0,
						"slot": "3",
						"type": "t_string_storage"
					},
					{
						"astId": 489,
						"contract": "contracts/Pool.sol:Pool",
						"label": "_symbol",
						"offset": 0,
						"slot": "4",
						"type": "t_string_storage"
					},
					{
						"astId": 3431,
						"contract": "contracts/Pool.sol:Pool",
						"label": "satoken",
						"offset": 0,
						"slot": "5",
						"type": "t_contract(IERC20)1047"
					},
					{
						"astId": 3434,
						"contract": "contracts/Pool.sol:Pool",
						"label": "isDeposit",
						"offset": 20,
						"slot": "5",
						"type": "t_bool"
					}
				],
				"types": {
					"t_address": {
						"encoding": "inplace",
						"label": "address",
						"numberOfBytes": "20"
					},
					"t_bool": {
						"encoding": "inplace",
						"label": "bool",
						"numberOfBytes": "1"
					},
					"t_contract(IERC20)1047": {
						"encoding": "inplace",
						"label": "contract IERC20",
						"numberOfBytes": "20"
					},
					"t_mapping(t_address,t_mapping(t_address,t_uint256))": {
						"encoding": "mapping",
						"key": "t_address",
						"label": "mapping(address => mapping(address => uint256))",
						"numberOfBytes": "32",
						"value": "t_mapping(t_address,t_uint256)"
					},
					"t_mapping(t_address,t_uint256)": {
						"encoding": "mapping",
						"key": "t_address",
						"label": "mapping(address => uint256)",
						"numberOfBytes": "32",
						"value": "t_uint256"
					},
					"t_string_storage": {
						"encoding": "bytes",
						"label": "string",
						"numberOfBytes": "32"
					},
					"t_uint256": {
						"encoding": "inplace",
						"label": "uint256",
						"numberOfBytes": "32"
					}
				}
			},
			"userdoc": {
				"kind": "user",
				"methods": {},
				"version": 1
			}
		}
	}
}