{
	"data": {
		"bytecode": {
			"linkReferences": {},
			"object": "60c06040525f600560146101000a81548160ff021916908315150217905550348015610029575f80fd5b50604051612b16380380612b16833981810160405281019061004b91906102ee565b806040518060400160405280600e81526020017f522d7368617265642061555344430000000000000000000000000000000000008152506040518060400160405280600781526020017f727361555344430000000000000000000000000000000000000000000000000081525081600390816100c79190610553565b5080600490816100d79190610553565b5050505f806100eb8361018760201b60201c565b91509150816100fb5760126100fd565b805b60ff1660a08160ff16815250508273ffffffffffffffffffffffffffffffffffffffff1660808173ffffffffffffffffffffffffffffffffffffffff16815250505050508060055f6101000a81548173ffffffffffffffffffffffffffffffffffffffff021916908373ffffffffffffffffffffffffffffffffffffffff160217905550506106df565b5f805f808473ffffffffffffffffffffffffffffffffffffffff1660405160240160405160208183030381529060405263313ce56760e01b6020820180517bffffffffffffffffffffffffffffffffffffffffffffffffffffffff83818316178352505050506040516101fa9190610674565b5f60405180830381855afa9150503d805f8114610232576040519150601f19603f3d011682016040523d82523d5f602084013e610237565b606091505b509150915081801561024b57506020815110155b15610282575f8180602001905181019061026591906106b4565b905060ff80168111610280576001819450945050505061028b565b505b5f809350935050505b915091565b5f80fd5b5f73ffffffffffffffffffffffffffffffffffffffff82169050919050565b5f6102bd82610294565b9050919050565b6102cd816102b3565b81146102d7575f80fd5b50565b5f815190506102e8816102c4565b92915050565b5f6020828403121561030357610302610290565b5b5f610310848285016102da565b91505092915050565b5f81519050919050565b7f4e487b71000000000000000000000000000000000000000000000000000000005f52604160045260245ffd5b7f4e487b71000000000000000000000000000000000000000000000000000000005f52602260045260245ffd5b5f600282049050600182168061039457607f821691505b6020821081036103a7576103a6610350565b5b50919050565b5f819050815f5260205f209050919050565b5f6020601f8301049050919050565b5f82821b905092915050565b5f600883026104097fffffffffffffffffffffffffffffffffffffffffffffffffffffffffffffffff826103ce565b61041386836103ce565b95508019841693508086168417925050509392505050565b5f819050919050565b5f819050919050565b5f61045761045261044d8461042b565b610434565b61042b565b9050919050565b5f819050919050565b6104708361043d565b61048461047c8261045e565b8484546103da565b825550505050565b5f90565b61049861048c565b6104a3818484610467565b505050565b5b818110156104c6576104bb5f82610490565b6001810190506104a9565b5050565b601f82111561050b576104dc816103ad565b6104e5846103bf565b810160208510156104f4578190505b610508610500856103bf565b8301826104a8565b50505b505050565b5f82821c905092915050565b5f61052b5f1984600802610510565b1980831691505092915050565b5f610543838361051c565b9150826002028217905092915050565b61055c82610319565b67ffffffffffffffff81111561057557610574610323565b5b61057f825461037d565b61058a8282856104ca565b5f60209050601f8311600181146105bb575f84156105a9578287015190505b6105b38582610538565b86555061061a565b601f1984166105c9866103ad565b5f5b828110156105f0578489015182556001820191506020850194506020810190506105cb565b8683101561060d5784890151610609601f89168261051c565b8355505b6001600288020188555050505b505050505050565b5f81519050919050565b5f81905092915050565b8281835e5f83830152505050565b5f61064e82610622565b610658818561062c565b9350610668818560208601610636565b80840191505092915050565b5f61067f8284610644565b915081905092915050565b6106938161042b565b811461069d575f80fd5b50565b5f815190506106ae8161068a565b92915050565b5f602082840312156106c9576106c8610290565b5b5f6106d6848285016106a0565b91505092915050565b60805160a05161240861070e5f395f6107a901525f81816105f5015281816107da015261119701526124085ff3fe608060405234801561000f575f80fd5b506004361061018c575f3560e01c8063866c99e2116100dc578063ba08765211610095578063ce96cb771161006f578063ce96cb7714610532578063d905777e14610562578063dd62ed3e14610592578063ef8b30f7146105c25761018c565b8063ba087652146104a2578063c63d75b6146104d2578063c6e6f592146105025761018c565b8063866c99e2146103a657806394bf804d146103c457806395d89b41146103f4578063a9059cbb14610412578063b3d7f6b914610442578063b460af94146104725761018c565b806323b872dd11610149578063402d267d11610123578063402d267d146102e65780634cdad506146103165780636e553f651461034657806370a08231146103765761018c565b806323b872dd1461027a578063313ce567146102aa57806338d52e0f146102c85761018c565b806301e1d1141461019057806306fdde03146101ae57806307a2d13a146101cc578063095ea7b3146101fc5780630a28a4771461022c57806318160ddd1461025c575b5f80fd5b6101986105f2565b6040516101a59190611a86565b60405180910390f35b6101b6610690565b6040516101c39190611b0f565b60405180910390f35b6101e660048036038101906101e19190611b5d565b610720565b6040516101f39190611a86565b60405180910390f35b61021660048036038101906102119190611be2565b610732565b6040516102239190611c3a565b60405180910390f35b61024660048036038101906102419190611b5d565b610754565b6040516102539190611a86565b60405180910390f35b610264610767565b6040516102719190611a86565b60405180910390f35b610294600480360381019061028f9190611c53565b610770565b6040516102a19190611c3a565b60405180910390f35b6102b261079e565b6040516102bf9190611cbe565b60405180910390f35b6102d06107d7565b6040516102dd9190611ce6565b60405180910390f35b61030060048036038101906102fb9190611cff565b6107fe565b60405161030d9190611a86565b60405180910390f35b610330600480360381019061032b9190611b5d565b610827565b60405161033d9190611a86565b60405180910390f35b610360600480360381019061035b9190611d2a565b610839565b60405161036d9190611a86565b60405180910390f35b610390600480360381019061038b9190611cff565b6109b6565b60405161039d9190611a86565b60405180910390f35b6103ae6109fb565b6040516103bb9190611dc3565b60405180910390f35b6103de60048036038101906103d99190611d2a565b610a20565b6040516103eb9190611a86565b60405180910390f35b6103fc610a53565b6040516104099190611b0f565b60405180910390f35b61042c60048036038101906104279190611be2565b610ae3565b6040516104399190611c3a565b60405180910390f35b61045c60048036038101906104579190611b5d565b610b05565b6040516104699190611a86565b60405180910390f35b61048c60048036038101906104879190611ddc565b610b18565b6040516104999190611a86565b60405180910390f35b6104bc60048036038101906104b79190611ddc565b610c1f565b6040516104c99190611a86565b60405180910390f35b6104ec60048036038101906104e79190611cff565b610ca1565b6040516104f99190611a86565b60405180910390f35b61051c60048036038101906105179190611b5d565b610cca565b6040516105299190611a86565b60405180910390f35b61054c60048036038101906105479190611cff565b610cdc565b6040516105599190611a86565b60405180910390f35b61057c60048036038101906105779190611cff565b610cf6565b6040516105899190611a86565b60405180910390f35b6105ac60048036038101906105a79190611e2c565b610d07565b6040516105b99190611a86565b60405180910390f35b6105dc60048036038101906105d79190611b5d565b610d89565b6040516105e99190611a86565b60405180910390f35b5f7f000000000000000000000000000000000000000000000000000000000000000073ffffffffffffffffffffffffffffffffffffffff166370a08231306040518263ffffffff1660e01b815260040161064c9190611ce6565b602060405180830381865afa158015610667573d5f803e3d5ffd5b505050506040513d601f19601f8201168201806040525081019061068b9190611e7e565b905090565b60606003805461069f90611ed6565b80601f01602080910402602001604051908101604052809291908181526020018280546106cb90611ed6565b80156107165780601f106106ed57610100808354040283529160200191610716565b820191905f5260205f20905b8154815290600101906020018083116106f957829003601f168201915b5050505050905090565b5f61072b825f610d9b565b9050919050565b5f8061073c610df3565b9050610749818585610dfa565b600191505092915050565b5f610760826001610e0c565b9050919050565b5f600254905090565b5f8061077a610df3565b9050610787858285610ec5565b610792858585610f57565b60019150509392505050565b5f6107a7611047565b7f00000000000000000000000000000000000000000000000000000000000000006107d29190611f33565b905090565b5f7f0000000000000000000000000000000000000000000000000000000000000000905090565b5f7fffffffffffffffffffffffffffffffffffffffffffffffffffffffffffffffff9050919050565b5f610832825f610d9b565b9050919050565b5f3373ffffffffffffffffffffffffffffffffffffffff1660055f9054906101000a900473ffffffffffffffffffffffffffffffffffffffff1673ffffffffffffffffffffffffffffffffffffffff16146108c9576040517f08c379a00000000000000000000000000000000000000000000000000000000081526004016108c090611fb1565b60405180910390fd5b6001600560146101000a81548160ff0219169083151502179055505f8311610926576040517f08c379a000000000000000000000000000000000000000000000000000000000815260040161091d90612019565b60405180910390fd5b5f610930836107fe565b90508084111561097b578284826040517f79012fb200000000000000000000000000000000000000000000000000000000815260040161097293929190612037565b60405180910390fd5b5f61098585610d89565b9050610991848261104b565b5f600560146101000a81548160ff021916908315150217905550809250505092915050565b5f805f8373ffffffffffffffffffffffffffffffffffffffff1673ffffffffffffffffffffffffffffffffffffffff1681526020019081526020015f20549050919050565b60055f9054906101000a900473ffffffffffffffffffffffffffffffffffffffff1681565b5f6040517fa9a2322b00000000000000000000000000000000000000000000000000000000815260040160405180910390fd5b606060048054610a6290611ed6565b80601f0160208091040260200160405190810160405280929190818152602001828054610a8e90611ed6565b8015610ad95780601f10610ab057610100808354040283529160200191610ad9565b820191905f5260205f20905b815481529060010190602001808311610abc57829003601f168201915b5050505050905090565b5f80610aed610df3565b9050610afa818585610f57565b600191505092915050565b5f610b11826001610d9b565b9050919050565b5f3373ffffffffffffffffffffffffffffffffffffffff1660055f9054906101000a900473ffffffffffffffffffffffffffffffffffffffff1673ffffffffffffffffffffffffffffffffffffffff1614610ba8576040517f08c379a0000000000000000000000000000000000000000000000000000000008152600401610b9f90611fb1565b60405180910390fd5b5f610bb283610cdc565b905080851115610bfd578285826040517ffe9cceec000000000000000000000000000000000000000000000000000000008152600401610bf493929190612037565b60405180910390fd5b5f610c0786610754565b9050610c1384826110ca565b81925050509392505050565b5f80610c2a83610cf6565b905080851115610c75578285826040517fb94abeec000000000000000000000000000000000000000000000000000000008152600401610c6c93929190612037565b60405180910390fd5b5f610c7f86610827565b9050610c95610c8c610df3565b8686848a611149565b80925050509392505050565b5f7fffffffffffffffffffffffffffffffffffffffffffffffffffffffffffffffff9050919050565b5f610cd5825f610e0c565b9050919050565b5f610cef610ce9836109b6565b5f610d9b565b9050919050565b5f610d00826109b6565b9050919050565b5f60015f8473ffffffffffffffffffffffffffffffffffffffff1673ffffffffffffffffffffffffffffffffffffffff1681526020019081526020015f205f8373ffffffffffffffffffffffffffffffffffffffff1673ffffffffffffffffffffffffffffffffffffffff1681526020019081526020015f2054905092915050565b5f610d94825f610e0c565b9050919050565b5f610deb6001610da96105f2565b610db3919061206c565b610dbb611047565b600a610dc791906121ce565b610dcf610767565b610dd9919061206c565b8486611242909392919063ffffffff16565b905092915050565b5f33905090565b610e078383836001611297565b505050565b5f600560149054906101000a900460ff1615610e7857610e7183610e2e611047565b600a610e3a91906121ce565b610e42610767565b610e4c919061206c565b600186610e576105f2565b610e619190612218565b610e6b919061206c565b85611242565b9050610ebf565b610ebc83610e84611047565b600a610e9091906121ce565b610e98610767565b610ea2919061206c565b6001610eac6105f2565b610eb6919061206c565b85611242565b90505b92915050565b5f610ed08484610d07565b90507fffffffffffffffffffffffffffffffffffffffffffffffffffffffffffffffff8114610f515781811015610f42578281836040517ffb8f41b2000000000000000000000000000000000000000000000000000000008152600401610f3993929190612037565b60405180910390fd5b610f5084848484035f611297565b5b50505050565b5f73ffffffffffffffffffffffffffffffffffffffff168373ffffffffffffffffffffffffffffffffffffffff1603610fc7575f6040517f96c6fd1e000000000000000000000000000000000000000000000000000000008152600401610fbe9190611ce6565b60405180910390fd5b5f73ffffffffffffffffffffffffffffffffffffffff168273ffffffffffffffffffffffffffffffffffffffff1603611037575f6040517fec442f0500000000000000000000000000000000000000000000000000000000815260040161102e9190611ce6565b60405180910390fd5b611042838383611466565b505050565b5f90565b5f73ffffffffffffffffffffffffffffffffffffffff168273ffffffffffffffffffffffffffffffffffffffff16036110bb575f6040517fec442f050000000000000000000000000000000000000000000000000000000081526004016110b29190611ce6565b60405180910390fd5b6110c65f8383611466565b5050565b5f73ffffffffffffffffffffffffffffffffffffffff168273ffffffffffffffffffffffffffffffffffffffff160361113a575f6040517f96c6fd1e0000000000000000000000000000000000000000000000000000000081526004016111319190611ce6565b60405180910390fd5b611145825f83611466565b5050565b8273ffffffffffffffffffffffffffffffffffffffff168573ffffffffffffffffffffffffffffffffffffffff161461118857611187838683610ec5565b5b61119283826110ca565b6111bd7f0000000000000000000000000000000000000000000000000000000000000000858461167f565b8273ffffffffffffffffffffffffffffffffffffffff168473ffffffffffffffffffffffffffffffffffffffff168673ffffffffffffffffffffffffffffffffffffffff167ffbde797d201c681b91056529119e0b02407c7bb96a4a2c75c01fc9667232c8db858560405161123392919061224b565b60405180910390a45050505050565b5f8061124f8686866116fe565b905061125a836117fd565b801561127657505f848061127157611270612272565b5b868809115b1561128b57600181611288919061206c565b90505b80915050949350505050565b5f73ffffffffffffffffffffffffffffffffffffffff168473ffffffffffffffffffffffffffffffffffffffff1603611307575f6040517fe602df050000000000000000000000000000000000000000000000000000000081526004016112fe9190611ce6565b60405180910390fd5b5f73ffffffffffffffffffffffffffffffffffffffff168373ffffffffffffffffffffffffffffffffffffffff1603611377575f6040517f94280d6200000000000000000000000000000000000000000000000000000000815260040161136e9190611ce6565b60405180910390fd5b8160015f8673ffffffffffffffffffffffffffffffffffffffff1673ffffffffffffffffffffffffffffffffffffffff1681526020019081526020015f205f8573ffffffffffffffffffffffffffffffffffffffff1673ffffffffffffffffffffffffffffffffffffffff1681526020019081526020015f20819055508015611460578273ffffffffffffffffffffffffffffffffffffffff168473ffffffffffffffffffffffffffffffffffffffff167f8c5be1e5ebec7d5bd14f71427d1e84f3dd0314c0f7b2291e5b200ac8c7c3b925846040516114579190611a86565b60405180910390a35b50505050565b5f73ffffffffffffffffffffffffffffffffffffffff168373ffffffffffffffffffffffffffffffffffffffff16036114b6578060025f8282546114aa919061206c565b92505081905550611584565b5f805f8573ffffffffffffffffffffffffffffffffffffffff1673ffffffffffffffffffffffffffffffffffffffff1681526020019081526020015f205490508181101561153f578381836040517fe450d38c00000000000000000000000000000000000000000000000000000000815260040161153693929190612037565b60405180910390fd5b8181035f808673ffffffffffffffffffffffffffffffffffffffff1673ffffffffffffffffffffffffffffffffffffffff1681526020019081526020015f2081905550505b5f73ffffffffffffffffffffffffffffffffffffffff168273ffffffffffffffffffffffffffffffffffffffff16036115cb578060025f8282540392505081905550611615565b805f808473ffffffffffffffffffffffffffffffffffffffff1673ffffffffffffffffffffffffffffffffffffffff1681526020019081526020015f205f82825401925050819055505b8173ffffffffffffffffffffffffffffffffffffffff168373ffffffffffffffffffffffffffffffffffffffff167fddf252ad1be2c89b69c2b068fc378daa952ba7f163c4a11628f55a4df523b3ef836040516116729190611a86565b60405180910390a3505050565b6116f9838473ffffffffffffffffffffffffffffffffffffffff1663a9059cbb85856040516024016116b292919061229f565b604051602081830303815290604052915060e01b6020820180517bffffffffffffffffffffffffffffffffffffffffffffffffffffffff838183161783525050505061182a565b505050565b5f8083850290505f8019858709828110838203039150505f81036117365783828161172c5761172b612272565b5b04925050506117f6565b80841161176f576040517f227bc15300000000000000000000000000000000000000000000000000000000815260040160405180910390fd5b5f8486880990508281118203915080830392505f855f038616905080860495508084049350600181825f0304019050808302841793505f600287600302189050808702600203810290508087026002038102905080870260020381029050808702600203810290508087026002038102905080870260020381029050808502955050505050505b9392505050565b5f60016002836003811115611815576118146122c6565b5b61181f91906122f3565b60ff16149050919050565b5f611854828473ffffffffffffffffffffffffffffffffffffffff166118bf90919063ffffffff16565b90505f815114158015611878575080806020019051810190611876919061234d565b155b156118ba57826040517f5274afe70000000000000000000000000000000000000000000000000000000081526004016118b19190611ce6565b60405180910390fd5b505050565b60606118cc83835f6118d4565b905092915050565b60608147101561191b57306040517fcd7860590000000000000000000000000000000000000000000000000000000081526004016119129190611ce6565b60405180910390fd5b5f808573ffffffffffffffffffffffffffffffffffffffff16848660405161194391906123bc565b5f6040518083038185875af1925050503d805f811461197d576040519150601f19603f3d011682016040523d82523d5f602084013e611982565b606091505b509150915061199286838361199d565b925050509392505050565b6060826119b2576119ad82611a2a565b611a22565b5f82511480156119d857505f8473ffffffffffffffffffffffffffffffffffffffff163b145b15611a1a57836040517f9996b315000000000000000000000000000000000000000000000000000000008152600401611a119190611ce6565b60405180910390fd5b819050611a23565b5b9392505050565b5f81511115611a3c5780518082602001fd5b6040517f1425ea4200000000000000000000000000000000000000000000000000000000815260040160405180910390fd5b5f819050919050565b611a8081611a6e565b82525050565b5f602082019050611a995f830184611a77565b92915050565b5f81519050919050565b5f82825260208201905092915050565b8281835e5f83830152505050565b5f601f19601f8301169050919050565b5f611ae182611a9f565b611aeb8185611aa9565b9350611afb818560208601611ab9565b611b0481611ac7565b840191505092915050565b5f6020820190508181035f830152611b278184611ad7565b905092915050565b5f80fd5b611b3c81611a6e565b8114611b46575f80fd5b50565b5f81359050611b5781611b33565b92915050565b5f60208284031215611b7257611b71611b2f565b5b5f611b7f84828501611b49565b91505092915050565b5f73ffffffffffffffffffffffffffffffffffffffff82169050919050565b5f611bb182611b88565b9050919050565b611bc181611ba7565b8114611bcb575f80fd5b50565b5f81359050611bdc81611bb8565b92915050565b5f8060408385031215611bf857611bf7611b2f565b5b5f611c0585828601611bce565b9250506020611c1685828601611b49565b9150509250929050565b5f8115159050919050565b611c3481611c20565b82525050565b5f602082019050611c4d5f830184611c2b565b92915050565b5f805f60608486031215611c6a57611c69611b2f565b5b5f611c7786828701611bce565b9350506020611c8886828701611bce565b9250506040611c9986828701611b49565b9150509250925092565b5f60ff82169050919050565b611cb881611ca3565b82525050565b5f602082019050611cd15f830184611caf565b92915050565b611ce081611ba7565b82525050565b5f602082019050611cf95f830184611cd7565b92915050565b5f60208284031215611d1457611d13611b2f565b5b5f611d2184828501611bce565b91505092915050565b5f8060408385031215611d4057611d3f611b2f565b5b5f611d4d85828601611b49565b9250506020611d5e85828601611bce565b9150509250929050565b5f819050919050565b5f611d8b611d86611d8184611b88565b611d68565b611b88565b9050919050565b5f611d9c82611d71565b9050919050565b5f611dad82611d92565b9050919050565b611dbd81611da3565b82525050565b5f602082019050611dd65f830184611db4565b92915050565b5f805f60608486031215611df357611df2611b2f565b5b5f611e0086828701611b49565b9350506020611e1186828701611bce565b9250506040611e2286828701611bce565b9150509250925092565b5f8060408385031215611e4257611e41611b2f565b5b5f611e4f85828601611bce565b9250506020611e6085828601611bce565b9150509250929050565b5f81519050611e7881611b33565b92915050565b5f60208284031215611e9357611e92611b2f565b5b5f611ea084828501611e6a565b91505092915050565b7f4e487b71000000000000000000000000000000000000000000000000000000005f52602260045260245ffd5b5f6002820490506001821680611eed57607f821691505b602082108103611f0057611eff611ea9565b5b50919050565b7f4e487b71000000000000000000000000000000000000000000000000000000005f52601160045260245ffd5b5f611f3d82611ca3565b9150611f4883611ca3565b9250828201905060ff811115611f6157611f60611f06565b5b92915050565b7f53656e646572206973204e6f74205661756c74730000000000000000000000005f82015250565b5f611f9b601483611aa9565b9150611fa682611f67565b602082019050919050565b5f6020820190508181035f830152611fc881611f8f565b9050919050565b7f416d6f756e74206d7573742062652067726561746572207468616e20300000005f82015250565b5f612003601d83611aa9565b915061200e82611fcf565b602082019050919050565b5f6020820190508181035f83015261203081611ff7565b9050919050565b5f60608201905061204a5f830186611cd7565b6120576020830185611a77565b6120646040830184611a77565b949350505050565b5f61207682611a6e565b915061208183611a6e565b925082820190508082111561209957612098611f06565b5b92915050565b5f8160011c9050919050565b5f808291508390505b60018511156120f4578086048111156120d0576120cf611f06565b5b60018516156120df5780820291505b80810290506120ed8561209f565b94506120b4565b94509492505050565b5f8261210c57600190506121c7565b81612119575f90506121c7565b816001811461212f576002811461213957612168565b60019150506121c7565b60ff84111561214b5761214a611f06565b5b8360020a91508482111561216257612161611f06565b5b506121c7565b5060208310610133831016604e8410600b841016171561219d5782820a90508381111561219857612197611f06565b5b6121c7565b6121aa84848460016120ab565b925090508184048111156121c1576121c0611f06565b5b81810290505b9392505050565b5f6121d882611a6e565b91506121e383611ca3565b92506122107fffffffffffffffffffffffffffffffffffffffffffffffffffffffffffffffff84846120fd565b905092915050565b5f61222282611a6e565b915061222d83611a6e565b925082820390508181111561224557612244611f06565b5b92915050565b5f60408201905061225e5f830185611a77565b61226b6020830184611a77565b9392505050565b7f4e487b71000000000000000000000000000000000000000000000000000000005f52601260045260245ffd5b5f6040820190506122b25f830185611cd7565b6122bf6020830184611a77565b9392505050565b7f4e487b71000000000000000000000000000000000000000000000000000000005f52602160045260245ffd5b5f6122fd82611ca3565b915061230883611ca3565b92508261231857612317612272565b5b828206905092915050565b61232c81611c20565b8114612336575f80fd5b50565b5f8151905061234781612323565b92915050565b5f6020828403121561236257612361611b2f565b5b5f61236f84828501612339565b91505092915050565b5f81519050919050565b5f81905092915050565b5f61239682612378565b6123a08185612382565b93506123b0818560208601611ab9565b80840191505092915050565b5f6123c7828461238c565b91508190509291505056fea264697066735822122003634230a2ae1b2e8a1dc9432523ae5c48734f5090ac093502859b70f72cf95564736f6c63430008190033",
			"opcodes": "PUSH1 0xC0 PUSH1 0x40 MSTORE PUSH0 PUSH1 0x5 PUSH1 0x14 PUSH2 0x100 EXP DUP2 SLOAD DUP2 PUSH1 0xFF MUL NOT AND SWAP1 DUP4 ISZERO ISZERO MUL OR SWAP1 SSTORE POP CALLVALUE DUP1 ISZERO PUSH2 0x29 JUMPI PUSH0 DUP1 REVERT JUMPDEST POP PUSH1 0x40 MLOAD PUSH2 0x2B16 CODESIZE SUB DUP1 PUSH2 0x2B16 DUP4 CODECOPY DUP2 DUP2 ADD PUSH1 0x40 MSTORE DUP2 ADD SWAP1 PUSH2 0x4B SWAP2 SWAP1 PUSH2 0x2EE JUMP JUMPDEST DUP1 PUSH1 0x40 MLOAD DUP1 PUSH1 0x40 ADD PUSH1 0x40 MSTORE DUP1 PUSH1 0xE DUP2 MSTORE PUSH1 0x20 ADD PUSH32 0x522D736861726564206155534443000000000000000000000000000000000000 DUP2 MSTORE POP PUSH1 0x40 MLOAD DUP1 PUSH1 0x40 ADD PUSH1 0x40 MSTORE DUP1 PUSH1 0x7 DUP2 MSTORE PUSH1 0x20 ADD PUSH32 0x7273615553444300000000000000000000000000000000000000000000000000 DUP2 MSTORE POP DUP2 PUSH1 0x3 SWAP1 DUP2 PUSH2 0xC7 SWAP2 SWAP1 PUSH2 0x553 JUMP JUMPDEST POP DUP1 PUSH1 0x4 SWAP1 DUP2 PUSH2 0xD7 SWAP2 SWAP1 PUSH2 0x553 JUMP JUMPDEST POP POP POP PUSH0 DUP1 PUSH2 0xEB DUP4 PUSH2 0x187 PUSH1 0x20 SHL PUSH1 0x20 SHR JUMP JUMPDEST SWAP2 POP SWAP2 POP DUP2 PUSH2 0xFB JUMPI PUSH1 0x12 PUSH2 0xFD JUMP JUMPDEST DUP1 JUMPDEST PUSH1 0xFF AND PUSH1 0xA0 DUP2 PUSH1 0xFF AND DUP2 MSTORE POP POP DUP3 PUSH20 0xFFFFFFFFFFFFFFFFFFFFFFFFFFFFFFFFFFFFFFFF AND PUSH1 0x80 DUP2 PUSH20 0xFFFFFFFFFFFFFFFFFFFFFFFFFFFFFFFFFFFFFFFF AND DUP2 MSTORE POP POP POP POP POP DUP1 PUSH1 0x5 PUSH0 PUSH2 0x100 EXP DUP2 SLOAD DUP2 PUSH20 0xFFFFFFFFFFFFFFFFFFFFFFFFFFFFFFFFFFFFFFFF MUL NOT AND SWAP1 DUP4 PUSH20 0xFFFFFFFFFFFFFFFFFFFFFFFFFFFFFFFFFFFFFFFF AND MUL OR SWAP1 SSTORE POP POP PUSH2 0x6DF JUMP JUMPDEST PUSH0 DUP1 PUSH0 DUP1 DUP5 PUSH20 0xFFFFFFFFFFFFFFFFFFFFFFFFFFFFFFFFFFFFFFFF AND PUSH1 0x40 MLOAD PUSH1 0x24 ADD PUSH1 0x40 MLOAD PUSH1 0x20 DUP2 DUP4 SUB SUB DUP2 MSTORE SWAP1 PUSH1 0x40 MSTORE PUSH4 0x313CE567 PUSH1 0xE0 SHL PUSH1 0x20 DUP3 ADD DUP1 MLOAD PUSH28 0xFFFFFFFFFFFFFFFFFFFFFFFFFFFFFFFFFFFFFFFFFFFFFFFFFFFFFFFF DUP4 DUP2 DUP4 AND OR DUP4 MSTORE POP POP POP POP PUSH1 0x40 MLOAD PUSH2 0x1FA SWAP2 SWAP1 PUSH2 0x674 JUMP JUMPDEST PUSH0 PUSH1 0x40 MLOAD DUP1 DUP4 SUB DUP2 DUP6 GAS STATICCALL SWAP2 POP POP RETURNDATASIZE DUP1 PUSH0 DUP2 EQ PUSH2 0x232 JUMPI PUSH1 0x40 MLOAD SWAP2 POP PUSH1 0x1F NOT PUSH1 0x3F RETURNDATASIZE ADD AND DUP3 ADD PUSH1 0x40 MSTORE RETURNDATASIZE DUP3 MSTORE RETURNDATASIZE PUSH0 PUSH1 0x20 DUP5 ADD RETURNDATACOPY PUSH2 0x237 JUMP JUMPDEST PUSH1 0x60 SWAP2 POP JUMPDEST POP SWAP2 POP SWAP2 POP DUP2 DUP1 ISZERO PUSH2 0x24B JUMPI POP PUSH1 0x20 DUP2 MLOAD LT ISZERO JUMPDEST ISZERO PUSH2 0x282 JUMPI PUSH0 DUP2 DUP1 PUSH1 0x20 ADD SWAP1 MLOAD DUP2 ADD SWAP1 PUSH2 0x265 SWAP2 SWAP1 PUSH2 0x6B4 JUMP JUMPDEST SWAP1 POP PUSH1 0xFF DUP1 AND DUP2 GT PUSH2 0x280 JUMPI PUSH1 0x1 DUP2 SWAP5 POP SWAP5 POP POP POP POP PUSH2 0x28B JUMP JUMPDEST POP JUMPDEST PUSH0 DUP1 SWAP4 POP SWAP4 POP POP POP JUMPDEST SWAP2 POP SWAP2 JUMP JUMPDEST PUSH0 DUP1 REVERT JUMPDEST PUSH0 PUSH20 0xFFFFFFFFFFFFFFFFFFFFFFFFFFFFFFFFFFFFFFFF DUP3 AND SWAP1 POP SWAP2 SWAP1 POP JUMP JUMPDEST PUSH0 PUSH2 0x2BD DUP3 PUSH2 0x294 JUMP JUMPDEST SWAP1 POP SWAP2 SWAP1 POP JUMP JUMPDEST PUSH2 0x2CD DUP2 PUSH2 0x2B3 JUMP JUMPDEST DUP2 EQ PUSH2 0x2D7 JUMPI PUSH0 DUP1 REVERT JUMPDEST POP JUMP JUMPDEST PUSH0 DUP2 MLOAD SWAP1 POP PUSH2 0x2E8 DUP2 PUSH2 0x2C4 JUMP JUMPDEST SWAP3 SWAP2 POP POP JUMP JUMPDEST PUSH0 PUSH1 0x20 DUP3 DUP5 SUB SLT ISZERO PUSH2 0x303 JUMPI PUSH2 0x302 PUSH2 0x290 JUMP JUMPDEST JUMPDEST PUSH0 PUSH2 0x310 DUP5 DUP3 DUP6 ADD PUSH2 0x2DA JUMP JUMPDEST SWAP2 POP POP SWAP3 SWAP2 POP POP JUMP JUMPDEST PUSH0 DUP2 MLOAD SWAP1 POP SWAP2 SWAP1 POP JUMP JUMPDEST PUSH32 0x4E487B7100000000000000000000000000000000000000000000000000000000 PUSH0 MSTORE PUSH1 0x41 PUSH1 0x4 MSTORE PUSH1 0x24 PUSH0 REVERT JUMPDEST PUSH32 0x4E487B7100000000000000000000000000000000000000000000000000000000 PUSH0 MSTORE PUSH1 0x22 PUSH1 0x4 MSTORE PUSH1 0x24 PUSH0 REVERT JUMPDEST PUSH0 PUSH1 0x2 DUP3 DIV SWAP1 POP PUSH1 0x1 DUP3 AND DUP1 PUSH2 0x394 JUMPI PUSH1 0x7F DUP3 AND SWAP2 POP JUMPDEST PUSH1 0x20 DUP3 LT DUP2 SUB PUSH2 0x3A7 JUMPI PUSH2 0x3A6 PUSH2 0x350 JUMP JUMPDEST JUMPDEST POP SWAP2 SWAP1 POP JUMP JUMPDEST PUSH0 DUP2 SWAP1 POP DUP2 PUSH0 MSTORE PUSH1 0x20 PUSH0 KECCAK256 SWAP1 POP SWAP2 SWAP1 POP JUMP JUMPDEST PUSH0 PUSH1 0x20 PUSH1 0x1F DUP4 ADD DIV SWAP1 POP SWAP2 SWAP1 POP JUMP JUMPDEST PUSH0 DUP3 DUP3 SHL SWAP1 POP SWAP3 SWAP2 POP POP JUMP JUMPDEST PUSH0 PUSH1 0x8 DUP4 MUL PUSH2 0x409 PUSH32 0xFFFFFFFFFFFFFFFFFFFFFFFFFFFFFFFFFFFFFFFFFFFFFFFFFFFFFFFFFFFFFFFF DUP3 PUSH2 0x3CE JUMP JUMPDEST PUSH2 0x413 DUP7 DUP4 PUSH2 0x3CE JUMP JUMPDEST SWAP6 POP DUP1 NOT DUP5 AND SWAP4 POP DUP1 DUP7 AND DUP5 OR SWAP3 POP POP POP SWAP4 SWAP3 POP POP POP JUMP JUMPDEST PUSH0 DUP2 SWAP1 POP SWAP2 SWAP1 POP JUMP JUMPDEST PUSH0 DUP2 SWAP1 POP SWAP2 SWAP1 POP JUMP JUMPDEST PUSH0 PUSH2 0x457 PUSH2 0x452 PUSH2 0x44D DUP5 PUSH2 0x42B JUMP JUMPDEST PUSH2 0x434 JUMP JUMPDEST PUSH2 0x42B JUMP JUMPDEST SWAP1 POP SWAP2 SWAP1 POP JUMP JUMPDEST PUSH0 DUP2 SWAP1 POP SWAP2 SWAP1 POP JUMP JUMPDEST PUSH2 0x470 DUP4 PUSH2 0x43D JUMP JUMPDEST PUSH2 0x484 PUSH2 0x47C DUP3 PUSH2 0x45E JUMP JUMPDEST DUP5 DUP5 SLOAD PUSH2 0x3DA JUMP JUMPDEST DUP3 SSTORE POP POP POP POP JUMP JUMPDEST PUSH0 SWAP1 JUMP JUMPDEST PUSH2 0x498 PUSH2 0x48C JUMP JUMPDEST PUSH2 0x4A3 DUP2 DUP5 DUP5 PUSH2 0x467 JUMP JUMPDEST POP POP POP JUMP JUMPDEST JUMPDEST DUP2 DUP2 LT ISZERO PUSH2 0x4C6 JUMPI PUSH2 0x4BB PUSH0 DUP3 PUSH2 0x490 JUMP JUMPDEST PUSH1 0x1 DUP2 ADD SWAP1 POP PUSH2 0x4A9 JUMP JUMPDEST POP POP JUMP JUMPDEST PUSH1 0x1F DUP3 GT ISZERO PUSH2 0x50B JUMPI PUSH2 0x4DC DUP2 PUSH2 0x3AD JUMP JUMPDEST PUSH2 0x4E5 DUP5 PUSH2 0x3BF JUMP JUMPDEST DUP2 ADD PUSH1 0x20 DUP6 LT ISZERO PUSH2 0x4F4 JUMPI DUP2 SWAP1 POP JUMPDEST PUSH2 0x508 PUSH2 0x500 DUP6 PUSH2 0x3BF JUMP JUMPDEST DUP4 ADD DUP3 PUSH2 0x4A8 JUMP JUMPDEST POP POP JUMPDEST POP POP POP JUMP JUMPDEST PUSH0 DUP3 DUP3 SHR SWAP1 POP SWAP3 SWAP2 POP POP JUMP JUMPDEST PUSH0 PUSH2 0x52B PUSH0 NOT DUP5 PUSH1 0x8 MUL PUSH2 0x510 JUMP JUMPDEST NOT DUP1 DUP4 AND SWAP2 POP POP SWAP3 SWAP2 POP POP JUMP JUMPDEST PUSH0 PUSH2 0x543 DUP4 DUP4 PUSH2 0x51C JUMP JUMPDEST SWAP2 POP DUP3 PUSH1 0x2 MUL DUP3 OR SWAP1 POP SWAP3 SWAP2 POP POP JUMP JUMPDEST PUSH2 0x55C DUP3 PUSH2 0x319 JUMP JUMPDEST PUSH8 0xFFFFFFFFFFFFFFFF DUP2 GT ISZERO PUSH2 0x575 JUMPI PUSH2 0x574 PUSH2 0x323 JUMP JUMPDEST JUMPDEST PUSH2 0x57F DUP3 SLOAD PUSH2 0x37D JUMP JUMPDEST PUSH2 0x58A DUP3 DUP3 DUP6 PUSH2 0x4CA JUMP JUMPDEST PUSH0 PUSH1 0x20 SWAP1 POP PUSH1 0x1F DUP4 GT PUSH1 0x1 DUP2 EQ PUSH2 0x5BB JUMPI PUSH0 DUP5 ISZERO PUSH2 0x5A9 JUMPI DUP3 DUP8 ADD MLOAD SWAP1 POP JUMPDEST PUSH2 0x5B3 DUP6 DUP3 PUSH2 0x538 JUMP JUMPDEST DUP7 SSTORE POP PUSH2 0x61A JUMP JUMPDEST PUSH1 0x1F NOT DUP5 AND PUSH2 0x5C9 DUP7 PUSH2 0x3AD JUMP JUMPDEST PUSH0 JUMPDEST DUP3 DUP2 LT ISZERO PUSH2 0x5F0 JUMPI DUP5 DUP10 ADD MLOAD DUP3 SSTORE PUSH1 0x1 DUP3 ADD SWAP2 POP PUSH1 0x20 DUP6 ADD SWAP5 POP PUSH1 0x20 DUP2 ADD SWAP1 POP PUSH2 0x5CB JUMP JUMPDEST DUP7 DUP4 LT ISZERO PUSH2 0x60D JUMPI DUP5 DUP10 ADD MLOAD PUSH2 0x609 PUSH1 0x1F DUP10 AND DUP3 PUSH2 0x51C JUMP JUMPDEST DUP4 SSTORE POP JUMPDEST PUSH1 0x1 PUSH1 0x2 DUP9 MUL ADD DUP9 SSTORE POP POP POP JUMPDEST POP POP POP POP POP POP JUMP JUMPDEST PUSH0 DUP2 MLOAD SWAP1 POP SWAP2 SWAP1 POP JUMP JUMPDEST PUSH0 DUP2 SWAP1 POP SWAP3 SWAP2 POP POP JUMP JUMPDEST DUP3 DUP2 DUP4 MCOPY PUSH0 DUP4 DUP4 ADD MSTORE POP POP POP JUMP JUMPDEST PUSH0 PUSH2 0x64E DUP3 PUSH2 0x622 JUMP JUMPDEST PUSH2 0x658 DUP2 DUP6 PUSH2 0x62C JUMP JUMPDEST SWAP4 POP PUSH2 0x668 DUP2 DUP6 PUSH1 0x20 DUP7 ADD PUSH2 0x636 JUMP JUMPDEST DUP1 DUP5 ADD SWAP2 POP POP SWAP3 SWAP2 POP POP JUMP JUMPDEST PUSH0 PUSH2 0x67F DUP3 DUP5 PUSH2 0x644 JUMP JUMPDEST SWAP2 POP DUP2 SWAP1 POP SWAP3 SWAP2 POP POP JUMP JUMPDEST PUSH2 0x693 DUP2 PUSH2 0x42B JUMP JUMPDEST DUP2 EQ PUSH2 0x69D JUMPI PUSH0 DUP1 REVERT JUMPDEST POP JUMP JUMPDEST PUSH0 DUP2 MLOAD SWAP1 POP PUSH2 0x6AE DUP2 PUSH2 0x68A JUMP JUMPDEST SWAP3 SWAP2 POP POP JUMP JUMPDEST PUSH0 PUSH1 0x20 DUP3 DUP5 SUB SLT ISZERO PUSH2 0x6C9 JUMPI PUSH2 0x6C8 PUSH2 0x290 JUMP JUMPDEST JUMPDEST PUSH0 PUSH2 0x6D6 DUP5 DUP3 DUP6 ADD PUSH2 0x6A0 JUMP JUMPDEST SWAP2 POP POP SWAP3 SWAP2 POP POP JUMP JUMPDEST PUSH1 0x80 MLOAD PUSH1 0xA0 MLOAD PUSH2 0x2408 PUSH2 0x70E PUSH0 CODECOPY PUSH0 PUSH2 0x7A9 ADD MSTORE PUSH0 DUP2 DUP2 PUSH2 0x5F5 ADD MSTORE DUP2 DUP2 PUSH2 0x7DA ADD MSTORE PUSH2 0x1197 ADD MSTORE PUSH2 0x2408 PUSH0 RETURN INVALID PUSH1 0x80 PUSH1 0x40 MSTORE CALLVALUE DUP1 ISZERO PUSH2 0xF JUMPI PUSH0 DUP1 REVERT JUMPDEST POP PUSH1 0x4 CALLDATASIZE LT PUSH2 0x18C JUMPI PUSH0 CALLDATALOAD PUSH1 0xE0 SHR DUP1 PUSH4 0x866C99E2 GT PUSH2 0xDC JUMPI DUP1 PUSH4 0xBA087652 GT PUSH2 0x95 JUMPI DUP1 PUSH4 0xCE96CB77 GT PUSH2 0x6F JUMPI DUP1 PUSH4 0xCE96CB77 EQ PUSH2 0x532 JUMPI DUP1 PUSH4 0xD905777E EQ PUSH2 0x562 JUMPI DUP1 PUSH4 0xDD62ED3E EQ PUSH2 0x592 JUMPI DUP1 PUSH4 0xEF8B30F7 EQ PUSH2 0x5C2 JUMPI PUSH2 0x18C JUMP JUMPDEST DUP1 PUSH4 0xBA087652 EQ PUSH2 0x4A2 JUMPI DUP1 PUSH4 0xC63D75B6 EQ PUSH2 0x4D2 JUMPI DUP1 PUSH4 0xC6E6F592 EQ PUSH2 0x502 JUMPI PUSH2 0x18C JUMP JUMPDEST DUP1 PUSH4 0x866C99E2 EQ PUSH2 0x3A6 JUMPI DUP1 PUSH4 0x94BF804D EQ PUSH2 0x3C4 JUMPI DUP1 PUSH4 0x95D89B41 EQ PUSH2 0x3F4 JUMPI DUP1 PUSH4 0xA9059CBB EQ PUSH2 0x412 JUMPI DUP1 PUSH4 0xB3D7F6B9 EQ PUSH2 0x442 JUMPI DUP1 PUSH4 0xB460AF94 EQ PUSH2 0x472 JUMPI PUSH2 0x18C JUMP JUMPDEST DUP1 PUSH4 0x23B872DD GT PUSH2 0x149 JUMPI DUP1 PUSH4 0x402D267D GT PUSH2 0x123 JUMPI DUP1 PUSH4 0x402D267D EQ PUSH2 0x2E6 JUMPI DUP1 PUSH4 0x4CDAD506 EQ PUSH2 0x316 JUMPI DUP1 PUSH4 0x6E553F65 EQ PUSH2 0x346 JUMPI DUP1 PUSH4 0x70A08231 EQ PUSH2 0x376 JUMPI PUSH2 0x18C JUMP JUMPDEST DUP1 PUSH4 0x23B872DD EQ PUSH2 0x27A JUMPI DUP1 PUSH4 0x313CE567 EQ PUSH2 0x2AA JUMPI DUP1 PUSH4 0x38D52E0F EQ PUSH2 0x2C8 JUMPI PUSH2 0x18C JUMP JUMPDEST DUP1 PUSH4 0x1E1D114 EQ PUSH2 0x190 JUMPI DUP1 PUSH4 0x6FDDE03 EQ PUSH2 0x1AE JUMPI DUP1 PUSH4 0x7A2D13A EQ PUSH2 0x1CC JUMPI DUP1 PUSH4 0x95EA7B3 EQ PUSH2 0x1FC JUMPI DUP1 PUSH4 0xA28A477 EQ PUSH2 0x22C JUMPI DUP1 PUSH4 0x18160DDD EQ PUSH2 0x25C JUMPI JUMPDEST PUSH0 DUP1 REVERT JUMPDEST PUSH2 0x198 PUSH2 0x5F2 JUMP JUMPDEST PUSH1 0x40 MLOAD PUSH2 0x1A5 SWAP2 SWAP1 PUSH2 0x1A86 JUMP JUMPDEST PUSH1 0x40 MLOAD DUP1 SWAP2 SUB SWAP1 RETURN JUMPDEST PUSH2 0x1B6 PUSH2 0x690 JUMP JUMPDEST PUSH1 0x40 MLOAD PUSH2 0x1C3 SWAP2 SWAP1 PUSH2 0x1B0F JUMP JUMPDEST PUSH1 0x40 MLOAD DUP1 SWAP2 SUB SWAP1 RETURN JUMPDEST PUSH2 0x1E6 PUSH1 0x4 DUP1 CALLDATASIZE SUB DUP2 ADD SWAP1 PUSH2 0x1E1 SWAP2 SWAP1 PUSH2 0x1B5D JUMP JUMPDEST PUSH2 0x720 JUMP JUMPDEST PUSH1 0x40 MLOAD PUSH2 0x1F3 SWAP2 SWAP1 PUSH2 0x1A86 JUMP JUMPDEST PUSH1 0x40 MLOAD DUP1 SWAP2 SUB SWAP1 RETURN JUMPDEST PUSH2 0x216 PUSH1 0x4 DUP1 CALLDATASIZE SUB DUP2 ADD SWAP1 PUSH2 0x211 SWAP2 SWAP1 PUSH2 0x1BE2 JUMP JUMPDEST PUSH2 0x732 JUMP JUMPDEST PUSH1 0x40 MLOAD PUSH2 0x223 SWAP2 SWAP1 PUSH2 0x1C3A JUMP JUMPDEST PUSH1 0x40 MLOAD DUP1 SWAP2 SUB SWAP1 RETURN JUMPDEST PUSH2 0x246 PUSH1 0x4 DUP1 CALLDATASIZE SUB DUP2 ADD SWAP1 PUSH2 0x241 SWAP2 SWAP1 PUSH2 0x1B5D JUMP JUMPDEST PUSH2 0x754 JUMP JUMPDEST PUSH1 0x40 MLOAD PUSH2 0x253 SWAP2 SWAP1 PUSH2 0x1A86 JUMP JUMPDEST PUSH1 0x40 MLOAD DUP1 SWAP2 SUB SWAP1 RETURN JUMPDEST PUSH2 0x264 PUSH2 0x767 JUMP JUMPDEST PUSH1 0x40 MLOAD PUSH2 0x271 SWAP2 SWAP1 PUSH2 0x1A86 JUMP JUMPDEST PUSH1 0x40 MLOAD DUP1 SWAP2 SUB SWAP1 RETURN JUMPDEST PUSH2 0x294 PUSH1 0x4 DUP1 CALLDATASIZE SUB DUP2 ADD SWAP1 PUSH2 0x28F SWAP2 SWAP1 PUSH2 0x1C53 JUMP JUMPDEST PUSH2 0x770 JUMP JUMPDEST PUSH1 0x40 MLOAD PUSH2 0x2A1 SWAP2 SWAP1 PUSH2 0x1C3A JUMP JUMPDEST PUSH1 0x40 MLOAD DUP1 SWAP2 SUB SWAP1 RETURN JUMPDEST PUSH2 0x2B2 PUSH2 0x79E JUMP JUMPDEST PUSH1 0x40 MLOAD PUSH2 0x2BF SWAP2 SWAP1 PUSH2 0x1CBE JUMP JUMPDEST PUSH1 0x40 MLOAD DUP1 SWAP2 SUB SWAP1 RETURN JUMPDEST PUSH2 0x2D0 PUSH2 0x7D7 JUMP JUMPDEST PUSH1 0x40 MLOAD PUSH2 0x2DD SWAP2 SWAP1 PUSH2 0x1CE6 JUMP JUMPDEST PUSH1 0x40 MLOAD DUP1 SWAP2 SUB SWAP1 RETURN JUMPDEST PUSH2 0x300 PUSH1 0x4 DUP1 CALLDATASIZE SUB DUP2 ADD SWAP1 PUSH2 0x2FB SWAP2 SWAP1 PUSH2 0x1CFF JUMP JUMPDEST PUSH2 0x7FE JUMP JUMPDEST PUSH1 0x40 MLOAD PUSH2 0x30D SWAP2 SWAP1 PUSH2 0x1A86 JUMP JUMPDEST PUSH1 0x40 MLOAD DUP1 SWAP2 SUB SWAP1 RETURN JUMPDEST PUSH2 0x330 PUSH1 0x4 DUP1 CALLDATASIZE SUB DUP2 ADD SWAP1 PUSH2 0x32B SWAP2 SWAP1 PUSH2 0x1B5D JUMP JUMPDEST PUSH2 0x827 JUMP JUMPDEST PUSH1 0x40 MLOAD PUSH2 0x33D SWAP2 SWAP1 PUSH2 0x1A86 JUMP JUMPDEST PUSH1 0x40 MLOAD DUP1 SWAP2 SUB SWAP1 RETURN JUMPDEST PUSH2 0x360 PUSH1 0x4 DUP1 CALLDATASIZE SUB DUP2 ADD SWAP1 PUSH2 0x35B SWAP2 SWAP1 PUSH2 0x1D2A JUMP JUMPDEST PUSH2 0x839 JUMP JUMPDEST PUSH1 0x40 MLOAD PUSH2 0x36D SWAP2 SWAP1 PUSH2 0x1A86 JUMP JUMPDEST PUSH1 0x40 MLOAD DUP1 SWAP2 SUB SWAP1 RETURN JUMPDEST PUSH2 0x390 PUSH1 0x4 DUP1 CALLDATASIZE SUB DUP2 ADD SWAP1 PUSH2 0x38B SWAP2 SWAP1 PUSH2 0x1CFF JUMP JUMPDEST PUSH2 0x9B6 JUMP JUMPDEST PUSH1 0x40 MLOAD PUSH2 0x39D SWAP2 SWAP1 PUSH2 0x1A86 JUMP JUMPDEST PUSH1 0x40 MLOAD DUP1 SWAP2 SUB SWAP1 RETURN JUMPDEST PUSH2 0x3AE PUSH2 0x9FB JUMP JUMPDEST PUSH1 0x40 MLOAD PUSH2 0x3BB SWAP2 SWAP1 PUSH2 0x1DC3 JUMP JUMPDEST PUSH1 0x40 MLOAD DUP1 SWAP2 SUB SWAP1 RETURN JUMPDEST PUSH2 0x3DE PUSH1 0x4 DUP1 CALLDATASIZE SUB DUP2 ADD SWAP1 PUSH2 0x3D9 SWAP2 SWAP1 PUSH2 0x1D2A JUMP JUMPDEST PUSH2 0xA20 JUMP JUMPDEST PUSH1 0x40 MLOAD PUSH2 0x3EB SWAP2 SWAP1 PUSH2 0x1A86 JUMP JUMPDEST PUSH1 0x40 MLOAD DUP1 SWAP2 SUB SWAP1 RETURN JUMPDEST PUSH2 0x3FC PUSH2 0xA53 JUMP JUMPDEST PUSH1 0x40 MLOAD PUSH2 0x409 SWAP2 SWAP1 PUSH2 0x1B0F JUMP JUMPDEST PUSH1 0x40 MLOAD DUP1 SWAP2 SUB SWAP1 RETURN JUMPDEST PUSH2 0x42C PUSH1 0x4 DUP1 CALLDATASIZE SUB DUP2 ADD SWAP1 PUSH2 0x427 SWAP2 SWAP1 PUSH2 0x1BE2 JUMP JUMPDEST PUSH2 0xAE3 JUMP JUMPDEST PUSH1 0x40 MLOAD PUSH2 0x439 SWAP2 SWAP1 PUSH2 0x1C3A JUMP JUMPDEST PUSH1 0x40 MLOAD DUP1 SWAP2 SUB SWAP1 RETURN JUMPDEST PUSH2 0x45C PUSH1 0x4 DUP1 CALLDATASIZE SUB DUP2 ADD SWAP1 PUSH2 0x457 SWAP2 SWAP1 PUSH2 0x1B5D JUMP JUMPDEST PUSH2 0xB05 JUMP JUMPDEST PUSH1 0x40 MLOAD PUSH2 0x469 SWAP2 SWAP1 PUSH2 0x1A86 JUMP JUMPDEST PUSH1 0x40 MLOAD DUP1 SWAP2 SUB SWAP1 RETURN JUMPDEST PUSH2 0x48C PUSH1 0x4 DUP1 CALLDATASIZE SUB DUP2 ADD SWAP1 PUSH2 0x487 SWAP2 SWAP1 PUSH2 0x1DDC JUMP JUMPDEST PUSH2 0xB18 JUMP JUMPDEST PUSH1 0x40 MLOAD PUSH2 0x499 SWAP2 SWAP1 PUSH2 0x1A86 JUMP JUMPDEST PUSH1 0x40 MLOAD DUP1 SWAP2 SUB SWAP1 RETURN JUMPDEST PUSH2 0x4BC PUSH1 0x4 DUP1 CALLDATASIZE SUB DUP2 ADD SWAP1 PUSH2 0x4B7 SWAP2 SWAP1 PUSH2 0x1DDC JUMP JUMPDEST PUSH2 0xC1F JUMP JUMPDEST PUSH1 0x40 MLOAD PUSH2 0x4C9 SWAP2 SWAP1 PUSH2 0x1A86 JUMP JUMPDEST PUSH1 0x40 MLOAD DUP1 SWAP2 SUB SWAP1 RETURN JUMPDEST PUSH2 0x4EC PUSH1 0x4 DUP1 CALLDATASIZE SUB DUP2 ADD SWAP1 PUSH2 0x4E7 SWAP2 SWAP1 PUSH2 0x1CFF JUMP JUMPDEST PUSH2 0xCA1 JUMP JUMPDEST PUSH1 0x40 MLOAD PUSH2 0x4F9 SWAP2 SWAP1 PUSH2 0x1A86 JUMP JUMPDEST PUSH1 0x40 MLOAD DUP1 SWAP2 SUB SWAP1 RETURN JUMPDEST PUSH2 0x51C PUSH1 0x4 DUP1 CALLDATASIZE SUB DUP2 ADD SWAP1 PUSH2 0x517 SWAP2 SWAP1 PUSH2 0x1B5D JUMP JUMPDEST PUSH2 0xCCA JUMP JUMPDEST PUSH1 0x40 MLOAD PUSH2 0x529 SWAP2 SWAP1 PUSH2 0x1A86 JUMP JUMPDEST PUSH1 0x40 MLOAD DUP1 SWAP2 SUB SWAP1 RETURN JUMPDEST PUSH2 0x54C PUSH1 0x4 DUP1 CALLDATASIZE SUB DUP2 ADD SWAP1 PUSH2 0x547 SWAP2 SWAP1 PUSH2 0x1CFF JUMP JUMPDEST PUSH2 0xCDC JUMP JUMPDEST PUSH1 0x40 MLOAD PUSH2 0x559 SWAP2 SWAP1 PUSH2 0x1A86 JUMP JUMPDEST PUSH1 0x40 MLOAD DUP1 SWAP2 SUB SWAP1 RETURN JUMPDEST PUSH2 0x57C PUSH1 0x4 DUP1 CALLDATASIZE SUB DUP2 ADD SWAP1 PUSH2 0x577 SWAP2 SWAP1 PUSH2 0x1CFF JUMP JUMPDEST PUSH2 0xCF6 JUMP JUMPDEST PUSH1 0x40 MLOAD PUSH2 0x589 SWAP2 SWAP1 PUSH2 0x1A86 JUMP JUMPDEST PUSH1 0x40 MLOAD DUP1 SWAP2 SUB SWAP1 RETURN JUMPDEST PUSH2 0x5AC PUSH1 0x4 DUP1 CALLDATASIZE SUB DUP2 ADD SWAP1 PUSH2 0x5A7 SWAP2 SWAP1 PUSH2 0x1E2C JUMP JUMPDEST PUSH2 0xD07 JUMP JUMPDEST PUSH1 0x40 MLOAD PUSH2 0x5B9 SWAP2 SWAP1 PUSH2 0x1A86 JUMP JUMPDEST PUSH1 0x40 MLOAD DUP1 SWAP2 SUB SWAP1 RETURN JUMPDEST PUSH2 0x5DC PUSH1 0x4 DUP1 CALLDATASIZE SUB DUP2 ADD SWAP1 PUSH2 0x5D7 SWAP2 SWAP1 PUSH2 0x1B5D JUMP JUMPDEST PUSH2 0xD89 JUMP JUMPDEST PUSH1 0x40 MLOAD PUSH2 0x5E9 SWAP2 SWAP1 PUSH2 0x1A86 JUMP JUMPDEST PUSH1 0x40 MLOAD DUP1 SWAP2 SUB SWAP1 RETURN JUMPDEST PUSH0 PUSH32 0x0 PUSH20 0xFFFFFFFFFFFFFFFFFFFFFFFFFFFFFFFFFFFFFFFF AND PUSH4 0x70A08231 ADDRESS PUSH1 0x40 MLOAD DUP3 PUSH4 0xFFFFFFFF AND PUSH1 0xE0 SHL DUP2 MSTORE PUSH1 0x4 ADD PUSH2 0x64C SWAP2 SWAP1 PUSH2 0x1CE6 JUMP JUMPDEST PUSH1 0x20 PUSH1 0x40 MLOAD DUP1 DUP4 SUB DUP2 DUP7 GAS STATICCALL ISZERO DUP1 ISZERO PUSH2 0x667 JUMPI RETURNDATASIZE PUSH0 DUP1 RETURNDATACOPY RETURNDATASIZE PUSH0 REVERT JUMPDEST POP POP POP POP PUSH1 0x40 MLOAD RETURNDATASIZE PUSH1 0x1F NOT PUSH1 0x1F DUP3 ADD AND DUP3 ADD DUP1 PUSH1 0x40 MSTORE POP DUP2 ADD SWAP1 PUSH2 0x68B SWAP2 SWAP1 PUSH2 0x1E7E JUMP JUMPDEST SWAP1 POP SWAP1 JUMP JUMPDEST PUSH1 0x60 PUSH1 0x3 DUP1 SLOAD PUSH2 0x69F SWAP1 PUSH2 0x1ED6 JUMP JUMPDEST DUP1 PUSH1 0x1F ADD PUSH1 0x20 DUP1 SWAP2 DIV MUL PUSH1 0x20 ADD PUSH1 0x40 MLOAD SWAP1 DUP2 ADD PUSH1 0x40 MSTORE DUP1 SWAP3 SWAP2 SWAP1 DUP2 DUP2 MSTORE PUSH1 0x20 ADD DUP3 DUP1 SLOAD PUSH2 0x6CB SWAP1 PUSH2 0x1ED6 JUMP JUMPDEST DUP1 ISZERO PUSH2 0x716 JUMPI DUP1 PUSH1 0x1F LT PUSH2 0x6ED JUMPI PUSH2 0x100 DUP1 DUP4 SLOAD DIV MUL DUP4 MSTORE SWAP2 PUSH1 0x20 ADD SWAP2 PUSH2 0x716 JUMP JUMPDEST DUP3 ADD SWAP2 SWAP1 PUSH0 MSTORE PUSH1 0x20 PUSH0 KECCAK256 SWAP1 JUMPDEST DUP2 SLOAD DUP2 MSTORE SWAP1 PUSH1 0x1 ADD SWAP1 PUSH1 0x20 ADD DUP1 DUP4 GT PUSH2 0x6F9 JUMPI DUP3 SWAP1 SUB PUSH1 0x1F AND DUP3 ADD SWAP2 JUMPDEST POP POP POP POP POP SWAP1 POP SWAP1 JUMP JUMPDEST PUSH0 PUSH2 0x72B DUP3 PUSH0 PUSH2 0xD9B JUMP JUMPDEST SWAP1 POP SWAP2 SWAP1 POP JUMP JUMPDEST PUSH0 DUP1 PUSH2 0x73C PUSH2 0xDF3 JUMP JUMPDEST SWAP1 POP PUSH2 0x749 DUP2 DUP6 DUP6 PUSH2 0xDFA JUMP JUMPDEST PUSH1 0x1 SWAP2 POP POP SWAP3 SWAP2 POP POP JUMP JUMPDEST PUSH0 PUSH2 0x760 DUP3 PUSH1 0x1 PUSH2 0xE0C JUMP JUMPDEST SWAP1 POP SWAP2 SWAP1 POP JUMP JUMPDEST PUSH0 PUSH1 0x2 SLOAD SWAP1 POP SWAP1 JUMP JUMPDEST PUSH0 DUP1 PUSH2 0x77A PUSH2 0xDF3 JUMP JUMPDEST SWAP1 POP PUSH2 0x787 DUP6 DUP3 DUP6 PUSH2 0xEC5 JUMP JUMPDEST PUSH2 0x792 DUP6 DUP6 DUP6 PUSH2 0xF57 JUMP JUMPDEST PUSH1 0x1 SWAP2 POP POP SWAP4 SWAP3 POP POP POP JUMP JUMPDEST PUSH0 PUSH2 0x7A7 PUSH2 0x1047 JUMP JUMPDEST PUSH32 0x0 PUSH2 0x7D2 SWAP2 SWAP1 PUSH2 0x1F33 JUMP JUMPDEST SWAP1 POP SWAP1 JUMP JUMPDEST PUSH0 PUSH32 0x0 SWAP1 POP SWAP1 JUMP JUMPDEST PUSH0 PUSH32 0xFFFFFFFFFFFFFFFFFFFFFFFFFFFFFFFFFFFFFFFFFFFFFFFFFFFFFFFFFFFFFFFF SWAP1 POP SWAP2 SWAP1 POP JUMP JUMPDEST PUSH0 PUSH2 0x832 DUP3 PUSH0 PUSH2 0xD9B JUMP JUMPDEST SWAP1 POP SWAP2 SWAP1 POP JUMP JUMPDEST PUSH0 CALLER PUSH20 0xFFFFFFFFFFFFFFFFFFFFFFFFFFFFFFFFFFFFFFFF AND PUSH1 0x5 PUSH0 SWAP1 SLOAD SWAP1 PUSH2 0x100 EXP SWAP1 DIV PUSH20 0xFFFFFFFFFFFFFFFFFFFFFFFFFFFFFFFFFFFFFFFF AND PUSH20 0xFFFFFFFFFFFFFFFFFFFFFFFFFFFFFFFFFFFFFFFF AND EQ PUSH2 0x8C9 JUMPI PUSH1 0x40 MLOAD PUSH32 0x8C379A000000000000000000000000000000000000000000000000000000000 DUP2 MSTORE PUSH1 0x4 ADD PUSH2 0x8C0 SWAP1 PUSH2 0x1FB1 JUMP JUMPDEST PUSH1 0x40 MLOAD DUP1 SWAP2 SUB SWAP1 REVERT JUMPDEST PUSH1 0x1 PUSH1 0x5 PUSH1 0x14 PUSH2 0x100 EXP DUP2 SLOAD DUP2 PUSH1 0xFF MUL NOT AND SWAP1 DUP4 ISZERO ISZERO MUL OR SWAP1 SSTORE POP PUSH0 DUP4 GT PUSH2 0x926 JUMPI PUSH1 0x40 MLOAD PUSH32 0x8C379A000000000000000000000000000000000000000000000000000000000 DUP2 MSTORE PUSH1 0x4 ADD PUSH2 0x91D SWAP1 PUSH2 0x2019 JUMP JUMPDEST PUSH1 0x40 MLOAD DUP1 SWAP2 SUB SWAP1 REVERT JUMPDEST PUSH0 PUSH2 0x930 DUP4 PUSH2 0x7FE JUMP JUMPDEST SWAP1 POP DUP1 DUP5 GT ISZERO PUSH2 0x97B JUMPI DUP3 DUP5 DUP3 PUSH1 0x40 MLOAD PUSH32 0x79012FB200000000000000000000000000000000000000000000000000000000 DUP2 MSTORE PUSH1 0x4 ADD PUSH2 0x972 SWAP4 SWAP3 SWAP2 SWAP1 PUSH2 0x2037 JUMP JUMPDEST PUSH1 0x40 MLOAD DUP1 SWAP2 SUB SWAP1 REVERT JUMPDEST PUSH0 PUSH2 0x985 DUP6 PUSH2 0xD89 JUMP JUMPDEST SWAP1 POP PUSH2 0x991 DUP5 DUP3 PUSH2 0x104B JUMP JUMPDEST PUSH0 PUSH1 0x5 PUSH1 0x14 PUSH2 0x100 EXP DUP2 SLOAD DUP2 PUSH1 0xFF MUL NOT AND SWAP1 DUP4 ISZERO ISZERO MUL OR SWAP1 SSTORE POP DUP1 SWAP3 POP POP POP SWAP3 SWAP2 POP POP JUMP JUMPDEST PUSH0 DUP1 PUSH0 DUP4 PUSH20 0xFFFFFFFFFFFFFFFFFFFFFFFFFFFFFFFFFFFFFFFF AND PUSH20 0xFFFFFFFFFFFFFFFFFFFFFFFFFFFFFFFFFFFFFFFF AND DUP2 MSTORE PUSH1 0x20 ADD SWAP1 DUP2 MSTORE PUSH1 0x20 ADD PUSH0 KECCAK256 SLOAD SWAP1 POP SWAP2 SWAP1 POP JUMP JUMPDEST PUSH1 0x5 PUSH0 SWAP1 SLOAD SWAP1 PUSH2 0x100 EXP SWAP1 DIV PUSH20 0xFFFFFFFFFFFFFFFFFFFFFFFFFFFFFFFFFFFFFFFF AND DUP2 JUMP JUMPDEST PUSH0 PUSH1 0x40 MLOAD PUSH32 0xA9A2322B00000000000000000000000000000000000000000000000000000000 DUP2 MSTORE PUSH1 0x4 ADD PUSH1 0x40 MLOAD DUP1 SWAP2 SUB SWAP1 REVERT JUMPDEST PUSH1 0x60 PUSH1 0x4 DUP1 SLOAD PUSH2 0xA62 SWAP1 PUSH2 0x1ED6 JUMP JUMPDEST DUP1 PUSH1 0x1F ADD PUSH1 0x20 DUP1 SWAP2 DIV MUL PUSH1 0x20 ADD PUSH1 0x40 MLOAD SWAP1 DUP2 ADD PUSH1 0x40 MSTORE DUP1 SWAP3 SWAP2 SWAP1 DUP2 DUP2 MSTORE PUSH1 0x20 ADD DUP3 DUP1 SLOAD PUSH2 0xA8E SWAP1 PUSH2 0x1ED6 JUMP JUMPDEST DUP1 ISZERO PUSH2 0xAD9 JUMPI DUP1 PUSH1 0x1F LT PUSH2 0xAB0 JUMPI PUSH2 0x100 DUP1 DUP4 SLOAD DIV MUL DUP4 MSTORE SWAP2 PUSH1 0x20 ADD SWAP2 PUSH2 0xAD9 JUMP JUMPDEST DUP3 ADD SWAP2 SWAP1 PUSH0 MSTORE PUSH1 0x20 PUSH0 KECCAK256 SWAP1 JUMPDEST DUP2 SLOAD DUP2 MSTORE SWAP1 PUSH1 0x1 ADD SWAP1 PUSH1 0x20 ADD DUP1 DUP4 GT PUSH2 0xABC JUMPI DUP3 SWAP1 SUB PUSH1 0x1F AND DUP3 ADD SWAP2 JUMPDEST POP POP POP POP POP SWAP1 POP SWAP1 JUMP JUMPDEST PUSH0 DUP1 PUSH2 0xAED PUSH2 0xDF3 JUMP JUMPDEST SWAP1 POP PUSH2 0xAFA DUP2 DUP6 DUP6 PUSH2 0xF57 JUMP JUMPDEST PUSH1 0x1 SWAP2 POP POP SWAP3 SWAP2 POP POP JUMP JUMPDEST PUSH0 PUSH2 0xB11 DUP3 PUSH1 0x1 PUSH2 0xD9B JUMP JUMPDEST SWAP1 POP SWAP2 SWAP1 POP JUMP JUMPDEST PUSH0 CALLER PUSH20 0xFFFFFFFFFFFFFFFFFFFFFFFFFFFFFFFFFFFFFFFF AND PUSH1 0x5 PUSH0 SWAP1 SLOAD SWAP1 PUSH2 0x100 EXP SWAP1 DIV PUSH20 0xFFFFFFFFFFFFFFFFFFFFFFFFFFFFFFFFFFFFFFFF AND PUSH20 0xFFFFFFFFFFFFFFFFFFFFFFFFFFFFFFFFFFFFFFFF AND EQ PUSH2 0xBA8 JUMPI PUSH1 0x40 MLOAD PUSH32 0x8C379A000000000000000000000000000000000000000000000000000000000 DUP2 MSTORE PUSH1 0x4 ADD PUSH2 0xB9F SWAP1 PUSH2 0x1FB1 JUMP JUMPDEST PUSH1 0x40 MLOAD DUP1 SWAP2 SUB SWAP1 REVERT JUMPDEST PUSH0 PUSH2 0xBB2 DUP4 PUSH2 0xCDC JUMP JUMPDEST SWAP1 POP DUP1 DUP6 GT ISZERO PUSH2 0xBFD JUMPI DUP3 DUP6 DUP3 PUSH1 0x40 MLOAD PUSH32 0xFE9CCEEC00000000000000000000000000000000000000000000000000000000 DUP2 MSTORE PUSH1 0x4 ADD PUSH2 0xBF4 SWAP4 SWAP3 SWAP2 SWAP1 PUSH2 0x2037 JUMP JUMPDEST PUSH1 0x40 MLOAD DUP1 SWAP2 SUB SWAP1 REVERT JUMPDEST PUSH0 PUSH2 0xC07 DUP7 PUSH2 0x754 JUMP JUMPDEST SWAP1 POP PUSH2 0xC13 DUP5 DUP3 PUSH2 0x10CA JUMP JUMPDEST DUP2 SWAP3 POP POP POP SWAP4 SWAP3 POP POP POP JUMP JUMPDEST PUSH0 DUP1 PUSH2 0xC2A DUP4 PUSH2 0xCF6 JUMP JUMPDEST SWAP1 POP DUP1 DUP6 GT ISZERO PUSH2 0xC75 JUMPI DUP3 DUP6 DUP3 PUSH1 0x40 MLOAD PUSH32 0xB94ABEEC00000000000000000000000000000000000000000000000000000000 DUP2 MSTORE PUSH1 0x4 ADD PUSH2 0xC6C SWAP4 SWAP3 SWAP2 SWAP1 PUSH2 0x2037 JUMP JUMPDEST PUSH1 0x40 MLOAD DUP1 SWAP2 SUB SWAP1 REVERT JUMPDEST PUSH0 PUSH2 0xC7F DUP7 PUSH2 0x827 JUMP JUMPDEST SWAP1 POP PUSH2 0xC95 PUSH2 0xC8C PUSH2 0xDF3 JUMP JUMPDEST DUP7 DUP7 DUP5 DUP11 PUSH2 0x1149 JUMP JUMPDEST DUP1 SWAP3 POP POP POP SWAP4 SWAP3 POP POP POP JUMP JUMPDEST PUSH0 PUSH32 0xFFFFFFFFFFFFFFFFFFFFFFFFFFFFFFFFFFFFFFFFFFFFFFFFFFFFFFFFFFFFFFFF SWAP1 POP SWAP2 SWAP1 POP JUMP JUMPDEST PUSH0 PUSH2 0xCD5 DUP3 PUSH0 PUSH2 0xE0C JUMP JUMPDEST SWAP1 POP SWAP2 SWAP1 POP JUMP JUMPDEST PUSH0 PUSH2 0xCEF PUSH2 0xCE9 DUP4 PUSH2 0x9B6 JUMP JUMPDEST PUSH0 PUSH2 0xD9B JUMP JUMPDEST SWAP1 POP SWAP2 SWAP1 POP JUMP JUMPDEST PUSH0 PUSH2 0xD00 DUP3 PUSH2 0x9B6 JUMP JUMPDEST SWAP1 POP SWAP2 SWAP1 POP JUMP JUMPDEST PUSH0 PUSH1 0x1 PUSH0 DUP5 PUSH20 0xFFFFFFFFFFFFFFFFFFFFFFFFFFFFFFFFFFFFFFFF AND PUSH20 0xFFFFFFFFFFFFFFFFFFFFFFFFFFFFFFFFFFFFFFFF AND DUP2 MSTORE PUSH1 0x20 ADD SWAP1 DUP2 MSTORE PUSH1 0x20 ADD PUSH0 KECCAK256 PUSH0 DUP4 PUSH20 0xFFFFFFFFFFFFFFFFFFFFFFFFFFFFFFFFFFFFFFFF AND PUSH20 0xFFFFFFFFFFFFFFFFFFFFFFFFFFFFFFFFFFFFFFFF AND DUP2 MSTORE PUSH1 0x20 ADD SWAP1 DUP2 MSTORE PUSH1 0x20 ADD PUSH0 KECCAK256 SLOAD SWAP1 POP SWAP3 SWAP2 POP POP JUMP JUMPDEST PUSH0 PUSH2 0xD94 DUP3 PUSH0 PUSH2 0xE0C JUMP JUMPDEST SWAP1 POP SWAP2 SWAP1 POP JUMP JUMPDEST PUSH0 PUSH2 0xDEB PUSH1 0x1 PUSH2 0xDA9 PUSH2 0x5F2 JUMP JUMPDEST PUSH2 0xDB3 SWAP2 SWAP1 PUSH2 0x206C JUMP JUMPDEST PUSH2 0xDBB PUSH2 0x1047 JUMP JUMPDEST PUSH1 0xA PUSH2 0xDC7 SWAP2 SWAP1 PUSH2 0x21CE JUMP JUMPDEST PUSH2 0xDCF PUSH2 0x767 JUMP JUMPDEST PUSH2 0xDD9 SWAP2 SWAP1 PUSH2 0x206C JUMP JUMPDEST DUP5 DUP7 PUSH2 0x1242 SWAP1 SWAP4 SWAP3 SWAP2 SWAP1 PUSH4 0xFFFFFFFF AND JUMP JUMPDEST SWAP1 POP SWAP3 SWAP2 POP POP JUMP JUMPDEST PUSH0 CALLER SWAP1 POP SWAP1 JUMP JUMPDEST PUSH2 0xE07 DUP4 DUP4 DUP4 PUSH1 0x1 PUSH2 0x1297 JUMP JUMPDEST POP POP POP JUMP JUMPDEST PUSH0 PUSH1 0x5 PUSH1 0x14 SWAP1 SLOAD SWAP1 PUSH2 0x100 EXP SWAP1 DIV PUSH1 0xFF AND ISZERO PUSH2 0xE78 JUMPI PUSH2 0xE71 DUP4 PUSH2 0xE2E PUSH2 0x1047 JUMP JUMPDEST PUSH1 0xA PUSH2 0xE3A SWAP2 SWAP1 PUSH2 0x21CE JUMP JUMPDEST PUSH2 0xE42 PUSH2 0x767 JUMP JUMPDEST PUSH2 0xE4C SWAP2 SWAP1 PUSH2 0x206C JUMP JUMPDEST PUSH1 0x1 DUP7 PUSH2 0xE57 PUSH2 0x5F2 JUMP JUMPDEST PUSH2 0xE61 SWAP2 SWAP1 PUSH2 0x2218 JUMP JUMPDEST PUSH2 0xE6B SWAP2 SWAP1 PUSH2 0x206C JUMP JUMPDEST DUP6 PUSH2 0x1242 JUMP JUMPDEST SWAP1 POP PUSH2 0xEBF JUMP JUMPDEST PUSH2 0xEBC DUP4 PUSH2 0xE84 PUSH2 0x1047 JUMP JUMPDEST PUSH1 0xA PUSH2 0xE90 SWAP2 SWAP1 PUSH2 0x21CE JUMP JUMPDEST PUSH2 0xE98 PUSH2 0x767 JUMP JUMPDEST PUSH2 0xEA2 SWAP2 SWAP1 PUSH2 0x206C JUMP JUMPDEST PUSH1 0x1 PUSH2 0xEAC PUSH2 0x5F2 JUMP JUMPDEST PUSH2 0xEB6 SWAP2 SWAP1 PUSH2 0x206C JUMP JUMPDEST DUP6 PUSH2 0x1242 JUMP JUMPDEST SWAP1 POP JUMPDEST SWAP3 SWAP2 POP POP JUMP JUMPDEST PUSH0 PUSH2 0xED0 DUP5 DUP5 PUSH2 0xD07 JUMP JUMPDEST SWAP1 POP PUSH32 0xFFFFFFFFFFFFFFFFFFFFFFFFFFFFFFFFFFFFFFFFFFFFFFFFFFFFFFFFFFFFFFFF DUP2 EQ PUSH2 0xF51 JUMPI DUP2 DUP2 LT ISZERO PUSH2 0xF42 JUMPI DUP3 DUP2 DUP4 PUSH1 0x40 MLOAD PUSH32 0xFB8F41B200000000000000000000000000000000000000000000000000000000 DUP2 MSTORE PUSH1 0x4 ADD PUSH2 0xF39 SWAP4 SWAP3 SWAP2 SWAP1 PUSH2 0x2037 JUMP JUMPDEST PUSH1 0x40 MLOAD DUP1 SWAP2 SUB SWAP1 REVERT JUMPDEST PUSH2 0xF50 DUP5 DUP5 DUP5 DUP5 SUB PUSH0 PUSH2 0x1297 JUMP JUMPDEST JUMPDEST POP POP POP POP JUMP JUMPDEST PUSH0 PUSH20 0xFFFFFFFFFFFFFFFFFFFFFFFFFFFFFFFFFFFFFFFF AND DUP4 PUSH20 0xFFFFFFFFFFFFFFFFFFFFFFFFFFFFFFFFFFFFFFFF AND SUB PUSH2 0xFC7 JUMPI PUSH0 PUSH1 0x40 MLOAD PUSH32 0x96C6FD1E00000000000000000000000000000000000000000000000000000000 DUP2 MSTORE PUSH1 0x4 ADD PUSH2 0xFBE SWAP2 SWAP1 PUSH2 0x1CE6 JUMP JUMPDEST PUSH1 0x40 MLOAD DUP1 SWAP2 SUB SWAP1 REVERT JUMPDEST PUSH0 PUSH20 0xFFFFFFFFFFFFFFFFFFFFFFFFFFFFFFFFFFFFFFFF AND DUP3 PUSH20 0xFFFFFFFFFFFFFFFFFFFFFFFFFFFFFFFFFFFFFFFF AND SUB PUSH2 0x1037 JUMPI PUSH0 PUSH1 0x40 MLOAD PUSH32 0xEC442F0500000000000000000000000000000000000000000000000000000000 DUP2 MSTORE PUSH1 0x4 ADD PUSH2 0x102E SWAP2 SWAP1 PUSH2 0x1CE6 JUMP JUMPDEST PUSH1 0x40 MLOAD DUP1 SWAP2 SUB SWAP1 REVERT JUMPDEST PUSH2 0x1042 DUP4 DUP4 DUP4 PUSH2 0x1466 JUMP JUMPDEST POP POP POP JUMP JUMPDEST PUSH0 SWAP1 JUMP JUMPDEST PUSH0 PUSH20 0xFFFFFFFFFFFFFFFFFFFFFFFFFFFFFFFFFFFFFFFF AND DUP3 PUSH20 0xFFFFFFFFFFFFFFFFFFFFFFFFFFFFFFFFFFFFFFFF AND SUB PUSH2 0x10BB JUMPI PUSH0 PUSH1 0x40 MLOAD PUSH32 0xEC442F0500000000000000000000000000000000000000000000000000000000 DUP2 MSTORE PUSH1 0x4 ADD PUSH2 0x10B2 SWAP2 SWAP1 PUSH2 0x1CE6 JUMP JUMPDEST PUSH1 0x40 MLOAD DUP1 SWAP2 SUB SWAP1 REVERT JUMPDEST PUSH2 0x10C6 PUSH0 DUP4 DUP4 PUSH2 0x1466 JUMP JUMPDEST POP POP JUMP JUMPDEST PUSH0 PUSH20 0xFFFFFFFFFFFFFFFFFFFFFFFFFFFFFFFFFFFFFFFF AND DUP3 PUSH20 0xFFFFFFFFFFFFFFFFFFFFFFFFFFFFFFFFFFFFFFFF AND SUB PUSH2 0x113A JUMPI PUSH0 PUSH1 0x40 MLOAD PUSH32 0x96C6FD1E00000000000000000000000000000000000000000000000000000000 DUP2 MSTORE PUSH1 0x4 ADD PUSH2 0x1131 SWAP2 SWAP1 PUSH2 0x1CE6 JUMP JUMPDEST PUSH1 0x40 MLOAD DUP1 SWAP2 SUB SWAP1 REVERT JUMPDEST PUSH2 0x1145 DUP3 PUSH0 DUP4 PUSH2 0x1466 JUMP JUMPDEST POP POP JUMP JUMPDEST DUP3 PUSH20 0xFFFFFFFFFFFFFFFFFFFFFFFFFFFFFFFFFFFFFFFF AND DUP6 PUSH20 0xFFFFFFFFFFFFFFFFFFFFFFFFFFFFFFFFFFFFFFFF AND EQ PUSH2 0x1188 JUMPI PUSH2 0x1187 DUP4 DUP7 DUP4 PUSH2 0xEC5 JUMP JUMPDEST JUMPDEST PUSH2 0x1192 DUP4 DUP3 PUSH2 0x10CA JUMP JUMPDEST PUSH2 0x11BD PUSH32 0x0 DUP6 DUP5 PUSH2 0x167F JUMP JUMPDEST DUP3 PUSH20 0xFFFFFFFFFFFFFFFFFFFFFFFFFFFFFFFFFFFFFFFF AND DUP5 PUSH20 0xFFFFFFFFFFFFFFFFFFFFFFFFFFFFFFFFFFFFFFFF AND DUP7 PUSH20 0xFFFFFFFFFFFFFFFFFFFFFFFFFFFFFFFFFFFFFFFF AND PUSH32 0xFBDE797D201C681B91056529119E0B02407C7BB96A4A2C75C01FC9667232C8DB DUP6 DUP6 PUSH1 0x40 MLOAD PUSH2 0x1233 SWAP3 SWAP2 SWAP1 PUSH2 0x224B JUMP JUMPDEST PUSH1 0x40 MLOAD DUP1 SWAP2 SUB SWAP1 LOG4 POP POP POP POP POP JUMP JUMPDEST PUSH0 DUP1 PUSH2 0x124F DUP7 DUP7 DUP7 PUSH2 0x16FE JUMP JUMPDEST SWAP1 POP PUSH2 0x125A DUP4 PUSH2 0x17FD JUMP JUMPDEST DUP1 ISZERO PUSH2 0x1276 JUMPI POP PUSH0 DUP5 DUP1 PUSH2 0x1271 JUMPI PUSH2 0x1270 PUSH2 0x2272 JUMP JUMPDEST JUMPDEST DUP7 DUP9 MULMOD GT JUMPDEST ISZERO PUSH2 0x128B JUMPI PUSH1 0x1 DUP2 PUSH2 0x1288 SWAP2 SWAP1 PUSH2 0x206C JUMP JUMPDEST SWAP1 POP JUMPDEST DUP1 SWAP2 POP POP SWAP5 SWAP4 POP POP POP POP JUMP JUMPDEST PUSH0 PUSH20 0xFFFFFFFFFFFFFFFFFFFFFFFFFFFFFFFFFFFFFFFF AND DUP5 PUSH20 0xFFFFFFFFFFFFFFFFFFFFFFFFFFFFFFFFFFFFFFFF AND SUB PUSH2 0x1307 JUMPI PUSH0 PUSH1 0x40 MLOAD PUSH32 0xE602DF0500000000000000000000000000000000000000000000000000000000 DUP2 MSTORE PUSH1 0x4 ADD PUSH2 0x12FE SWAP2 SWAP1 PUSH2 0x1CE6 JUMP JUMPDEST PUSH1 0x40 MLOAD DUP1 SWAP2 SUB SWAP1 REVERT JUMPDEST PUSH0 PUSH20 0xFFFFFFFFFFFFFFFFFFFFFFFFFFFFFFFFFFFFFFFF AND DUP4 PUSH20 0xFFFFFFFFFFFFFFFFFFFFFFFFFFFFFFFFFFFFFFFF AND SUB PUSH2 0x1377 JUMPI PUSH0 PUSH1 0x40 MLOAD PUSH32 0x94280D6200000000000000000000000000000000000000000000000000000000 DUP2 MSTORE PUSH1 0x4 ADD PUSH2 0x136E SWAP2 SWAP1 PUSH2 0x1CE6 JUMP JUMPDEST PUSH1 0x40 MLOAD DUP1 SWAP2 SUB SWAP1 REVERT JUMPDEST DUP2 PUSH1 0x1 PUSH0 DUP7 PUSH20 0xFFFFFFFFFFFFFFFFFFFFFFFFFFFFFFFFFFFFFFFF AND PUSH20 0xFFFFFFFFFFFFFFFFFFFFFFFFFFFFFFFFFFFFFFFF AND DUP2 MSTORE PUSH1 0x20 ADD SWAP1 DUP2 MSTORE PUSH1 0x20 ADD PUSH0 KECCAK256 PUSH0 DUP6 PUSH20 0xFFFFFFFFFFFFFFFFFFFFFFFFFFFFFFFFFFFFFFFF AND PUSH20 0xFFFFFFFFFFFFFFFFFFFFFFFFFFFFFFFFFFFFFFFF AND DUP2 MSTORE PUSH1 0x20 ADD SWAP1 DUP2 MSTORE PUSH1 0x20 ADD PUSH0 KECCAK256 DUP2 SWAP1 SSTORE POP DUP1 ISZERO PUSH2 0x1460 JUMPI DUP3 PUSH20 0xFFFFFFFFFFFFFFFFFFFFFFFFFFFFFFFFFFFFFFFF AND DUP5 PUSH20 0xFFFFFFFFFFFFFFFFFFFFFFFFFFFFFFFFFFFFFFFF AND PUSH32 0x8C5BE1E5EBEC7D5BD14F71427D1E84F3DD0314C0F7B2291E5B200AC8C7C3B925 DUP5 PUSH1 0x40 MLOAD PUSH2 0x1457 SWAP2 SWAP1 PUSH2 0x1A86 JUMP JUMPDEST PUSH1 0x40 MLOAD DUP1 SWAP2 SUB SWAP1 LOG3 JUMPDEST POP POP POP POP JUMP JUMPDEST PUSH0 PUSH20 0xFFFFFFFFFFFFFFFFFFFFFFFFFFFFFFFFFFFFFFFF AND DUP4 PUSH20 0xFFFFFFFFFFFFFFFFFFFFFFFFFFFFFFFFFFFFFFFF AND SUB PUSH2 0x14B6 JUMPI DUP1 PUSH1 0x2 PUSH0 DUP3 DUP3 SLOAD PUSH2 0x14AA SWAP2 SWAP1 PUSH2 0x206C JUMP JUMPDEST SWAP3 POP POP DUP2 SWAP1 SSTORE POP PUSH2 0x1584 JUMP JUMPDEST PUSH0 DUP1 PUSH0 DUP6 PUSH20 0xFFFFFFFFFFFFFFFFFFFFFFFFFFFFFFFFFFFFFFFF AND PUSH20 0xFFFFFFFFFFFFFFFFFFFFFFFFFFFFFFFFFFFFFFFF AND DUP2 MSTORE PUSH1 0x20 ADD SWAP1 DUP2 MSTORE PUSH1 0x20 ADD PUSH0 KECCAK256 SLOAD SWAP1 POP DUP2 DUP2 LT ISZERO PUSH2 0x153F JUMPI DUP4 DUP2 DUP4 PUSH1 0x40 MLOAD PUSH32 0xE450D38C00000000000000000000000000000000000000000000000000000000 DUP2 MSTORE PUSH1 0x4 ADD PUSH2 0x1536 SWAP4 SWAP3 SWAP2 SWAP1 PUSH2 0x2037 JUMP JUMPDEST PUSH1 0x40 MLOAD DUP1 SWAP2 SUB SWAP1 REVERT JUMPDEST DUP2 DUP2 SUB PUSH0 DUP1 DUP7 PUSH20 0xFFFFFFFFFFFFFFFFFFFFFFFFFFFFFFFFFFFFFFFF AND PUSH20 0xFFFFFFFFFFFFFFFFFFFFFFFFFFFFFFFFFFFFFFFF AND DUP2 MSTORE PUSH1 0x20 ADD SWAP1 DUP2 MSTORE PUSH1 0x20 ADD PUSH0 KECCAK256 DUP2 SWAP1 SSTORE POP POP JUMPDEST PUSH0 PUSH20 0xFFFFFFFFFFFFFFFFFFFFFFFFFFFFFFFFFFFFFFFF AND DUP3 PUSH20 0xFFFFFFFFFFFFFFFFFFFFFFFFFFFFFFFFFFFFFFFF AND SUB PUSH2 0x15CB JUMPI DUP1 PUSH1 0x2 PUSH0 DUP3 DUP3 SLOAD SUB SWAP3 POP POP DUP2 SWAP1 SSTORE POP PUSH2 0x1615 JUMP JUMPDEST DUP1 PUSH0 DUP1 DUP5 PUSH20 0xFFFFFFFFFFFFFFFFFFFFFFFFFFFFFFFFFFFFFFFF AND PUSH20 0xFFFFFFFFFFFFFFFFFFFFFFFFFFFFFFFFFFFFFFFF AND DUP2 MSTORE PUSH1 0x20 ADD SWAP1 DUP2 MSTORE PUSH1 0x20 ADD PUSH0 KECCAK256 PUSH0 DUP3 DUP3 SLOAD ADD SWAP3 POP POP DUP2 SWAP1 SSTORE POP JUMPDEST DUP2 PUSH20 0xFFFFFFFFFFFFFFFFFFFFFFFFFFFFFFFFFFFFFFFF AND DUP4 PUSH20 0xFFFFFFFFFFFFFFFFFFFFFFFFFFFFFFFFFFFFFFFF AND PUSH32 0xDDF252AD1BE2C89B69C2B068FC378DAA952BA7F163C4A11628F55A4DF523B3EF DUP4 PUSH1 0x40 MLOAD PUSH2 0x1672 SWAP2 SWAP1 PUSH2 0x1A86 JUMP JUMPDEST PUSH1 0x40 MLOAD DUP1 SWAP2 SUB SWAP1 LOG3 POP POP POP JUMP JUMPDEST PUSH2 0x16F9 DUP4 DUP5 PUSH20 0xFFFFFFFFFFFFFFFFFFFFFFFFFFFFFFFFFFFFFFFF AND PUSH4 0xA9059CBB DUP6 DUP6 PUSH1 0x40 MLOAD PUSH1 0x24 ADD PUSH2 0x16B2 SWAP3 SWAP2 SWAP1 PUSH2 0x229F JUMP JUMPDEST PUSH1 0x40 MLOAD PUSH1 0x20 DUP2 DUP4 SUB SUB DUP2 MSTORE SWAP1 PUSH1 0x40 MSTORE SWAP2 POP PUSH1 0xE0 SHL PUSH1 0x20 DUP3 ADD DUP1 MLOAD PUSH28 0xFFFFFFFFFFFFFFFFFFFFFFFFFFFFFFFFFFFFFFFFFFFFFFFFFFFFFFFF DUP4 DUP2 DUP4 AND OR DUP4 MSTORE POP POP POP POP PUSH2 0x182A JUMP JUMPDEST POP POP POP JUMP JUMPDEST PUSH0 DUP1 DUP4 DUP6 MUL SWAP1 POP PUSH0 DUP1 NOT DUP6 DUP8 MULMOD DUP3 DUP2 LT DUP4 DUP3 SUB SUB SWAP2 POP POP PUSH0 DUP2 SUB PUSH2 0x1736 JUMPI DUP4 DUP3 DUP2 PUSH2 0x172C JUMPI PUSH2 0x172B PUSH2 0x2272 JUMP JUMPDEST JUMPDEST DIV SWAP3 POP POP POP PUSH2 0x17F6 JUMP JUMPDEST DUP1 DUP5 GT PUSH2 0x176F JUMPI PUSH1 0x40 MLOAD PUSH32 0x227BC15300000000000000000000000000000000000000000000000000000000 DUP2 MSTORE PUSH1 0x4 ADD PUSH1 0x40 MLOAD DUP1 SWAP2 SUB SWAP1 REVERT JUMPDEST PUSH0 DUP5 DUP7 DUP9 MULMOD SWAP1 POP DUP3 DUP2 GT DUP3 SUB SWAP2 POP DUP1 DUP4 SUB SWAP3 POP PUSH0 DUP6 PUSH0 SUB DUP7 AND SWAP1 POP DUP1 DUP7 DIV SWAP6 POP DUP1 DUP5 DIV SWAP4 POP PUSH1 0x1 DUP2 DUP3 PUSH0 SUB DIV ADD SWAP1 POP DUP1 DUP4 MUL DUP5 OR SWAP4 POP PUSH0 PUSH1 0x2 DUP8 PUSH1 0x3 MUL XOR SWAP1 POP DUP1 DUP8 MUL PUSH1 0x2 SUB DUP2 MUL SWAP1 POP DUP1 DUP8 MUL PUSH1 0x2 SUB DUP2 MUL SWAP1 POP DUP1 DUP8 MUL PUSH1 0x2 SUB DUP2 MUL SWAP1 POP DUP1 DUP8 MUL PUSH1 0x2 SUB DUP2 MUL SWAP1 POP DUP1 DUP8 MUL PUSH1 0x2 SUB DUP2 MUL SWAP1 POP DUP1 DUP8 MUL PUSH1 0x2 SUB DUP2 MUL SWAP1 POP DUP1 DUP6 MUL SWAP6 POP POP POP POP POP POP JUMPDEST SWAP4 SWAP3 POP POP POP JUMP JUMPDEST PUSH0 PUSH1 0x1 PUSH1 0x2 DUP4 PUSH1 0x3 DUP2 GT ISZERO PUSH2 0x1815 JUMPI PUSH2 0x1814 PUSH2 0x22C6 JUMP JUMPDEST JUMPDEST PUSH2 0x181F SWAP2 SWAP1 PUSH2 0x22F3 JUMP JUMPDEST PUSH1 0xFF AND EQ SWAP1 POP SWAP2 SWAP1 POP JUMP JUMPDEST PUSH0 PUSH2 0x1854 DUP3 DUP5 PUSH20 0xFFFFFFFFFFFFFFFFFFFFFFFFFFFFFFFFFFFFFFFF AND PUSH2 0x18BF SWAP1 SWAP2 SWAP1 PUSH4 0xFFFFFFFF AND JUMP JUMPDEST SWAP1 POP PUSH0 DUP2 MLOAD EQ ISZERO DUP1 ISZERO PUSH2 0x1878 JUMPI POP DUP1 DUP1 PUSH1 0x20 ADD SWAP1 MLOAD DUP2 ADD SWAP1 PUSH2 0x1876 SWAP2 SWAP1 PUSH2 0x234D JUMP JUMPDEST ISZERO JUMPDEST ISZERO PUSH2 0x18BA JUMPI DUP3 PUSH1 0x40 MLOAD PUSH32 0x5274AFE700000000000000000000000000000000000000000000000000000000 DUP2 MSTORE PUSH1 0x4 ADD PUSH2 0x18B1 SWAP2 SWAP1 PUSH2 0x1CE6 JUMP JUMPDEST PUSH1 0x40 MLOAD DUP1 SWAP2 SUB SWAP1 REVERT JUMPDEST POP POP POP JUMP JUMPDEST PUSH1 0x60 PUSH2 0x18CC DUP4 DUP4 PUSH0 PUSH2 0x18D4 JUMP JUMPDEST SWAP1 POP SWAP3 SWAP2 POP POP JUMP JUMPDEST PUSH1 0x60 DUP2 SELFBALANCE LT ISZERO PUSH2 0x191B JUMPI ADDRESS PUSH1 0x40 MLOAD PUSH32 0xCD78605900000000000000000000000000000000000000000000000000000000 DUP2 MSTORE PUSH1 0x4 ADD PUSH2 0x1912 SWAP2 SWAP1 PUSH2 0x1CE6 JUMP JUMPDEST PUSH1 0x40 MLOAD DUP1 SWAP2 SUB SWAP1 REVERT JUMPDEST PUSH0 DUP1 DUP6 PUSH20 0xFFFFFFFFFFFFFFFFFFFFFFFFFFFFFFFFFFFFFFFF AND DUP5 DUP7 PUSH1 0x40 MLOAD PUSH2 0x1943 SWAP2 SWAP1 PUSH2 0x23BC JUMP JUMPDEST PUSH0 PUSH1 0x40 MLOAD DUP1 DUP4 SUB DUP2 DUP6 DUP8 GAS CALL SWAP3 POP POP POP RETURNDATASIZE DUP1 PUSH0 DUP2 EQ PUSH2 0x197D JUMPI PUSH1 0x40 MLOAD SWAP2 POP PUSH1 0x1F NOT PUSH1 0x3F RETURNDATASIZE ADD AND DUP3 ADD PUSH1 0x40 MSTORE RETURNDATASIZE DUP3 MSTORE RETURNDATASIZE PUSH0 PUSH1 0x20 DUP5 ADD RETURNDATACOPY PUSH2 0x1982 JUMP JUMPDEST PUSH1 0x60 SWAP2 POP JUMPDEST POP SWAP2 POP SWAP2 POP PUSH2 0x1992 DUP7 DUP4 DUP4 PUSH2 0x199D JUMP JUMPDEST SWAP3 POP POP POP SWAP4 SWAP3 POP POP POP JUMP JUMPDEST PUSH1 0x60 DUP3 PUSH2 0x19B2 JUMPI PUSH2 0x19AD DUP3 PUSH2 0x1A2A JUMP JUMPDEST PUSH2 0x1A22 JUMP JUMPDEST PUSH0 DUP3 MLOAD EQ DUP1 ISZERO PUSH2 0x19D8 JUMPI POP PUSH0 DUP5 PUSH20 0xFFFFFFFFFFFFFFFFFFFFFFFFFFFFFFFFFFFFFFFF AND EXTCODESIZE EQ JUMPDEST ISZERO PUSH2 0x1A1A JUMPI DUP4 PUSH1 0x40 MLOAD PUSH32 0x9996B31500000000000000000000000000000000000000000000000000000000 DUP2 MSTORE PUSH1 0x4 ADD PUSH2 0x1A11 SWAP2 SWAP1 PUSH2 0x1CE6 JUMP JUMPDEST PUSH1 0x40 MLOAD DUP1 SWAP2 SUB SWAP1 REVERT JUMPDEST DUP2 SWAP1 POP PUSH2 0x1A23 JUMP JUMPDEST JUMPDEST SWAP4 SWAP3 POP POP POP JUMP JUMPDEST PUSH0 DUP2 MLOAD GT ISZERO PUSH2 0x1A3C JUMPI DUP1 MLOAD DUP1 DUP3 PUSH1 0x20 ADD REVERT JUMPDEST PUSH1 0x40 MLOAD PUSH32 0x1425EA4200000000000000000000000000000000000000000000000000000000 DUP2 MSTORE PUSH1 0x4 ADD PUSH1 0x40 MLOAD DUP1 SWAP2 SUB SWAP1 REVERT JUMPDEST PUSH0 DUP2 SWAP1 POP SWAP2 SWAP1 POP JUMP JUMPDEST PUSH2 0x1A80 DUP2 PUSH2 0x1A6E JUMP JUMPDEST DUP3 MSTORE POP POP JUMP JUMPDEST PUSH0 PUSH1 0x20 DUP3 ADD SWAP1 POP PUSH2 0x1A99 PUSH0 DUP4 ADD DUP5 PUSH2 0x1A77 JUMP JUMPDEST SWAP3 SWAP2 POP POP JUMP JUMPDEST PUSH0 DUP2 MLOAD SWAP1 POP SWAP2 SWAP1 POP JUMP JUMPDEST PUSH0 DUP3 DUP3 MSTORE PUSH1 0x20 DUP3 ADD SWAP1 POP SWAP3 SWAP2 POP POP JUMP JUMPDEST DUP3 DUP2 DUP4 MCOPY PUSH0 DUP4 DUP4 ADD MSTORE POP POP POP JUMP JUMPDEST PUSH0 PUSH1 0x1F NOT PUSH1 0x1F DUP4 ADD AND SWAP1 POP SWAP2 SWAP1 POP JUMP JUMPDEST PUSH0 PUSH2 0x1AE1 DUP3 PUSH2 0x1A9F JUMP JUMPDEST PUSH2 0x1AEB DUP2 DUP6 PUSH2 0x1AA9 JUMP JUMPDEST SWAP4 POP PUSH2 0x1AFB DUP2 DUP6 PUSH1 0x20 DUP7 ADD PUSH2 0x1AB9 JUMP JUMPDEST PUSH2 0x1B04 DUP2 PUSH2 0x1AC7 JUMP JUMPDEST DUP5 ADD SWAP2 POP POP SWAP3 SWAP2 POP POP JUMP JUMPDEST PUSH0 PUSH1 0x20 DUP3 ADD SWAP1 POP DUP2 DUP2 SUB PUSH0 DUP4 ADD MSTORE PUSH2 0x1B27 DUP2 DUP5 PUSH2 0x1AD7 JUMP JUMPDEST SWAP1 POP SWAP3 SWAP2 POP POP JUMP JUMPDEST PUSH0 DUP1 REVERT JUMPDEST PUSH2 0x1B3C DUP2 PUSH2 0x1A6E JUMP JUMPDEST DUP2 EQ PUSH2 0x1B46 JUMPI PUSH0 DUP1 REVERT JUMPDEST POP JUMP JUMPDEST PUSH0 DUP2 CALLDATALOAD SWAP1 POP PUSH2 0x1B57 DUP2 PUSH2 0x1B33 JUMP JUMPDEST SWAP3 SWAP2 POP POP JUMP JUMPDEST PUSH0 PUSH1 0x20 DUP3 DUP5 SUB SLT ISZERO PUSH2 0x1B72 JUMPI PUSH2 0x1B71 PUSH2 0x1B2F JUMP JUMPDEST JUMPDEST PUSH0 PUSH2 0x1B7F DUP5 DUP3 DUP6 ADD PUSH2 0x1B49 JUMP JUMPDEST SWAP2 POP POP SWAP3 SWAP2 POP POP JUMP JUMPDEST PUSH0 PUSH20 0xFFFFFFFFFFFFFFFFFFFFFFFFFFFFFFFFFFFFFFFF DUP3 AND SWAP1 POP SWAP2 SWAP1 POP JUMP JUMPDEST PUSH0 PUSH2 0x1BB1 DUP3 PUSH2 0x1B88 JUMP JUMPDEST SWAP1 POP SWAP2 SWAP1 POP JUMP JUMPDEST PUSH2 0x1BC1 DUP2 PUSH2 0x1BA7 JUMP JUMPDEST DUP2 EQ PUSH2 0x1BCB JUMPI PUSH0 DUP1 REVERT JUMPDEST POP JUMP JUMPDEST PUSH0 DUP2 CALLDATALOAD SWAP1 POP PUSH2 0x1BDC DUP2 PUSH2 0x1BB8 JUMP JUMPDEST SWAP3 SWAP2 POP POP JUMP JUMPDEST PUSH0 DUP1 PUSH1 0x40 DUP4 DUP6 SUB SLT ISZERO PUSH2 0x1BF8 JUMPI PUSH2 0x1BF7 PUSH2 0x1B2F JUMP JUMPDEST JUMPDEST PUSH0 PUSH2 0x1C05 DUP6 DUP3 DUP7 ADD PUSH2 0x1BCE JUMP JUMPDEST SWAP3 POP POP PUSH1 0x20 PUSH2 0x1C16 DUP6 DUP3 DUP7 ADD PUSH2 0x1B49 JUMP JUMPDEST SWAP2 POP POP SWAP3 POP SWAP3 SWAP1 POP JUMP JUMPDEST PUSH0 DUP2 ISZERO ISZERO SWAP1 POP SWAP2 SWAP1 POP JUMP JUMPDEST PUSH2 0x1C34 DUP2 PUSH2 0x1C20 JUMP JUMPDEST DUP3 MSTORE POP POP JUMP JUMPDEST PUSH0 PUSH1 0x20 DUP3 ADD SWAP1 POP PUSH2 0x1C4D PUSH0 DUP4 ADD DUP5 PUSH2 0x1C2B JUMP JUMPDEST SWAP3 SWAP2 POP POP JUMP JUMPDEST PUSH0 DUP1 PUSH0 PUSH1 0x60 DUP5 DUP7 SUB SLT ISZERO PUSH2 0x1C6A JUMPI PUSH2 0x1C69 PUSH2 0x1B2F JUMP JUMPDEST JUMPDEST PUSH0 PUSH2 0x1C77 DUP7 DUP3 DUP8 ADD PUSH2 0x1BCE JUMP JUMPDEST SWAP4 POP POP PUSH1 0x20 PUSH2 0x1C88 DUP7 DUP3 DUP8 ADD PUSH2 0x1BCE JUMP JUMPDEST SWAP3 POP POP PUSH1 0x40 PUSH2 0x1C99 DUP7 DUP3 DUP8 ADD PUSH2 0x1B49 JUMP JUMPDEST SWAP2 POP POP SWAP3 POP SWAP3 POP SWAP3 JUMP JUMPDEST PUSH0 PUSH1 0xFF DUP3 AND SWAP1 POP SWAP2 SWAP1 POP JUMP JUMPDEST PUSH2 0x1CB8 DUP2 PUSH2 0x1CA3 JUMP JUMPDEST DUP3 MSTORE POP POP JUMP JUMPDEST PUSH0 PUSH1 0x20 DUP3 ADD SWAP1 POP PUSH2 0x1CD1 PUSH0 DUP4 ADD DUP5 PUSH2 0x1CAF JUMP JUMPDEST SWAP3 SWAP2 POP POP JUMP JUMPDEST PUSH2 0x1CE0 DUP2 PUSH2 0x1BA7 JUMP JUMPDEST DUP3 MSTORE POP POP JUMP JUMPDEST PUSH0 PUSH1 0x20 DUP3 ADD SWAP1 POP PUSH2 0x1CF9 PUSH0 DUP4 ADD DUP5 PUSH2 0x1CD7 JUMP JUMPDEST SWAP3 SWAP2 POP POP JUMP JUMPDEST PUSH0 PUSH1 0x20 DUP3 DUP5 SUB SLT ISZERO PUSH2 0x1D14 JUMPI PUSH2 0x1D13 PUSH2 0x1B2F JUMP JUMPDEST JUMPDEST PUSH0 PUSH2 0x1D21 DUP5 DUP3 DUP6 ADD PUSH2 0x1BCE JUMP JUMPDEST SWAP2 POP POP SWAP3 SWAP2 POP POP JUMP JUMPDEST PUSH0 DUP1 PUSH1 0x40 DUP4 DUP6 SUB SLT ISZERO PUSH2 0x1D40 JUMPI PUSH2 0x1D3F PUSH2 0x1B2F JUMP JUMPDEST JUMPDEST PUSH0 PUSH2 0x1D4D DUP6 DUP3 DUP7 ADD PUSH2 0x1B49 JUMP JUMPDEST SWAP3 POP POP PUSH1 0x20 PUSH2 0x1D5E DUP6 DUP3 DUP7 ADD PUSH2 0x1BCE JUMP JUMPDEST SWAP2 POP POP SWAP3 POP SWAP3 SWAP1 POP JUMP JUMPDEST PUSH0 DUP2 SWAP1 POP SWAP2 SWAP1 POP JUMP JUMPDEST PUSH0 PUSH2 0x1D8B PUSH2 0x1D86 PUSH2 0x1D81 DUP5 PUSH2 0x1B88 JUMP JUMPDEST PUSH2 0x1D68 JUMP JUMPDEST PUSH2 0x1B88 JUMP JUMPDEST SWAP1 POP SWAP2 SWAP1 POP JUMP JUMPDEST PUSH0 PUSH2 0x1D9C DUP3 PUSH2 0x1D71 JUMP JUMPDEST SWAP1 POP SWAP2 SWAP1 POP JUMP JUMPDEST PUSH0 PUSH2 0x1DAD DUP3 PUSH2 0x1D92 JUMP JUMPDEST SWAP1 POP SWAP2 SWAP1 POP JUMP JUMPDEST PUSH2 0x1DBD DUP2 PUSH2 0x1DA3 JUMP JUMPDEST DUP3 MSTORE POP POP JUMP JUMPDEST PUSH0 PUSH1 0x20 DUP3 ADD SWAP1 POP PUSH2 0x1DD6 PUSH0 DUP4 ADD DUP5 PUSH2 0x1DB4 JUMP JUMPDEST SWAP3 SWAP2 POP POP JUMP JUMPDEST PUSH0 DUP1 PUSH0 PUSH1 0x60 DUP5 DUP7 SUB SLT ISZERO PUSH2 0x1DF3 JUMPI PUSH2 0x1DF2 PUSH2 0x1B2F JUMP JUMPDEST JUMPDEST PUSH0 PUSH2 0x1E00 DUP7 DUP3 DUP8 ADD PUSH2 0x1B49 JUMP JUMPDEST SWAP4 POP POP PUSH1 0x20 PUSH2 0x1E11 DUP7 DUP3 DUP8 ADD PUSH2 0x1BCE JUMP JUMPDEST SWAP3 POP POP PUSH1 0x40 PUSH2 0x1E22 DUP7 DUP3 DUP8 ADD PUSH2 0x1BCE JUMP JUMPDEST SWAP2 POP POP SWAP3 POP SWAP3 POP SWAP3 JUMP JUMPDEST PUSH0 DUP1 PUSH1 0x40 DUP4 DUP6 SUB SLT ISZERO PUSH2 0x1E42 JUMPI PUSH2 0x1E41 PUSH2 0x1B2F JUMP JUMPDEST JUMPDEST PUSH0 PUSH2 0x1E4F DUP6 DUP3 DUP7 ADD PUSH2 0x1BCE JUMP JUMPDEST SWAP3 POP POP PUSH1 0x20 PUSH2 0x1E60 DUP6 DUP3 DUP7 ADD PUSH2 0x1BCE JUMP JUMPDEST SWAP2 POP POP SWAP3 POP SWAP3 SWAP1 POP JUMP JUMPDEST PUSH0 DUP2 MLOAD SWAP1 POP PUSH2 0x1E78 DUP2 PUSH2 0x1B33 JUMP JUMPDEST SWAP3 SWAP2 POP POP JUMP JUMPDEST PUSH0 PUSH1 0x20 DUP3 DUP5 SUB SLT ISZERO PUSH2 0x1E93 JUMPI PUSH2 0x1E92 PUSH2 0x1B2F JUMP JUMPDEST JUMPDEST PUSH0 PUSH2 0x1EA0 DUP5 DUP3 DUP6 ADD PUSH2 0x1E6A JUMP JUMPDEST SWAP2 POP POP SWAP3 SWAP2 POP POP JUMP JUMPDEST PUSH32 0x4E487B7100000000000000000000000000000000000000000000000000000000 PUSH0 MSTORE PUSH1 0x22 PUSH1 0x4 MSTORE PUSH1 0x24 PUSH0 REVERT JUMPDEST PUSH0 PUSH1 0x2 DUP3 DIV SWAP1 POP PUSH1 0x1 DUP3 AND DUP1 PUSH2 0x1EED JUMPI PUSH1 0x7F DUP3 AND SWAP2 POP JUMPDEST PUSH1 0x20 DUP3 LT DUP2 SUB PUSH2 0x1F00 JUMPI PUSH2 0x1EFF PUSH2 0x1EA9 JUMP JUMPDEST JUMPDEST POP SWAP2 SWAP1 POP JUMP JUMPDEST PUSH32 0x4E487B7100000000000000000000000000000000000000000000000000000000 PUSH0 MSTORE PUSH1 0x11 PUSH1 0x4 MSTORE PUSH1 0x24 PUSH0 REVERT JUMPDEST PUSH0 PUSH2 0x1F3D DUP3 PUSH2 0x1CA3 JUMP JUMPDEST SWAP2 POP PUSH2 0x1F48 DUP4 PUSH2 0x1CA3 JUMP JUMPDEST SWAP3 POP DUP3 DUP3 ADD SWAP1 POP PUSH1 0xFF DUP2 GT ISZERO PUSH2 0x1F61 JUMPI PUSH2 0x1F60 PUSH2 0x1F06 JUMP JUMPDEST JUMPDEST SWAP3 SWAP2 POP POP JUMP JUMPDEST PUSH32 0x53656E646572206973204E6F74205661756C7473000000000000000000000000 PUSH0 DUP3 ADD MSTORE POP JUMP JUMPDEST PUSH0 PUSH2 0x1F9B PUSH1 0x14 DUP4 PUSH2 0x1AA9 JUMP JUMPDEST SWAP2 POP PUSH2 0x1FA6 DUP3 PUSH2 0x1F67 JUMP JUMPDEST PUSH1 0x20 DUP3 ADD SWAP1 POP SWAP2 SWAP1 POP JUMP JUMPDEST PUSH0 PUSH1 0x20 DUP3 ADD SWAP1 POP DUP2 DUP2 SUB PUSH0 DUP4 ADD MSTORE PUSH2 0x1FC8 DUP2 PUSH2 0x1F8F JUMP JUMPDEST SWAP1 POP SWAP2 SWAP1 POP JUMP JUMPDEST PUSH32 0x416D6F756E74206D7573742062652067726561746572207468616E2030000000 PUSH0 DUP3 ADD MSTORE POP JUMP JUMPDEST PUSH0 PUSH2 0x2003 PUSH1 0x1D DUP4 PUSH2 0x1AA9 JUMP JUMPDEST SWAP2 POP PUSH2 0x200E DUP3 PUSH2 0x1FCF JUMP JUMPDEST PUSH1 0x20 DUP3 ADD SWAP1 POP SWAP2 SWAP1 POP JUMP JUMPDEST PUSH0 PUSH1 0x20 DUP3 ADD SWAP1 POP DUP2 DUP2 SUB PUSH0 DUP4 ADD MSTORE PUSH2 0x2030 DUP2 PUSH2 0x1FF7 JUMP JUMPDEST SWAP1 POP SWAP2 SWAP1 POP JUMP JUMPDEST PUSH0 PUSH1 0x60 DUP3 ADD SWAP1 POP PUSH2 0x204A PUSH0 DUP4 ADD DUP7 PUSH2 0x1CD7 JUMP JUMPDEST PUSH2 0x2057 PUSH1 0x20 DUP4 ADD DUP6 PUSH2 0x1A77 JUMP JUMPDEST PUSH2 0x2064 PUSH1 0x40 DUP4 ADD DUP5 PUSH2 0x1A77 JUMP JUMPDEST SWAP5 SWAP4 POP POP POP POP JUMP JUMPDEST PUSH0 PUSH2 0x2076 DUP3 PUSH2 0x1A6E JUMP JUMPDEST SWAP2 POP PUSH2 0x2081 DUP4 PUSH2 0x1A6E JUMP JUMPDEST SWAP3 POP DUP3 DUP3 ADD SWAP1 POP DUP1 DUP3 GT ISZERO PUSH2 0x2099 JUMPI PUSH2 0x2098 PUSH2 0x1F06 JUMP JUMPDEST JUMPDEST SWAP3 SWAP2 POP POP JUMP JUMPDEST PUSH0 DUP2 PUSH1 0x1 SHR SWAP1 POP SWAP2 SWAP1 POP JUMP JUMPDEST PUSH0 DUP1 DUP3 SWAP2 POP DUP4 SWAP1 POP JUMPDEST PUSH1 0x1 DUP6 GT ISZERO PUSH2 0x20F4 JUMPI DUP1 DUP7 DIV DUP2 GT ISZERO PUSH2 0x20D0 JUMPI PUSH2 0x20CF PUSH2 0x1F06 JUMP JUMPDEST JUMPDEST PUSH1 0x1 DUP6 AND ISZERO PUSH2 0x20DF JUMPI DUP1 DUP3 MUL SWAP2 POP JUMPDEST DUP1 DUP2 MUL SWAP1 POP PUSH2 0x20ED DUP6 PUSH2 0x209F JUMP JUMPDEST SWAP5 POP PUSH2 0x20B4 JUMP JUMPDEST SWAP5 POP SWAP5 SWAP3 POP POP POP JUMP JUMPDEST PUSH0 DUP3 PUSH2 0x210C JUMPI PUSH1 0x1 SWAP1 POP PUSH2 0x21C7 JUMP JUMPDEST DUP2 PUSH2 0x2119 JUMPI PUSH0 SWAP1 POP PUSH2 0x21C7 JUMP JUMPDEST DUP2 PUSH1 0x1 DUP2 EQ PUSH2 0x212F JUMPI PUSH1 0x2 DUP2 EQ PUSH2 0x2139 JUMPI PUSH2 0x2168 JUMP JUMPDEST PUSH1 0x1 SWAP2 POP POP PUSH2 0x21C7 JUMP JUMPDEST PUSH1 0xFF DUP5 GT ISZERO PUSH2 0x214B JUMPI PUSH2 0x214A PUSH2 0x1F06 JUMP JUMPDEST JUMPDEST DUP4 PUSH1 0x2 EXP SWAP2 POP DUP5 DUP3 GT ISZERO PUSH2 0x2162 JUMPI PUSH2 0x2161 PUSH2 0x1F06 JUMP JUMPDEST JUMPDEST POP PUSH2 0x21C7 JUMP JUMPDEST POP PUSH1 0x20 DUP4 LT PUSH2 0x133 DUP4 LT AND PUSH1 0x4E DUP5 LT PUSH1 0xB DUP5 LT AND OR ISZERO PUSH2 0x219D JUMPI DUP3 DUP3 EXP SWAP1 POP DUP4 DUP2 GT ISZERO PUSH2 0x2198 JUMPI PUSH2 0x2197 PUSH2 0x1F06 JUMP JUMPDEST JUMPDEST PUSH2 0x21C7 JUMP JUMPDEST PUSH2 0x21AA DUP5 DUP5 DUP5 PUSH1 0x1 PUSH2 0x20AB JUMP JUMPDEST SWAP3 POP SWAP1 POP DUP2 DUP5 DIV DUP2 GT ISZERO PUSH2 0x21C1 JUMPI PUSH2 0x21C0 PUSH2 0x1F06 JUMP JUMPDEST JUMPDEST DUP2 DUP2 MUL SWAP1 POP JUMPDEST SWAP4 SWAP3 POP POP POP JUMP JUMPDEST PUSH0 PUSH2 0x21D8 DUP3 PUSH2 0x1A6E JUMP JUMPDEST SWAP2 POP PUSH2 0x21E3 DUP4 PUSH2 0x1CA3 JUMP JUMPDEST SWAP3 POP PUSH2 0x2210 PUSH32 0xFFFFFFFFFFFFFFFFFFFFFFFFFFFFFFFFFFFFFFFFFFFFFFFFFFFFFFFFFFFFFFFF DUP5 DUP5 PUSH2 0x20FD JUMP JUMPDEST SWAP1 POP SWAP3 SWAP2 POP POP JUMP JUMPDEST PUSH0 PUSH2 0x2222 DUP3 PUSH2 0x1A6E JUMP JUMPDEST SWAP2 POP PUSH2 0x222D DUP4 PUSH2 0x1A6E JUMP JUMPDEST SWAP3 POP DUP3 DUP3 SUB SWAP1 POP DUP2 DUP2 GT ISZERO PUSH2 0x2245 JUMPI PUSH2 0x2244 PUSH2 0x1F06 JUMP JUMPDEST JUMPDEST SWAP3 SWAP2 POP POP JUMP JUMPDEST PUSH0 PUSH1 0x40 DUP3 ADD SWAP1 POP PUSH2 0x225E PUSH0 DUP4 ADD DUP6 PUSH2 0x1A77 JUMP JUMPDEST PUSH2 0x226B PUSH1 0x20 DUP4 ADD DUP5 PUSH2 0x1A77 JUMP JUMPDEST SWAP4 SWAP3 POP POP POP JUMP JUMPDEST PUSH32 0x4E487B7100000000000000000000000000000000000000000000000000000000 PUSH0 MSTORE PUSH1 0x12 PUSH1 0x4 MSTORE PUSH1 0x24 PUSH0 REVERT JUMPDEST PUSH0 PUSH1 0x40 DUP3 ADD SWAP1 POP PUSH2 0x22B2 PUSH0 DUP4 ADD DUP6 PUSH2 0x1CD7 JUMP JUMPDEST PUSH2 0x22BF PUSH1 0x20 DUP4 ADD DUP5 PUSH2 0x1A77 JUMP JUMPDEST SWAP4 SWAP3 POP POP POP JUMP JUMPDEST PUSH32 0x4E487B7100000000000000000000000000000000000000000000000000000000 PUSH0 MSTORE PUSH1 0x21 PUSH1 0x4 MSTORE PUSH1 0x24 PUSH0 REVERT JUMPDEST PUSH0 PUSH2 0x22FD DUP3 PUSH2 0x1CA3 JUMP JUMPDEST SWAP2 POP PUSH2 0x2308 DUP4 PUSH2 0x1CA3 JUMP JUMPDEST SWAP3 POP DUP3 PUSH2 0x2318 JUMPI PUSH2 0x2317 PUSH2 0x2272 JUMP JUMPDEST JUMPDEST DUP3 DUP3 MOD SWAP1 POP SWAP3 SWAP2 POP POP JUMP JUMPDEST PUSH2 0x232C DUP2 PUSH2 0x1C20 JUMP JUMPDEST DUP2 EQ PUSH2 0x2336 JUMPI PUSH0 DUP1 REVERT JUMPDEST POP JUMP JUMPDEST PUSH0 DUP2 MLOAD SWAP1 POP PUSH2 0x2347 DUP2 PUSH2 0x2323 JUMP JUMPDEST SWAP3 SWAP2 POP POP JUMP JUMPDEST PUSH0 PUSH1 0x20 DUP3 DUP5 SUB SLT ISZERO PUSH2 0x2362 JUMPI PUSH2 0x2361 PUSH2 0x1B2F JUMP JUMPDEST JUMPDEST PUSH0 PUSH2 0x236F DUP5 DUP3 DUP6 ADD PUSH2 0x2339 JUMP JUMPDEST SWAP2 POP POP SWAP3 SWAP2 POP POP JUMP JUMPDEST PUSH0 DUP2 MLOAD SWAP1 POP SWAP2 SWAP1 POP JUMP JUMPDEST PUSH0 DUP2 SWAP1 POP SWAP3 SWAP2 POP POP JUMP JUMPDEST PUSH0 PUSH2 0x2396 DUP3 PUSH2 0x2378 JUMP JUMPDEST PUSH2 0x23A0 DUP2 DUP6 PUSH2 0x2382 JUMP JUMPDEST SWAP4 POP PUSH2 0x23B0 DUP2 DUP6 PUSH1 0x20 DUP7 ADD PUSH2 0x1AB9 JUMP JUMPDEST DUP1 DUP5 ADD SWAP2 POP POP SWAP3 SWAP2 POP POP JUMP JUMPDEST PUSH0 PUSH2 0x23C7 DUP3 DUP5 PUSH2 0x238C JUMP JUMPDEST SWAP2 POP DUP2 SWAP1 POP SWAP3 SWAP2 POP POP JUMP INVALID LOG2 PUSH5 0x6970667358 0x22 SLT KECCAK256 SUB PUSH4 0x4230A2AE SHL 0x2E DUP11 SAR 0xC9 NUMBER 0x25 0x23 0xAE TLOAD BASEFEE PUSH20 0x4F5090AC093502859B70F72CF95564736F6C6343 STOP ADDMOD NOT STOP CALLER "
		},
		"gasEstimates": {
			"creation": {
				"codeDepositCost": "1844800",
				"executionCost": "infinite",
				"totalCost": "infinite"
			},
			"external": {
				"allowance(address,address)": "infinite",
				"approve(address,uint256)": "infinite",
				"asset()": "infinite",
				"balanceOf(address)": "2940",
				"convertToAssets(uint256)": "infinite",
				"convertToShares(uint256)": "infinite",
				"decimals()": "infinite",
				"deposit(uint256,address)": "infinite",
				"maxDeposit(address)": "686",
				"maxMint(address)": "708",
				"maxRedeem(address)": "2937",
				"maxWithdraw(address)": "infinite",
				"mint(uint256,address)": "699",
				"name()": "infinite",
				"previewDeposit(uint256)": "infinite",
				"previewMint(uint256)": "infinite",
				"previewRedeem(uint256)": "infinite",
				"previewWithdraw(uint256)": "infinite",
				"redeem(uint256,address,address)": "infinite",
				"satoken()": "infinite",
				"symbol()": "infinite",
				"totalAssets()": "infinite",
				"totalSupply()": "2566",
				"transfer(address,uint256)": "infinite",
				"transferFrom(address,address,uint256)": "infinite",
				"withdraw(uint256,address,address)": "infinite"
			},
			"internal": {
				"_convertToShares(uint256,enum Math.Rounding)": "infinite"
			}
		},
		"methodIdentifiers": {
			"allowance(address,address)": "dd62ed3e",
			"approve(address,uint256)": "095ea7b3",
			"asset()": "38d52e0f",
			"balanceOf(address)": "70a08231",
			"convertToAssets(uint256)": "07a2d13a",
			"convertToShares(uint256)": "c6e6f592",
			"decimals()": "313ce567",
			"deposit(uint256,address)": "6e553f65",
			"maxDeposit(address)": "402d267d",
			"maxMint(address)": "c63d75b6",
			"maxRedeem(address)": "d905777e",
			"maxWithdraw(address)": "ce96cb77",
			"mint(uint256,address)": "94bf804d",
			"name()": "06fdde03",
			"previewDeposit(uint256)": "ef8b30f7",
			"previewMint(uint256)": "b3d7f6b9",
			"previewRedeem(uint256)": "4cdad506",
			"previewWithdraw(uint256)": "0a28a477",
			"redeem(uint256,address,address)": "ba087652",
			"satoken()": "866c99e2",
			"symbol()": "95d89b41",
			"totalAssets()": "01e1d114",
			"totalSupply()": "18160ddd",
			"transfer(address,uint256)": "a9059cbb",
			"transferFrom(address,address,uint256)": "23b872dd",
			"withdraw(uint256,address,address)": "b460af94"
		}
	},
	"abi": [
		{
			"inputs": [
				{
					"internalType": "address",
					"name": "_satoken",
					"type": "address"
				}
			],
			"stateMutability": "nonpayable",
			"type": "constructor"
		},
		{
			"inputs": [
				{
					"internalType": "address",
					"name": "target",
					"type": "address"
				}
			],
			"name": "AddressEmptyCode",
			"type": "error"
		},
		{
			"inputs": [
				{
					"internalType": "address",
					"name": "account",
					"type": "address"
				}
			],
			"name": "AddressInsufficientBalance",
			"type": "error"
		},
		{
			"inputs": [],
			"name": "DEPRECATED_FUNCTION",
			"type": "error"
		},
		{
			"inputs": [
				{
					"internalType": "address",
					"name": "spender",
					"type": "address"
				},
				{
					"internalType": "uint256",
					"name": "allowance",
					"type": "uint256"
				},
				{
					"internalType": "uint256",
					"name": "needed",
					"type": "uint256"
				}
			],
			"name": "ERC20InsufficientAllowance",
			"type": "error"
		},
		{
			"inputs": [
				{
					"internalType": "address",
					"name": "sender",
					"type": "address"
				},
				{
					"internalType": "uint256",
					"name": "balance",
					"type": "uint256"
				},
				{
					"internalType": "uint256",
					"name": "needed",
					"type": "uint256"
				}
			],
			"name": "ERC20InsufficientBalance",
			"type": "error"
		},
		{
			"inputs": [
				{
					"internalType": "address",
					"name": "approver",
					"type": "address"
				}
			],
			"name": "ERC20InvalidApprover",
			"type": "error"
		},
		{
			"inputs": [
				{
					"internalType": "address",
					"name": "receiver",
					"type": "address"
				}
			],
			"name": "ERC20InvalidReceiver",
			"type": "error"
		},
		{
			"inputs": [
				{
					"internalType": "address",
					"name": "sender",
					"type": "address"
				}
			],
			"name": "ERC20InvalidSender",
			"type": "error"
		},
		{
			"inputs": [
				{
					"internalType": "address",
					"name": "spender",
					"type": "address"
				}
			],
			"name": "ERC20InvalidSpender",
			"type": "error"
		},
		{
			"inputs": [
				{
					"internalType": "address",
					"name": "receiver",
					"type": "address"
				},
				{
					"internalType": "uint256",
					"name": "assets",
					"type": "uint256"
				},
				{
					"internalType": "uint256",
					"name": "max",
					"type": "uint256"
				}
			],
			"name": "ERC4626ExceededMaxDeposit",
			"type": "error"
		},
		{
			"inputs": [
				{
					"internalType": "address",
					"name": "receiver",
					"type": "address"
				},
				{
					"internalType": "uint256",
					"name": "shares",
					"type": "uint256"
				},
				{
					"internalType": "uint256",
					"name": "max",
					"type": "uint256"
				}
			],
			"name": "ERC4626ExceededMaxMint",
			"type": "error"
		},
		{
			"inputs": [
				{
					"internalType": "address",
					"name": "owner",
					"type": "address"
				},
				{
					"internalType": "uint256",
					"name": "shares",
					"type": "uint256"
				},
				{
					"internalType": "uint256",
					"name": "max",
					"type": "uint256"
				}
			],
			"name": "ERC4626ExceededMaxRedeem",
			"type": "error"
		},
		{
			"inputs": [
				{
					"internalType": "address",
					"name": "owner",
					"type": "address"
				},
				{
					"internalType": "uint256",
					"name": "assets",
					"type": "uint256"
				},
				{
					"internalType": "uint256",
					"name": "max",
					"type": "uint256"
				}
			],
			"name": "ERC4626ExceededMaxWithdraw",
			"type": "error"
		},
		{
			"inputs": [],
			"name": "FailedInnerCall",
			"type": "error"
		},
		{
			"inputs": [],
			"name": "MathOverflowedMulDiv",
			"type": "error"
		},
		{
			"inputs": [
				{
					"internalType": "address",
					"name": "token",
					"type": "address"
				}
			],
			"name": "SafeERC20FailedOperation",
			"type": "error"
		},
		{
			"anonymous": false,
			"inputs": [
				{
					"indexed": true,
					"internalType": "address",
					"name": "owner",
					"type": "address"
				},
				{
					"indexed": true,
					"internalType": "address",
					"name": "spender",
					"type": "address"
				},
				{
					"indexed": false,
					"internalType": "uint256",
					"name": "value",
					"type": "uint256"
				}
			],
			"name": "Approval",
			"type": "event"
		},
		{
			"anonymous": false,
			"inputs": [
				{
					"indexed": true,
					"internalType": "address",
					"name": "sender",
					"type": "address"
				},
				{
					"indexed": true,
					"internalType": "address",
					"name": "owner",
					"type": "address"
				},
				{
					"indexed": false,
					"internalType": "uint256",
					"name": "assets",
					"type": "uint256"
				},
				{
					"indexed": false,
					"internalType": "uint256",
					"name": "shares",
					"type": "uint256"
				}
			],
			"name": "Deposit",
			"type": "event"
		},
		{
			"anonymous": false,
			"inputs": [
				{
					"indexed": true,
					"internalType": "address",
					"name": "from",
					"type": "address"
				},
				{
					"indexed": true,
					"internalType": "address",
					"name": "to",
					"type": "address"
				},
				{
					"indexed": false,
					"internalType": "uint256",
					"name": "value",
					"type": "uint256"
				}
			],
			"name": "Transfer",
			"type": "event"
		},
		{
			"anonymous": false,
			"inputs": [
				{
					"indexed": true,
					"internalType": "address",
					"name": "sender",
					"type": "address"
				},
				{
					"indexed": true,
					"internalType": "address",
					"name": "receiver",
					"type": "address"
				},
				{
					"indexed": true,
					"internalType": "address",
					"name": "owner",
					"type": "address"
				},
				{
					"indexed": false,
					"internalType": "uint256",
					"name": "assets",
					"type": "uint256"
				},
				{
					"indexed": false,
					"internalType": "uint256",
					"name": "shares",
					"type": "uint256"
				}
			],
			"name": "Withdraw",
			"type": "event"
		},
		{
			"inputs": [
				{
					"internalType": "address",
					"name": "owner",
					"type": "address"
				},
				{
					"internalType": "address",
					"name": "spender",
					"type": "address"
				}
			],
			"name": "allowance",
			"outputs": [
				{
					"internalType": "uint256",
					"name": "",
					"type": "uint256"
				}
			],
			"stateMutability": "view",
			"type": "function"
		},
		{
			"inputs": [
				{
					"internalType": "address",
					"name": "spender",
					"type": "address"
				},
				{
					"internalType": "uint256",
					"name": "value",
					"type": "uint256"
				}
			],
			"name": "approve",
			"outputs": [
				{
					"internalType": "bool",
					"name": "",
					"type": "bool"
				}
			],
			"stateMutability": "nonpayable",
			"type": "function"
		},
		{
			"inputs": [],
			"name": "asset",
			"outputs": [
				{
					"internalType": "address",
					"name": "",
					"type": "address"
				}
			],
			"stateMutability": "view",
			"type": "function"
		},
		{
			"inputs": [
				{
					"internalType": "address",
					"name": "account",
					"type": "address"
				}
			],
			"name": "balanceOf",
			"outputs": [
				{
					"internalType": "uint256",
					"name": "",
					"type": "uint256"
				}
			],
			"stateMutability": "view",
			"type": "function"
		},
		{
			"inputs": [
				{
					"internalType": "uint256",
					"name": "shares",
					"type": "uint256"
				}
			],
			"name": "convertToAssets",
			"outputs": [
				{
					"internalType": "uint256",
					"name": "",
					"type": "uint256"
				}
			],
			"stateMutability": "view",
			"type": "function"
		},
		{
			"inputs": [
				{
					"internalType": "uint256",
					"name": "assets",
					"type": "uint256"
				}
			],
			"name": "convertToShares",
			"outputs": [
				{
					"internalType": "uint256",
					"name": "",
					"type": "uint256"
				}
			],
			"stateMutability": "view",
			"type": "function"
		},
		{
			"inputs": [],
			"name": "decimals",
			"outputs": [
				{
					"internalType": "uint8",
					"name": "",
					"type": "uint8"
				}
			],
			"stateMutability": "view",
			"type": "function"
		},
		{
			"inputs": [
				{
					"internalType": "uint256",
					"name": "assets",
					"type": "uint256"
				},
				{
					"internalType": "address",
					"name": "receiver",
					"type": "address"
				}
			],
			"name": "deposit",
			"outputs": [
				{
					"internalType": "uint256",
					"name": "",
					"type": "uint256"
				}
			],
			"stateMutability": "nonpayable",
			"type": "function"
		},
		{
			"inputs": [
				{
					"internalType": "address",
					"name": "",
					"type": "address"
				}
			],
			"name": "maxDeposit",
			"outputs": [
				{
					"internalType": "uint256",
					"name": "",
					"type": "uint256"
				}
			],
			"stateMutability": "view",
			"type": "function"
		},
		{
			"inputs": [
				{
					"internalType": "address",
					"name": "",
					"type": "address"
				}
			],
			"name": "maxMint",
			"outputs": [
				{
					"internalType": "uint256",
					"name": "",
					"type": "uint256"
				}
			],
			"stateMutability": "view",
			"type": "function"
		},
		{
			"inputs": [
				{
					"internalType": "address",
					"name": "owner",
					"type": "address"
				}
			],
			"name": "maxRedeem",
			"outputs": [
				{
					"internalType": "uint256",
					"name": "",
					"type": "uint256"
				}
			],
			"stateMutability": "view",
			"type": "function"
		},
		{
			"inputs": [
				{
					"internalType": "address",
					"name": "owner",
					"type": "address"
				}
			],
			"name": "maxWithdraw",
			"outputs": [
				{
					"internalType": "uint256",
					"name": "",
					"type": "uint256"
				}
			],
			"stateMutability": "view",
			"type": "function"
		},
		{
			"inputs": [
				{
					"internalType": "uint256",
					"name": "shares",
					"type": "uint256"
				},
				{
					"internalType": "address",
					"name": "receiver",
					"type": "address"
				}
			],
			"name": "mint",
			"outputs": [
				{
					"internalType": "uint256",
					"name": "",
					"type": "uint256"
				}
			],
			"stateMutability": "nonpayable",
			"type": "function"
		},
		{
			"inputs": [],
			"name": "name",
			"outputs": [
				{
					"internalType": "string",
					"name": "",
					"type": "string"
				}
			],
			"stateMutability": "view",
			"type": "function"
		},
		{
			"inputs": [
				{
					"internalType": "uint256",
					"name": "assets",
					"type": "uint256"
				}
			],
			"name": "previewDeposit",
			"outputs": [
				{
					"internalType": "uint256",
					"name": "",
					"type": "uint256"
				}
			],
			"stateMutability": "view",
			"type": "function"
		},
		{
			"inputs": [
				{
					"internalType": "uint256",
					"name": "shares",
					"type": "uint256"
				}
			],
			"name": "previewMint",
			"outputs": [
				{
					"internalType": "uint256",
					"name": "",
					"type": "uint256"
				}
			],
			"stateMutability": "view",
			"type": "function"
		},
		{
			"inputs": [
				{
					"internalType": "uint256",
					"name": "shares",
					"type": "uint256"
				}
			],
			"name": "previewRedeem",
			"outputs": [
				{
					"internalType": "uint256",
					"name": "",
					"type": "uint256"
				}
			],
			"stateMutability": "view",
			"type": "function"
		},
		{
			"inputs": [
				{
					"internalType": "uint256",
					"name": "assets",
					"type": "uint256"
				}
			],
			"name": "previewWithdraw",
			"outputs": [
				{
					"internalType": "uint256",
					"name": "",
					"type": "uint256"
				}
			],
			"stateMutability": "view",
			"type": "function"
		},
		{
			"inputs": [
				{
					"internalType": "uint256",
					"name": "shares",
					"type": "uint256"
				},
				{
					"internalType": "address",
					"name": "receiver",
					"type": "address"
				},
				{
					"internalType": "address",
					"name": "owner",
					"type": "address"
				}
			],
			"name": "redeem",
			"outputs": [
				{
					"internalType": "uint256",
					"name": "",
					"type": "uint256"
				}
			],
			"stateMutability": "nonpayable",
			"type": "function"
		},
		{
			"inputs": [],
			"name": "satoken",
			"outputs": [
				{
					"internalType": "contract IERC20",
					"name": "",
					"type": "address"
				}
			],
			"stateMutability": "view",
			"type": "function"
		},
		{
			"inputs": [],
			"name": "symbol",
			"outputs": [
				{
					"internalType": "string",
					"name": "",
					"type": "string"
				}
			],
			"stateMutability": "view",
			"type": "function"
		},
		{
			"inputs": [],
			"name": "totalAssets",
			"outputs": [
				{
					"internalType": "uint256",
					"name": "",
					"type": "uint256"
				}
			],
			"stateMutability": "view",
			"type": "function"
		},
		{
			"inputs": [],
			"name": "totalSupply",
			"outputs": [
				{
					"internalType": "uint256",
					"name": "",
					"type": "uint256"
				}
			],
			"stateMutability": "view",
			"type": "function"
		},
		{
			"inputs": [
				{
					"internalType": "address",
					"name": "to",
					"type": "address"
				},
				{
					"internalType": "uint256",
					"name": "value",
					"type": "uint256"
				}
			],
			"name": "transfer",
			"outputs": [
				{
					"internalType": "bool",
					"name": "",
					"type": "bool"
				}
			],
			"stateMutability": "nonpayable",
			"type": "function"
		},
		{
			"inputs": [
				{
					"internalType": "address",
					"name": "from",
					"type": "address"
				},
				{
					"internalType": "address",
					"name": "to",
					"type": "address"
				},
				{
					"internalType": "uint256",
					"name": "value",
					"type": "uint256"
				}
			],
			"name": "transferFrom",
			"outputs": [
				{
					"internalType": "bool",
					"name": "",
					"type": "bool"
				}
			],
			"stateMutability": "nonpayable",
			"type": "function"
		},
		{
			"inputs": [
				{
					"internalType": "uint256",
					"name": "assets",
					"type": "uint256"
				},
				{
					"internalType": "address",
					"name": "receiver",
					"type": "address"
				},
				{
					"internalType": "address",
					"name": "owner",
					"type": "address"
				}
			],
			"name": "withdraw",
			"outputs": [
				{
					"internalType": "uint256",
					"name": "",
					"type": "uint256"
				}
			],
			"stateMutability": "nonpayable",
			"type": "function"
		}
	]
}